:100000000C943A000C9462000C9462000C94620010
:100010000C9462000C9462000C9462000C946200D8
:100020000C9462000C9462000C9462000C946200C8
:100030000C9462000C9462000C9462000C946200B8
:100040000C94F2150C9462000C942F010C945E0138
:100050000C948D010C9462000C9462000C9462006C
:100060000C94E1020C94620027024104F906400856
:10007000A3137B0711241FBECFEFD8E0DEBFCDBF97
:1000800013E0A0E0B1E0E2ECF5E502C005900D92CE
:10009000AA35B107D9F727E0AAE5B3E001C01D9260
:1000A000A434B207E1F710E0C9E3D0E004C021971F
:1000B000FE010E94BC25C433D107C9F70E94CF01BD
:1000C0000C94D42A0C940000CF93DF93D92FC82F1F
:1000D0000992199229923992499259926992799288
:1000E00089929992A992B992C992D992E992F99278
:1000F0000993199329933993499359936993799360
:1001000089939993A993B993BF91AF91A993B99307
:10011000E993F9930F900F910F90099209930DB6FF
:1001200009920EB609920FB60992D72FC62F0CA0CE
:100130000FBE0AA00DBE0BA00EBE08A00F9209A014
:100140000F9200E00F9309901990299039904990EF
:1001500059906990799089909990A990B990C99097
:10016000D990E990F9900991199129913991499182
:1001700059916991799189919991A991B991AF9387
:10018000BF93A991B991E991F991CA2FDB2FBF9142
:10019000AF910895D92FC82F0CA00FBE0AA00DBE95
:1001A0000BA00EBE08A00F9209A00F920990199003
:1001B00029903990499059906990799089909990B7
:1001C000A990B990C990D990E990F99009911991A5
:1001D000299139914991599169917991899199918F
:1001E000A991B991AF93BF93A991B991E991F9916F
:1001F000CA2FDB2FBF91AF910895CF93DF93D92FF3
:10020000C82F09921992299239924992599269926A
:10021000799289929992A992B992C992D992E992C6
:10022000F9920993199329933993499359936993AF
:10023000799389939993A993B993BF91AF91A99316
:10024000B993E993F9930F910F90099209930DB621
:1002500009920EB609920FB609920C94A11D1F9235
:100260000F920FB60F9211242F933F934F935F93EA
:100270006F937F938F939F93AF93BF93EF93FF936E
:10028000A6E0B1E01296ED91FC91139760E070E06A
:1002900014968D919C9115970995FF91EF91BF91BF
:1002A000AF919F918F917F916F915F914F913F910E
:1002B0002F910F900FBE0F901F9018951F920F92C5
:1002C0000FB60F9211242F933F934F935F936F9329
:1002D0007F938F939F93AF93BF93EF93FF93A6E08A
:1002E000B1E01296ED91FC91139761E070E01496E5
:1002F0008D919C9115970995FF91EF91BF91AF91C9
:100300009F918F917F916F915F914F913F912F912D
:100310000F900FBE0F901F9018951F920F920FB65F
:100320000F9211242F933F934F935F936F937F937B
:100330008F939F93AF93BF93EF93FF93A6E0B1E0AA
:100340001296ED91FC91139762E070E014968D91F6
:100350009C9115970995FF91EF91BF91AF919F9156
:100360008F917F916F915F914F913F912F910F905E
:100370000FBE0F901F9018950E949F1669017A0179
:100380008B01D82FC92F0E94DE0E9601A701B8015C
:100390008D2F9C2F0E9408250E94CA1BEDCF0E9422
:1003A000321F0E94521B0E94A5067894EE24E3940B
:1003B00008E02EE640E052EC61E070E080EC90E076
:1003C0000E94CA1E20E031E040E050E060E270E0B0
:1003D00083E290E00E945B1E20E031E040E050E0CC
:1003E00062E070E083E290E00E945B1E20E031E07A
:1003F00040E050E064E070E083E290E00E945B1E29
:100400000E9419020E943D040E94BC0160E270E05B
:1004100083E290E00E94571E41E0811140E060E2DB
:1004200070E083E290E00E944B1E84E690E00C9422
:10043000651C20E031E040E050E060E270E083E2E3
:1004400090E00E945B1E8AE593E00C947D1B40E0E7
:1004500050E066E072E08AE593E00C94081DDC0150
:10046000ED91FC910190F081E02D40E050E0BA0167
:100470000994CF92DF92EF92FF92CF93DF93EC013A
:10048000CE84DF84E888F988A7019601FB016081AA
:100490007181828193810E947B262A813B814C81DC
:1004A0005D810E94F128A70196010E947C266E873B
:1004B0007F87888B998BDF91CF91FF90EF90DF90B2
:1004C000CF900895CF92DF92EF92FF92CF93DF9378
:1004D000EC016A017B018D81882321F0F7FAF09409
:1004E000F7F8F09420E030E0A901C701B6010E94BE
:1004F000E82681110CC064E08A819B810E94BE17AE
:1005000060E08A819B810E94EB1784E052C020E06A
:1005100030E0A901C701B6010E94EC28181604F5C5
:100520008C81823029F464E08A819B810E94BE170D
:1005300020E030E04FE753E4C701B6010E94F12804
:100540000E945F278A819B810E94EB178C818130FA
:1005500029F061E08A819B810E94BE1781E029C059
:1005600020E030E0A901C701B6010E94E82687FF1C
:1005700021C08C81813029F464E08A819B810E94B2
:10058000BE17C701B601905820E030E04FE753E4B2
:100590000E94F1280E945F278A819B810E94EB17AD
:1005A0008C81823029F062E08A819B810E94BE1793
:1005B00082E08C83DF91CF91FF90EF90DF90CF901E
:1005C00008951F920F920FB60F9211242F933F930D
:1005D0004F935F936F937F938F939F93AF93BF934B
:1005E000EF93FF938EE091E00E943420FF91EF9112
:1005F000BF91AF919F918F917F916F915F914F913B
:100600003F912F910F900FBE0F901F9018958F92D2
:100610009F92AF92BF92CF92DF92EF92FF92CF93D1
:10062000DF934B015C0169017A01C2EBD3E0EC85F9
:10063000FD850190F081E02DAB01BC018EEB93E0D4
:100640000995B501A401CE010E946202EA89FB89E5
:100650000190F081E02DB701A60184EC93E00995AB
:10066000EE81FF810190F081E02DB701A60188EBBA
:1006700093E0DF91CF91FF90EF90DF90CF90BF900C
:10068000AF909F908F900994CF93DF93CDB7DEB753
:100690002A970FB6F894DEBF0FBECDBF40EA56E8EA
:1006A00061E070E08EE091E00E940F200E942E2019
:1006B00040E456E06EE071E084E994E00E94CE16DA
:1006C00061E084E994E00E9419179093C10380933C
:1006D000C00362E084E994E00E9419179093C70375
:1006E0008093C60363E084E994E00E941917909315
:1006F000BB038093BA0364E084E994E00E94191775
:100700009093B5038093B4030E949F1659016A0128
:100710007B018C010E949F162A873987342E252E53
:1007200069837A838B839C8380919304882309F463
:1007300080C0432D522D8B810E944E260E948E2711
:100740002FE632E143E85AE30E94F1284B015C01B5
:10075000C0909C03D0909D03E0909E03F0909F0377
:10076000A70196016091CA037091CB038091CC03DD
:100770009091CD030E947B262B013C012091940394
:10078000309195034091960350919703C501B401B0
:100790000E94ED269B01AC01C301B2010E94F12829
:1007A000A70196010E947C262B013C0160939C03CB
:1007B00070939D0380939E0390939F03C090AE031C
:1007C000D090AF03E090B003F090B103A701960181
:1007D0006091CE037091CF038091D0039091D103AB
:1007E0000E947B266D837E838F8398872091A6034A
:1007F0003091A7034091A8035091A903C501B4010A
:100800000E94ED269B01AC016D817E818F819885D0
:100810000E94F128A70196010E947C266093AE03F6
:100820007093AF038093B0039093B103A30192013F
:1008300015C01092AE031092AF031092B003109245
:10084000B10310929C0310929D0310929E0310928C
:100850009F0320E030E0A901CA01B9010E9407030B
:100860008AE090E00E94651CAA84B984C32CD22C33
:10087000E980FA800B811C814DCF82ED93E00C94CE
:100880007D1BCF92DF92EF92FF920F931F9360E652
:1008900084E994E00E94751704E610E02FE234E04A
:1008A00040E050E064E473E082ED93E00E94451D77
:1008B000E2EBF3E028EA31E03183208384E08483B3
:1008C0001582378326838287138635872487808B1A
:1008D000118A338B228B868B178AE0EAF3E022EAB7
:1008E00031E03183208316861786108A118AC12C45
:1008F000D12C80EAE82E80E4F82EC282D382E482F2
:10090000F5824AE057ED63E27CE3468357836087D4
:10091000718780E090E0A8ECB2E482879387A48797
:10092000B587EEE8F3E03183208316861786108AB8
:10093000118AC282D382E482F5824683578360871C
:10094000718782879387A487B5871F910F91FF9046
:10095000EF90DF90CF9008958FEF9FEF08958CEA8E
:1009600091E00895CA0161EB71E00E94CA2A80E01B
:1009700090E00895CF93DF93FC01838D948D0097D1
:1009800029F0EF010E94CF071C8E1B8EDF91CF91C3
:10099000089529EF31E0FC01318320830C94781312
:1009A000CF93DF93EC010E94C904CE01DF91CF9178
:1009B0000C94F62927E032E0FC01318320830C946B
:1009C000C904CF93DF93EC010E94DA04CE01DF91DA
:1009D000CF910C94F629CF93DF93EB016FEF7FEF6C
:1009E0000E94C513CE01DF91CF910C948909CB01F0
:1009F0000C948909E0912A01F0912B010190F0817A
:100A0000E02D21E08AE291E009948F929F92AF92CB
:100A1000CF92DF92EF920F931F93CF93DF9300D08B
:100A200000D0CDB7DEB785EC91E09A83898389E069
:100A300090E09C838B8383EF96E00E942112AB01B0
:100A4000BC01812C912CA12CC12CD12CE12C8E012C
:100A50000F5F1F4F23E030E080E396E00E942614F2
:100A600088EE93E00E94651C0F900F900F900F90FE
:100A7000DF91CF911F910F91EF90DF90CF90AF90CA
:100A80009F908F900895CF93DF93EC0189EE91E0D2
:100A9000998388830E944508AA81BB81EC81FD81EE
:100AA0001396FC93EE931297B183A0838EED90EC96
:100AB0009B838A838EED99EC9D838C83DF91CF910C
:100AC0000C945908CF93DF93EC0185E192E0998370
:100AD0008883CE010E94BA04CE01DF91CF910C949D
:100AE0004305CF93DF93EC010E946205CE01DF91B5
:100AF000CF910C94F629CF93DF93EC010E9443052C
:100B0000CE01DF91CF910C94F629CF93DF93EC01C6
:100B1000898D9A8D0E9408089C8F8B8F498D5A8DE4
:100B2000BC01605F7F4FCE014D96DF91CF910C9459
:100B30005123EF92FF920F931F93CF93DF931F9256
:100B4000CDB7DEB7E0912A01F0912B010480F58149
:100B5000E02D8AE291E00995892BB9F1E0912A0113
:100B6000F0912B010280F381E02D20E041E050E084
:100B7000BE016F5F7F4F8AE291E009951981612F75
:100B800085E796E00E945E237C01812F0E94760813
:100B9000EA94EF28D1F40091730610917406109234
:100BA00074061092730660915E06C8010E94D70811
:100BB00068E576E0C8010E948B0860E0C8010E94E9
:100BC000040D88E596E00E948505E0912A01F091E8
:100BD0002B010280F381E02D22E040E050E060E054
:100BE00070E08AE291E009950F90DF91CF911F911B
:100BF0000F91FF90EF900895CF93DF93EC016D89F3
:100C00007E894F89588D461B570BEFA1F8A589A502
:100C10009AA509952D893E89820F931F9E8B8D8BF6
:100C20002F89388D82179307A1F40E94450860E050
:100C300089899A890E94570E1A8A198A1E8A1D8AE2
:100C4000188E1F8A0E945908CE01DF91CF910C9413
:100C50003706DF91CF910895FC0145895689278990
:100C6000308D4217530711F00C94FC050895CF9373
:100C7000DF93DC011D96ED91FC911E979C01235F93
:100C80003F4FE217F30741F1EC01FA8BE98B8081CA
:100C9000918122813381DC0113963C932E9312972C
:100CA000D9018D939C93F383E283F183E0834B8995
:100CB0005C8961897289CF0140960E94EB222B8961
:100CC0003C893E8B2D8B820F931F988F8F8BCE018B
:100CD000DF91CF910C94FC05DF91CF9108950F9394
:100CE0001F93CF93DF938C01EB010E944508A881ED
:100CF000B981EA81FB811396FC93EE931297B1833D
:100D0000A083D8011D96ED91FC911E97C8010D9608
:100D10009B838A83F983E883D383C2831E96DC9303
:100D2000CE931D970E945908F80181899289892BD9
:100D300039F4C801DF91CF911F910F910C943706C0
:100D4000DF91CF911F910F910895CF93DF9340E5ED
:100D500050E060EA70E080E495E00E94920760E075
:100D600081E00E948409C8E5D6E080EE95E09C8B86
:100D70008B8B80E590E09A8F898F8AEF94E098A71B
:100D80008FA31AA619A6CE010E9485051A8A198A70
:100D90001E8A1D8A188E1F8A61E070E0CE010E94B3
:100DA0003510E0E3F6E011A210A282EB94E093A3E9
:100DB00082A315A214A280E290E097A386A30E94CA
:100DC00045086AE270E080E396E00E945F130E94AB
:100DD000590860E070E08AE291E00E94C62288E053
:100DE00095E00E947D1B84ED94E0DF91CF910C94FF
:100DF0007D1BCF93DF9300D000D0CDB7DEB78FEC53
:100E000091E09A83898385E190E09C838B83BE0186
:100E10006F5F7F4F83EF96E00E94E311E8E5F6E015
:100E20008AE596E0958384839383828385E192E0CB
:100E30009183808385E696E096878587908B878768
:100E4000128A118A148A138A168A158A108E178AB2
:100E500080E390E0928F818F148E138EE0E3F6E0B2
:100E600082E396E0938382839583848386E396E08E
:100E700097838683918780871386128615861486CA
:100E80001786168683E090E0958B848B22E030E015
:100E9000378B268B82E390E0918F808F338F228F68
:100EA000958F848F8EE190E0978F868F81E992E015
:100EB0009183808311A210A213A212A215A214A2E0
:100EC00080E091E097A386A340E050E069E975E0F7
:100ED00088E095E00E94081D40E050E065E075E084
:100EE00084ED94E00E94081D0F900F900F900F90DA
:100EF000DF91CF91089581E992E09093310680933C
:100F0000300680E396E00E94DA0488E596E00E94CD
:100F100062058091F3069091F406009711F00C940D
:100F2000F6290895CF93DF93FC01EB019A0190938A
:100F3000FF068093FE0670930107609300075093AD
:100F40000307409302078CEF96E09093FD06809391
:100F5000FC06CB01BA010E948625892B11F00E9464
:100F60007F2AAF014C0F5D1FE417F50768F48091ED
:100F7000FC069091FD0691838083F093FD06E0933B
:100F8000FC06E20FF31FF0CFCE01B9010E948625C7
:100F90007093050760930407DF91CF910895CF9375
:100FA000DF93EC01892B11F40E947F2A0E944508EF
:100FB0008091FA069091FB0601979093FB0680932F
:100FC000FA062091FE063091FF06C217D30760F3A0
:100FD0008091000790910107820F931FC817D907CE
:100FE00018F78091FC069091FD0699838883D09331
:100FF000FD06C093FC0680910407909105070196B9
:101000009093050780930407DF91CF910C945908C2
:10101000CF93DF930E944508C091FC06D091FD0656
:1010200086E0CC3FD80739F0888199819093FD06FE
:101030008093FC0602C0C0E0D0E08091040790914C
:1010400005070197909305078093040740910207D5
:101050005091030760E070E0CE010E94C32A209700
:1010600049F08091FA069091FB0601969093FB0659
:101070008093FA060E945908CE01DF91CF9108951E
:10108000ECEFF6E0F183E08308958FB7F8942091B8
:10109000060730910707232B11F4809308078091EE
:1010A000060790910707019690930707809306071C
:1010B000089580910607909107070197909307077D
:1010C000809306078091060790910707892B19F4F2
:1010D000809108078FBF08951092070710920607A6
:1010E0000895809106079091070708950C941D1AA2
:1010F0000C942F1A0895CF93DF9300D000D000D026
:10110000CDB7DEB726960FB6F894DEBF0FBECDBFC3
:10111000DF91CF910895FC01938382839183808333
:10112000049697838683958384837187608785E09F
:1011300090E0958784871786168681899289E80FC3
:10114000F91F108A0895BF92CF92DF92EF92FF921B
:101150000F931F93CF93DF936C01B62E7A01062F66
:1011600010E0C801840F951F0E940808EC01892B2C
:1011700099F08AE0E80EF11C0E0D1F1D1A8B098BE9
:10118000BB8A88EC90E09E8B8D8B188A198E1C8A06
:10119000B601CE010E948B08CE01DF91CF911F9145
:1011A0000F91FF90EF90DF90CF90BF900895FC01DA
:1011B0008489DF01A80FB11D5A966C9384898F5FD3
:1011C000848B08954A960895FC01838908959C01B3
:1011D000265E3F4FFC018389A901480F511DCA01BA
:1011E0000895FC01238981899289821B91090A97BC
:1011F00008954A960895FC01838908959C01265E0E
:101200003F4FFC018389A901480F511DCA01089570
:10121000CF93DF93DC01ED91FC91309789F0EC01E5
:1012200086858150868788819981FC01268527FDE6
:101230000E947F2A211102C00E9489091982188206
:10124000DF91CF9108950C940809CF93DF93FC01AF
:10125000C081D181A281B381BB83AA83CD93DC936A
:101260009383828391838083DF91CF910895CF937D
:10127000DF93EC0180910F07882329F0BE0181E202
:1012800092E00E947A08A881B981EA81FB811396D5
:10129000FC93EE931297B183A0832EED30EC39834B
:1012A00028838EED99EC9B838A83AC81BD81EE818E
:1012B000FF811396FC93EE931297B183A0833D8335
:1012C0002C839F838E83CE01DF91CF910C94CF0727
:1012D000CF93DF93FC01718360836115710589F001
:1012E000FB01EC01868587FD0E947F2A0E9445084C
:1012F000E881F98186858F5F8687DF91CF910C9495
:101300005908DF91CF9108958093100760930F07DC
:101310000895CF93DF93EC010E9445088F8581FFEC
:1013200007C08E85811104C0CE010E94370903C019
:101330008F8581608F87DF91CF910C945908CF936F
:10134000DF93EC010E944508CE010E9425098F859C
:1013500080FF07C08E85811104C0CE010E9437092D
:1013600003C08F8582608F87DF91CF910C945908DD
:10137000CF92DF92EF92FF921F93CF93DF937C0186
:10138000C0915201D091530181E0C235D80759F183
:101390002F89388DF7018789908D28173907F9F43F
:1013A00013898B8918131BC0C7010E94E2086C01C6
:1013B000CE010E94E208412F50E0B6010E949B2A14
:1013C000892B69F48F8584608F87CE01DF91CF915F
:1013D0001F91FF90EF90DF90CF900C949F090990A0
:1013E000D881C02DD1CFDF91CF911F91FF90EF9089
:1013F000DF90CF900895FC014285538585899689B9
:10140000480F591FFB012285338585899689280F4E
:10141000391F81E04217530708F080E008950F93C9
:101420001F93CF93DF938C01EB010E944508E0915D
:101430005C01F0915D01FB83EA838AE591E0998389
:101440008883D0935D01C0935C01D183C0830E94E7
:101450005908E0911707F0911807309709F009959E
:10146000BE01C8010E946809C801DF91CF911F9198
:101470000F910895CF92DF92EF92FF920F931F93F7
:10148000CF93DF9300D0CDB7DEB77C0140E050E0D2
:10149000FC01638980E090E00E94A3088C01E114C4
:1014A000F10411F40E947F2A892BE1F381E0F70116
:1014B000918D923009F080E0880F880F880FF80135
:1014C00090899770892B8160808B118EF7018589B7
:1014D0009689F801968B858BF7018789908DF801A5
:1014E000908F878BF701C388D12CC7010E94E20837
:1014F0007C01C8010E94E208A601B7010E94A82A47
:10150000F801878581608787B801CE0101960E9426
:101510000F0ACE0101960E9423090F900F90DF91D0
:10152000CF911F910F91FF90EF90DF90CF90089592
:10153000AF92BF92CF92DF92EF92FF920F931F93E1
:10154000CF93DF9300D0CDB7DEB78C0180911A071F
:1015500090911B07019690931B0780931A07D8015F
:1015600054968C91549753969C9189131BC0C80133
:101570000E94E2087C01C8010E94E208F801238968
:10158000DC01A20FB11DF701EA17FB0709F49BC0AC
:101590001197EA17FB0709F496C08C9190819C93F0
:1015A0008193F2CFD80118962D913C911997232B56
:1015B000C1F090911907911114C080910907909181
:1015C0000A07892B31F481E090E090930A07809319
:1015D00009070E944508C8010E9437090E9459085E
:1015E000D5C1F801E80FF11DE28CF12CC7010E9472
:1015F0001E106C01892BE9F5C7010E9408107C01BF
:10160000892B61F1F80190898091100790FF0AC041
:10161000882379F080911C0781110BC0B8018AE3FF
:1016200092E005C0882329F0B80180E492E00E948E
:101630007A08D8011F968C911F9784FD0E947F2AFB
:1016400080611F968C93D7011496ED91FC911597AC
:101650000190F081E02DB801C70109958091100734
:10166000882309F4B6CFB80186E492E00E947A0894
:10167000B0CFF80190898091100790FF0AC08823AD
:1016800079F080911C0781110BC0B8018AE392E0C8
:1016900005C0882329F0B80180E492E00E947A080E
:1016A000D8011F968C911F9784FDC8CF80611F962B
:1016B0008C93D601ED91FC910190F081E02DB80161
:1016C000C601099563C1F80190898091100790FFC8
:1016D0008CC0882349F080911C07811105C0B80196
:1016E00087E292E00E947A08D80150968C91869504
:1016F00086958695813069F040F0823009F069CF97
:10170000E0905601F090570156C0C8010E94B809F8
:1017100060CFC8010E94B80940E050E0F801638939
:1017200080E090E00E94A3087C010115110509F4F6
:1017300085CF009709F482CFDC0150968C915097A9
:1017400087708061816050968C93509759961C9257
:101750005997F8018589968956969C938E9355974B
:101760008789908D58969C938E935797C388D12CD8
:10177000C8010E94E2085C01C7010E94E208A601BC
:10178000B5010E94A82AB701CE0101960E940F0A56
:10179000CE0101960E9423091CCFD70157962D91A7
:1017A0003C915897F8018789908D2817390749F09F
:1017B000D701ED90FC90F6E5EF16F1E0FF0669F732
:1017C00008CFD38853968C91D812F2CFC8010E94CB
:1017D000E2085C01C7010E94E2084D2D50E0B5010E
:1017E0000E949B2A892B21F7C9C0882329F0B801C0
:1017F0008DE292E00E947A08D80118968D919C9112
:101800001997892B09F474C059968C9181508230B4
:1018100018F4C8010E943A0AF801818D823009F05B
:101820005CC0E0905601F0905701F6E5EF16F1E04C
:10183000FF0609F1D70157962D913C915897F80171
:101840008789908D2817390709F09CC05396DC9042
:101850008389D81297C0C8010E94E2085C01C701C1
:101860000E94E2084D2D50E0B5010E949B2A892B71
:1018700009F088C0AECE0E9445080E949F16D8018C
:101880001A962C931A971B963C93E0905601F09071
:101890005701B6E5EB16B1E0FB0651F0B701C80100
:1018A0000E94FB09811104C0F701E080F180F1CFB3
:1018B000D7011296ED91FC911397D8011396FC93E2
:1018C000EE931297ED92FC92D70113961C930E9310
:1018D0001297118300830E945908F8018085918531
:1018E000892B31F0818D823019F0C8010E949F0947
:1018F000E0911307F0911407309769F5A0915E010C
:10190000B0915F011297F1E0AC35BF07F1F0F8013B
:10191000808986958695869516969C91169798133C
:101920000FC081E080930E07ED91FC91119701901B
:10193000F081E02DB801CD01099510920E0726C067
:1019400012960D90BC91A02DDDCFE0911507F0917E
:101950001607309731F081E080930E07C801099592
:10196000ECCF80911007882329F0B80183E392E03F
:101970000E947A08C8010E94890908C0C7010E9414
:101980009F0927CEF701E080F1804FCF0F900F9095
:10199000DF91CF911F910F91FF90EF90DF90CF904B
:1019A000BF90AF9008950F931F93CF93DF938C0157
:1019B000EB011C8A88898E7F888B0E944508809164
:1019C0000B0790910C079C012F5F3F4F30930C0742
:1019D00020930B07988F8F8B0E945908BE01C80176
:1019E0000E946809CE010E94980AE0911707F091C1
:1019F0001807309719F0898D81110995C801DF9179
:101A0000CF911F910F910895CF93DF93662321F01B
:101A1000DF91CF910C94980AEC010E944508E09167
:101A20005C01F0915D01FB83EA838AE591E0998393
:101A30008883D0935D01C0935C01D183C083DF9123
:101A4000CF910C9459084F925F926F927F928F9230
:101A50009F92AF92BF92CF92DF92EF920F931F931C
:101A6000CF93DF934C013B015A01220F331F220F0A
:101A7000331F2A01420E531EFA01C0E0D0E0E415E4
:101A8000F50531F082819381C80FD91F3496F7CFC5
:101A9000C3010E940312AE01682F80E090E00E9413
:101AA000A308EC01892B21F4F4011182108235C0C6
:101AB000000F000F000F88898770082B088BE98EB4
:101AC000DE8ACD8AC3010E9403128C01C3010E94E9
:101AD000FF113C01CE010E94E208A801B3010E945F
:101AE000A82ACE010E94E7088C01A414B50489F04D
:101AF000F5016081718142815381C8010E94A82A49
:101B0000F50182819381080F191FF4E0AF0EB11C1B
:101B1000ECCFBE01C4010E94D30CC401DF91CF9170
:101B20001F910F91EF90DF90CF90BF90AF909F905B
:101B30008F907F906F905F904F9008952F923F927B
:101B40004F925F926F927F928F929F92AF92BF92CD
:101B5000CF92DF92EF92FF920F931F93CF93DF9379
:101B600000D000D0CDB7DEB71C012B013A01CB82EB
:101B7000AC82220F331F220F331F5A01A20EB31E55
:101B8000FA01C12CD12CEA15FB0531F08281938139
:101B9000C80ED91E3496F7CFEE0CFF1CEE0CFF1CBE
:101BA000C8018E0D9F1D9A838983F80189819A81CE
:101BB000E817F90731F082819381C80ED91E349657
:101BC000F5CFC2010E940312A601682F80E090E0C9
:101BD0000E94A3087C01892B21F4F101118210825B
:101BE0004EC08B81880F880F880FF70190899770FE
:101BF000C92EC82AC08A8C81818F968A858AC201A3
:101C00000E9403126C01C2010E94FF112C01C70146
:101C10000E94E208A601B2010E94A82AC7010E9400
:101C2000E7086C016A147B0489F0F301608171811B
:101C300042815381C6010E94A82AF30182819381C7
:101C4000C80ED91EF4E06F0E711CECCF89819A8109
:101C50000817190781F0F801608171814281538171
:101C6000C6010E94A82AF80182819381C80ED91E5C
:101C70000C5F1F4FEBCFB701C1010E94D30CC10114
:101C80000F900F900F900F90DF91CF911F910F91B8
:101C9000FF90EF90DF90CF90BF90AF909F908F908C
:101CA0007F906F905F904F903F902F9008950F938B
:101CB0001F93CF93DF93EC01162F8F858F7E8F8735
:101CC000209711F40E947F2A0E94450888859985F3
:101CD000892B21F0CE010E9437092EC0111103C0BB
:101CE000898D811104C0CE010E949F0925C00E94E8
:101CF0009F162A873B87009152011091530181E082
:101D00000235180751F0B801CE010E94FB0981117C
:101D100004C0D8010D911C91F2CFD8011296ED911B
:101D2000FC911397FB83EA83198308831396DC9352
:101D3000CE931297D183C083DF91CF911F910F91E2
:101D40000C945908CF93DF93EC018F8588608F87BF
:101D5000E0911107F0911207309739F081E08093FC
:101D60000D07CE01099510920D07A0915E01B0916B
:101D70005F01129781E0AC35B807E9F08889869554
:101D80008695869516969C91169798130FC081E0BC
:101D900080930D07ED91FC9111970280F381E02D66
:101DA000BE01CD01099510920D0705C012960D9048
:101DB000BC91A02DDECFDF91CF910895AF92BF925D
:101DC000CF92DF92EF92FF920F931F93CF93DF9307
:101DD00000D0CDB7DEB700916601109167010250C7
:101DE000110921E00436120761F0D801ED91FC9150
:101DF0000280F381E02DC8010995F8010281138169
:101E0000EECF00915E0110915F0102501109F1E0E7
:101E10000C351F0761F0D801ED91FC910480F5812C
:101E2000E02DC8010995F80102811381EECF0E94CF
:101E3000450800915A0110915B01F1E00A351F0736
:101E400049F0C8010E9425090E945908C8010E9452
:101E5000980AEDCF0E9459080E949F1669010E94BE
:101E60004508009152011091530121E002351207FB
:101E700089F40E9459080E949F1669010E94450832
:101E8000009156011091570181E00635180709F0BD
:101E900043C049C0D801ED90FC90B1E002351B076A
:101EA00041F3F801878581FD0E947F2A8285938511
:101EB0009601281B390B858996892817390748F11F
:101EC000C8010E942509F801848595858F3FFFEFA1
:101ED0009F0731F00197D8011D969C938E931C9714
:101EE000F80184859585892B39F4C8010E94A20EDA
:101EF000C8010E949F090DC00E945908B801CE0177
:101F000001960E940F0ACE0101960E9423090E94A9
:101F100045088701D701BFCFF801A080B180F1E06B
:101F200006351F0779F40E9459080F900F90DF9132
:101F3000CF911F910F91FF90EF90DF90CF90BF90C6
:101F4000AF900895D8011F968C911F9781FDACCF5B
:101F50001A968D919C911B979601281B390B5596CB
:101F60008D919C9156972817390708F44CC0C801E9
:101F70000E942509F801848595858F3FFFEF9F0713
:101F800031F00197D8011D969C938E931C97F80110
:101F900084859585892B39F4878588608787C80172
:101FA0000E94370930C0E0905601F0905701F6E5E5
:101FB000EF16F1E0FF0651F0B701C8010E94FB09DE
:101FC000811104C0D701ED90FC90F1CFD70112969A
:101FD000ED91FC911397D8011396FC93EE93129711
:101FE000ED92FC92D70113961C930E9312971183D6
:101FF0000083F801D386C2860E945908C8010E9456
:102000003A0A0E9445088501D501AD90BC9087CF62
:10201000E0916201F091630121E0E236F20749F0BC
:10202000268130E02817390739F00190F081E02D42
:10203000F3CF80E090E00895CF010895E09166012C
:10204000F0916701329721E0E436F20749F02681EA
:1020500030E02817390739F00280F381E02DF2CF04
:1020600080E090E00895CF0108950F931F93CF93E0
:10207000DF93EC01162F072F0E944508812F902F28
:102080000E941E10892BC1F41E83CE010296E0919E
:102090006801F0916901FD83EC8326E631E03B8322
:1020A0002A839093690180936801918380830E94C1
:1020B000590880E090E002C08FEF9FEFDF91CF9151
:1020C0001F910F9108952F923F924F925F926F92BE
:1020D0007F928F929F92AF92BF92CF92DF92EF92B8
:1020E000FF920F931F93CF93DF93FC01EA013A0114
:1020F000620E731E00E010E03AE0332E4424439455
:10210000C615D70509F4C5C088818E32E1F04CF4BC
:102110008D3009F4BEC0833219F18A3009F0BBC09A
:10212000B8C08A33C9F024F4803309F4B2C0B3C014
:10213000803461F08F3509F0AEC06E013FEFC31AF5
:10214000D30A4F01A3C06E0120E017C021967F0182
:102150005801AE1ABF0A88C0219620E030E037C08F
:1021600021964F01E12C60C0220F822F880F880F2B
:10217000280F3A33A4F43053230FC6018C1B9D0B58
:102180003FEFC31AD30AD6013C91432F032E000C14
:10219000550B405351094A30510530F302C03753B3
:1021A000EBCF0F5F1F4F4F01BFEF8B1A9B0A2083AE
:1021B00004970CF46BC071C0329EA001339E500D89
:1021C00011248A338CF480539A01280F311D6E013B
:1021D00088812196682F082E000C770B60537109B7
:1021E0006A30710548F302C08753EECF30834F0148
:1021F00042E0840E911C21830E5F1F4F47C0EE20EA
:1022000001F194012F5F3F4FA0E15A9EC0011124BC
:10221000B9E3BF15A4F040ED4F0D842BF40180838A
:102220000F5F1F4F4901E4246E01F9908F2D0F2C91
:10223000000C990B0E948F2A892B09F70CC049ECDE
:10224000EBCFF9E3FF151CF020ED522E02C099EC04
:10225000592E5F0CE8CFEE20C9F0529480EF58223F
:10226000D4015C928BEF1AC087010A0D1B1D470138
:102270006E012990822D022C000C990B0E94872A56
:10228000892B21F0F70121927F01EECFE601F401C5
:1022900037CFC80104C08FEF01C08CEF9FEFDF91F3
:1022A000CF911F910F91FF90EF90DF90CF90BF9053
:1022B000AF909F908F907F906F905F904F903F90E6
:1022C0002F900895FA0101900020E9F731979F01BE
:1022D000241B350B0C946310AF92BF92CF92DF9208
:1022E000EF92FF920F931F93CF93DF936C01EB015B
:1022F0000A811B810115110529F0C8010E945E2980
:102300005C0102C0A12CB12C48815981B801C501E2
:102310000E946211EC0197FF0EC0D60111961C922B
:102320001E9213961C921E92129715961C921E9244
:102330001497750136C008171907D0F40E945E295A
:102340007C01A114B104B1F09C012C0F3D1FD501FB
:102350000A0D1B1DFC012E173F0731F00A171B0742
:1023600019F08D918193F7CFC5010E94F62902C023
:10237000750101C08E01F60113830283D583C483E6
:10238000CE010E945E29D6018D939C93F701CE0D5C
:10239000DF1DEC17FD0729F02191DC012D93CD0104
:1023A000F8CFE114F10419F0C7010E94F629C60123
:1023B000DF91CF911F910F91FF90EF90DF90CF9021
:1023C000BF90AF900895CF93DF93EC010E946C1102
:1023D000CE01DF91CF910895FB0120813181FC0175
:1023E00031832083FB0122813381FC0133832283EB
:1023F0000895FC0171836083538342830895FC0137
:10240000808191810895FC01828193810895CF9309
:10241000DF9300D000D0CDB7DEB7FC0144815581F9
:1024200060817181CE0101960E94F91169817A81E2
:102430008B819C810F900F900F900F90DF91CF9127
:1024400008950E94071208950895CF93DF93EB013A
:10245000CB010E94E708A0916A01B0916B0112972D
:1024600021E0A836B207D1F01A964D915C911B97E6
:10247000FC01208131814217530759F4ED91FC9101
:1024800011970280F381E02DBE01CD01DF91CF9144
:10249000099412960D90BC91A02DE1CFCE01DF9151
:1024A000CF910C9489096F927F928F929F92AF92F5
:1024B000BF92CF92EF92FF920F931F93CF93DF9330
:1024C000CDB7DEB729970FB6F894DEBF0FBECDBFEC
:1024D0003C01C9017A8369835C834B831D829E0121
:1024E0002F5F3F4F3F832E8325E030E039872887D9
:1024F0004501AC2C23E0C22E21E030E0AE014A5F62
:102500005F4FBC01C3010E949E0DC30129960FB607
:10251000F894DEBF0FBECDBFDF91CF911F910F9119
:10252000FF90EF90CF90BF90AF909F908F907F9053
:102530006F900895CF92DF92EF92FF920F931F93C7
:10254000CF93DF93CDB7DEB765970FB6F894DEBFB4
:102550000FBECDBF8B015D8B4C8B1D86CB010E94C6
:10256000E708FC01828193819A878987C8010E94CC
:10257000E708FC01808191819C878B878D858F7016
:1025800080618D87CE0109969A83898385E090E0EA
:102590009C838B83CE0144969E838D8382E090E062
:1025A00098878F83F801C588D688C8010E94E20801
:1025B0007C01C8010E94E408482F50E0B701CE0119
:1025C0000E960E94F911E12C03E022E030E0AE010A
:1025D0004F5F5F4FBE01625F7F4FCE0142960E9408
:1025E000230DCE0142960E94230965960FB6F894FA
:1025F000DEBF0FBECDBFDF91CF911F910F91FF9036
:10260000EF90DF90CF900895EF92FF920F931F937A
:10261000CF93DF937C018B01CB010E94FE08C09118
:102620006A01D0916B01229721E0C836D20771F080
:102630004A855B85FC01228133814217530721F0D3
:102640000A80DB81C02DEFCF209739F441E250E0C2
:10265000B801C7010E949A1222C0FC0184818295B0
:102660008F7079F0813021F5C8010E94F108C8010E
:102670000E94E708FC0165817681CE010E94C213A9
:102680000EC0E881F9810190F081E02DB801CE0102
:10269000DF91CF911F910F91FF90EF900994C801A6
:1026A000DF91CF911F910F91FF90EF900C948909CA
:1026B000DF91CF911F910F91FF90EF900895CF93ED
:1026C000DF93FC01738762870296AAE6B1E0129657
:1026D000CD91DC911397D583C483B383A2831396E2
:1026E0009C938E93129799838883DF91CF9108955D
:1026F000CF93DF93EC018FE692E0998388830E9469
:102700004508CE0106962E813F812817390729F00A
:102710006FEF7FEFCE010E94C513AA81BB81EC81D0
:10272000FD811396FC93EE931297B183A0838EEDF7
:1027300090EC9B838A838EED99EC9D838C83DF9153
:10274000CF910C945908CF93DF93EDE1F7E083E04C
:102750008683AEE5B1E01296CD91DC911397D583D7
:10276000C483B383A2838FE197E013969C938E93E7
:1027700012979983888385E692E091838083DF9125
:10278000CF91089506960C94BB1906960C94DE1909
:10279000AF92BF92CF92EF92FF920F931F93CF937E
:1027A000DF93CDB7DEB766970FB6F894DEBF0FBEE6
:1027B000CDBFFC011D8281E08E83828D8F83848D4D
:1027C000958D99878887868D978D9B878A87868543
:1027D00097858C879E012A5F3F4F3E872D8727E094
:1027E00030E0388B2F87248535853A8B298B8B8B6E
:1027F0009C8BA08CB18CC6889F01205F3F4F448981
:102800005589628573856115710511F40E947F2ACF
:1028100082E0E82EF12C8E01035F1F4FCE0145961A
:102820000E945312CE0145960E94230966960FB668
:10283000F894DEBF0FBECDBFDF91CF911F910F91F6
:10284000FF90EF90CF90BF90AF9008958F929F929E
:10285000AF92BF92CF92DF92EF92FF920F931F93AE
:10286000CF93DF93CDB7DEB7FC01358B248B408B44
:10287000518B628B738BF12CF78AE68AB12CB38E65
:10288000A28ED18EC08E958E848E24E0F801DC015C
:102890001C9601900D922A95E1F7DF91CF911F913F
:1028A0000F91FF90EF90DF90CF90BF90AF909F90EF
:1028B0008F900C94C813AF92BF92CF92EF92FF9279
:1028C0000F931F93CF93DF93CDB7DEB767970FB604
:1028D000F894DEBF0FBECDBFFC01198A1A8A268587
:1028E00037852B8BDB0112968D919C9113979D8BD5
:1028F0008C8BAE014E5E5F4F5A83498344E050E0BB
:102900005C834B83448555855E834D832F83388755
:102910002D913C913A8729879C878B87A08CB18C1D
:10292000C6889F01205F3F4F448955896285738522
:102930006115710511F40E947F2A83E0E82EF12CC5
:102940008E010F5F1F4FCE0146960E945312CE019B
:1029500046960E94230967960FB6F894DEBF0FBE15
:10296000CDBFDF91CF911F910F91FF90EF90CF904E
:10297000BF90AF900895AF92BF92CF92DF92EF9247
:10298000FF920F931F93CF93DF9300D000D0CDB76A
:10299000DEB7FC01408B518B628B738B358B248BA4
:1029A00024E0F801DC011C9601900D922A95E1F7D4
:1029B000FC01D78AC68AB18EA08EF70122813381AD
:1029C000408151815A8349833C832B83BE016F5FD1
:1029D0007F4F0E945B140F900F900F900F90DF912C
:1029E000CF911F910F91FF90EF90DF90CF90BF900C
:1029F000AF90089521E932E0FC01318320830C94EB
:102A0000DA04CF93DF93EC010E94FA14CE01DF9138
:102A1000CF910C94F6290E945E1A8DE00E947608F0
:102A20008AE00C9476082F923F924F925F926F92B9
:102A30007F928F929F92AF92BF92CF92DF92EF924E
:102A4000FF920F931F93CF93DF93CDB7DEB76297BB
:102A50000FB6F894DEBF0FBECDBF4C016B01DC0199
:102A600096960D911C919797C8010E945E297C0152
:102A7000A80160E070E00E94C32AC6010E94FE081F
:102A80005C01FC01808591850A96E80FF91FCF0152
:102A900001969A8B898B6080062C000C7708C30105
:102AA00001968E0F9F1FD40196960D911C919797BA
:102AB000F5016681778161507109661977099296EF
:102AC000ED91FC9193973097A9F194962D913C91BB
:102AD00095972F3F4FEF340741F49701AB01BC01AD
:102AE00090968D919C9191971EC0D40190962D90B7
:102AF0003C90919721143104C1F0290155944794D9
:102B000020FF0BC09101240D351DD9012D913C9161
:102B1000E20FF31F0190F081E02D9701AB01BC01A2
:102B2000C101840D951D099503C09801A701099560
:102B30008C0102C000E010E089E792E00E940B15D2
:102B4000F401408C518C26883788FA82E9821C83F4
:102B50000B8389899A899E838D8378866F82D501BC
:102B60006D907C90C6010E94F9088C01C6010E94FC
:102B7000FB081E870D8790E0988B8F87BE01635FEF
:102B80007F4FCE0109960E94EC1149855A856B85CD
:102B90007C8552016101FE0131967F018E010B5F40
:102BA0001F4F9301C4010E94BB1481E892E00E9470
:102BB0000B1562960FB6F894DEBF0FBECDBFDF9146
:102BC000CF911F910F91FF90EF90DF90CF90BF902A
:102BD000AF909F908F907F906F905F904F903F90BD
:102BE0002F9008951F920F920FB60F9211242F93DA
:102BF0003F934F935F936F937F938F939F93AF9385
:102C0000BF93EF93FF930E944016FF91EF91BF9106
:102C1000AF919F918F917F916F915F914F913F9174
:102C20002F910F900FBE0F901F901895CF92DF92AB
:102C3000EF92FF920F931F93CF93DF930E9445086B
:102C4000C0902407D0902507E0902607F090270732
:102C50000091280710912907D0912A07C0912B07CE
:102C60000E9459089601A701B8018D2F9C2FDF9172
:102C7000CF911F910F91FF90EF90DF90CF9008952B
:102C8000209124073091250740912607509127076E
:102C9000609128077091290780912A0790912B074E
:102CA000A1E00E94422620932407309325074093F9
:102CB000260750932707609328077093290780936E
:102CC0002A0790932B070895CF93DF939B01AC01C4
:102CD00060E078EE83E090E00E949A25DA01C90175
:102CE0002093760190937701A0937801B0937901B6
:102CF00010927A0110927B0110927C0110927D015A
:102D00000E94721F9B01AC0160E070EA8FE090E0CE
:102D10000E949A25DA01C90120936E0190936F01F8
:102D2000A0937001B093710110927201109273011F
:102D30001092740110927501DF91CF910895AF92B6
:102D4000BF92CF92DF92EF92FF920F931F930E9458
:102D50001616A0907601B0907701C0907801D090BF
:102D60007901E0907A01F0907B0100917C01109153
:102D70007D010E94C22508E00E941D261F910F912F
:102D8000FF90EF90DF90CF90BF90AF90089520E03C
:102D900030E040E050E0CD960C94F817EF92FF92AF
:102DA0000F931F93CF93DF937C01EA01FC017183A2
:102DB00060838C01035C1F4FC8010E947018F701EB
:102DC000D483C383BE0180E090E00E949427AB01CE
:102DD000BC01C8010E947518C0E020E030E040E06E
:102DE00050E06C2FC8010E94F817CF5FC031A9F7DF
:102DF000DF91CF911F910F91FF90EF9008959A016D
:102E0000CD96211540E1340728F020E030E040E085
:102E100050E102C040E050E00C94F817411102C0AC
:102E20000C94C71620E030E040E050E1CD960C94C1
:102E3000F817CF93DF93653008F04AC06150A62F92
:102E4000B0E0FC0126E0629FE00DF11D1124228517
:102E5000211133C0628791878087662351F06130EA
:102E600061F0623071F0633081F426E035E047E0D4
:102E70000FC029E03AE048E00BC02CE03BE04DE019
:102E800007C023E034E042E003C020E030E040E04F
:102E900056E05A9FF0015B9FF00D1124E80FF91FD7
:102EA0004583BD016F5F7F4F569FE001579FD00D57
:102EB0001124C80FD91F3883278346E04A9F900109
:102EC0004B9F300D11242B5F3F4F820F931F02C089
:102ED00080E090E0DF91CF910895FC01148213828D
:102EE00015821282118210820895AF92BF92DF92F2
:102EF000EF92FF920F931F93CF93DF9300D01F9217
:102F0000CDB7DEB78C01D62E7C0185E0E80EF11C32
:102F10005801EDE1AE0EB11CC7010E946D17F6E03D
:102F2000EF0EF11CAE14BF04B9F7F80111A614A6F8
:102F300010A617A211AE14AE10AE17AA60E4C80115
:102F4000CD960E94F517F801D2826D2DCE01019623
:102F50000E94F51789819A81AB81F80185AF96AF00
:102F6000A7AF0F900F900F90DF91CF911F910F910E
:102F7000FF90EF90DF90BF90AF900895CF93DF93D5
:102F8000EC01623061F06430B9F0613009F56A81BA
:102F90008B819C810E94C71641E0698107C06981CD
:102FA0008B819C810E94C71641E06A818B819C8144
:102FB000DF91CF910C940E1769818B819C810E94C7
:102FC000C7166A818B819C81DF91CF910C94C716C3
:102FD000DF91CF91089520E1629FA0011124FC01AF
:102FE0006081838194810C94FF16FC0162830895B3
:102FF0000F931F93CF93DF9300D000D01F92CDB7D4
:10300000DEB7660F660F6A5F69834A835B832C8332
:103010003D83FC01A081B181ED91FC91119702816A
:10302000138125E030E0AE014F5F5F4FFC0162810C
:10303000CD01F80109950F900F900F900F900F9010
:10304000DF91CF911F910F910895EF92FF920F930F
:103050001F93CF93DF9300D0CDB7DEB76983EE2403
:10306000E394F12C8E010E5F1F4F21E030E0AE01A2
:103070004F5F5F4FFC016281808191810E947625C4
:103080008A810F900F90DF91CF911F910F91FF9048
:10309000EF9008950F931F93CF93DF9300D0CDB798
:1030A000DEB769834A83FC01A081B181ED91FC9177
:1030B00011970281138122E030E0AE014F5F5F4F34
:1030C000FC016281CD01F80109950F900F90DF910D
:1030D000CF911F910F91089540E060E00C944A1841
:1030E000FC01718360830C946C18CF92DF92EF9295
:1030F000FF921F93CF93DF93EC01CB01BA0126E639
:1031000036E646E65FE30E94F1289B01AC0160E2EF
:103110007CEB8EEB95E40E94ED2620E030E040E869
:103120005FE30E947B2620E030E040E05FE30E9406
:103130007C260E940F286B017C0160E0CE010E947A
:103140002518182F482F4F76406160E0CE010E946D
:103150004A18C701B6010E945F27462F6EEFCE01C5
:103160000E944A18412F60E0CE010E944A1885E073
:1031700090E00E94651C412F416A60E0CE01DF9122
:10318000CF911F91FF90EF90DF90CF900C944A1851
:10319000FC01868197810C948F1EFC0186819781AA
:1031A0000C948A1EFC01868197810C94931EFC016D
:1031B000868197810C94981E8F929F92AF92BF92B6
:1031C000EF920F931F93CF93DF93EC014A015B01C2
:1031D000122F61E070E08E819F810E94A61E61E047
:1031E00070E08E819F810E949D1E212FB501A40158
:1031F0008E819F810E94CA1E61E070E08E819F8156
:103200000E94AF1E80E090E0DF91CF911F910F915F
:10321000EF90BF90AF909F908F900895FC01623027
:1032200081F038F46623B9F0613029F560E070E090
:1032300014C06430B9F040F06530E9F460E070E04B
:1032400013C061E070E002C060E070E086819781A9
:103250000E94B81E0DC061E070E0868197810E94D7
:10326000AF1E06C061E070E0868197810E94C11E9A
:1032700080E090E008958FEF9FEF0895EF92FF9226
:103280000F931F93CF93DF93CDB7DEB728970FB679
:10329000F894DEBF0FBECDBF8C017B01FC0186819F
:1032A00097810E949D1EB701F801868197810E9437
:1032B000A61E60E070E0F801868197810E94C11E21
:1032C00060E070E0F801868197810E94B81EB70126
:1032D000F801868197810E94AF1E80E1898387E291
:1032E0008A831B821C821D821E821F82188629816E
:1032F0003A814B815C816D817E818F819885AFEFB2
:103300000E94422629833A834B835C836D837E83AC
:103310008F839887A0E00E94602649F780E090E0C4
:1033200028960FB6F894DEBF0FBECDBFDF91CF91C8
:103330001F910F91FF90EF900895DC0115967C93FB
:103340006E93149716962C91213069F0223081F4F7
:10335000DC011796ED91FC91189719968D919C912F
:103360001A97099502C00E94AB1D80E090E0089575
:103370008FEF9FEF08950F931F93CF93DF93EC018F
:103380008B010E944508E881F981CE17DF0781F0A3
:10339000C081D181A281B381BB83AA83CD93DC9309
:1033A000F383E283F183E083B801CF010E949D198A
:1033B000DF91CF911F910F910C9459080F931F9398
:1033C000CF93DF93EC018B010E944508E881F981DE
:1033D000CE17DF07A9F08081918122813381DC0142
:1033E00013963C932E931297D9018D939C93F3835C
:1033F000E283F183E083B801CF010E949D19E6CFFB
:10340000DF91CF911F910F910C94590860E070E00B
:103410000E94BB1980E090E0089540E050E060E039
:1034200070E00C94B11DFFCF90932F0780932E076F
:1034300070932D0760932C070895E0912E07F0916B
:103440002F07309749F00190F081E02D682F80918F
:103450002C0790912D07099480E090E00895AB012E
:10346000E0912E07F0912F07309749F00480F58105
:10347000E02DBC0180912C0790912D07099480E0EC
:1034800090E008950F931F93CF93DF9380912E07C1
:1034900090912F07892B59F08A01EB01060F171F16
:1034A000C017D10721F089910E941D1AF9CF80E041
:1034B00090E0DF91CF911F910F910895009711F047
:1034C000FC010CC08EE40E94760885E50E94760817
:1034D0008CE40E9476088CE40C947608BF01681B8B
:1034E000790B21912111FACF0C9478080F931F9337
:1034F000CF93DF9300D0CDB7DEB78C010E94450893
:10350000F801848195811816190644F40197958372
:1035100084830E94590880E090E00CC00E94590802
:10352000AE014F5F5F4F60E070E0C8010E94B11DC7
:10353000009721F30F900F90DF91CF911F910F9182
:103540000895CF93DF93EC010E9445088C819D8103
:1035500001969D838C8388819981C817D90729F0AA
:1035600060E070E0CE010E94BB190E94590880E023
:1035700090E0DF91CF910895CF93DF93FC01C0815C
:10358000D181A281B381BB83AA83CD93DC93EB016C
:10359000AA81BB81B383A283718360839B838A8367
:1035A0008D939C93DF91CF910895809130079091F6
:1035B00031070895809132079091330720918A0155
:1035C00030918B0127523109AC014F5F5F4F11F4ED
:1035D000029601C0CA01F90141E0E336F40751F057
:1035E00043A154A18417950779F307A0F0A5E02D16
:1035F000B797F2CF90933307809332070895CF9314
:10360000DF93EC018DEA92E099838883CE0187965F
:10361000A0918A01B0918B01FD0121E0EA38F20707
:1036200039F08E179F0769F10190F081E02DF5CFF9
:103630001C861B861A869E012A5F3F4F3987288782
:103640003F832E83FAA7E9A7B8A7AFA313969C934D
:103650008E93129790938B0180938A010E94DA1ABD
:103660009CA38BA382E089A383E08AA38091300787
:10367000909131079B838A831CA61BA6DF91CF9173
:103680000895AE81BF81E885F9851396FC93EE938A
:103690001297B183A083CE010696998788879F836E
:1036A0008E83DCCFE4E3F7E0F383E283F183E0830E
:1036B00088E397E097838683958384838CE397E000
:1036C0009387828791878087E2E8F1E0F383E28342
:1036D000F183E083E6E8F1E0F383E283F183E083C2
:1036E000EEE7F1E0F383E283F183E083EAE8F1E0DF
:1036F000F383E283F183E0830895CF93DF93EC01BA
:103700000E9445081AA21C8666E871E0CE01069662
:103710000E94BC1ADF91CF910C945908FC0161A161
:10372000F4E06F9FB00111246C5C784F06960C9406
:10373000BC1ACF93DF93EC010E94450884E08AA372
:103740006EE771E0CE0106960E94BC1ADF91CF9120
:103750000C9459089093310780933007DC019D96B3
:103760002C919D9721609D962C939D97ED91FC91B6
:103770000190F081E02D0994DC011296ED91FC910D
:103780001397309731F00480F581E02D8FED9FEF96
:10379000099408951F93CF93DF930E94450815E085
:1037A000E0917E01F0917F0121E0EE37F20711F107
:1037B000EF0126978081918122813381DC0113966C
:1037C0003C932E931297D9018D939C93F383E283BC
:1037D000F183E0830E9459081AA3E881F9810280ED
:1037E000F381E02DCE010995CE010E94BC1B0E9401
:1037F0004508D6CF0E9459080E944508809186014D
:1038000090918701B1E086389B0721F006970E94CE
:103810008E1BF4CF0E945908809134079091350790
:10382000E7E084339E07A1F4DC0114968D919C910E
:103830001597B7E088339B0771F480913C0790910E
:103840003D07E7E08C339E07D9F06CE377E005C0D5
:1038500064E377E002C068E377E0EC0126972DA5EA
:1038600025FF06C0CE01DF91CF911F910C94991BCB
:103870000E94BC1ACE01DF91CF911F910C94AA1B1C
:10388000DF91CF911F9108950C947D1B0E94D51A52
:103890000E94991B0C94881DCF93DF930E94D51A28
:1038A000EC018DA581FF0CC00E9471088BA7E881F7
:1038B000F9810480F581E02DCE01DF91CF9109944B
:1038C0008FEF9FEFDF91CF9108952F923F924F920C
:1038D0005F926F927F928F929F92AF92BF92CF92A0
:1038E000DF92EF92FF920F931F93CF93DF931C0110
:1038F0000E94D51AEC01009709F44DC05C0186E0E6
:10390000A80EB11C0E944508AE81BF81E885F985EB
:103910001396FC93EE931297B183A083B986A88681
:10392000BF82AE820E94590883E08C8782E08AA31E
:103930000E949F161F921F921F921F921F921F920A
:103940003F922F9269017A018B019C01AE0164E4E0
:103950007CE1C5010E942024C5010E9466248DB728
:103960009EB708960FB6F8949EBF0FBE8DBFDF912D
:10397000CF911F910F91FF90EF90DF90CF90BF906C
:10398000AF909F908F907F906F905F904F903F90FF
:103990002F900C944C1C8FEF9FEFDF91CF911F91D4
:1039A0000F91FF90EF90DF90CF90BF90AF909F90DE
:1039B0008F907F906F905F904F903F902F900895E1
:1039C000BC016E5C7F4FDC019E96ED91FC919F9750
:1039D000D0968D919C91D19709940895CF93DF93C0
:1039E00000D000D000D0CDB7DEB786E0E2E9F1E04C
:1039F000DE01119601900D928A95E1F749815A8175
:103A00006B817C818D819E810E947B080E941E2497
:103A1000EF92FF920F931F93CF93DF93EC017B0103
:103A20008A010E94FF1A83EF92E0998388831BAA80
:103A30001AAAFFA6EEA619AB08ABDF91CF911F9192
:103A40000F91FF90EF90089508958E960C94CA0000
:103A50008E960E94FD0080E090E00895CF93DF9362
:103A6000EC01DC01AB5ABF4FFC01ED5AFF4F019056
:103A7000F081E02D8D919C910995C55ADF4F998376
:103A80008883DF91CF910C94461C8F929F92AF92C6
:103A9000BF92CF92DF92EF92FF920F931F93CF933B
:103AA000DF93EC014B015A01690178010E94FF1A72
:103AB0008DEF92E099838883B801615071096C0D94
:103AC0007D1D01E09E014EE25DE1CE018E960E94D9
:103AD000771FFE01E95AFF4FD182C0823296F182F0
:103AE000E0823697918280823296B182A0828DA543
:103AF000846082608DA7DF91CF911F910F91FF901D
:103B0000EF90DF90CF90BF90AF909F908F900895EF
:103B1000CF93DF930E94D51AEC018DA581FF0CC0D5
:103B20000E9471088BA7E881F9810480F581E02D5E
:103B3000CE01DF91CF9109948FEF9FEFDF91CF916D
:103B400008958FEF98E09EBF8DBF78940E946C0817
:103B50000E94BC01FDCF06970E947D1B80E090E093
:103B60000895EF92FF920F931F93CF93DF9300D0AE
:103B700000D000D0CDB7DEB78C017B010E94D51AF2
:103B8000FC01892B19F085A581FD13C086E0E8E9C9
:103B9000F1E0DE01119601900D928A95E1F74981DD
:103BA0005A816B817C818D819E810E947B080E945D
:103BB0001E2481E0848782E082A34FB7F894CF016E
:103BC00006962681378160857185D90113967C938D
:103BD0006E931297DB012D933C9391878087978397
:103BE0008683D801EF2869F02D913C9111971187B8
:103BF000008737832683F901938382838D939C9377
:103C00000FC012962D913C9113973187208717830F
:103C1000068313969C938E931297F9019183808368
:103C20004FBF26960FB6F894DEBF0FBECDBFDF9113
:103C3000CF911F910F91FF90EF900C944C1CCF935C
:103C4000DF93EC010E94D51AFC0181E0848782E0B9
:103C500082A34FB7F894CF010696268137816085FD
:103C60007185D90113967C936E931297DB012D9386
:103C70003C9391878087AA81BB81B187A087D78336
:103C8000C6839B838A838D939C934FBF80E090E093
:103C9000DF91CF910895FC018281442311F0682BBC
:103CA00002C060956823628380E090E00895FC0183
:103CB000808190E00895FC01DA01C9018827AA27D4
:103CC000BB27892B8A2B8B2B11F0211120C020FFC1
:103CD00016C08181609568236183BA01A9014E7184
:103CE00055276627772781E090E0452B462B472B09
:103CF00011F480E090E0919581959109089530FF4D
:103D000006C08181682B618380E090E008958FEF89
:103D10009FEF0895FC01668381E090E00895FC0127
:103D2000868190E00895FC018081807890E008957C
:103D3000FC018081807290E00895FC019181672BE5
:103D400011F0906101C09F7E91830895FC019181E3
:103D5000672B11F0986001C0977F91830895FC0153
:103D60009181672B11F0906801C09F77918308952E
:103D7000FC019181672B11F0906201C09F7D9183BE
:103D80000895FC019181672B11F0906401C09F7B25
:103D900091830895CF93DF93EC019A01AB01888161
:103DA0008260888360E079E08DE390E00E949A254C
:103DB000DA01C9010197A109B109AC01BD017695EC
:103DC000679557954795852F99278D834C83DF916C
:103DD000CF9108958830910589F038F40097B9F0B3
:103DE000019791F481E090E008958034910549F0C5
:103DF0008115914049F484E090E0089582E090E0DC
:103E0000089583E090E008958FEF9FEF089580E09C
:103E100090E008950F931F93CF938C01CB01F8018D
:103E2000C1810E94EA1EC87F87708C2BF8018183B4
:103E3000CF911F910F9108958038910529F0803B13
:103E4000910521F4E2E003C0E1E001C0E0E0F0E030
:103E5000E259FF4F80818E7F6170682B60830895E7
:103E60000C941C1F61E084E490E00E94301F60E429
:103E700070E084E490E00E940A1F60ED73E080E04F
:103E800090E00E9464160C945A1F9FB7F89480919A
:103E9000C00080648093C0008091C00085FFFCCF8B
:103EA0006093C6008091C00086FFFCCF9FBF80E07A
:103EB00090E008951092C0001092C50088E08093B1
:103EC000C40086E08093C200E1ECF0E0808188606D
:103ED000808360E070E082E493E00E94141A80E046
:103EE00090E0089560E071E080E090E008950F9325
:103EF000CF93DF9300D0CDB7DEB7FC0185E2DF01C1
:103F00001D928A95E9F71182011102C080E001C07B
:103F100080E884A373A362A351A340A3208F318FB1
:103F20000F900F90DF91CF910F910895AF92BF92B4
:103F3000CF92DF92EF92FF921F93CF93DF93EC012A
:103F4000162F5A0169017C0182E0E80EF11CC701BD
:103F50000E94761AB88AAF86DA8AC98A110F1E873C
:103F6000188E1F8A8B8D8C7F8B8F85EA8093BC0087
:103F7000CE0108960E94761AC7010E94A11A80E01D
:103F800090E0DF91CF911F91FF90EF90DF90CF9065
:103F9000BF90AF9008957F928F929F92AF92BF9201
:103FA000CF92DF92EF92FF920F931F93CF93DF9305
:103FB000EC01762E4A0159016C0182E0C80ED11C39
:103FC000C6010E94761A1C8B0B8B988A8F86FE8AFC
:103FD000ED8ABA8AA98AFA8EE98E770C7E86188EC7
:103FE0001F8A8B8D8C7F82608B8F85EA8093BC00CB
:103FF000CE0108960E94761AC6010E94A11A80E09E
:1040000090E0DF91CF911F910F91FF90EF90DF90A3
:10401000CF90BF90AF909F908F907F9008959A011E
:10402000AB01211531054105510521F420EA36E89F
:1040300041E050E060E074E284EF90E00E949A2555
:10404000DA01C9014097A109B109B695A7959795DD
:1040500087958093B8001092B9000895ECEBF0E0DA
:104060008081856080830895CF93DF93FC018091E8
:10407000B900887F883209F453C070F4803179F137
:1040800028F4882319F1883021F1B4C0883199F1DE
:10409000803209F441C0AEC08834F1F138F4803385
:1040A00009F480C0803409F48FC0A4C0803509F4BD
:1040B0007CC0883509F09EC02091BB00A389B489DB
:1040C0008789908DA80FB91F2C938BC0838D846036
:1040D00025C0938D93708685913031F40AC0938DFD
:1040E00093708685923029F08E7F8093BB0085E89F
:1040F00075C08160FACF838D80FD7CC027853089B3
:104100008789908DAC014F5F5F4F508F478BF901CE
:10411000E80FF91F8081E9CF838D8860838F61C0AC
:10412000EF01838D8370F9F48789908D218932891D
:104130008217930741F485E98093BC00CF0108966C
:104140000E94A11A10C027853089AC014F5F5F4FD4
:10415000508F478BF901E80FF91F80818093BB00D6
:1041600085E88093BC008B8D8370823009F042C05B
:104170008F89988D29893A898217930721F4188E9F
:104180001F8A85EA2BC02F853889AC014F5F5F4FAE
:10419000588F4F8BF901E80FF91F80818093BB0086
:1041A00085E91CC0838D8061B9CF43895489878993
:1041B000908D9C012F5F3F4F308F278B2091BB004C
:1041C000DA01A80FB91F2C938789908D0196218D54
:1041D000328D8217930709F48ACF85EC8093BC0057
:1041E00009C085E98093BC00CF010896DF91CF918B
:1041F0000C94A11ADF91CF910895DC01ED91FC910F
:104200000480F581E02D0994FC01448D558D268DA7
:10421000378D4217530728F080A191A1820F931F79
:1042200001C0C9010197841B950B08950F931F933B
:10423000CF93DF938C010E944508F801C2A1D3A15E
:1042400024A135A1C217D30728F4F80186A197A1AC
:10425000C80FD91FC21BD30B0E945908CE01DF9192
:10426000CF911F910F9108958F929F92AF92BF921D
:10427000CF92DF92EF92FF920F931F93CF93DF9332
:10428000EC01962E072F6A01122F7C018AE0E80EBE
:10429000F11CC7010E94761A892B09F04BC00E94BD
:1042A0004508912F9170892E1270CE0144965C01C1
:1042B0002AA13BA18CA19DA12817390779F481106F
:1042C00005C0C501112329F00E941F1E00E010E067
:1042D0002BC00E940D1A892B59F3F8CFC114D104B9
:1042E000A9F34A8D5B8DE92DF02F00E010E08CA141
:1042F0009DA12AA13BA128173907B1F0DA01A80F27
:10430000B91F2C9101969DA38CA36EA17FA1861746
:10431000970711F41DA21CA22F3F31F021930F5FCC
:104320001F4F0C151D0519F70E945908C7010E945F
:10433000A11A02C000E010E0C801DF91CF911F91E7
:104340000F91FF90EF90DF90CF90BF90AF909F9034
:104350008F9008955F926F927F928F929F92AF920B
:10436000BF92CF92DF92EF92FF920F931F93CF9362
:10437000DF934115510509F48BC0522E7A015B0180
:10438000EC014C0184E0880E911CC4010E94761A55
:10439000892B09F079C00E9445088A819B81DC0144
:1043A000ED91FC910284F385E02D0995892BC1F0F4
:1043B0002C8D3D8D8E8D9F8D2817390789F48A812C
:1043C0009B81F5016081062E000C770BDC01ED91DD
:1043D000FC910084F185E02D099501E010E002C018
:1043E00000E010E0B52DB1705B2E3E01E0E16E0EF5
:1043F000711CE016F10609F441C0688D798DF50154
:10440000E00FF11FA701401B510BC12CD12CC4168A
:10441000D50661F02C8D3D8D8E8D9F8D009711F40A
:1044200088A199A101972817390749F4C114D1042B
:10443000C1F062E08A819B810E94FD2012C08191BF
:10444000DB01A20FB31F8C938C8D9D8D01969D8FE8
:104450008C8F28A139A182179307E9F41D8E1C8E39
:104460001AC00C0D1D1DE016F10641F0511006C0DA
:10447000C3010E940D1A892B09F4BBCF0E94590871
:10448000C4010E94A11A02C000E010E0C80107C0E8
:1044900080E090E004C08FEFC81AD80AB8CFDF914F
:1044A000CF911F910F91FF90EF90DF90CF90BF9031
:1044B000AF909F908F907F906F905F900895CF9373
:1044C000DF93EC016115710579F16130710509F037
:1044D0005AC02E8D3F8D4C8D5D8D8A819B814217F8
:1044E000530731F463E00E94FD20CE01409647C09F
:1044F000E88DF98DE20FF31F60812F5F3F4F3F8FF3
:104500002E8F48A159A12417350711F41F8E1E8E36
:10451000062E000C770BDC01ED91FC910084F185F7
:10452000E02DDF91CF9109948A819B81DC01ED918F
:10453000FC910680F781E02D09954AA15BA12CA191
:104540003DA12115310511F42EA13FA121503109C2
:104550004217530791F02A8D3B8DF901E40FF51FA7
:1045600080838AA19BA101969BA38AA32EA13FA130
:104570008217930711F41BA21AA2CE014496DF9171
:10458000CF910C94061ADF91CF910895CF93DF93CA
:10459000EC016115710511F07B836A83AA81BB81EF
:1045A0008FE592E213969C938E9312971596DC9367
:1045B000CE931497ED91FC9111970280F381E02D39
:1045C00061E070E0CD01099560E08A819B81DF9117
:1045D000CF910C94FD20EF92FF920F931F93CF93F6
:1045E000DF93FA01319628EADA012C93DC01680F97
:1045F000791F9FEF11E385EC0BE22CE5F22E3AE8F0
:10460000E32E6A177B0709F12D919227C8E0D0E0CD
:10461000392F330F97FF03C0932F912701C0932F9A
:104620002197B1F7223B39F0253C41F0283A51F46B
:104630008083E18205C08083018302C02083F182F0
:104640003296DFCF20833196DCCF923B59F0953CF8
:1046500089F0983AA9F485EC80839F012E5F3F4F43
:104660008AE806C085EC80839F012E5F3F4F8BE276
:1046700081830AC090839F012E5F3F4F8CE5F8CF66
:104680009F012F5F3F4F9083F90182EB8193CF0110
:10469000841B950BDF91CF911F910F91FF90EF90AD
:1046A0000895FC01118671836083538342831582D0
:1046B0001482178216828FEF808708951F93CF93FD
:1046C000DF93EC01162F89858130D1F028F08230FC
:1046D00009F1843049F0A9C08FEF88871D821C82C0
:1046E0001F821E8284E08987183A09F0A1C081E008
:1046F00089878FEF88871D821C821F821E828BC054
:10470000623B19F1653C21F0683A09F046C013C0DC
:1047100082E080C0683A79F02CF46A3809F07DC0F4
:1047200018EA3BC06B3229F06C3509F076C015EC05
:1047300034C012EB32C08FEF88871D821C821F822B
:104740001E8281E0898782E074C08885811167C0FC
:104750006E817F8181E090E06115710511F480E048
:1047600090E04C815D81481B590B5D834C839B011C
:10477000281B390BC9013F832E834217530751F081
:1047800028813981481B590B620F731F820F931FB9
:104790000E94B12A81E090E046C04C815D818A810F
:1047A0009B81019748175907E0F52E813F814217F9
:1047B000530769F088819981421B530BBC01620F3A
:1047C000731F2F5F3F4F820F931F0E94B12A2881D2
:1047D00039818E819F81AC014F5F5F4F5F834E8334
:1047E000F901E80FF91F10838C819D8101969D834B
:1047F0008C838885182788E090E031E3212F220FF1
:1048000017FF03C0122F132701C0122F0197B1F712
:10481000188781E0898780E00CC08DEF03C08FEF9F
:1048200001C08EEF9FEF198605C08CEF9FEF02C08D
:1048300083E090E0DF91CF911F9108950E947F2A3D
:104840007F928F929F92AF92BF92CF92DF92EF9220
:10485000FF920F931F93CF93DF93CDB7DEB7FC0189
:104860005B014A0168894989BA89AB897C895D897C
:104870009E898F896894772472F8768215821482D3
:10488000F383E283F183E083B08EA78A928E818ED8
:10489000C782D086E186F28603871487258736870C
:1048A0006787408BB18BA28B738B548B958B868BD8
:1048B000DF91CF911F910F91FF90EF90DF90CF90FC
:1048C000BF90AF909F908F907F9008952F923F92CE
:1048D0004F925F926F927F928F929F92AF92BF9210
:1048E000CF92DF92EF92FF920F931F93CF93DF93BC
:1048F000EC012F81388549855A856B857C858D85AE
:104900009E85AF84B888C988DA88EB88FC880D89D1
:104910001E890E943926922E832E742E652E562EC5
:10492000472E382E292E0E944508E0918E01F091E5
:104930008F0181E0EE38F80751F1278130854185FC
:1049400052856385748585859685A784B088C188DE
:10495000D288E388F488058916890E94392659018E
:104960006A017B018C01292D382D472D562D652D8F
:10497000742D832D922D0E944E26A0E00E94602669
:1049800024F00190F081E02DD4CF309711F4EEE8BF
:10499000F1E0A281B381BB83AA83F983E883D38347
:1049A000C283CD93DC93DF91CF911F910F91FF9044
:1049B000EF90DF90CF90BF90AF909F908F907F90BF
:1049C0006F905F904F903F902F900C945908CF9329
:1049D000DF93DC01CD91DC9111971296ED91FC9162
:1049E0001397FB83EA83D183C08313969C938E93A2
:1049F000129711969C938E935796ED91FC91589730
:104A0000BC0159968D919C915A97DF91CF91099451
:104A10002F923F924F925F926F927F928F929F92CE
:104A2000AF92BF92CF92DF92EF92FF920F931F93BC
:104A3000CF93DF93922E832E742E652E562E472E03
:104A4000382E292E0E944508C0918E01D0918F01E9
:104A500081E0CE38D80719F10E945908292D382D48
:104A6000472D562D652D742D832D922DAF80B88442
:104A7000C984DA84EB84FC840D851E850E944E2651
:104A8000AF84B888C988DA88EB88FC880D891E89CC
:104A90000E945726C4F0CE010E94E724D3CFDF91B5
:104AA000CF911F910F91FF90EF90DF90CF90BF902B
:104AB000AF909F908F907F906F905F904F903F90BE
:104AC0002F900C945908DF91CF911F910F91FF9077
:104AD000EF90DF90CF90BF90AF909F908F907F909E
:104AE0006F905F904F903F902F900895EF92FF92BC
:104AF0000F931F93DC01ED91FC910190F081E02D6B
:104B000009951F910F91FF90EF900895AA1BBB1B71
:104B100051E107C0AA1FBB1FA617B70710F0A61BBD
:104B2000B70B881F991F5A95A9F780959095BC01DE
:104B3000CD010895A1E21A2EAA1BBB1BFD010DC0D9
:104B4000AA1FBB1FEE1FFF1FA217B307E407F5073D
:104B500020F0A21BB30BE40BF50B661F771F881F19
:104B6000991F1A9469F760957095809590959B01AF
:104B7000AC01BD01CF010895EE0FFF1F0590F49128
:104B8000E02D0994DF93CF931F930F939A9DF02DFF
:104B9000219FF00D8B9DF00D8A9DE02DF10D039F5F
:104BA000F00D029FE00DF11D4E9DE00DF11D5E9D8B
:104BB000F00D4F9DF00D7F936F93BF92AF925F9377
:104BC0004F93D5010E946C268B01AC01D7010E9446
:104BD0006C26EB01E80FF91FD6010E9412262F91D7
:104BE0003F91D6010E946C26C60FD71FE81FF91F00
:104BF000AF91BF910E9412262F913F910E946C2687
:104C0000C60FD71FE81FF91FD6010E946C26E60FBA
:104C1000F71F9801BE01CF0111240F911F91CF9171
:104C2000DF9108950E946C26460F571FC81FD91F99
:104C300008F43196089597FB10F8169400080F9326
:104C4000083098F00850232F342F452F562F672F08
:104C5000782F892F902DF4CF059497958795779588
:104C6000679557954795379527950A95AAF70F9118
:104C700008952A0D3B1D4C1D5D1D6E1D7F1D801F5F
:104C8000911F08950024A7FD00942A0F301D401D98
:104C9000501D601D701D801D901D08952A193B092F
:104CA0004C095D096E097F09800B910B08952A1547
:104CB0003B054C055D056E057F058007910708954E
:104CC0000024A7FD00942A17300540055005600513
:104CD0007005800590050895A29FB001B39FC001A3
:104CE000A39F700D811D1124911DB29F700D811D18
:104CF0001124911D08955058BB27AA270E9493267E
:104D00000C949A280E948C2838F00E94932820F056
:104D100039F49F3F19F426F40C9479280EF4E095A9
:104D2000E7FB0C944A28E92F0E94AB2858F3BA17E6
:104D3000620773078407950720F079F4A6F50C94B1
:104D4000E5280EF4E0950B2EBA2FA02D0B01B9012A
:104D500090010C01CA01A0011124FF27591B99F0F1
:104D6000593F50F4503E68F11A16F040A22F232FFD
:104D7000342F4427585FF3CF469537952795A7954D
:104D8000F0405395C9F77EF41F16BA0B620B730BF4
:104D9000840BBAF09150A1F0FF0FBB1F661F771F65
:104DA000881FC2F70EC0BA0F621F731F841F48F41A
:104DB000879577956795B795F7959E3F08F0B0CFA3
:104DC0009395880F08F09927EE0F9795879508958A
:104DD0000E94262808F481E008950E9401270C947F
:104DE0009A280E94932858F00E948C2840F029F4B9
:104DF0005F3F29F00C944A2851110C94E6280C943A
:104E000079280E94AB2868F39923B1F3552391F3D5
:104E1000951B550BBB27AA2762177307840738F029
:104E20009F5F5F4F220F331F441FAA1FA9F335D086
:104E30000E2E3AF0E0E832D091505040E695001C3A
:104E4000CAF72BD0FE2F29D0660F771F881FBB1FF4
:104E5000261737074807AB07B0E809F0BB0B802DD2
:104E6000BF01FF2793585F4F3AF09E3F510578F0FE
:104E70000C944A280C94E6285F3FE4F3983ED4F360
:104E8000869577956795B795F7959F5FC9F7880FD2
:104E9000911D9695879597F90895E1E0660F771F24
:104EA000881FBB1F621773078407BA0720F0621BB5
:104EB000730B840BBA0BEE1F88F7E09508950E94E0
:104EC000B32888F09F5798F0B92F9927B751B0F0C1
:104ED000E1F0660F771F881F991F1AF0BA95C9F77E
:104EE00014C0B13091F00E94E528B1E008950C940F
:104EF000E528672F782F8827B85F39F0B93FCCF3C2
:104F0000869577956795B395D9F73EF490958095FA
:104F1000709561957F4F8F4F9F4F089597FB16F4C3
:104F20000E947C280C94D227E89409C097FB3EF499
:104F300090958095709561957F4F8F4F9F4F9923E6
:104F4000A9F0F92F96E9BB279395F6958795779564
:104F50006795B795F111F8CFFAF4BB0F11F460FF24
:104F60001BC06F5F7F4F8F4F9F4F16C0882311F07C
:104F700096E911C0772321F09EE8872F762F05C090
:104F8000662371F096E8862F70E060E02AF09A952B
:104F9000660F771F881FDAF7880F9695879597F920
:104FA0000895E894F92F96EBFF2381F0121613066B
:104FB0001406440B9395F6958795779567955795C5
:104FC0004040FF23B9F71BC099270895882351F467
:104FD0009850D2F7872B762F652F542F432F322FDF
:104FE00020E0B1F3121613061406440B88233AF09E
:104FF0009A95440F551F661F771F881FCAF75523C0
:105000004AF4440F551F11F460FF04C06F5F7F4FD7
:105010008F4F9F4F880F9695879597F908950E9417
:10502000CD2890F09F3748F4911116F00C94E628A3
:1050300060E070E080E89FEB089526F41B16611D88
:10504000711D811D0C9450280C946B28990F000839
:10505000550FAA0BE0E8FEEF16161706E807F9074A
:10506000C0F012161306E407F50798F0621B730BE5
:10507000840B950B39F40A2661F0232B242B252B66
:1050800021F408950A2609F4A140A6958FEF811D09
:10509000811D089597F99F6780E870E060E00895AA
:1050A000882371F4772321F09850872B762F07C03F
:1050B000662311F499270DC09051862B70E060E0B3
:1050C0002AF09A95660F771F881FDAF7880F969552
:1050D000879597F908959F3F31F0915020F4879577
:1050E00077956795B795880F911D9695879597F950
:1050F00008959FEF80EC0895909580957095609548
:1051000050954095309521953F4F4F4F5F4F6F4FD2
:105110007F4F8F4F9F4F089500240A94161617064D
:1051200018060906089500240A9412161306140698
:1051300005060895092E0394000C11F4882352F0FB
:10514000BB0F40F4BF2B11F460FF04C06F5F7F4FB3
:105150008F4F9F4F089557FD9058440F551F59F09A
:105160005F3F71F04795880F97FB991F61F09F3F54
:1051700079F087950895121613061406551FF2CF7D
:105180004695F1DF08C0161617061806991FF1CFCD
:10519000869571056105089408950E94B328A0F0D2
:1051A000BEE7B91788F4BB279F3860F41616B11D07
:1051B000672F782F8827985FF7CF86957795679523
:1051C000B11D93959639C8F30895E894BB276627D7
:1051D0007727CB0197F908950E94262808F48FEFCE
:1051E00008950E9404290C949A280E948C2838F073
:1051F0000E94932820F0952311F00C944A280C94D7
:10520000792811240C94E6280E94AB2870F3959F0E
:10521000C1F3950F50E0551F629FF001729FBB27AD
:10522000F00DB11D639FAA27F00DB11DAA1F649F49
:105230006627B00DA11D661F829F2227B00DA11DFC
:10524000621F739FB00DA11D621F839FA00D611D82
:10525000221F749F3327A00D611D231F849F600DA3
:10526000211D822F762F6A2F11249F5750409AF0CC
:10527000F1F088234AF0EE0FFF1FBB1F661F771F58
:10528000881F91505040A9F79E3F510580F00C9423
:105290004A280C94E6285F3FE4F3983ED4F38695C1
:1052A00077956795B795F795E7959F5FC1F7FE2BC3
:1052B000880F911D9695879597F908950F931F93E1
:1052C000CF93DF938230910510F482E090E0E0917B
:1052D0004207F091430720E030E0A0E0B0E03097D3
:1052E00019F1408151810281138148175907C8F093
:1052F0008417950769F4109731F012960C93129762
:1053000013961C9327C0009342071093430722C0B3
:105310002115310519F04217530718F49A01BD0100
:10532000EF01DF01F801DBCF21153105F9F0281B72
:10533000390B2430310580F48A819B816115710518
:1053400021F0FB019383828304C0909343078093F1
:105350004207FE01329644C0FE01E20FF31F819323
:10536000919322503109398328833AC02091400714
:1053700030914107232B41F4209102013091030128
:1053800030934107209340072091000130910101A3
:105390002115310541F42DB73EB7409104015091DC
:1053A0000501241B350BE0914007F0914107E217FE
:1053B000F307A0F42E1B3F0B2817390778F0AC0138
:1053C0004E5F5F4F2417350748F04E0F5F1F509315
:1053D0004107409340078193919302C0E0E0F0E0E1
:1053E000CF01DF91CF911F910F910895CF93DF935C
:1053F000009709F481C0FC01329713821282A091B8
:105400004207B0914307109781F420813181820FC8
:10541000931F20914007309141072817390751F514
:10542000F0934107E093400767C0ED0120E030E0D2
:10543000CE17DF0740F44A815B819E01411551057B
:10544000F1F0EA01F5CFD383C28340815181840F0B
:10545000951FC817D90759F488819981840F951F22
:105460000296918380838A819B8193838283211515
:10547000310529F4F0934307E09342073DC0E90169
:10548000FB83EA8349915991C40FD51FEC17FD079F
:1054900061F480819181840F951F0296E9019983BF
:1054A0008883828193819B838A83E0E0F0E0129677
:1054B0008D919C911397009719F0FD01DC01F7CFB6
:1054C0008D919C9111979D012E5F3F4F820F931FED
:1054D00020914007309141072817390769F4309728
:1054E00029F4109243071092420702C013821282DD
:1054F000B0934107A0934007DF91CF91089581E0D9
:1055000090E0F8940C94D42A85FD0C94D12A806202
:1055100091110C94D12A81568A51D8F7089591118E
:105520000C94D12A80538A5028F0865C8062815680
:105530008650B0F70895FB01DC0104C08D91019005
:10554000801921F441505040C8F7881B990B0895E9
:10555000FB01DC0102C001900D9241505040D8F790
:1055600008956817790768F4FB01DC01E40FF51F63
:10557000A40FB51F02C002900E9241505040D8F7C0
:1055800008950C94A82ADC0101C06D93415050404D
:10559000E0F70895FB01DC0101900D920020E1F796
:1055A000089599278827089510E0C9E3D0E004C042
:1055B000FE010E94BC252196CA33D107C9F7F89491
:0255C000FFCF1B
:1055C2000000440720009B0200000000C0004A03C4
:1055D2001001100101001601160100000000000078
:1055E20000000000000000000000520306012E012E
:1055F2002E0101003401340101003A013A013E0159
:105602003E018306B30600000000300000000000E7
:10561200400052015201560156015A015A015E01DF
:105622005E0162016201660166016A016A010100AE
:1056320000000000000001000000000000007E01E8
:105642007E0182018201860186018A018A018E0120
:105652008E010F00B302E6021A0003032D030000BD
:10566200000039020000000062022F026E6F6465C2
:105672000063726F775F736572766963655F6861F5
:105682006E646C65007A6970706F2F637472002E9D
:10569200312E31322E3132372E302E302E313A31F8
:1056A200303030390000000000131A131A131AACFC
:1056B200040000000000000000F704EB04AF04C97E
:1056C20004D00400000000F704EB04AF04DA04E1A4
:1056D20004000000006F062C06BA04AC04620571D7
:1056E200057574696C7A00696E61636B00696E633B
:1056F2006F6D007770726F746F00747261636B000C
:105702007472616E730077676174650063616E6EB7
:105712006F7420637265617465207061636B657478
:1057220000000000000413251224120000000013E0
:105732001AEB04AF04000000007075626C697368B4
:10574200007075626C69736820656E640000000009
:10575200001315EB04AF04FA140115DC183E190E00
:1057620019C818CD18D218D71800000000131A1340
:105772001A131A2F686F6D652F6D69726D696B2F21
:1057820070726F6A6563742F67656E6F732F6765DA
:105792006E6F732F6175746F6D5F73636865646597
:1057A200652E63707000646973706C6163650000DC
:1057B200000000E01CED1CEE1C00000000251D2472
:1057C2001D281D2F686F6D652F6D69726D696B2FB6
:1057D20070726F6A6563742F67656E6F732F67658A
:1057E2006E6F732F776169742E63707000776169D1
:1057F200745F63757272656E745F73636865646506
:105802006500451F0000421A0000CB1F961F0000D2
:0A5812000000AA2134211621042110
:00000001FF
