:100000000C943A000C9462000C9462000C94620010
:100010000C9462000C9462000C9462000C946200D8
:100020000C9462000C9462000C9462000C946200C8
:100030000C9462000C9462000C9462000C946200B8
:100040000C943C140C9462000C9464000C94930087
:100050000C94C2000C9462000C9462000C94620038
:100060000C9416020C9462003D029004CD059B1185
:10007000C913020511241FBECFEFD8E0DEBFCDBFEC
:1000800014E0A0E0B1E0E4ECFFE402C005900D92C2
:10009000AC35B107D9F727E0ACE5B4E001C01D925B
:1000A000AF38B207E1F710E0C9E3D0E004C0219710
:1000B000FE010E94B223C433D107C9F70E94040194
:1000C0000C94D5270C9400001F920F920FB60F923C
:1000D00011242F933F934F935F936F937F938F934D
:1000E0009F93AF93BF93EF93FF93A6E0B1E0129677
:1000F000ED91FC91139760E070E014968D919C91C6
:1001000015970995FF91EF91BF91AF919F918F91B5
:100110007F916F915F914F913F912F910F900FBE03
:100120000F901F9018951F920F920FB60F921124E7
:100130002F933F934F935F936F937F938F939F93EF
:10014000AF93BF93EF93FF93A6E0B1E01296ED91CA
:10015000FC91139761E070E014968D919C91159736
:100160000995FF91EF91BF91AF919F918F917F91F1
:100170006F915F914F913F912F910F900FBE0F9014
:100180001F9018951F920F920FB60F9211242F9364
:100190003F934F935F936F937F938F939F93AF930F
:1001A000BF93EF93FF93A6E0B1E01296ED91FC911F
:1001B000139762E070E014968D919C9115970995C4
:1001C000FF91EF91BF91AF919F918F917F916F912F
:1001D0005F914F913F912F910F900FBE0F901F9005
:1001E00018950E94E91469017A018B01D82FC92F53
:1001F0000E94D90C9601A701B8018D2F9C2F0E9457
:100200000E230E945C1AEDCF0E944F1D0E94901990
:100210000E944D047894EE24E39408E02EE640E03A
:1002200052EC61E070E080EC90E00E94E71C20E07E
:1002300031E040E050E060E270E083E290E00E9454
:10024000751C20E031E040E050E062E070E083E2C5
:1002500090E00E94751C20E031E040E050E064E056
:1002600070E083E290E00E94751C0E944E010E94A3
:100270003C020E94F10060E270E083E290E00E94A4
:10028000711C41E0811140E060E270E083E290E0A7
:100290000E94651C88EE93E00C94031B20E031E083
:1002A00040E050E060E270E083E290E00E94751C64
:1002B00040E050E06BE371E08CE397E00E94A91B03
:1002C0008CE397E00C94C119DC01ED91FC91019055
:1002D000F081E02D40E050E0BA010994CF92DF9226
:1002E000EF92FF92CF93DF93EC01CE80DF80E88422
:1002F000F984A7019601FB0160817181828193815C
:100300000E94D0242A813B814C815D810E94EB2593
:10031000A70196010E94D1246E837F8388879987E5
:10032000DF91CF91FF90EF90DF90CF900895CF9223
:10033000DF92EF92FF92CF93DF93EC016A017B0192
:100340008D81882321F0F7FAF094F7F8F09420E0FB
:1003500030E0A901C701B6010E943D2581110CC002
:1003600064E08A819B810E94831560E08A819B8181
:100370000E94B01584E052C020E030E0A901C7011E
:10038000B6010E94E625181604F58C81823029F406
:1003900064E08A819B810E94831520E030E04FE772
:1003A00053E4C701B6010E94EB250E9442258A81D1
:1003B0009B810E94B0158C81813029F061E08A8197
:1003C0009B810E94831581E029C020E030E0A901D3
:1003D000C701B6010E943D2587FF21C08C81813075
:1003E00029F464E08A819B810E948315C701B601CC
:1003F000905820E030E04FE753E40E94EB250E9444
:1004000042258A819B810E94B0158C81823029F01F
:1004100062E08A819B810E94831582E08C83DF9158
:10042000CF91FF90EF90DF90CF9008951F920F92A1
:100430000FB60F9211242F933F934F935F936F93B7
:100440007F938F939F93AF93BF93EF93FF938EE030
:1004500091E00E940D1EFF91EF91BF91AF919F918E
:100460008F917F916F915F914F913F912F910F905D
:100470000FBE0F901F901895089560E68CE994E0E8
:100480000E943A15E4E8F4E024EB31E03183208364
:1004900084E0848315823783268382871386358799
:1004A0002487808B118A338B228B868B178AEAE70D
:1004B000F4E08EEA91E09183808340E050E060E1D7
:1004C00071E44283538364837583E0E7F4E09183AE
:1004D00080834283538364837583E6E6F4E09183EB
:1004E000808340E050E060EA70E442835383648399
:1004F0007583ECE5F4E091838083428353836483C6
:10050000758308958FEF9FEF089587ED92E008952A
:10051000CF93DF93FC01838D948D009729F0EF0139
:100520000E9456051C8E1B8EDF91CF91089523EFFC
:1005300031E0FC01318320830C94E210CF93DF93F0
:10054000EC010E949702CE01DF91CF910C94F0262E
:1005500021E032E0FC01318320830C949702CF9399
:10056000DF93EC010E94A802CE01DF91CF910C94A1
:10057000F026CF93DF93EB016FEF7FEF0E94BD1169
:10058000CE01DF91CF910C948407CB010C948407AA
:10059000E0912A01F0912B010190F081E02D21E002
:1005A0008AE291E00994CF93DF93EC0183EE91E02E
:1005B000998388830E94D205AA81BB81EC81FD8149
:1005C0001396FC93EE931297B183A0838EED90EC7B
:1005D0009B838A838EED99EC9D838C83DF91CF91F1
:1005E0000C94E605CF93DF93EC018FE092E09983C2
:1005F0008883CE010E948802CE01DF91CF910C94B6
:10060000D302CF93DF93EC010E94F202CE01DF917F
:10061000CF910C94F026CF93DF93EC010E94D3028C
:10062000CE01DF91CF910C94F026CF93DF93EC01B4
:10063000898D9A8D0E948F059C8F8B8F498D5A8D45
:10064000BC01605F7F4FCE014D96DF91CF910C943E
:1006500054210F931F93CF93DF931F92CDB7DEB733
:10066000E0912A01F0912B010480F581E02D8AE2CE
:1006700091E00995892B89F1E0912A01F0912B01F4
:100680000280F381E02D20E041E050E0BE016F5F89
:100690007F4F8AE291E0099569818CE896E00E949B
:1006A00061210197D1F400918A0610918B06109276
:1006B0008B0610928A0660917506C8010E94CC06CE
:1006C0006FE676E0C8010E94800660E0C8010E94E3
:1006D000FF0A8FE696E00E941503E0912A01F0914F
:1006E0002B010280F381E02D22E040E050E060E049
:1006F00070E08AE291E009950F90DF91CF911F9110
:100700000F910895CF93DF93EC016D897E894F8916
:10071000588D461B570BEFA1F8A589A59AA50995F9
:100720002D893E89820F931F9E8B8D8B2F89388D4B
:1007300082179307A1F40E94D20560E089899A8903
:100740000E94520C1A8A198A1E8A1D8A188E1F8AC4
:100750000E94E605CE01DF91CF910C94D503DF9185
:10076000CF9108950F931F93CF93DF93EC018C01EA
:10077000095F1F4FC8010E94A018892B89F42D8999
:100780003E898F89988D2817390719F0CE010E946C
:100790008203C801DF91CF911F910F910C94B8187B
:1007A000DF91CF911F910F910895CF93DF93DC01DB
:1007B0001D96ED91FC911E979C01235F3F4FE21720
:1007C000F30741F1EC01FA8BE98B80819181228161
:1007D0003381DC0113963C932E931297D9018D93AC
:1007E0009C93F383E283F183E0834B895C89618985
:1007F0007289CF0140960E94EE202B893C893E8B66
:100800002D8B820F931F988F8F8BCE01DF91CF910D
:100810000C948203DF91CF9108950F931F93CF9390
:10082000DF93EC018B010E94D205F801A081B18118
:100830008281938113969C938E931297FC01B183CE
:10084000A083ED85FE85CE010D96D80113969C936D
:100850008E931297ED93FC93138302831E870D876B
:100860000E94E6058E01095F1F4FC8010E94A01873
:10087000892B71F489899A89892B19F4CE010E94F8
:10088000D503C801DF91CF911F910F910C94B81837
:10089000DF91CF911F910F910895CF93DF9381E066
:1008A0008093100740E450E060E071E080EE94E057
:1008B0000E94190541E050E060E070E086E796E0B4
:1008C0000E946D18CFE6D6E080EE95E09C8B8B8B76
:1008D000CE010E9415031A8A198A1E8A1D8A188E53
:1008E0001F8A88EC92E098A78FA31AA619A661E048
:1008F00070E0CE010E94300E60E070E08AE291E08C
:100900000E94C92040E050E069E273E088E096E090
:100910000E94A91B88E096E0DF91CF910C94C11949
:10092000CF93DF9300D000D0CDB7DEB78CEC91E051
:100930009A83898382E190E09C838B83BE016F5F01
:100940007F4F8AEE96E00E94DE0FEFE6F6E081E749
:1009500096E095838483938382838FE092E09183F2
:1009600080838CE796E096878587908B8787128AAD
:10097000118A148A138A168A158A108E178A80E3C0
:1009800090E0928F818F148E138EE7E4F6E089E475
:1009900096E093838283958384838DE496E09783A6
:1009A000868391878087138612861586148617861C
:1009B000168683E090E0958B848B22E030E0378BC5
:1009C000268B82E390E0918F808F338F228F958FDB
:1009D000848F8EE190E0978F868F83E193E09183FF
:1009E000808311A210A213A212A215A214A280E069
:1009F00091E097A386A30F900F900F900F90DF9137
:100A0000CF91089583E193E0909348068093470641
:100A100087E496E00E94A8028FE696E00E94F20228
:100A20008091EA069091EB06009711F00C94F02665
:100A30000895CF93DF93FC01EB019A019093F606A2
:100A40008093F5067093F8066093F7065093FA06C4
:100A50004093F90683EF96E09093F4068093F306B3
:100A6000CB01BA010E947C23892B11F00E947927C7
:100A7000AF014C0F5D1FE417F50768F48091F30692
:100A80009091F40691838083F093F406E093F3064B
:100A9000E20FF31FF0CFCE01B9010E947C237093C7
:100AA000FC066093FB06DF91CF910895CF93DF930F
:100AB000EC01892B11F40E9479270E94D2058091C4
:100AC000F1069091F20601979093F2068093F10659
:100AD0002091F5063091F606C217D30760F3809196
:100AE000F7069091F806820F931FC817D90718F7D9
:100AF0008091F3069091F40699838883D093F4064D
:100B0000C093F3068091FB069091FC0601969093AA
:100B1000FC068093FB06DF91CF910C94E605CF9302
:100B2000DF930E94D205C091F306D091F40686E0CF
:100B3000C33FD80739F0888199819093F406809358
:100B4000F30602C0C0E0D0E08091FB069091FC0665
:100B500001979093FC068093FB06209749F08091C3
:100B6000F1069091F20601969093F2068093F106B9
:100B70000E94E60580910607882359F08BE192E0F8
:100B80000E94CB17CE010E94B91783E292E00E9427
:100B9000CB17CE01DF91CF910895E3EFF6E0F1831B
:100BA000E08308958FB7F8942091FD063091FE06FA
:100BB000232B11F48093FF068091FD069091FE0691
:100BC00001969093FE068093FD0608958091FD06A0
:100BD0009091FE0601979093FE068093FD0680910A
:100BE000FD069091FE06892B19F48091FF068FBFB8
:100BF00008958091FD069091FE0608950F931F932E
:100C0000CF93DF93EB010E94CB1786E292E00E9424
:100C1000CB178AE292E00E94CB17CE010E94B9174F
:100C20008FE292E00E94CB17898D0E945C1884E3CA
:100C300092E00E94CB17888981700E945C188AE339
:100C400092E00E94CB178D899E890E946B1881E4E7
:100C500092E00E94CB178B890E945C1888E492E096
:100C60000E94CB1789890E945C188FE492E00E9451
:100C7000CB1788898695869586950E945C1886E5AF
:100C800092E00E94CB17CE010E94D906182FCE0108
:100C90000E94D706612F70E00E948B178DE592E0CD
:100CA0000E94CB178C890E945C1883E692E00E9418
:100CB000CB178C850E945C188EE692E00E94CB17C1
:100CC000CE010E94FD06449728F4CE010E94FD0645
:100CD0008C0102C004E110E0CE010E94F306B801CD
:100CE0000E943A1481E594E00E94CB178DE00E94A7
:100CF00038148AE0DF91CF911F910F910C94381432
:100D0000FC019383828391838083049697838683F7
:100D1000958384837187608785E090E095878487D9
:100D20001786168681899289E80FF91F108A08951F
:100D3000BF92CF92DF92EF92FF920F931F93CF93C8
:100D4000DF936C01B62E7A01062F10E0C801840FE4
:100D5000951F0E948F05EC01892B99F08AE0E80E1F
:100D6000F11C0E0D1F1D1A8B098BBB8A88EC90E0BD
:100D70009E8B8D8B188A198E1C8AB601CE010E941B
:100D80008006CE01DF91CF911F910F91FF90EF90E0
:100D9000DF90CF90BF900895FC018489DF01A80FF8
:100DA000B11D5A966C9384898F5F848B08954A96FF
:100DB0000895FC01838908959C01265E3F4FFC0144
:100DC0008389A901480F511DCA010895FC01238997
:100DD00081899289821B91090A9708954A960895FC
:100DE000FC01838908959C01265E3F4FFC018389A5
:100DF000A901480F511DCA010895FC012389818969
:100E00009289821B91090A970895CF93DF93DC01A1
:100E1000ED91FC91309789F0EC01868581508687B1
:100E200088819981FC01268527FD0E94792721115F
:100E300002C00E94840719821882DF91CF91089521
:100E40000C940507CF93DF93FC01C081D181A2816F
:100E5000B381BB83AA83CD93DC93938382839183F5
:100E60008083DF91CF910895CF93DF93EC01809140
:100E70000607882329F0BE0185E792E00E94FE055F
:100E8000A881B981EA81FB811396FC93EE931297B6
:100E9000B183A0832EED30EC398328838EED99EC5D
:100EA0009B838A83AC81BD81EE81FF811396FC9385
:100EB000EE931297B183A0833D832C839F838E830F
:100EC000CE01DF91CF910C945605CF93DF93FC01B7
:100ED000718360836115710589F0FB01EC018685E2
:100EE00087FD0E9479270E94D205E881F9818685D5
:100EF0008F5F8687DF91CF910C94E605DF91CF91CC
:100F00000895809107070895CF93DF93EC010E9425
:100F1000D2058F8581FF07C08E85811104C0CE0167
:100F20000E94340703C08F8581608F87DF91CF9146
:100F30000C94E605CF93DF93EC010E94D205CE011D
:100F40000E9422078F8580FF07C08E85811104C013
:100F5000CE010E94340703C08F8582608F87DF91A6
:100F6000CF910C94E605CF92DF92EF92FF921F9300
:100F7000CF93DF937C01C0915201D091530181E066
:100F8000C235D80759F12F89388DF7018789908D9F
:100F900028173907F9F413898B8918131BC0C70167
:100FA0000E94D7066C01CE010E94D706412F50E067
:100FB000B6010E949527892B69F48F8584608F87FD
:100FC000CE01DF91CF911F91FF90EF90DF90CF90F6
:100FD0000C949A070990D881C02DD1CFDF91CF9181
:100FE0001F91FF90EF90DF90CF900895FC01428514
:100FF000538585899689480F591FFB0122853385C2
:1010000085899689280F391F81E04217530708F018
:1010100080E008950F931F93CF93DF938C01EB0132
:101020000E94D205E0915C01F0915D01FB83EA83AF
:101030008AE591E099838883D0935D01C0935C0138
:10104000D183C0830E94E605E0910E07F0910F075F
:10105000309709F00995BE01C8010E946507C801D3
:10106000DF91CF911F910F910895CF92DF92EF9270
:10107000FF920F931F93CF93DF9300D0CDB7DEB7CE
:101080007C0140E050E0FC01638980E090E00E9438
:1010900098068C01E114F10411F40E947927892B40
:1010A000E1F381E0F701918D923009F080E0880F43
:1010B000880F880FF80190899770892B8160808B49
:1010C000118EF70185899689F801968B858BF7013A
:1010D0008789908DF801908F878BF701C388D12C79
:1010E000C7010E94D7067C01C8010E94D706A6014D
:1010F000B7010E94A227F801878581608787B80120
:10110000CE0101960E940A08CE0101960E94200796
:101110000F900F90DF91CF911F910F91FF90EF9063
:10112000DF90CF900895AF92BF92CF92DF92EF926F
:10113000FF920F931F93CF93DF9300D0CDB7DEB70D
:101140008C018091110790911207019690931207DC
:1011500080931107D80154968C91549753969C9183
:1011600089131BC0C8010E94D7067C01C8010E94D8
:10117000D706F8012389DC01A20FB11DF701EA1798
:10118000FB0709F49BC01197EA17FB0709F496C007
:101190008C9190819C938193F2CFD80118962D91D8
:1011A0003C911997232BC1F090911007911114C015
:1011B0008091000790910107892B31F481E090E044
:1011C00090930107809300070E94D205C8010E94F6
:1011D00034070E94E605D5C1F801E80FF11DE28C45
:1011E000F12CC7010E94190E6C01892BE9F5C7018A
:1011F0000E94030E7C01892B61F1F8019089809196
:10120000070790FF0AC0882379F0809113078111A6
:101210000BC0B8018EE892E005C0882329F0B80120
:1012200084E992E00E94FE05D8011F968C911F97D9
:1012300084FD0E94792780611F968C93D7011496B4
:10124000ED91FC9115970190F081E02DB801C70157
:10125000099580910707882309F4B6CFB8018AE978
:1012600092E00E94FE05B0CFF801908980910707B7
:1012700090FF0AC0882379F08091130781110BC079
:10128000B8018EE892E005C0882329F0B80184E90E
:1012900092E00E94FE05D8011F968C911F9784FD55
:1012A000C8CF80611F968C93D601ED91FC9101907F
:1012B000F081E02DB801C601099563C1F80190895C
:1012C0008091070790FF8CC0882349F08091130715
:1012D000811105C0B8018BE792E00E94FE05D8019C
:1012E00050968C91869586958695813069F040F070
:1012F000823009F069CFE0905601F090570156C056
:10130000C8010E94B30760CFC8010E94B30740E044
:1013100050E0F801638980E090E00E9498067C012B
:101320000115110509F485CF009709F482CFDC017E
:1013300050968C91509787708061816050968C9305
:10134000509759961C925997F80185899689569617
:101350009C938E9355978789908D58969C938E93E6
:101360005797C388D12CC8010E94D7065C01C701DA
:101370000E94D706A601B5010E94A227B701CE019F
:1013800001960E940A08CE0101960E9420071CCFF8
:10139000D70157962D913C915897F8018789908DE8
:1013A0002817390749F0D701ED90FC90F6E5EF16C4
:1013B000F1E0FF0669F708CFD38853968C91D812D5
:1013C000F2CFC8010E94D7065C01C7010E94D70670
:1013D0004D2D50E0B5010E949527892B21F7C9C0FA
:1013E000882329F0B80181E892E00E94FE05D80127
:1013F00018968D919C911997892B09F474C0599670
:101400008C918150823018F4C8010E943508F8018F
:10141000818D823009F05CC0E0905601F090570158
:10142000F6E5EF16F1E0FF0609F1D70157962D9189
:101430003C915897F8018789908D2817390709F052
:101440009CC05396DC908389D81297C0C8010E9433
:10145000D7065C01C7010E94D7064D2D50E0B501AB
:101460000E949527892B09F088C0AECE0E94D20534
:101470000E94E914D8011A962C931A971B963C9354
:10148000E0905601F0905701B6E5EB16B1E0FB068F
:1014900051F0B701C8010E94F607811104C0F7019D
:1014A000E080F180F1CFD7011296ED91FC91139776
:1014B000D8011396FC93EE931297ED92FC92D7010C
:1014C00013961C930E931297118300830E94E605D6
:1014D000F80180859185892B31F0818D823019F05A
:1014E000C8010E949A07E0910A07F0910B07309714
:1014F00069F5A0915E01B0915F011297F1E0AC3502
:10150000BF07F1F0F8018089869586958695169635
:101510009C91169798130FC081E080930507ED9179
:10152000FC9111970190F081E02DB801CD01099552
:101530001092050726C012960D90BC91A02DDDCF0C
:10154000E0910C07F0910D07309731F081E0809326
:101550000507C8010995ECCF80910707882329F07A
:10156000B80187E892E00E94FE05C8010E94840746
:1015700008C0C7010E949A0727CEF701E080F180DA
:101580004FCF0F900F90DF91CF911F910F91FF9050
:10159000EF90DF90CF90BF90AF9008950F931F937F
:1015A000CF93DF938C01EB011C8A88898E7F888B17
:1015B0000E94D20580910207909103079C012F5F42
:1015C0003F4F3093030720930207988F8F8B0E9421
:1015D000E605BE01C8010E946507CE010E9493087E
:1015E000E0910E07F0910F07309719F0898D811166
:1015F0000995C801DF91CF911F910F910895CF9365
:10160000DF93662321F0DF91CF910C949308EC01D6
:101610000E94D205E0915C01F0915D01FB83EA83B9
:101620008AE591E099838883D0935D01C0935C0142
:10163000D183C083DF91CF910C94E6054F925F92E6
:101640006F927F928F929F92AF92BF92CF92DF92D2
:10165000EF920F931F93CF93DF934C013B015A01FD
:10166000220F331F220F331F2A01420E531EFA018D
:10167000C0E0D0E0E415F50531F082819381C80F18
:10168000D91F3496F7CFC3010E94FE0FAE01682F19
:1016900080E090E00E949806EC01892B21F4F4018F
:1016A0001182108235C0000F000F000F88898770EB
:1016B000082B088BE98EDE8ACD8AC3010E94FE0FBB
:1016C0008C01C3010E94FA0F3C01CE010E94D70693
:1016D000A801B3010E94A227CE010E94DC068C0162
:1016E000A414B50489F0F5016081718142815381B0
:1016F000C8010E94A227F50182819381080F191F5A
:10170000F4E0AF0EB11CECCFBE01C4010E94CE0AC2
:10171000C401DF91CF911F910F91EF90DF90CF9097
:10172000BF90AF909F908F907F906F905F904F9001
:1017300008952F923F924F925F926F927F928F9275
:101740009F92AF92BF92CF92DF92EF92FF920F9350
:101750001F93CF93DF9300D000D0CDB7DEB71C012D
:101760002B013A01CB82AC82220F331F220F331F91
:101770005A01A20EB31EFA01C12CD12CEA15FB05A9
:1017800031F082819381C80ED91E3496F7CFEE0CCA
:10179000FF1CEE0CFF1CC8018E0D9F1D9A838983D0
:1017A000F80189819A81E817F90731F082819381E4
:1017B000C80ED91E3496F5CFC2010E94FE0FA601B5
:1017C000682F80E090E00E9498067C01892B21F42C
:1017D000F101118210824EC08B81880F880F880F13
:1017E000F70190899770C92EC82AC08A8C81818F91
:1017F000968A858AC2010E94FE0F6C01C2010E9476
:10180000FA0F2C01C7010E94D706A601B2010E945F
:10181000A227C7010E94DC066C016A147B0489F0D0
:10182000F3016081718142815381C6010E94A22728
:10183000F30182819381C80ED91EF4E06F0E711CF2
:10184000ECCF89819A810817190781F0F80160812E
:10185000718142815381C6010E94A227F8018281D1
:101860009381C80ED91E0C5F1F4FEBCFB701C1018A
:101870000E94CE0AC1010F900F900F900F90DF9140
:10188000CF911F910F91FF90EF90DF90CF90BF907D
:10189000AF909F908F907F906F905F904F903F9010
:1018A0002F9008950F931F93CF93DF93EC01162F82
:1018B0008F858F7E8F87209711F40E9479270E9451
:1018C000D20588859985892B21F0CE010E943407A5
:1018D0002EC0111103C0898D811104C0CE010E9458
:1018E0009A0725C00E94E9142A873B87009152017C
:1018F0001091530181E00235180751F0B801CE0173
:101900000E94F607811104C0D8010D911C91F2CFFD
:10191000D8011296ED91FC911397FB83EA8319830A
:1019200008831396DC93CE931297D183C083DF9103
:10193000CF911F910F910C94E605CF93DF93EC01AB
:101940008F8588608F87E0910807F09109073097AD
:1019500039F081E080930407CE01099510920407C5
:10196000A0915E01B0915F01129781E0AC35B8079C
:10197000E9F0888986958695869516969C911697A6
:1019800098130FC081E080930407ED91FC911197AB
:101990000280F381E02DBE01CD010995109204076C
:1019A00005C012960D90BC91A02DDECFDF91CF9196
:1019B0000895AF92BF92CF92DF92EF92FF920F9372
:1019C0001F93CF93DF9300D0CDB7DEB700916601B0
:1019D000109167010250110921E00436120761F0ED
:1019E000D801ED91FC910280F381E02DC8010995A9
:1019F000F80102811381EECF00915E0110915F0129
:101A000002501109F1E00C351F0761F0D801ED918A
:101A1000FC910480F581E02DC8010995F80102814F
:101A20001381EECF0E94D20500915A0110915B0103
:101A3000F1E00A351F0749F0C8010E9422070E9401
:101A4000E605C8010E949308EDCF0E94E6050E94BA
:101A5000E91469010E94D2050091520110915301CD
:101A600021E00235120789F40E94E6050E94E9147C
:101A700069010E94D205009156011091570181E041
:101A80000635180709F043C049C0D801ED90FC9015
:101A9000B1E002351B0741F3F801878581FD0E9403
:101AA0007927828593859601281B390B858996892C
:101AB0002817390748F1C8010E942207F8018485D8
:101AC00095858F3FFFEF9F0731F00197D8011D9655
:101AD0009C938E931C97F80184859585892B39F406
:101AE000C8010E949D0CC8010E949A070DC00E9467
:101AF000E605B801CE0101960E940A08CE010196C2
:101B00000E9420070E94D2058701D701BFCFF801AC
:101B1000A080B180F1E006351F0779F40E94E60548
:101B20000F900F90DF91CF911F910F91FF90EF9049
:101B3000DF90CF90BF90AF900895D8011F968C9101
:101B40001F9781FDACCF1A968D919C911B979601A2
:101B5000281B390B55968D919C915697281739075C
:101B600008F44CC0C8010E942207F80184859585BD
:101B70008F3FFFEF9F0731F00197D8011D969C938F
:101B80008E931C97F80184859585892B39F4878578
:101B900088608787C8010E94340730C0E0905601F2
:101BA000F0905701F6E5EF16F1E0FF0651F0B701AE
:101BB000C8010E94F607811104C0D701ED90FC9086
:101BC000F1CFD7011296ED91FC911397D80113969E
:101BD000FC93EE931297ED92FC92D70113961C930F
:101BE0000E93129711830083F801D386C2860E9458
:101BF000E605C8010E9435080E94D2058501D5017D
:101C0000AD90BC9087CFE0916201F091630121E03B
:101C1000E236F20749F0268130E02817390739F01B
:101C20000190F081E02DF3CF80E090E00895CF01A6
:101C30000895E0916601F0916701329721E0E43662
:101C4000F20749F0268130E02817390739F0028081
:101C5000F381E02DF2CF80E090E00895CF01089568
:101C60000F931F93CF93DF93EC01162F072F0E9442
:101C7000D205812F902F0E94190E892BC1F41E834B
:101C8000CE010296E0916801F0916901FD83EC8339
:101C900026E631E03B832A839093690180936801B3
:101CA000918380830E94E60580E090E002C08FEF80
:101CB0009FEFDF91CF911F910F9108952F923F9247
:101CC0004F925F926F927F928F929F92AF92BF924C
:101CD000CF92DF92EF92FF920F931F93CF93DF93F8
:101CE000FC01EA013A01620E731E00E010E03AE0E6
:101CF000332E44244394C615D70509F4C5C0888102
:101D00008E32E1F04CF48D3009F4BEC0833219F10B
:101D10008A3009F0BBC0B8C08A33C9F024F48033DC
:101D200009F4B2C0B3C0803461F08F3509F0AEC0A1
:101D30006E013FEFC31AD30A4F01A3C06E0120E02A
:101D400017C021967F015801AE1ABF0A88C021969C
:101D500020E030E037C021964F01E12C60C0220F17
:101D6000822F880F880F280F3A33A4F43053230FA3
:101D7000C6018C1B9D0B3FEFC31AD30AD6013C91C1
:101D8000432F032E000C550B405351094A30510587
:101D900030F302C03753EBCF0F5F1F4F4F01BFEF40
:101DA0008B1A9B0A208304970CF46BC071C0329E7F
:101DB000A001339E500D11248A338CF480539A0174
:101DC000280F311D6E0188812196682F082E000C86
:101DD000770B605371096A30710548F302C087536D
:101DE000EECF30834F0142E0840E911C21830E5FC1
:101DF0001F4F47C0EE2001F194012F5F3F4FA0E13C
:101E00005A9EC0011124B9E3BF15A4F040ED4F0D57
:101E1000842BF40180830F5F1F4F4901E4246E017E
:101E2000F9908F2D0F2C000C990B0E948927892B7C
:101E300009F70CC049ECEBCFF9E3FF151CF020EDDE
:101E4000522E02C099EC592E5F0CE8CFEE20C9F05B
:101E5000529480EF5822D4015C928BEF1AC0870114
:101E60000A0D1B1D47016E012990822D022C000CCA
:101E7000990B0E948127892B21F0F70121927F0184
:101E8000EECFE601F40137CFC80104C08FEF01C0E7
:101E90008CEF9FEFDF91CF911F910F91FF90EF900B
:101EA000DF90CF90BF90AF909F908F907F906F907A
:101EB0005F904F903F902F900895FA01019000207D
:101EC000E9F731979F01241B350B0C945E0EAF92FE
:101ED000BF92CF92DF92EF92FF920F931F93CF9317
:101EE000DF936C01EB010A811B810115110529F0BB
:101EF000C8010E9458265C0102C0A12CB12C488167
:101F00005981B801C5010E945D0FEC0197FF0EC019
:101F1000D60111961C921E9213961C921E92129735
:101F200015961C921E921497750136C00817190752
:101F3000D0F40E9458267C01A114B104B1F09C0198
:101F40002C0F3D1FD5010A0D1B1DFC012E173F074D
:101F500031F00A171B0719F08D918193F7CFC50156
:101F60000E94F02602C0750101C08E01F6011383A4
:101F70000283D583C483CE010E945826D6018D9357
:101F80009C93F701CE0DDF1DEC17FD0729F0219181
:101F9000DC012D93CD01F8CFE114F10419F0C70154
:101FA0000E94F026C601DF91CF911F910F91FF9003
:101FB000EF90DF90CF90BF90AF900895CF93DF93D5
:101FC000EC010E94670FCE01DF91CF910895FB01D4
:101FD00020813181FC0131832083FB012281338107
:101FE000FC01338322830895FC0171836083538352
:101FF00042830895FC01808191810895FC018281D2
:10200000938108950895CF93DF93EB01CB010E9454
:10201000DC06A0916A01B0916B01129721E0A8360D
:10202000B207D1F01A964D915C911B97FC0120816B
:1020300031814217530759F4ED91FC9111970280B9
:10204000F381E02DBE01CD01DF91CF91099412966D
:102050000D90BC91A02DE1CFCE01DF91CF910C94DA
:1020600084076F927F928F929F92AF92BF92CF928E
:10207000EF92FF920F931F93CF93DF93CDB7DEB70D
:1020800029970FB6F894DEBF0FBECDBF3C01C90142
:102090007A8369835C834B831D829E012F5F3F4F50
:1020A0003F832E8325E030E0398728874501AC2C1B
:1020B00023E0C22E21E030E0AE014A5F5F4FBC0159
:1020C000C3010E94990BC30129960FB6F894DEBF95
:1020D0000FBECDBFDF91CF911F910F91FF90EF9079
:1020E000CF90BF90AF909F908F907F906F9008950A
:1020F000CF92DF92EF92FF920F931F93CF93DF93D4
:10210000CDB7DEB765970FB6F894DEBF0FBECDBF73
:102110008B015D8B4C8B1D86CB010E94DC06FC0184
:10212000828193819A878987C8010E94DC06FC011D
:10213000808191819C878B878D858F7080618D8751
:10214000CE0109969A83898385E090E09C838B83F6
:10215000CE0144969E838D8382E090E098878F83A2
:10216000F801C588D688C8010E94D7067C01C8013D
:102170000E94D906482F50E0B701CE010E960E946A
:10218000F40FE12C03E022E030E0AE014F5F5F4F3F
:10219000BE01625F7F4FCE0142960E941E0BCE01B0
:1021A00042960E94200765960FB6F894DEBF0FBED8
:1021B000CDBFDF91CF911F910F91FF90EF90DF90F6
:1021C000CF900895CF93DF93EC0185E093E099835E
:1021D00088830E94D205CE0106962E813F81281762
:1021E000390729F06FEF7FEFCE010E94BD11AA8160
:1021F000BB81EC81FD811396FC93EE931297B18322
:10220000A0838EED90EC9B838A838EED99EC9D8369
:102210008C83DF91CF910C94E605CF93DF93EB0194
:102220000E94CB1780E20E943814888199810E9415
:102230006B188DE00E9438148AE0DF91CF910C94E6
:102240003814CF92DF92EF92FF920F931F93CF93A8
:10225000DF936C018B01CB010E94F3067C01C091DE
:102260006A01D0916B01229781E0C836D80771F0DE
:102270002A853B85F701828193812817390721F050
:102280000A80DB81C02DEFCF209791F40E94810757
:10229000882339F0B7016E5F7F4F85EB92E00E9493
:1022A0000D1141E250E0B801C6010E9478102FC024
:1022B0000E948107882339F0B7016E5F7F4F8CED54
:1022C00092E00E940D11F701848182958F7079F060
:1022D000813041F5C8010E94E606C8010E94DC0673
:1022E000FC0165817681CE010E94BA1110C0E8819F
:1022F000F9810190F081E02DB801CE01DF91CF91FD
:102300001F910F91FF90EF90DF90CF900994C8013B
:10231000DF91CF911F910F91FF90EF90DF90CF90C1
:102320000C948407DF91CF911F910F91FF90EF9054
:10233000DF90CF900895CF93DF93E4E1F7E083E05F
:102340008683AEE5B1E01296CD91DC911397D583EB
:10235000C483B383A28386E197E013969C938E9304
:102360001297998388838BEF92E091838083DF912A
:10237000CF91089506960C94161706960C9439176B
:10238000AF92BF92CF92EF92FF920F931F93CF9392
:10239000DF93CDB7DEB767970FB6F894DEBF0FBEF9
:1023A000CDBFFC01198A1A8A268537852B8BDB0164
:1023B00012968D919C9113979D8B8C8BAE014E5EE6
:1023C0005F4F5A83498344E050E05C834B834485EC
:1023D00055855E834D832F8338872D913C913A87B5
:1023E00029879C878B87A08CB18CC6889F01205F32
:1023F0003F4F44895589628573856115710511F4D4
:102400000E94792783E0E82EF12C8E010F5F1F4F89
:10241000CE0146960E943110CE0146960E942007BA
:1024200067960FB6F894DEBF0FBECDBFDF91CF9198
:102430001F910F91FF90EF90CF90BF90AF900895B4
:10244000AF92BF92CF92DF92EF92FF920F931F93C2
:10245000CF93DF9300D000D0CDB7DEB7FC01408B27
:10246000518B628B738B358B248B24E0F801DC015C
:102470001C9601900D922A95E1F7FC01D78AC68A35
:10248000B18EA08EF70122813381408151815A8320
:1024900049833C832B83BE016F5F7F4F0E94C01135
:1024A0000F900F900F900F90DF91CF911F910F9190
:1024B000FF90EF90DF90CF90BF90AF9008952F9254
:1024C0003F924F925F926F927F928F929F92AF92C4
:1024D000BF92CF92DF92EF92FF920F931F93CF9311
:1024E000DF93CDB7DEB762970FB6F894DEBF0FBEAD
:1024F000CDBF4C016B01DC0196960D911C91979715
:10250000C8010E9458267C01A80160E070E00E948A
:10251000BD27C6010E94F3065C01FC018085918500
:102520000A96E80FF91F1F014FEF241A340A608042
:10253000062C000C7708C30101968E0F9F1FD40153
:1025400096960D911C919797F50166817781615060
:102550007109661977099296ED91FC9193973097DE
:10256000B1F194962D913C9195972F3F4FEF340701
:1025700041F49701AB01BC0190968D919C9191978C
:1025800020C0D40190960D90BC91A02DBA8BA98B40
:102590001097C9F029015594479420FF0BC09D0165
:1025A000240D351DD9012D913C91E20FF31F0190AF
:1025B000F081E02D9701AB01BC0189899A89840DD6
:1025C000951D099506C09801A701099502C080E0F4
:1025D00090E0F401008D118D46885788FA82E982D7
:1025E0009C838B833E822D8278866F82D5016D908D
:1025F0007C90C6010E94EE067C01C6010E94F00696
:10260000FE86ED8690E0988B8F87BE01635F7F4FDB
:10261000CE0109960E94E70F49855A856B857C8516
:1026200058016201FE0131967F018E010B5F1F4F41
:102630009301C4010E94201262960FB6F894DEBF87
:102640000FBECDBFDF91CF911F910F91FF90EF9003
:10265000DF90CF90BF90AF909F908F907F906F90C2
:102660005F904F903F902F90089523E133E0FC015D
:10267000318320830C94A802CF93DF93EC010E9456
:102680003513CE01DF91CF910C94F026DC011D961D
:10269000ED91FC911E97CB01309709F009940C94B1
:1026A00084078F929F92AF92BF92CF92DF92EF9268
:1026B000FF920F931F93CF93DF9300D0CDB7DEB778
:1026C0006C017B01DC011B96ED91FC911C97CB0109
:1026D000309711F009954EC00E94F3064C01B4E00A
:1026E0008B0E911CFC01A180B12CD60117960D9187
:1026F0001C91189702501109B7E0CB0ED11CC801EC
:1027000002968C159D0599F1F80162857385A501E6
:10271000C4010E94C427D801892B11F5ED91FC91C9
:10272000C080D180FA82E982E114F10471F0F701EE
:10273000868587FD0E9479270E94D205E981FA816A
:1027400086858F5F86870E94E605BE016F5F7F4F9B
:10275000C801F6010995CE0101960E9420070AC022
:1027600012960D911C91139702501109C8CFC70101
:102770000E9484070F900F90DF91CF911F910F91CE
:10278000FF90EF90DF90CF90BF90AF909F908F9091
:102790000895CF93DF93EBE1F7E084E08683AEE525
:1027A000B1E01296CD91DC911397D583C483B383A6
:1027B000A2838DE197E013969C938E931297998351
:1027C000888381E293E09183808382E297E090871F
:1027D000878392878187DF91CF91089590932D070A
:1027E00080932C0770932B0760932A070895E0913C
:1027F0002C07F0912D07309749F00190F081E02DE2
:10280000682F80912A0790912B07099480E090E02F
:102810000895AB01E0912C07F0912D07309749F016
:102820000480F581E02DBC0180912A0790912B074F
:10283000099480E090E008950F931F93CF93DF9366
:1028400080912C0790912D07892B59F08A01EB017B
:10285000060F171FC017D10721F089910E94F713A7
:10286000F9CF80E090E0DF91CF911F910F91089513
:102870000C94F7130C9409141F920F920FB60F9239
:1028800011242F933F934F935F936F937F938F9375
:102890009F93AF93BF93EF93FF930E948A14FF918E
:1028A000EF91BF91AF919F918F917F916F915F91C8
:1028B0004F913F912F910F900FBE0F901F90189541
:1028C000CF92DF92EF92FF920F931F93CF93DF93FC
:1028D0000E94D205C0902E07D0902F07E0903007BD
:1028E000F09031070091320710913307D0913407EF
:1028F000C09135070E94E6059601A701B8018D2F0A
:102900009C2FDF91CF911F910F91FF90EF90DF905F
:10291000CF90089520912E0730912F0740913007D6
:1029200050913107609132077091330780913407DD
:1029300090913507A1E00E94972420932E073093B1
:102940002F074093300750933107609332077093FD
:10295000330780933407909335070895CF93DF931F
:102960009B01AC0160E078EE83E090E00E94902350
:10297000DA01C9012093760190937701A093780141
:10298000B093790110927A0110927B0110927C0130
:1029900010927D010E948F1D9B01AC0160E070EAE6
:1029A0008FE090E00E949023DA01C90120936E012C
:1029B00090936F01A0937001B09371011092720116
:1029C000109273011092740110927501DF91CF91F2
:1029D0000895AF92BF92CF92DF92EF92FF920F9342
:1029E0001F930E946014A0907601B0907701C09070
:1029F0007801D0907901E0907A01F0907B0100910C
:102A00007C0110917D010E94B82308E00E9472248D
:102A10001F910F91FF90EF90DF90CF90BF90AF90FC
:102A2000089520E030E040E050E0CD960C94BD15D4
:102A30009A01CD96211540E1340728F020E030E0DE
:102A400040E050E102C040E050E00C94BD1541115F
:102A500002C00C94111520E030E040E050E1CD962A
:102A60000C94BD15FC01148213821582128211820E
:102A700010820895AF92BF92DF92EF92FF920F9370
:102A80001F93CF93DF9300D01F92CDB7DEB78C0199
:102A9000D62E7C0185E0E80EF11C5801EDE1AE0E6A
:102AA000B11CC7010E943215F6E0EF0EF11CAE1406
:102AB000BF04B9F7F80111A614A610A617A211AE0B
:102AC00014AE10AE17AA60E4C801CD960E94BA15E4
:102AD000F801D2826D2DCE0101960E94BA1589812E
:102AE0009A81AB81F80185AF96AFA7AF0F900F9099
:102AF0000F90DF91CF911F910F91FF90EF90DF909A
:102B0000BF90AF900895CF93DF93EC01623061F0F6
:102B10006430B9F0613009F56A818B819C810E9433
:102B2000111541E0698107C069818B819C810E94F8
:102B3000111541E06A818B819C81DF91CF910C94CA
:102B4000271569818B819C810E9411156A818B8177
:102B50009C81DF91CF910C941115DF91CF91089555
:102B600020E1629FA0011124FC0160818381948196
:102B70000C941815FC01628308950F931F93CF9353
:102B8000DF9300D000D01F92CDB7DEB7660F660F7F
:102B90006A5F69834A835B832C833D83FC01A08148
:102BA000B181ED91FC9111970281138125E030E014
:102BB000AE014F5F5F4FFC016281CD01F8010995C5
:102BC0000F900F900F900F900F90DF91CF911F916A
:102BD0000F910895FC01868197810C94AC1CFC0137
:102BE000868197810C94A71CFC01868197810C94A7
:102BF000B01CFC01868197810C94B51C8F929F922A
:102C0000AF92BF92EF920F931F93CF93DF93EC019C
:102C10004A015B01122F61E070E08E819F810E946A
:102C2000C31C61E070E08E819F810E94BA1C212F3D
:102C3000B501A4018E819F810E94E71C61E070E0D4
:102C40008E819F810E94CC1C80E090E0DF91CF912B
:102C50001F910F91EF90BF90AF909F908F9008952C
:102C6000FC01623081F038F46623B9F0613029F557
:102C700060E070E014C06430B9F040F06530E9F411
:102C800060E070E013C061E070E002C060E070E0FE
:102C9000868197810E94D51C0DC061E070E086811D
:102CA00097810E94CC1C06C061E070E0868197810C
:102CB0000E94DE1C80E090E008958FEF9FEF089562
:102CC000EF92FF920F931F93CF93DF93CDB7DEB7B1
:102CD00028970FB6F894DEBF0FBECDBF8C017B01E5
:102CE000FC01868197810E94BA1CB701F801868198
:102CF00097810E94C31C60E070E0F8018681978193
:102D00000E94DE1C60E070E0F801868197810E94DD
:102D1000D51CB701F801868197810E94CC1C80E107
:102D2000898387E28A831B821C821D821E821F8206
:102D3000188629813A814B815C816D817E818F81EA
:102D40009885AFEF0E94972429833A834B835C8355
:102D50006D837E838F839887A0E00E94B52449F716
:102D600080E090E028960FB6F894DEBF0FBECDBF8E
:102D7000DF91CF911F910F91FF90EF9008958DE01B
:102D80000E9438148AE00C943814CF93DF9300D05B
:102D900000D000D0CDB7DEB749835A836B837C83E4
:102DA0008D839E8385E393E00E94CB178B819C816A
:102DB0000E94CB170E94BF168CE393E00E94CB17B2
:102DC0008D819E810E94CB170E94BF1683E493E001
:102DD0000E94CB1789819A810E946B1826960FB6A4
:102DE000F894DEBF0FBECDBFDF91CF910C94BF161C
:102DF000DC0115967C936E93149716962C912130D6
:102E000069F0223081F4DC011796ED91FC9118975E
:102E100019968D919C911A97099502C00E94C71B23
:102E200080E090E008958FEF9FEF08950F931F9338
:102E3000CF93DF93EC018B010E94D205E881F981E9
:102E4000CE17DF0781F0C081D181A281B381BB831E
:102E5000AA83CD93DC93F383E283F183E083B8010B
:102E6000CF010E94F816DF91CF911F910F910C9422
:102E7000E6050F931F93CF93DF93EC018B010E9424
:102E8000D205E881F981CE17DF07A9F08081918111
:102E900022813381DC0113963C932E931297D90142
:102EA0008D939C93F383E283F183E083B801CF0198
:102EB0000E94F816E6CFDF91CF911F910F910C94ED
:102EC000E60560E070E00E94161780E090E008954B
:102ED00040E050E060E070E00C94CD1B8AE493E0A9
:102EE0000E94CB178DE00E9438148AE00E943814AB
:102EF000FFCF8A3010F4805D01C0895C0C943814D7
:102F0000CF93C82F82958F700E9479178C2F8F7066
:102F1000CF910C9479170F931F93CF93DF93EC010C
:102F20008C01060F171FC017D10721F089910E944D
:102F30008017F9CFDF91CF911F910F9108950F93D3
:102F40001F93CF93DF938C01060F171FEB01C01B5C
:102F5000D10BC8018C0F9D1F892B31F0F801829194
:102F60008F010E948017F5CFDF91CF911F910F91B4
:102F70000895CF93DF9300D0CDB7DEB79A838983CE
:102F800062E070E0CE0101960E949F170F900F90B3
:102F9000DF91CF910895009711F0FC010CC08EE4F1
:102FA0000E94381485E50E9438148CE40E9438147D
:102FB0008CE40C943814BF01681B790B219121110A
:102FC000FACF0C943A142F923F924F925F926F92E5
:102FD0007F928F929F92AF92BF92CF92DF92EF92A9
:102FE000FF920F931F93CF93DF93CDB7DEB76A970E
:102FF0000FB6F894DEBF0FBECDBF29013A014B01D9
:103000001C01A0E00E94B52419F480E30E9438144A
:10301000188ECE0148969A8F898F9201A301B40130
:10302000C101A0E00E94B52401F18AE0A82EB12CD4
:10303000C12CD12CE12CF12C00E010E09201A30175
:10304000B401C1010E941124205DE98DFA8D229303
:10305000FA8FE98F9201A301B401C1010E941324E8
:1030600029013A014B011C01D8CF898D9A8D0E940C
:10307000CB176A960FB6F894DEBF0FBECDBFDF91B7
:10308000CF911F910F91FF90EF90DF90CF90BF9065
:10309000AF909F908F907F906F905F904F903F90F8
:1030A0002F900895282F30E040E050E060E070E07D
:1030B00080E090E00C94E3170C945218CF93DF93C8
:1030C0009C0140E050E060E070E080E090E0DF9143
:1030D000CF910C94E3170C945E18FC015583448344
:1030E000938382839183808308950F931F93CF935B
:1030F000DF9300D0CDB7DEB78C010E94D205F80176
:10310000848195811816190644F401979583848368
:103110000E94E60580E090E00CC00E94E605AE014A
:103120004F5F5F4F60E070E0C8010E94CD1B0097C9
:1031300021F30F900F90DF91CF911F910F91089580
:10314000CF93DF93EC010E94D2058C819D811816EC
:10315000190634F401979D838C83C0E0D0E002C04F
:10316000CFEFDFEF0E94E605CE01DF91CF9108950A
:10317000CF93DF93EC010E94D2058C819D81019653
:103180009D838C8388819981C817D90729F060E0D5
:1031900070E0CE010E9416170E94E60580E090E0E4
:1031A000DF91CF9108958091360790913707089568
:1031B00080913A0790913B0720918A0130918B01D1
:1031C0002A523109AC014F5F5F4F11F4029601C0E2
:1031D000CA01F90141E0E036F40751F044A155A1DC
:1031E0008417950779F302A4F3A5E02DBA97F2CFDF
:1031F00090933B0780933A07089580913807909108
:10320000390720918A0130918B012A523109AC0192
:103210004F5F5F4F11F4029601C0CA01F90141E00E
:10322000E036F40751F046A157A18417950779F3CA
:1032300002A4F3A5E02DBA97F2CF909339078093BB
:1032400038070895EF92FF920F931F93CF93DF9368
:10325000EC01F62EE42E89018A96A0918A01B091A4
:103260008B01FD0121E0EA38F20741F08E179F073C
:1032700009F445C00190F081E02DF4CF1C861B8637
:103280001A869E012A5F3F4F398728873F832E8306
:10329000FDA7ECA7BBA7AAA713969C938E931297A2
:1032A00090938B0180938A010E94D8189DA38CA3D0
:1032B000E0FE07C0E0913607F091370786A197A19D
:1032C00002C00E94FD189FA38EA31FA61EA619AAC6
:1032D00018AA1B830A83F9A283E08AA31AAA1BA255
:1032E0008091360790913707998388831CAA1BAA7F
:1032F000DF91CF911F910F91FF90EF900895AE81D4
:10330000BF81E885F9851396FC93EE931297B183FC
:10331000A083CE010696998788879F838E83C4CF2A
:10332000EBE7F7E0F383E283F183E0838FE797E055
:10333000978386839583848383E897E09387828746
:103340009187808787E897E0978786879587848726
:10335000E2E8F1E0F383E283F183E083E6E8F1E081
:10336000F383E283F183E083EEE7F1E0F383E2832A
:10337000F183E083EAE8F1E0F383E283F183E08321
:103380000895CF93DF93EC010E94D2051AA21C8608
:10339000CE010696AE81BF81E885F9851396FC9330
:1033A000EE931297B183A083E6E8F1E0A281B381A6
:1033B000B987A887FF83EE83938382838D939C9341
:1033C000DF91CF910C94E605CF93DF93DC019196CA
:1033D0004C919197069616962D913C9117971896B9
:1033E000CD91DC911997F901D383C2833983288366
:1033F00024E0429FF0011124E558F84FC281D381A7
:103400001996DC93CE9318971796FC93EE93169724
:103410009383828399838883DF91CF910895CF939B
:10342000DF93EC010E94D20584E08AA3CE010696C8
:10343000AE81BF81E885F9851396FC93EE931297D0
:10344000B183A083EEE7F1E0A281B381B987A887B9
:10345000FF83EE83938382838D939C93DF91CF913F
:103460000C94E605DC019093370780933607D296DB
:103470008C91D2978160D2968C93D297D0968D9171
:103480009C91D1970196D1969C938E93D09712964A
:10349000ED91FC9113970190F081E02DCD010994FD
:1034A000DC01ED91FC91309731F00480F581E02D45
:1034B0008FED9FEF099408951F93CF93DF930E94A0
:1034C000D20515E0E0917E01F0917F01B1E0EE3789
:1034D000FB0711F1EF0126978081918122813381D1
:1034E000DC0113963C932E931297D9018D939C93F4
:1034F000F383E283F183E0830E94E6051AA3EA8165
:10350000FB810280F381E02DCE010995CE010E945E
:10351000501A0E94D205D6CF0E94E6050E94D2051D
:103520008091860190918701E1E086389E0721F025
:1035300006970E94E419F4CF0E94E605CBE7D7E096
:1035400020E030E0A881B981CA17DB0791F1CD01F5
:103550000697FC0142A945FF05C0DF91CF911F915D
:103560000C940F1A4D915C91119712966D917C916C
:103570001397FA0173836283FB0151834083220F07
:10358000331F220F331FF901E558F84F2281338191
:1035900013963C932E9312971196DC93CE93B3839C
:1035A000A283F901B183A083DF91CF911F910C9485
:1035B000321A2F5F3F4F24962430310519F6DF91E0
:1035C000CF911F9108950C94C119CF93DF930E945E
:1035D000D318EC018AA981FF11C00E94F9058BA3C1
:1035E0008EA59FA501969FA78EA7EA81FB810480E7
:1035F000F581E02DCE01DF91CF9109948FEF9FEF00
:10360000DF91CF9108956F927F928F929F92AF92A8
:10361000BF92CF92DF92EF92FF920F931F93CF93BF
:10362000DF9300D000D000D0CDB7DEB73C010E94C0
:10363000D3185C01009799F486E0E8E9F1E0DE0137
:10364000119601900D928A95E1F749815A816B811B
:103650007C818D819E810E94C5160E9424224C018E
:1036600086E0880E911C0E94D205F501A681B781E3
:103670008085918513969C938E931297FC01B1835C
:10368000A083F50191868086978286820E94E60556
:1036900083E0F501848782E082A30E94E91463013C
:1036A0001F921F921F921F921F921F92DF926F9282
:1036B000C22ED32E7A018B019C01A50163EE7AE123
:1036C000C4010E942622C4010E946C220FB6F89405
:1036D000DEBF0FBECDBF26960FB6F894DEBF0FBE7D
:1036E000CDBFDF91CF911F910F91FF90EF90DF90B1
:1036F000CF90BF90AF909F908F907F906F900C94E1
:10370000E51ABC01675C7F4FDC01DB96ED91FC9113
:10371000DC97DD968D919C91DE9709940895CF9367
:10372000DF9300D000D000D0CDB7DEB786E0EEE961
:10373000F1E0DE01119601900D928A95E1F7498141
:103740005A816B817C818D819E810E94C5160E9469
:103750002422EF92FF920F931F93CF93DF93EC01FC
:103760007B018A012EE831E040E050E063E070E048
:103770000E9422191AAE19AEFCAEEBAE1EAF0DAF11
:10378000DF91CF911F910F91FF90EF9008950697D1
:103790000E94C11980E090E00895EF92FF920F938C
:1037A0001F93CF93DF9300D000D000D0CDB7DEB70A
:1037B0008C017B010E94D318FC01892B19F082A98E
:1037C00081FD13C086E0E4EAF1E0DE01119601908C
:1037D0000D928A95E1F749815A816B817C818D81B7
:1037E0009E810E94C5160E94242281E0848782E087
:1037F00082A34FB7F894CF01069626813781608562
:103800007185D90113967C936E931297DB012D93EA
:103810003C939187808797838683D801EF2869F04E
:103820002D913C9111971187008737832683F901E9
:10383000938382838D939C930FC012962D913C911C
:103840001397318720871783068313969C938E9353
:103850001297F901918380834FBF26960FB6F89493
:10386000DEBF0FBECDBFDF91CF911F910F91FF90B3
:10387000EF900C94E51ACF93DF93EC010E94D318DC
:10388000FC0181E0848782E082A34FB7F894CF01E6
:1038900006962681378160857185D90113967C93C0
:1038A0006E931297DB012D933C9391878087AA81B9
:1038B000BB81B187A087D783C6839B838A838D937F
:1038C0009C934FBFDF91CF910895FC0182814423E7
:1038D00011F0682B02C060956823628380E090E05D
:1038E0000895FC01808190E00895FC01DA01C9018E
:1038F0008827AA27BB27892B8A2B8B2B11F0211114
:1039000022C020FF17C08181609568236183BA01BE
:10391000A9014E7155276627772781E090E0452B56
:10392000462B472B11F480E090E022273327281BF9
:10393000390B0BC030FF06C08181682B618320E00A
:1039400030E003C008952FEF3FEFC9010895FC0157
:10395000668381E090E00895FC01868190E00895FF
:10396000FC018081807890E00895FC018081807264
:1039700090E00895FC019181672B11F0906101C0E6
:103980009F7E91830895FC019181672B11F09860CF
:1039900001C0977F91830895FC019181672B11F0FD
:1039A000906801C09F7791830895FC019181672BF6
:1039B00011F0906201C09F7D91830895FC01918177
:1039C000672B11F0906401C09F7B91830895CF9382
:1039D000DF93EC019A01AB0188818260888360E00B
:1039E00079E08DE390E00E949023DA01C90101970C
:1039F000A109B109AC01BD01769567955795479529
:103A0000852F99278D834C83DF91CF91089588303E
:103A1000910589F038F40097B9F0019791F481E0AD
:103A200090E008958034910549F08115914049F462
:103A300084E090E0089582E090E0089583E090E0D3
:103A400008958FEF9FEF089580E090E008950F9321
:103A50001F93CF938C01CB01F801C1810E94071DF8
:103A6000C87F87708C2BF8018183CF911F910F91B4
:103A700008958038910529F0803B910521F4E2E01A
:103A800003C0E1E001C0E0E0F0E0E259FF4F8081D7
:103A90008E7F6170682B608308950C94391D61E0FE
:103AA00084E490E00E944D1D60E470E084E490E0C6
:103AB0000E94271D60ED73E080E090E00E94AE144C
:103AC0000C94771D9FB7F8948091C0008064809318
:103AD000C0008091C00085FFFCCF6093C60080913C
:103AE000C00086FFFCCF9FBF80E090E00895109259
:103AF000C0001092C50088E08093C40086E08093E7
:103B0000C200E1ECF0E080818860808360E070E0DA
:103B100088E294E00E94EE1380E090E0089560E077
:103B200071E080E090E00895AF92BF92CF92DF9273
:103B3000EF92FF921F93CF93DF93EC01162F5A0160
:103B400069017C0182E0E80EF11CC7010E94751832
:103B5000B88AAF86DA8AC98A110F1E87188E1F8A23
:103B60008B8D8C7F8B8F85EA8093BC00CE0108966D
:103B70000E947518C7010E94B81880E090E0DF919C
:103B8000CF911F91FF90EF90DF90CF90BF90AF90BB
:103B900008957F928F929F92AF92BF92CF92DF92C1
:103BA000EF92FF920F931F93CF93DF93EC01762E4A
:103BB0004A0159016C0182E0C80ED11CC6010E9465
:103BC00075181C8B0B8B988A8F86FE8AED8ABA8AB1
:103BD000A98AFA8EE98E770C7E86188E1F8A8B8DC5
:103BE0008C7F82608B8F85EA8093BC00CE01089623
:103BF0000E947518C6010E94B81880E090E0DF911D
:103C0000CF911F910F91FF90EF90DF90CF90BF90D9
:103C1000AF909F908F907F900895CF93DF93FC019A
:103C20008091B900887F883209F453C070F48031E4
:103C300079F128F4882319F1883021F1B4C0883152
:103C400099F1803209F441C0AEC08834F1F138F402
:103C5000803309F480C0803409F48FC0A4C080355B
:103C600009F47CC0883509F09EC02091BB00A3896F
:103C7000B4898789908DA80FB91F2C938BC0838D31
:103C8000846025C0938D93708685913031F40AC08D
:103C9000938D93708685923029F08E7F8093BB0040
:103CA00085E875C08160FACF838D80FD7CC0278553
:103CB00030898789908DAC014F5F5F4F508F478B64
:103CC000F901E80FF91F8081E9CF838D8860838F28
:103CD00061C0EF01838D8370F9F48789908D21890C
:103CE00032898217930741F485E98093BC00CF01A4
:103CF00008960E94B81810C027853089AC014F5F24
:103D00005F4F508F478BF901E80FF91F8081809337
:103D1000BB0085E88093BC008B8D8370823009F0F6
:103D200042C08F89988D29893A898217930721F497
:103D3000188E1F8A85EA2BC02F853889AC014F5F0A
:103D40005F4F588F4F8BF901E80FF91F80818093E7
:103D5000BB0085E91CC0838D8061B9CF438954893C
:103D60008789908D9C012F5F3F4F308F278B20914B
:103D7000BB00DA01A80FB91F2C938789908D01969B
:103D8000218D328D8217930709F48ACF85EC8093B9
:103D9000BC0009C085E98093BC00CF010896DF9183
:103DA000CF910C94B818DF91CF910895DC01ED917B
:103DB000FC910480F581E02D0994FC01448D558D22
:103DC000268D378D4217530728F080A191A1820FCD
:103DD000931F01C0C9010197841B950B08950F9390
:103DE0001F93CF93DF938C010E94D205F801C2A1EB
:103DF000D3A124A135A1C217D30728F4F80186A1C5
:103E000097A1C80FD91FC21BD30B0E94E605CE0194
:103E1000DF91CF911F910F9108955F926F927F92E2
:103E20008F929F92AF92BF92CF92DF92EF92FF92CA
:103E30000F931F93CF93DF934115510509F48BC066
:103E4000522E7A015B01EC014C0184E0880E911C3A
:103E5000C4010E947518892B09F079C00E94D2050F
:103E60008A819B81DC01ED91FC910284F385E02D38
:103E70000995892BC1F02C8D3D8D8E8D9F8D281736
:103E8000390789F48A819B81F5016081062E000C37
:103E9000770BDC01ED91FC910084F185E02D099513
:103EA00001E010E002C000E010E0B52DB1705B2E23
:103EB0003E01E0E16E0E711CE016F10609F441C00E
:103EC000688D798DF501E00FF11FA701401B510BA3
:103ED000C12CD12CC416D50661F02C8D3D8D8E8D54
:103EE0009F8D009711F488A199A101972817390790
:103EF00049F4C114D104C1F062E08A819B810E941F
:103F0000D61E12C08191DB01A20FB31F8C938C8D42
:103F10009D8D01969D8F8C8F28A139A182179307C3
:103F2000E9F41D8E1C8E1AC00C0D1D1DE016F10645
:103F300041F0511006C0C3010E946817892B09F493
:103F4000BBCF0E94E605C4010E94B81802C000E081
:103F500010E0C80107C080E090E004C08FEFC81AED
:103F6000D80AB8CFDF91CF911F910F91FF90EF90BA
:103F7000DF90CF90BF90AF909F908F907F906F9089
:103F80005F9008958F929F92AF92BF92CF92DF92EF
:103F9000EF92FF920F931F93CF93DF93EC01B62E16
:103FA000072F6A01122F2E8D3F8D8C8D9D8D281726
:103FB000390719F188E394E00E94CB1780E20E9450
:103FC00038148AE30E94381480E20E9438148C8DE1
:103FD0009D8D4E8D5F8D8417950720F428A139A102
:103FE000820F931F841B950B0E946B188DE00E941B
:103FF00038148AE00E943814D6CF7E018AE0E80E99
:10400000F11CC7010E947518892B09F04BC00E9452
:10401000D205912F9170A92E1270CE0144964C01B9
:104020002AA13BA18CA19DA12817390779F4A110E1
:1040300005C0C401112329F00E943B1C00E010E0E0
:104040002BC00E946817892B59F3F8CFC114D104F3
:10405000A9F34A8D5B8DEB2DF02F00E010E08CA1D1
:104060009DA12AA13BA128173907B1F0DA01A80FB9
:10407000B91F2C9101969DA38CA36EA17FA18617D9
:10408000970711F41DA21CA22F3F31F021930F5F5F
:104090001F4F0C151D0519F70E94E605C7010E9468
:1040A000B81802C000E010E0C801DF91CF911F9165
:1040B0000F91FF90EF90DF90CF90BF90AF909F90C7
:1040C0008F900895CF93DF93EC016115710579F11D
:1040D0006130710509F05AC02E8D3F8D4C8D5D8D7C
:1040E0008A819B814217530731F463E00E94D61EF8
:1040F000CE01409647C0E88DF98DE20FF31F608135
:104100002F5F3F4F3F8F2E8F48A159A124173507AE
:1041100011F41F8E1E8E062E000C770BDC01ED9124
:10412000FC910084F185E02DDF91CF9109948A8183
:104130009B81DC01ED91FC910680F781E02D0995D2
:104140004AA15BA12CA13DA12115310511F42EA19D
:104150003FA1215031094217530791F02A8D3B8D21
:10416000F901E40FF51F80838AA19BA101969BA30F
:104170008AA32EA13FA18217930711F41BA21AA2B2
:10418000CE014496DF91CF910C946117DF91CF91CE
:104190000895CF93DF93EC016115710511F07B83D6
:1041A0006A83AA81BB8182E690E213969C938E93E8
:1041B00012971596DC93CE931497ED91FC9111977D
:1041C0000280F381E02D61E070E0CD01099560E0AF
:1041D0008A819B81DF91CF910C94D61EEF92FF9242
:1041E0000F931F93CF93DF93FA01319628EADA01F8
:1041F0002C93DC01680F791F9FEF11E385EC0BE234
:104200002CE5F22E3AE8E32E6A177B0709F12D918F
:104210009227C8E0D0E0392F330F97FF03C0932FC8
:10422000912701C0932F2197B1F7223B39F0253C0C
:1042300041F0283A51F48083E18205C080830183F4
:1042400002C02083F1823296DFCF20833196DCCF0B
:10425000923B59F0953C89F0983AA9F485EC80831B
:104260009F012E5F3F4F8AE806C085EC80839F0147
:104270002E5F3F4F8BE281830AC090839F012E5FA8
:104280003F4F8CE5F8CF9F012F5F3F4F9083F9019F
:1042900082EB8193CF01841B950BDF91CF911F910E
:1042A0000F91FF90EF900895FC0111867183608358
:1042B0005383428315821482178216828FEF808780
:1042C00008951F93CF93DF93EC01162F89858130DA
:1042D000D1F028F0823009F1843049F0ACC08FEF82
:1042E00088871D821C821F821E8284E08987183A7B
:1042F00009F0A4C081E089878FEF88871D821C8226
:104300001F821E828BC0623B19F1653C21F0683A26
:1043100009F045C013C082E080C0683A79F02CF4FF
:104320006A3809F07DC018EA3AC06B3229F06C3562
:1043300009F076C015EC33C012EB31C08FEF8887DF
:104340001D821C821F821E8281E0898782E077C0E5
:104350008885811167C08E819F811816190614F017
:10436000BC0102C061E070E04C815D81461B570BCF
:104370005D834C83861B970B9F838E834817590759
:1043800009F452C028813981481B590B680F791FE5
:10439000620F731F820F931F0E94AB2745C04C8191
:1043A0005D818A819B810197481759070CF03FC0B6
:1043B0002E813F814217530769F088819981421B02
:1043C000530BBC01620F731F2F5F3F4F820F931F70
:1043D0000E94AB27288139818E819F81AC014F5F7C
:1043E0005F4F5F834E83F901E80FF91F10838C81C3
:1043F0009D8101969D838C838885182788E090E0B5
:1044000031E3212F220F17FF03C0122F132701C002
:10441000122F0197B1F7188781E0898780E00FC0DC
:104420008DEF06C08FEF04C081E090E002C08EEFF8
:104430009FEF198605C08CEF9FEF02C083E090E0EC
:10444000DF91CF911F9108950E9479277F928F92DB
:104450009F92AF92BF92CF92DF92EF92FF920F9313
:104460001F93CF93DF93CDB7DEB7FC015B014A0109
:1044700068894989BA89AB897C895D899E898F89D8
:104480006894772472F8768215821482F383E2832B
:10449000F183E083B08EA78A928E818EC782D08608
:1044A000E186F28603871487258736876787408BE6
:1044B000B18BA28B738B548B958B868BDF91CF91B5
:1044C0001F910F91FF90EF90DF90CF90BF90AF9032
:1044D0009F908F907F9008952F923F924F925F927E
:1044E0006F927F928F929F92AF92BF92CF92DF9204
:1044F000EF92FF920F931F93CF93DF93EC012F81E5
:10450000388549855A856B857C858D859E85AF84E8
:10451000B888C988DA88EB88FC880D891E890E94D2
:104520008E24922E832E742E652E562E472E382ED4
:10453000292E0E94D205E0919401F091950181E02D
:10454000E439F80751F1278130854185528563852B
:10455000748585859685A784B088C188D288E388CC
:10456000F488058916890E948E2459016A017B010D
:104570008C01292D382D472D562D652D742D832D19
:10458000922D0E94A324A0E00E94B52424F0019063
:10459000F081E02DD4CF309711F4E4E9F1E0A2816D
:1045A000B381BB83AA83F983E883D383C283CD938A
:1045B000DC93DF91CF911F910F91FF90EF90DF90EF
:1045C000CF90BF90AF909F908F907F906F905F90B3
:1045D0004F903F902F900C94E605CF93DF93DC0132
:1045E000CD91DC9111971296ED91FC911397FB837D
:1045F000EA83D183C08313969C938E93129711966E
:104600009C938E935796ED91FC915897BC015996C7
:104610008D919C915A97DF91CF9109942F923F925F
:104620004F925F926F927F928F929F92AF92BF92C2
:10463000CF92DF92EF92FF920F931F93CF93DF936E
:10464000922E832E742E652E562E472E382E292E0E
:104650000E94D205C0919401D091950181E0C439A6
:10466000D80719F10E94E605292D382D472D562D22
:10467000652D742D832D922DAF80B884C984DA8482
:10468000EB84FC840D851E850E94A324AF84B8882A
:10469000C988DA88EB88FC880D891E890E94AC24C1
:1046A000C4F0CE010E94ED22D3CFDF91CF911F91B4
:1046B0000F91FF90EF90DF90CF90BF90AF909F90C1
:1046C0008F907F906F905F904F903F902F900C94C1
:1046D000E605DF91CF911F910F91FF90EF90DF9052
:1046E000CF90BF90AF909F908F907F906F905F9092
:1046F0004F903F902F900895AA1BBB1B51E107C01C
:10470000AA1FBB1FA617B70710F0A61BB70B881F61
:10471000991F5A95A9F780959095BC01CD010895F0
:10472000A1E21A2EAA1BBB1BFD010DC0AA1FBB1FB5
:10473000EE1FFF1FA217B307E407F50720F0A21B27
:10474000B30BE40BF50B661F771F881F991F1A9494
:1047500069F760957095809590959B01AC01BD01BE
:10476000CF010895EE0FFF1F0590F491E02D0994FD
:10477000DF93CF931F930F939A9DF02D219FF00D00
:104780008B9DF00D8A9DE02DF10D039FF00D029F92
:10479000E00DF11D4E9DE00DF11D5E9DF00D4F9D54
:1047A000F00D7F936F93BF92AF925F934F93D501BC
:1047B0000E94C1248B01AC01D7010E94C124EB01EE
:1047C000E80FF91FD6010E9408242F913F91D601CE
:1047D0000E94C124C60FD71FE81FF91FAF91BF91D8
:1047E0000E9408242F913F910E94C124C60FD71F19
:1047F000E81FF91FD6010E94C124E60FF71F980198
:10480000BE01CF0111240F911F91CF91DF91089527
:104810000E94C124460F571FC81FD91F08F43196A4
:104820000895689401C0E8948F929F92CF93DF938C
:104830000E941F24DF91CF919F908F90089588242C
:104840009924F401E401B0E49F93AA279A158B04FC
:104850009C04ED05FE05CF05D007A10798F4AD2F08
:10486000DC2FCF2FFE2FE92D982C892E982F872F04
:10487000762F652F542F432F322F2227B85031F730
:10488000BF9127C01B2EBF91BB27220F331F441F90
:10489000551F661F771F881F991F881C991CEE1FC4
:1048A000FF1FCC1FDD1FAA1FBB1F8A149B04EC0532
:1048B000FD05CE05DF05A007B10748F08A189B0863
:1048C000EC09FD09CE09DF09A00BB10B21601A9498
:1048D000E1F62EF49401AF01BE01CD01000C089564
:1048E00097FB10F8169400080F93083098F00850C2
:1048F000232F342F452F562F672F782F892F902D58
:10490000F4CF059497958795779567955795479533
:10491000379527950A95AAF70F9108952A0D3B1D03
:104920004C1D5D1D6E1D7F1D801F911F089500246D
:10493000A7FD00942A0F301D401D501D601D701DE5
:10494000801D901D08952A193B094C095D096E09C7
:104950007F09800B910B08952A153B054C055D05D9
:104960006E057F058007910708950024A7FD009438
:104970002A17300540055005600570058005900533
:104980000895A29FB001B39FC001A39F700D811D28
:104990001124911DB29F700D811D1124911D089548
:1049A0005058BB27AA270E94E8240C94AC250E94EB
:1049B0009E2538F00E94A52520F039F49F3F19F478
:1049C00026F40C949B250EF4E095E7FB0C949525BA
:1049D000E92F0E94BD2558F3BA17620773078407B1
:1049E000950720F079F4A6F50C94DF250EF4E095F8
:1049F0000B2EBA2FA02D0B01B90190010C01CA0199
:104A0000A0011124FF27591B99F0593F50F4503E43
:104A100068F11A16F040A22F232F342F4427585F35
:104A2000F3CF469537952795A795F0405395C9F74D
:104A30007EF41F16BA0B620B730B840BBAF0915005
:104A4000A1F0FF0FBB1F661F771F881FC2F70EC0A4
:104A5000BA0F621F731F841F48F487957795679577
:104A6000B795F7959E3F08F0B0CF9395880F08F063
:104A70009927EE0F9795879508950E94712508F460
:104A800081E008950E94C52588F09F5798F0B92FBE
:104A90009927B751B0F0E1F0660F771F881F991F73
:104AA0001AF0BA95C9F714C0B13091F00E94DF2511
:104AB000B1E008950C94DF25672F782F8827B85F21
:104AC00039F0B93FCCF3869577956795B395D9F7CB
:104AD0003EF490958095709561957F4F8F4F9F4FD5
:104AE0000895990F0008550FAA0BE0E8FEEF16167F
:104AF0001706E807F907C0F012161306E407F507D2
:104B000098F0621B730B840B950B39F40A2661F045
:104B1000232B242B252B21F408950A2609F4A140E8
:104B2000A6958FEF811D811D089597F99F6780E8F5
:104B300070E060E008959FEF80EC089500240A94EF
:104B40001616170618060906089500240A94121668
:104B50001306140605060895092E0394000C11F49B
:104B6000882352F0BB0F40F4BF2B11F460FF04C048
:104B70006F5F7F4F8F4F9F4F089557FD9058440FA1
:104B8000551F59F05F3F71F04795880F97FB991FAC
:104B900061F09F3F79F08795089512161306140669
:104BA000551FF2CF4695F1DF08C0161617061806F6
:104BB000991FF1CF86957105610508940895E894D1
:104BC000BB2766277727CB0197F908950E947125A7
:104BD00008F48FEF08950E94FE250C94AC250E94E6
:104BE0009E2538F00E94A52520F0952311F00C9405
:104BF00095250C949B2511240C94E0250E94BD253D
:104C000070F3959FC1F3950F50E0551F629FF0011F
:104C1000729FBB27F00DB11D639FAA27F00DB11D38
:104C2000AA1F649F6627B00DA11D661F829F2227C1
:104C3000B00DA11D621F739FB00DA11D621F839F48
:104C4000A00D611D221F749F3327A00D611D231F1E
:104C5000849F600D211D822F762F6A2F11249F576C
:104C600050409AF0F1F088234AF0EE0FFF1FBB1F6F
:104C7000661F771F881F91505040A9F79E3F51052E
:104C800080F00C9495250C94E0255F3FE4F3983E6A
:104C9000D4F3869577956795B795F795E7959F5FD8
:104CA000C1F7FE2B880F911D9695879597F908956A
:104CB0000F931F93CF93DF938230910510F482E01E
:104CC00090E0E0918D07F0918E0720E030E0A0E0C9
:104CD000B0E0309719F1408151810281138148176A
:104CE0005907C8F08417950769F4109731F01296A8
:104CF0000C93129713961C9327C000938D07109363
:104D00008E0722C02115310519F04217530718F4F8
:104D10009A01BD01EF01DF01F801DBCF211531055B
:104D2000F9F0281B390B2430310580F48A819B81EE
:104D30006115710521F0FB019383828304C0909378
:104D40008E0780938D07FE01329644C0FE01E20F6C
:104D5000F31F8193919322503109398328833AC0FC
:104D600020918B0730918C07232B41F42091020175
:104D70003091030130938C0720938B072091000121
:104D8000309101012115310541F42DB73EB7409115
:104D9000040150910501241B350BE0918B07F09124
:104DA0008C07E217F307A0F42E1B3F0B28173907D7
:104DB00078F0AC014E5F5F4F2417350748F04E0F77
:104DC0005F1F50938C0740938B078193919302C090
:104DD000E0E0F0E0CF01DF91CF911F910F910895B6
:104DE000CF93DF93009709F481C0FC0132971382BF
:104DF0001282A0918D07B0918E07109781F42081C7
:104E00003181820F931F20918B0730918C072817D7
:104E1000390751F5F0938C07E0938B0767C0ED01DC
:104E200020E030E0CE17DF0740F44A815B819E012D
:104E300041155105F1F0EA01F5CFD383C2834081DA
:104E40005181840F951FC817D90759F4888199811A
:104E5000840F951F0296918380838A819B8193831F
:104E600082832115310529F4F0938E07E0938D0795
:104E70003DC0E901FB83EA8349915991C40FD51FD5
:104E8000EC17FD0761F480819181840F951F0296D4
:104E9000E90199838883828193819B838A83E0E0FF
:104EA000F0E012968D919C911397009719F0FD01F7
:104EB000DC01F7CF8D919C9111979D012E5F3F4FA3
:104EC000820F931F20918B0730918C072817390789
:104ED00069F4309729F410928E0710928D0702C062
:104EE00013821282B0938C07A0938B07DF91CF912E
:104EF000089581E090E0F8940C94D52785FD0C94FA
:104F0000D227806291110C94D22781568A51D8F70A
:104F1000089591110C94D22780538A5028F0865C12
:104F2000806281568650B0F70895FB01DC0104C011
:104F30008D910190801921F441505040C8F7881B91
:104F4000990B0895FB01DC0102C001900D924150C4
:104F50005040D8F708956817790768F4FB01DC0121
:104F6000E40FF51FA40FB51F02C002900E9241502E
:104F70005040D8F708950C94A227DC0101C06D932E
:104F800041505040E0F70895FB01DC014150504092
:104F900030F08D910190801919F40020B9F7881B29
:104FA000990B089599278827089510E0C9E3D0E068
:104FB00004C0FE010E94B2232196CA33D107C9F76B
:044FC000F894FFCF93
:104FC40000008F072000270300000000C000300409
:104FD400100110010100160116010000000000007C
:104FE40000000000000000000000530406012E0130
:104FF4002E0101003401340101003A013A013E015D
:105004003E019A06C20600000000280000000000CD
:10501400280052015201560156015A015A015E01FB
:105024005E0162016201660166016A016A010100B2
:1050340000000000000001000000000000007E01EC
:105044007E0182018201860186018A018A01811B17
:105054008E1B8F1B9401940134005D038C03130099
:10506400A303D4031A00EB031304000000006E0131
:10507400000000009701640163726F775F736572CB
:10508400766963655F68616E646C65002E312E31EC
:1050940032372E302E302E313A3130303039000054
:1050A4000000006E176E176E1782020000000000E9
:1050B400000000C502B902850297029E02000000AA
:1050C40000C502B9028502A802AF02000000000D6B
:1050D40004B20388028202F2020103616C6C6F6302
:1050E4003A20000D0A003A2028007074723A0071C8
:1050F4006F733A002C61636B3A002C6174696D3AEA
:10510400002C616C656E3A002C666C656E3A002C5E
:10511400747970653A002C616464723A002C73747B
:10512400673A002C726573636F756E743A002C6471
:105134006174613A007574696C7A00696E61636BBD
:1051440000696E636F6D007770726F746F007472B4
:1051540061636B007472616E7300776761746500DC
:1051640063616E6E6F742063726561746520706133
:10517400636B6574006E6F646570726F746F3A2050
:105184007061636B657420666F7220756E726567FB
:10519400697374726564206E6F6465006E6F646514
:1051A40070726F746F3A207061636B657420666F00
:1051B40072206E6F6465000000000021110310026C
:1051C40010000000006E17B9028502000000000004
:1051D4000000005F12B902850235133C1300000081
:1051E40000511346130210FE1560163016EA15EF2F
:1051F40015F415F91566696C653A200066756E63D9
:105204003A20006C696E653A20005F5F6378615FE5
:10521400707572655F7669727475616C002F686F62
:105224006D652F6D69726D696B2F70726F6A65633E
:10523400742F67656E6F732F67656E6F732F73635B
:1052440068656465655F6170692E63006375727279
:10525400656E745F736368656465655F6D736C65C3
:105264006570002F686F6D652F6D69726D696B2FA6
:1052740070726F6A6563742F67656E6F732F6765ED
:105284006E6F732F6175746F6D5F736368656465AA
:10529400652E63006175746F6D5F73636865646523
:1052A400655F646973706C616365002F686F6D6519
:1052B4002F6D69726D696B2F70726F6A6563742FDD
:1052C40067656E6F732F67656E6F732F776169748F
:1052D4002E6300776169745F63757272656E745FC3
:1052E4007363686564656500621D00001C1400003A
:1052F400C91D941D0000000072696E675F617661CC
:10530400696C28267572696E672D3E747872696EB1
:0C5314006729000D1FC21FEF1EDD1E00E8
:00000001FF
