:100000000C943A000C9462000C9462000C94620010
:100010000C9462000C9462000C9462000C946200D8
:100020000C9462000C9462000C9462000C946200C8
:100030000C9462000C9462000C9462000C946200B8
:100040000C9489170C9462000C942F010C945E019F
:100050000C948D010C9462000C9462000C9462006C
:100060000C94E1020C94620027024104B0071D09C0
:10007000F914540811241FBECFEFD8E0DEBFCDBF66
:1000800012E0A0E0B1E0E6E3FDE502C005900D92CC
:10009000AC3BB107D9F727E0ACEBB2E001C01D9251
:1000A000A039B207E1F710E0C9E3D0E004C021971E
:1000B000FE010E948526C433D107C9F70E94CF01F3
:1000C0000C948E2E0C940000CF93DF93D92FC82F61
:1000D0000992199229923992499259926992799288
:1000E00089929992A992B992C992D992E992F99278
:1000F0000993199329933993499359936993799360
:1001000089939993A993B993BF91AF91A993B99307
:10011000E993F9930F900F910F90099209930DB6FF
:1001200009920EB609920FB60992D72FC62F0CA0CE
:100130000FBE0AA00DBE0BA00EBE08A00F9209A014
:100140000F9200E00F9309901990299039904990EF
:1001500059906990799089909990A990B990C99097
:10016000D990E990F9900991199129913991499182
:1001700059916991799189919991A991B991AF9387
:10018000BF93A991B991E991F991CA2FDB2FBF9142
:10019000AF910895D92FC82F0CA00FBE0AA00DBE95
:1001A0000BA00EBE08A00F9209A00F920990199003
:1001B00029903990499059906990799089909990B7
:1001C000A990B990C990D990E990F99009911991A5
:1001D000299139914991599169917991899199918F
:1001E000A991B991AF93BF93A991B991E991F9916F
:1001F000CA2FDB2FBF91AF910895CF93DF93D92FF3
:10020000C82F09921992299239924992599269926A
:10021000799289929992A992B992C992D992E992C6
:10022000F9920993199329933993499359936993AF
:10023000799389939993A993B993BF91AF91A99316
:10024000B993E993F9930F910F90099209930DB621
:1002500009920EB609920FB609920C948D1E1F9248
:100260000F920FB60F9211242F933F934F935F93EA
:100270006F937F938F939F93AF93BF93EF93FF936E
:10028000A6E0B1E01296ED91FC91139760E070E06A
:1002900014968D919C9115970995FF91EF91BF91BF
:1002A000AF919F918F917F916F915F914F913F910E
:1002B0002F910F900FBE0F901F9018951F920F92C5
:1002C0000FB60F9211242F933F934F935F936F9329
:1002D0007F938F939F93AF93BF93EF93FF93A6E08A
:1002E000B1E01296ED91FC91139761E070E01496E5
:1002F0008D919C9115970995FF91EF91BF91AF91C9
:100300009F918F917F916F915F914F913F912F912D
:100310000F900FBE0F901F9018951F920F920FB65F
:100320000F9211242F933F934F935F936F937F937B
:100330008F939F93AF93BF93EF93FF93A6E0B1E0AA
:100340001296ED91FC91139762E070E014968D91F6
:100350009C9115970995FF91EF91BF91AF919F9156
:100360008F917F916F915F914F913F912F910F905E
:100370000FBE0F901F9018950E94361869017A01E0
:100380008B01D82FC92F0E94A70F9601A701B80192
:100390008D2F9C2F0E94D1250E94CD1CEDCF0E9455
:1003A000FD1F0E94551C0E94EF067894EE24E394F2
:1003B00008E02EE640E052EC61E070E080EC90E076
:1003C0000E94951F20E031E040E050E060E270E0E4
:1003D00083E290E00E94261F20E031E040E050E000
:1003E00062E070E083E290E00E94261F20E031E0AE
:1003F00040E050E064E070E083E290E00E94261F5D
:100400000E9419020E943D040E94BC0160E270E05B
:1004100083E290E00E94221F41E0811140E060E20F
:1004200070E083E290E00E94161F84E690E00C9456
:10043000681D20E031E040E050E060E270E083E2DF
:1004400090E00E94261F8CEB92E00C94801C40E010
:1004500050E066E072E08CEB92E00C94F41DDC015D
:10046000ED91FC910190F081E02D40E050E0BA0167
:100470000994CF92DF92EF92FF92CF93DF93EC013A
:10048000CE84DF84E888F988A7019601FB016081AA
:100490007181828193810E9444272A813B814C8112
:1004A0005D810E94BA29A70196010E9445276E87A7
:1004B0007F87888B998BDF91CF91FF90EF90DF90B2
:1004C000CF900895CF92DF92EF92FF92CF93DF9378
:1004D000EC016A017B018D81882321F0F7FAF09409
:1004E000F7F8F09420E030E0A901C701B6010E94BE
:1004F000B12781110CC064E08A819B810E94491957
:1005000060E08A819B810E94761984E052C020E0DD
:1005100030E0A901C701B6010E94B529181604F5FB
:100520008C81823029F464E08A819B810E94491980
:1005300020E030E04FE753E4C701B6010E94BA293A
:100540000E9428288A819B810E9476198C818130A3
:1005500029F061E08A819B810E94491981E029C0CC
:1005600020E030E0A901C701B6010E94B12787FF52
:1005700021C08C81813029F464E08A819B810E94B2
:100580004919C701B601905820E030E04FE753E425
:100590000E94BA290E9428288A819B810E9476198C
:1005A0008C81823029F062E08A819B810E94491906
:1005B00082E08C83DF91CF91FF90EF90DF90CF901E
:1005C00008951F920F920FB60F9211242F933F930D
:1005D0004F935F936F937F938F939F93AF93BF934B
:1005E000EF93FF938EE091E00E94FF20FF91EF9147
:1005F000BF91AF919F918F917F916F915F914F913B
:100600003F912F910F900FBE0F901F9018958F92D2
:100610009F92AF92BF92CF92DF92EF92FF92CF93D1
:10062000DF934B015C0169017A01CCE0D3E0EC85FA
:10063000FD850190F081E02DAB01BC0188E193E0E4
:100640000995B501A401CE010E946202EA89FB89E5
:100650000190F081E02DB701A6018EE193E00995AC
:10066000EE81FF810190F081E02DB701A60182E1CA
:1006700093E0DF91CF91FF90EF90DF90CF90BF900C
:10068000AF909F908F900994CF93DF93CDB7DEB753
:100690002A970FB6F894DEBF0FBECDBF40EA56E8EA
:1006A00061E070E08EE091E00E94DA200E94F92083
:1006B00040E456E06EE071E082E094E00E9465184C
:1006C00061E082E094E00E94B01890931B03809355
:1006D0001A0362E082E094E00E94B0189093210334
:1006E0008093200363E082E094E00E94B01890932E
:1006F00015038093140364E082E094E00E94B01834
:1007000090930F0380930E030E94361859016A01DB
:100710007B018C010E9436182A873987342E252EBA
:1007200069837A838B839C8380910104882309F4F5
:1007300080C0432D522D8B810E9417270E9457287D
:100740002FE632E143E85AE30E94BA294B015C01EB
:10075000C090F602D090F702E090F802F090F90213
:10076000A7019601609124037091250380912603CF
:10077000909127030E9444272B013C012091EE0217
:100780003091EF024091F0025091F102C501B401A5
:100790000E94B6279B01AC01C301B2010E94BA2995
:1007A000A70196010E9445272B013C016093F602A8
:1007B0007093F7028093F8029093F902C0900803B7
:1007C000D0900903E0900A03F0900B03A701960173
:1007D000609128037091290380912A0390912B0343
:1007E0000E9444276D837E838F8398872091000326
:1007F000309101034091020350910303C501B401FC
:100800000E94B6279B01AC016D817E818F81988506
:100810000E94BA29A70196010E9445276093080308
:100820007093090380930A0390930B03A301920131
:1008300015C0109208031092090310920A03109237
:100840000B031092F6021092F7021092F802109227
:10085000F90220E030E0A901CA01B9010E940703B2
:100860008AE090E00E94681DAA84B984C32CD22C2F
:10087000E980FA800B811C814DCF8CE293E00C94CF
:10088000801CCF92DF92EF92FF920F931F9360E64E
:1008900082E094E00E940C1900E810E021E833E0C7
:1008A00040E050E064E473E08CE293E00E94311E8B
:1008B000ECE0F3E02EE931E03183208384E08483AF
:1008C0001582378326838287138635872487808B1A
:1008D000118A338B228B868B178AEAEFF2E028E9A4
:1008E00031E03183208316861786108A118AC12C45
:1008F000D12C80EAE82E80E4F82EC282D382E482F2
:10090000F5824AE057ED63E27CE3468357836087D4
:10091000718780E090E0A8ECB2E482879387A48797
:10092000B587E8EEF2E03183208316861786108AB9
:10093000118AC282D382E482F5824683578360871C
:10094000718782879387A487B5871F910F91FF9046
:10095000EF90DF90CF9008958FEF9FEF089582EA98
:1009600091E0089580E090E0089587EA91E09F93F8
:100970008F933F932F935F934F930E94CF2B0F90B2
:100980000F900F900F900F900F9008950F931F935B
:10099000CF93DF9300D000D0CDB7DEB78A017A8342
:1009A00069835C834B83BE016F5F7F4F0E94C115DB
:1009B000C8010F900F900F900F90DF91CF911F9172
:1009C0000F9108950F931F93CF93DF9300D000D022
:1009D000CDB7DEB78A017A8369835C834B83BE011E
:1009E0006F5F7F4F4A970E94C115C8010F900F900B
:1009F0000F900F90DF91CF911F910F91089527EEE7
:100A000031E0FC01318320830C94CE1425EF31E0DA
:100A1000FC013183208325E032E0338F228F0C9458
:100A2000FF042DE032E0FC01318320830C94FF04AD
:100A3000CF93DF93EC010E940605CE01DF91CF91A9
:100A40000C94BF2ACF93DF93EC010E94FF04CE01E8
:100A5000DF91CF910C94BF2ACF93DF93EC010E94DA
:100A60001105CE01DF91CF910C94BF2ACF93DF9374
:100A7000EB016FEF7FEF0E941B15CE01DF91CF914D
:100A80000C94520ACB010C94520ACF93DF93FC01D1
:100A900085899689009729F0EF010E94AC081E8A8B
:100AA0001D8ADF91CF910895E0912A01F0912B01E9
:100AB0000190F081E02D21E08AE291E009948F928B
:100AC0009F92AF92CF92DF92EF920F931F93CF93AB
:100AD000DF9300D000D0CDB7DEB789EA91E09A83EA
:100AE000898389E090E09C838B8381E397E00E9477
:100AF0002813AB01BC01812C912CA12CC12CD12C31
:100B0000E12C8E010F5F1F4F23E030E080E796E07D
:100B10000E948C1588EE93E00E94681D0F900F9044
:100B20000F900F90DF91CF911F910F91EF90DF9079
:100B3000CF90AF909F908F900895CF93DF93EC016B
:100B400087ED91E0998388830E942209AA81BB8165
:100B5000EC81FD811396FC93EE931297B183A083F1
:100B60008EED90EC9B838A838EED99EC9D838C8334
:100B7000DF91CF910C943609CF93DF93EC018BE199
:100B800092E099838883CE010E944505CE01DF91D2
:100B9000CF910C949D05CF93DF93EC010E94BC058F
:100BA000CE01DF91CF910C94BF2ACF93DF93EC015C
:100BB0000E949D05CE01DF91CF910C94BF2ACF9367
:100BC000DF93EC018B899C890E94E5089E8B8D8BBD
:100BD0004B895C89BC01605F7F4FCE014796DF91F6
:100BE000CF910C941C240F931F93CF93DF931F92EC
:100BF000CDB7DEB7E0912A01F0912B010480F58199
:100C0000E02D8AE291E00995E0912A01F0912B0113
:100C10000280F381E02D892B59F120E041E050E082
:100C2000BE016F5F7F4F8AE291E0099569818FEA8B
:100C300096E00E9429240197E9F60091AD061091F3
:100C4000AE061092AE061092AD0660919E06C801E7
:100C50000E94A00968E976E0C8010E94540960E09A
:100C6000C8010E94CD0D88E996E00E94DF05C2CF41
:100C700022E040E050E060E070E08AE291E0099517
:100C80000F90DF91CF911F910F910895CF93DF9334
:100C9000EC016F85788949895A89461B570BE9A170
:100CA000FAA18BA19CA109952F853889820F931FEA
:100CB000988B8F8729893A8982179307A1F40E941C
:100CC000220960E08B859C850E94200F1C861B8674
:100CD000188A1F861A8A198A0E943609CE01DF9166
:100CE000CF910C948106DF91CF910895FC01478547
:100CF0005089218932894217530711F00C94460616
:100D00000895CF93DF93DC011796ED91FC9118972E
:100D10009C01295F3F4FE217F30741F1EC01FC878B
:100D2000EB878081918122813381DC0113963C9392
:100D30002E931297D9018D939C93F383E283F183D1
:100D4000E0834D855E8561897289CF0140960E945E
:100D5000B6232D853E85388B2F87820F931F9A8B64
:100D6000898BCE01DF91CF910C944606DF91CF9114
:100D700008950F931F93CF93DF938C01EB010E9493
:100D80002209A881B981EA81FB811396FC93EE9335
:100D90001297B183A083D8011796ED91FC91189713
:100DA000C80107969B838A83F983E883D383C28330
:100DB0001896DC93CE9317970E943609F801838525
:100DC0009485892B39F4C801DF91CF911F910F9140
:100DD0000C948106DF91CF911F910F9108950F938D
:100DE0001F93CF93DF93CDB7DEB7A0970FB6F894DC
:100DF000DEBF0FBECDBF4AE550E068E671E080E897
:100E000094E00E946F0860E081E00E944D0A08E9CA
:100E100016E080EF95E0F801968785878AE590E0F7
:100E2000948B838B84E595E092A381A314A213A2F3
:100E3000C8010E94DF05F80114861386108A178600
:100E4000128A118A61E070E0C8010E94FE10E0E79A
:100E5000F6E011A210A285EB94E093A382A315A261
:100E600014A288E090E097A386A30E9422096AE278
:100E700070E080E796E00E9466140E94360981E3E4
:100E800097E00E9428139B01AC0183EB91E09E8FB9
:100E90008D8F89E090E098A38F8F03E010E0BE0172
:100EA000635E7F4FCE0101960E94711685EF91E03F
:100EB0009A83898385E092E09C8F8B8F84E596E00E
:100EC0004B815C816D817E81FC014283538364830D
:100ED00075834F81588569857A85468357836087F6
:100EE00071872B853C853387228724E0FE013D9660
:100EF000A0E6B6E001900D922A95E1F749895A895A
:100F00006B897C89FC01408B518B628B738B2D89A3
:100F10003E89358B248B2F89388D378B268B298DF5
:100F20003A8D318F208FCE0101960E94060560E038
:100F300070E08AE291E00E9491238EE494E00E94A6
:100F4000801C82E294E00E94801CA0960FB6F89468
:100F5000DEBF0FBECDBFDF91CF911F910F910895DE
:100F6000CF93DF9300D000D0CDB7DEB78DEB91E00B
:100F70009A83898385E190E09C838B83BE016F5FB8
:100F80007F4F81E397E00E949912E8E9F6E08AE951
:100F900096E095838483938382838BE192E09183AF
:100FA00080838FE996E09087878392878187148674
:100FB000138616861586108A1786128A118A80E390
:100FC00090E0948B838B168A158AE0E7F6E082E73F
:100FD00096E0938382839583848386E796E0978364
:100FE00086839187808713861286158614861786D6
:100FF000168683E090E0958B848B178A168A118E73
:10100000108E22E030E0338F228F22E330E0358FE4
:10101000248F2EE130E0378F268F2EE632E03183A9
:10102000208311A210A213A212A215A214A220E0E2
:1010300031E037A326A3E4E5F6E026E536E0338386
:101040002283358324832AE536E03783268331875C
:101050002087138612861586148617861686958B2A
:10106000848B178A168A118E108E85EF91E09183FA
:10107000808385E092E0938F828F40E050E063EFC1
:1010800075E08EE494E00E94F41D40E050E06FE5CE
:1010900075E082E294E00E94F41D0F900F900F9093
:1010A0000F90DF91CF91089584E596E00E940605A8
:1010B0008EE692E0909371068093700680E796E04A
:1010C0000E94110588E996E00E94BC0580913107D5
:1010D00090913207009711F00C94BF2A0895CF9396
:1010E000DF93FC01EB019A0190933D0780933C074D
:1010F00070933F0760933E0750934107409340072A
:101100008AE397E090933B0780933A07CB01BA01BB
:101110000E944F26892B11F00E94482BAF014C0FE3
:101120005D1FE417F50768F480913A0790913B073B
:1011300091838083F0933B07E0933A07E20FF31F1C
:10114000F0CFCE01B9010E944F2670934307609300
:101150004207DF91CF910895CF93DF93EC01892B64
:1011600011F40E94482B0E94220980913807909127
:1011700039070197909339078093380720913C07EE
:1011800030913D07C217D30760F380913E079091DD
:101190003F07820F931FC817D90718F780913A07A6
:1011A00090913B0799838883D0933B07C0933A077C
:1011B0008091420790914307019690934307809353
:1011C0004207DF91CF910C943609CF93DF930E94B1
:1011D0002209C0913A07D0913B0787E0CA33D8076C
:1011E00039F08881998190933B0780933A0702C038
:1011F000C0E0D0E08091420790914307019790931F
:10120000430780934207409140075091410760E0B7
:1012100070E0CE010E948C2B209749F08091380716
:1012200090913907019690933907809338070E946F
:101230003609CE01DF91CF910895EAE3F7E0F1831B
:10124000E08308958FB7F8942091440730914507C3
:10125000232B11F480934607809144079091450712
:101260000196909345078093440708958091440721
:10127000909145070197909345078093440780918B
:10128000440790914507892B19F4809146078FBF39
:1012900008951092450710924407089580914407DD
:1012A0009091450708950895FC019383828391836B
:1012B0008083049697838683958384837187608770
:1012C00085E090E0958784871786168681899289C4
:1012D000E80FF91F108A0895BF92CF92DF92EF9224
:1012E000FF920F931F93CF93DF936C01B62E7A0179
:1012F000062F10E0C801840F951F0E94E508EC013D
:10130000892B99F08AE0E80EF11C0E0D1F1D1A8B37
:10131000098BBB8A88EC90E09E8B8D8B188A198E86
:101320001C8AB601CE010E945409CE01DF91CF91F3
:101330001F910F91FF90EF90DF90CF90BF90089595
:10134000FC018489DF01A80FB11D5A966C93848932
:101350008F5F848B08954A960895FC0183890895D0
:101360009C01265E3F4FFC018389A901480F511D56
:10137000CA010895FC01238981899289821B910900
:101380000A9708954A960895FC01838908959C015F
:10139000265E3F4FFC018389A901480F511DCA01F8
:1013A0000895CF93DF93DC01ED91FC91309789F0A4
:1013B000EC0186858150868788819981FC0126858C
:1013C00027FD0E94482B211102C00E94520A198257
:1013D0001882DF91CF9108950C94D109CF93DF93B8
:1013E000FC01C081D181A281B381BB83AA83CD934B
:1013F000DC939383828391838083DF91CF910895DF
:10140000CF93DF93EC0180914D07882329F0BE0133
:1014100087E292E00E945309A881B981EA81FB81A9
:101420001396FC93EE931297B183A0832EED30ECCC
:10143000398328838EED99EC9B838A83AC81BD81AF
:10144000EE81FF811396FC93EE931297B183A083F4
:101450003D832C839F838E83CE01DF91CF910C94AB
:10146000AC08CF93DF93FC01718360836115710534
:1014700089F0FB01EC01868587FD0E94482B0E94C4
:101480002209E881F98186858F5F8687DF91CF9178
:101490000C943609DF91CF91089580934E076093A5
:1014A0004D070895CF93DF93EC010E9422098F85A9
:1014B00081FF07C08E85811104C0CE010E94000A01
:1014C00003C08F8581608F87DF91CF910C9436099F
:1014D000CF93DF93EC010E942209CE010E94EE0916
:1014E0008F8580FF07C08E85811104C0CE010E94C8
:1014F000000A03C08F8582608F87DF91CF910C94A3
:101500003609CF92DF92EF92FF921F93CF93DF9332
:101510007C01C0915201D091530181E0C235D807BE
:1015200059F12F89388DF7018789908D2817390750
:10153000F9F413898B8918131BC0C7010E94AB09EA
:101540006C01CE010E94AB09412F50E0B6010E9410
:10155000642B892B69F48F8584608F87CE01DF919E
:10156000CF911F91FF90EF90DF90CF900C94680A7D
:101570000990D881C02DD1CFDF91CF911F91FF90DD
:10158000EF90DF90CF900895FC01428553858589C7
:101590009689480F591FFB012285338585899689D5
:1015A000280F391F81E04217530708F080E00895A3
:1015B0000F931F93CF93DF938C01EB010E942209BD
:1015C000E0915C01F0915D01FB83EA838AE591E0A3
:1015D00099838883D0935D01C0935C01D183C083DC
:1015E0000E943609E0915507F0915607309709F0AF
:1015F0000995BE01C8010E94310AC801DF91CF914F
:101600001F910F910895CF92DF92EF92FF920F9367
:101610001F93CF93DF9300D0CDB7DEB77C0140E0BE
:1016200050E0FC01638980E090E00E946C098C012D
:10163000E114F10411F40E94482B892BE1F381E0BD
:10164000F701918D923009F080E0880F880F880FA4
:10165000F80190899770892B8160808B118EF7013A
:1016600085899689F801968B858BF7018789908DFE
:10167000F801908F878BF701C388D12CC7010E9496
:10168000AB097C01C8010E94AB09A601B7010E9409
:10169000712BF801878581608787B801CE0101969B
:1016A0000E94D80ACE0101960E94EC090F900F907B
:1016B000DF91CF911F910F91FF90EF90DF90CF902E
:1016C0000895AF92BF92CF92DF92EF92FF920F9365
:1016D0001F93CF93DF9300D0CDB7DEB78C018091FD
:1016E000580790915907019690935907809358078E
:1016F000D80154968C91549753969C9189131BC092
:10170000C8010E94AB097C01C8010E94AB09F80125
:101710002389DC01A20FB11DF701EA17FB0709F4C9
:101720009BC01197EA17FB0709F496C08C91908132
:101730009C938193F2CFD80118962D913C911997E3
:10174000232BC1F090915707911114C08091470746
:1017500090914807892B31F481E090E090934807FD
:10176000809347070E942209C8010E94000A0E9434
:101770003609D5C1F801E80FF11DE28CF12CC70143
:101780000E94E7106C01892BE9F5C7010E94D11076
:101790007C01892B61F1F801908980914E0790FFBF
:1017A0000AC0882379F080915A0781110BC0B801D3
:1017B00080E492E005C0882329F0B80186E492E035
:1017C0000E945309D8011F968C911F9784FD0E9497
:1017D000482B80611F968C93D7011496ED91FC9154
:1017E00015970190F081E02DB801C701099580910E
:1017F0004E07882309F4B6CFB8018CE492E00E942A
:101800005309B0CFF801908980914E0790FF0AC02C
:10181000882379F080915A0781110BC0B80180E4C8
:1018200092E005C0882329F0B80186E492E00E9486
:101830005309D8011F968C911F9784FDC8CF8061F2
:101840001F968C93D601ED91FC910190F081E02DD3
:10185000B801C601099563C1F801908980914E07CE
:1018600090FF8CC0882349F080915A07811105C0F0
:10187000B8018DE292E00E945309D80150968C91F4
:10188000869586958695813069F040F0823009F022
:1018900069CFE0905601F090570156C0C8010E94F0
:1018A000810A60CFC8010E94810A40E050E0F8013F
:1018B000638980E090E00E946C097C0101151105AC
:1018C00009F485CF009709F482CFDC0150968C9102
:1018D000509787708061816050968C93509759968D
:1018E0001C925997F8018589968956969C938E93F8
:1018F00055978789908D58969C938E935797C38858
:10190000D12CC8010E94AB095C01C7010E94AB0940
:10191000A601B5010E94712BB701CE0101960E946C
:10192000D80ACE0101960E94EC091CCFD701579628
:101930002D913C915897F8018789908D2817390788
:1019400049F0D701ED90FC90F6E5EF16F1E0FF06C7
:1019500069F708CFD38853968C91D812F2CFC8017B
:101960000E94AB095C01C7010E94AB094D2D50E0FC
:10197000B5010E94642B892B21F7C9C0882329F067
:10198000B80183E392E00E945309D80118968D9123
:101990009C911997892B09F474C059968C918150A8
:1019A000823018F4C8010E94030BF801818D823047
:1019B00009F05CC0E0905601F0905701F6E5EF1693
:1019C000F1E0FF0609F1D70157962D913C91589708
:1019D000F8018789908D2817390709F09CC0539624
:1019E000DC908389D81297C0C8010E94AB095C01C2
:1019F000C7010E94AB094D2D50E0B5010E94642B38
:101A0000892B09F088C0AECE0E9422090E943618A8
:101A1000D8011A962C931A971B963C93E090560186
:101A2000F0905701B6E5EB16B1E0FB0651F0B701B7
:101A3000C8010E94C40A811104C0F701E080F1804E
:101A4000F1CFD7011296ED91FC911397D80113961F
:101A5000FC93EE931297ED92FC92D70113961C9390
:101A60000E931297118300830E943609F801808536
:101A70009185892B31F0818D823019F0C8010E9447
:101A8000680AE0915107F0915207309769F5A091EB
:101A90005E01B0915F011297F1E0AC35BF07F1F044
:101AA000F801808986958695869516969C9116975D
:101AB00098130FC081E080934C07ED91FC91119732
:101AC0000190F081E02DB801CD01099510924C07ED
:101AD00026C012960D90BC91A02DDDCFE09153074A
:101AE000F0915407309731F081E080934C07C801A2
:101AF0000995ECCF80914E07882329F0B80189E33E
:101B000092E00E945309C8010E94520A08C0C7010E
:101B10000E94680A27CEF701E080F1804FCF0F9036
:101B20000F90DF91CF911F910F91FF90EF90DF9079
:101B3000CF90BF90AF9008950F931F93CF93DF93F3
:101B40008C01EB011C8A88898E7F888B0E94220978
:101B50008091490790914A079C012F5F3F4F309336
:101B60004A0720934907988F8F8B0E943609BE0140
:101B7000C8010E94310ACE010E94610BE091550715
:101B8000F0915607309719F0898D81110995C80198
:101B9000DF91CF911F910F910895CF93DF9366232B
:101BA00021F0DF91CF910C94610BEC010E9422098E
:101BB000E0915C01F0915D01FB83EA838AE591E0AD
:101BC00099838883D0935D01C0935C01D183C083E6
:101BD000DF91CF910C9436094F925F926F927F9272
:101BE0008F929F92AF92BF92CF92DF92EF920F931C
:101BF0001F93CF93DF934C013B015A01220F331FF8
:101C0000220F331F2A01420E531EFA01C0E0D0E01A
:101C1000E415F50531F082819381C80FD91F349600
:101C2000F7CFC3010E940A13AE01682F80E090E055
:101C30000E946C09EC01892B21F4F40111821082BD
:101C400035C0000F000F000F88898770082B088BA4
:101C5000E98EDE8ACD8AC3010E940A138C01C3017A
:101C60000E9406133C01CE010E94AB09A801B301FA
:101C70000E94712BCE010E94B0098C01A414B504FE
:101C800089F0F5016081718142815381C8010E9410
:101C9000712BF50182819381080F191FF4E0AF0EBB
:101CA000B11CECCFBE01C4010E949C0DC401DF91A8
:101CB000CF911F910F91EF90DF90CF90BF90AF9099
:101CC0009F908F907F906F905F904F9008952F928C
:101CD0003F924F925F926F927F928F929F92AF92BC
:101CE000BF92CF92DF92EF92FF920F931F93CF9309
:101CF000DF9300D000D0CDB7DEB71C012B013A0135
:101D0000CB82AC82220F331F220F331F5A01A20E47
:101D1000B31EFA01C12CD12CEA15FB0531F08281EA
:101D20009381C80ED91E3496F7CFEE0CFF1CEE0C33
:101D3000FF1CC8018E0D9F1D9A838983F80189813C
:101D40009A81E817F90731F082819381C80ED91E74
:101D50003496F5CFC2010E940A13A601682F80E0D5
:101D600090E00E946C097C01892B21F4F101118221
:101D700010824EC08B81880F880F880FF7019089E1
:101D80009770C92EC82AC08A8C81818F968A858ACD
:101D9000C2010E940A136C01C2010E9406132C01A9
:101DA000C7010E94AB09A601B2010E94712BC701B5
:101DB0000E94B0096C016A147B0489F0F301608110
:101DC000718142815381C6010E94712BF30182818E
:101DD0009381C80ED91EF4E06F0E711CECCF89817F
:101DE0009A810817190781F0F80160817181428199
:101DF0005381C6010E94712BF80182819381C80E24
:101E0000D91E0C5F1F4FEBCFB701C1010E949C0D83
:101E1000C1010F900F900F900F90DF91CF911F9104
:101E20000F91FF90EF90DF90CF90BF90AF909F9079
:101E30008F907F906F905F904F903F902F9008957C
:101E40000F931F93CF93DF93EC01162F8F858F7E17
:101E50008F87209711F40E94482B0E9422098885C1
:101E60009985892B21F0CE010E94000A2EC0111104
:101E700003C0898D811104C0CE010E94680A25C06B
:101E80000E9436182A873B87009152011091530116
:101E900081E00235180751F0B801CE010E94C40A52
:101EA000811104C0D8010D911C91F2CFD801129676
:101EB000ED91FC911397FB83EA83198308831396B2
:101EC000DC93CE931297D183C083DF91CF911F9182
:101ED0000F910C943609CF93DF93EC018F858860C6
:101EE0008F87E0914F07F0915007309739F081E0EC
:101EF00080934B07CE01099510924B07A0915E018C
:101F0000B0915F01129781E0AC35B807E9F088899C
:101F100086958695869516969C91169798130FC070
:101F200081E080934B07ED91FC9111970280F38142
:101F3000E02DBE01CD01099510924B0705C0129608
:101F40000D90BC91A02DDECFDF91CF910895AF927F
:101F5000BF92CF92DF92EF92FF920F931F93CF9396
:101F6000DF9300D0CDB7DEB7009166011091670115
:101F70000250110921E00436120761F0D801ED91F9
:101F8000FC910280F381E02DC8010995F8010281DE
:101F90001381EECF00915E0110915F010250110993
:101FA000F1E00C351F0761F0D801ED91FC91048040
:101FB000F581E02DC8010995F80102811381EECF6A
:101FC0000E94220900915A0110915B01F1E00A354B
:101FD0001F0749F0C8010E94EE090E943609C80196
:101FE0000E94610BEDCF0E9436090E9436186901EC
:101FF0000E942209009152011091530121E0023503
:10200000120789F40E9436090E94361869010E945D
:102010002209009156011091570181E006351807F9
:1020200009F043C049C0D801ED90FC90B1E0023501
:102030001B0741F3F801878581FD0E94482B8285AB
:1020400093859601281B390B8589968928173907AE
:1020500048F1C8010E94EE09F801848595858F3FFB
:10206000FFEF9F0731F00197D8011D969C938E9347
:102070001C97F80184859585892B39F4C8010E9445
:102080006B0FC8010E94680A0DC00E943609B80192
:10209000CE0101960E94D80ACE0101960E94EC0959
:1020A0000E9422098701D701BFCFF801A080B1802B
:1020B000F1E006351F0779F40E9436090F900F9062
:1020C000DF91CF911F910F91FF90EF90DF90CF9014
:1020D000BF90AF900895D8011F968C911F9781FDF6
:1020E000ACCF1A968D919C911B979601281B390BAA
:1020F00055968D919C9156972817390708F44CC036
:10210000C8010E94EE09F801848595858F3FFFEF95
:102110009F0731F00197D8011D969C938E931C97D1
:10212000F80184859585892B39F4878588608787B0
:10213000C8010E94000A30C0E0905601F09057019B
:10214000F6E5EF16F1E0FF0651F0B701C8010E9475
:10215000C40A811104C0D701ED90FC90F1CFD701E2
:102160001296ED91FC911397D8011396FC93EE9380
:102170001297ED92FC92D70113961C930E9312972F
:1021800011830083F801D386C2860E943609C801F4
:102190000E94030B0E9422098501D501AD90BC90DD
:1021A00087CFE0916201F091630121E0E236F2070E
:1021B00049F0268130E02817390739F00190F08185
:1021C000E02DF3CF80E090E00895CF010895E091F5
:1021D0006601F0916701329721E0E436F20749F099
:1021E000268130E02817390739F00280F381E02D8D
:1021F000F2CF80E090E00895CF0108950F931F93F0
:10220000CF93DF93EC01162F072F0E942209812F15
:10221000902F0E94E710892BC1F41E83CE010296F5
:10222000E0916801F0916901FD83EC8326E631E0DD
:102230003B832A8390936901809368019183808313
:102240000E94360980E090E002C08FEF9FEFDF919F
:10225000CF911F910F9108952F923F924F925F92CD
:102260006F927F928F929F92AF92BF92CF92DF92A6
:10227000EF92FF920F931F93CF93DF93FC01EA013C
:102280003A01620E731E00E010E03AE0332E44245F
:102290004394C615D70509F4C5C088818E32E1F094
:1022A0004CF48D3009F4BEC0833219F18A3009F044
:1022B000BBC0B8C08A33C9F024F4803309F4B2C07B
:1022C000B3C0803461F08F3509F0AEC06E013FEFCE
:1022D000C31AD30A4F01A3C06E0120E017C0219694
:1022E0007F015801AE1ABF0A88C0219620E030E075
:1022F00037C021964F01E12C60C0220F822F880F3A
:10230000880F280F3A33A4F43053230FC6018C1BD7
:102310009D0B3FEFC31AD30AD6013C91432F032EE6
:10232000000C550B405351094A30510530F302C09F
:102330003753EBCF0F5F1F4F4F01BFEF8B1A9B0A35
:10234000208304970CF46BC071C0329EA001339EB1
:10235000500D11248A338CF480539A01280F311DBB
:102360006E0188812196682F082E000C770B605330
:1023700071096A30710548F302C08753EECF30838C
:102380004F0142E0840E911C21830E5F1F4F47C016
:10239000EE2001F194012F5F3F4FA0E15A9EC00152
:1023A0001124B9E3BF15A4F040ED4F0D842BF401C7
:1023B00080830F5F1F4F4901E4246E01F9908F2D38
:1023C0000F2C000C990B0E94582B892B09F70CC07D
:1023D00049ECEBCFF9E3FF151CF020ED522E02C0C3
:1023E00099EC592E5F0CE8CFEE20C9F0529480EFA3
:1023F0005822D4015C928BEF1AC087010A0D1B1D75
:1024000047016E012990822D022C000C990B0E942D
:10241000502B892B21F0F70121927F01EECFE601AD
:10242000F40137CFC80104C08FEF01C08CEF9FEFDC
:10243000DF91CF911F910F91FF90EF90DF90CF90A0
:10244000BF90AF909F908F907F906F905F904F90D4
:102450003F902F900895FA0101900020E9F73197FD
:102460009F01241B350B0C942C110F931F93CF93BA
:10247000DF938C01EB018A819B81D80113969C9399
:102480008E9312978C819D8115969C938E931497B1
:102490000E94272AF80191838083E881F9812C81A9
:1024A0003D812E0F3F1FE217F30729F04191DC0118
:1024B0004D93CD01F8CFDF91CF911F910F910895EA
:1024C000EF92FF920F931F93CF93DF93EC018B0159
:1024D0008A819B818617970718F5CB010E94272ACE
:1024E0009C011B830A8388819981009719F43983A1
:1024F000288316C07901E00EF11EDC014C815D815C
:10250000480F591FF901EE16FF0631F04A175B0715
:1025100019F06D916193F7CF398328830E94BF2A08
:102520001D830C83DF91CF911F910F91FF90EF904E
:102530000895CF92DF92EF92FF920F931F93CF9364
:10254000DF93CDB7DEB727970FB6F894DEBF0FBE87
:10255000CDBF8C016B011A8219821C821B821E82E4
:102560001D82FB01E280F380E114F10439F0C70120
:102570000E94272AFC82EB829A838983FE82ED8265
:10258000F60140815181B70189819A810E942B1205
:1025900097FF08C0F80111821082138212821582FF
:1025A00014820BC0BC01CE0101960E946012BE01D4
:1025B0006F5F7F4FC8010E94351289819A81009711
:1025C00011F00E94BF2AC80127960FB6F894DEBF0B
:1025D0000FBECDBFDF91CF911F910F91FF90EF9074
:1025E000DF90CF900895FB0120813181FC01318380
:1025F0002083FB0122813381FC01338322830895F0
:10260000FC0171836083538342830895FC018081C0
:1026100091810895FC01828193810895CF93DF9386
:1026200000D000D0CDB7DEB7FC0144815581608178
:102630007181CE0101960E94001369817A818B819C
:102640009C810F900F900F900F90DF91CF91089584
:102650000E940E1308950895CF93DF93EB01CB01F1
:102660000E94B009A0916C01B0916D01129721E018
:10267000AA36B207D1F01A964D915C911B97FC01D6
:10268000208131814217530759F4ED91FC91119744
:102690000280F381E02DBE01CD01DF91CF9109943D
:1026A00012960D90BC91A02DE1CFCE01DF91CF917C
:1026B0000C94520A6F927F928F929F92AF92BF9228
:1026C000CF92EF92FF920F931F93CF93DF93CDB7EB
:1026D000DEB729970FB6F894DEBF0FBECDBF3C0121
:1026E000C9017A8369835C834B831D829E012F5FBE
:1026F0003F4F3F832E8325E030E03987288745010F
:10270000AC2C23E0C22E21E030E0AE014A5F5F4FE7
:10271000BC01C3010E94670EC30129960FB6F8944D
:10272000DEBF0FBECDBFDF91CF911F910F91FF9004
:10273000EF90CF90BF90AF909F908F907F906F90D1
:102740000895CF92DF92EF92FF920F931F93CF9352
:10275000DF93CDB7DEB765970FB6F894DEBF0FBE37
:10276000CDBF8B015D8B4C8B1D86CB010E94B009C8
:10277000FC01828193819A878987C8010E94B009F0
:10278000FC01808191819C878B878D858F70806112
:102790008D87CE0109969A83898385E090E09C839A
:1027A0008B83CE0144969E838D8382E090E0988750
:1027B0008F83F801C588D688C8010E94AB097C01C7
:1027C000C8010E94AD09482F50E0B701CE010E9616
:1027D0000E940013E12C03E022E030E0AE014F5FE5
:1027E0005F4FBE01625F7F4FCE0142960E94EC0DAB
:1027F000CE0142960E94EC0965960FB6F894DEBFB2
:102800000FBECDBFDF91CF911F910F91FF90EF9041
:10281000DF90CF900895EF92FF920F931F93CF9385
:10282000DF937C018B01CB010E94C709C0916C0131
:10283000D0916D01229721E0CA36D20771F04A8506
:102840005B85FC01228133814217530721F00A8006
:10285000DB81C02DEFCF209739F441E250E0B80181
:10286000C7010E94A11322C0FC01848182958F7050
:1028700079F0813021F5C8010E94BA09C8010E948F
:10288000B009FC0165817681CE010E9418150EC049
:10289000E881F9810190F081E02DB801CE01DF914E
:1028A000CF911F910F91FF90EF900994C801DF9194
:1028B000CF911F910F91FF90EF900C94520ADF91EE
:1028C000CF911F910F91FF90EF900895CF93DF93D9
:1028D000FC01738762870296ACE6B1E01296CD9157
:1028E000DC911397D583C483B383A28313969C93FF
:1028F0008E93129799838883DF91CF910895E09109
:102900006C01F0916D01329720E032E041E0EA364F
:10291000F40779F0428553854817590769F021502B
:10292000310911F40E94482B0280F381E02D329787
:10293000EDCF80E090E00895CF010895EF92FF92EF
:102940000F931F93CF93DF938C010E942209E12CF8
:1029500080E8F82E80916A0190916B01019629F030
:1029600090936B0180936A0104C0F0926B01E09236
:102970006A01C0916A01D0916B01CE010E947F145F
:10298000892B41F7BE01C8010E946614DF91CF91E7
:102990001F910F91FF90EF900C943609CF93DF9326
:1029A000EC0180E692E0998388830E942209CE019F
:1029B00006962E813F812817390729F06FEF7FEFA8
:1029C000CE010E941B15AA81BB81EC81FD8113966B
:1029D000FC93EE931297B183A0838EED90EC9B83D2
:1029E0008A838EED99EC9D838C83DF91CF910C943B
:1029F0003609CF93DF93EBE5F7E083E08683AEE51E
:102A0000B1E01296CD91DC911397D583C483B38343
:102A1000A2838DE597E013969C938E9312979983EA
:102A2000888386E592E091838083DF91CF9108953A
:102A300006960C94461B06960C94691B6F927F9227
:102A40008F929F92AF92BF92CF92EF92FF920F938D
:102A50001F93CF93DF93CDB7DEB766970FB6F89489
:102A6000DEBF0FBECDBF8C011D8281E08E83F801D9
:102A7000828D8F83848D958D99878887868D978D9C
:102A80009B878A87868597858C879E012A5F3F4F23
:102A90003E872D8727E030E0388B2F8724853585CA
:102AA0003A8B298B8B8B9C8BA08CB18CC688380180
:102AB000F0E16F0E711CF8018488958882859385FA
:102AC000892B19F4C8010E949E14F8016285738550
:102AD00082E0E82EF12C8E01035F1F4F9301A401C9
:102AE000CE0145960E945A13CE0145960E94EC09EC
:102AF00066960FB6F894DEBF0FBECDBFDF91CF91C3
:102B00001F910F91FF90EF90CF90BF90AF909F904B
:102B10008F907F906F9008958F929F92AF92BF9207
:102B2000CF92DF92EF92FF920F931F93CF93DF9399
:102B3000CDB7DEB7FC01358B248B408B518B628B7C
:102B4000738BF12CF78AE68AB12CB38EA28ED18ECC
:102B5000C08E958E848E24E0F801DC011C960190D5
:102B60000D922A95E1F7DF91CF911F910F91FF9080
:102B7000EF90DF90CF90BF90AF909F908F900C948C
:102B80001E156F927F928F929F92AF92BF92CF92BB
:102B9000EF92FF920F931F93CF93DF93CDB7DEB7E2
:102BA00067970FB6F894DEBF0FBECDBF8C01198AB0
:102BB0001A8AFC01268537852B8BFB018281938144
:102BC0009D8B8C8BAE014E5E5F4F5A83498344E0F0
:102BD00050E05C834B83F801448555855E834D83CB
:102BE0002F833887FB01208131813A8729879C8791
:102BF0008B87F801A08CB18CC6883801F0E16F0E8C
:102C0000711CF8018488958882859385892B19F435
:102C1000C8010E949E14F8016285738583E0E82E46
:102C2000F12C8E010F5F1F4F9301A401CE01469638
:102C30000E945A13CE0146960E94EC0967960FB681
:102C4000F894DEBF0FBECDBFDF91CF911F910F91E2
:102C5000FF90EF90CF90BF90AF909F908F907F901C
:102C60006F900895AF92BF92CF92DF92EF92FF9252
:102C70000F931F93CF93DF9300D000D0CDB7DEB773
:102C8000FC01408B518B628B738B358B248B24E042
:102C9000F801DC011C9601900D922A95E1F7FC01E8
:102CA000D78AC68AB18EA08EF701228133814081F6
:102CB00051815A8349833C832B83BE016F5F7F4FD1
:102CC0000E94C1150F900F900F900F90DF91CF9140
:102CD0001F910F91FF90EF90DF90CF90BF90AF903A
:102CE00008950F931F93FC0102969383828395832B
:102CF00084830496978386839187808713861286C0
:102D000087EE91E091838083DB0112968D919C91F7
:102D100013976D917C917587648797878687208B41
:102D2000318B428B538B158B048B178A168A118E2D
:102D3000108E1F910F9108952F923F924F925F92A4
:102D40006F927F928F929F92AF92BF92CF92DF92BB
:102D5000EF92FF920F931F93CF93DF93CDB7DEB720
:102D600060970FB6F894DEBF0FBECDBF4C013B019C
:102D700080E1E2E6F7E0DF011D928A95E9F78FE056
:102D800090E0F40197A386A3CB010E94C7097C01C0
:102D9000DC0116968C9190E00996F701E80FF91F77
:102DA0002F01BFEF4B1A5B0AC0800C2C000CDD0812
:102DB000C60101968E0F9F1FF40106A117A1D7012E
:102DC00017966D917C911897615071096C197D0966
:102DD00002A0F3A1E02D3097C9F1D40194962D9172
:102DE0003C9195972F3FBFEF3B0751F422E637E028
:102DF000AB01BC01D40190968D919C9191971FC01D
:102E0000D40190962D903C90919721143104C9F0F3
:102E10005901B594A79420FF0BC091012A0D3B1DC9
:102E2000D9012D913C91E20FF31F0190F081E02D2B
:102E300022E637E0AB01BC01C1018A0D9B1D09955B
:102E400007C0980142E657E0099502C080E090E093
:102E5000F401A08CB18C0689178922E637E03A8309
:102E600029839C838B835E824D82D886CF82D70153
:102E70004D905C90C3010E94C2097C01C3010E9475
:102E8000C409FE86ED8690E0988B8F87BE01635F54
:102E90007F4FCE0109960E94F31249855A856B85B2
:102EA0007C856801FE0131967F018E010B5F1F4F0B
:102EB0009201C4010E943216C3010E94520A609618
:102EC0000FB6F894DEBF0FBECDBFDF91CF911F913B
:102ED0000F91FF90EF90DF90CF90BF90AF909F90B9
:102EE0008F907F906F905F904F903F902F900895BC
:102EF0002EE632E0FC01318320830C941105CF9340
:102F0000DF93EC010E947817CE01DF91CF910C94F2
:102F1000BF2A1F920F920FB60F9211242F933F9347
:102F20004F935F936F937F938F939F93AF93BF93D1
:102F3000EF93FF930E94D717FF91EF91BF91AF914D
:102F40009F918F917F916F915F914F913F912F91C1
:102F50000F900FBE0F901F901895CF92DF92EF92B7
:102F6000FF920F931F93CF93DF930E942209C0908B
:102F70007207D0907307E0907407F0907507009186
:102F8000760710917707D0917807C09179070E9452
:102F900036099601A701B8018D2F9C2FDF91CF91A3
:102FA0001F910F91FF90EF90DF90CF9008952091A7
:102FB00072073091730740917407509175076091C3
:102FC0007607709177078091780790917907A1E053
:102FD0000E940B2720937207309373074093740766
:102FE00050937507609376077093770780937807FF
:102FF000909379070895CF93DF939B01AC0160E034
:1030000078EE83E090E00E946326DA01C901209304
:10301000780190937901A0937A01B0937B0110928B
:103020007C0110927D0110927E0110927F010E941E
:103030003D209B01AC0160E070EA8FE090E00E94CF
:103040006326DA01C9012093700190937101A09366
:103050007201B09373011092740110927501109275
:10306000760110927701DF91CF910895AF92BF92D0
:10307000CF92DF92EF92FF920F931F930E94AD17B2
:10308000A0907801B0907901C0907A01D0907B0136
:10309000E0907C01F0907D0100917E0110917F0114
:1030A0000E948B2608E00E94E6261F910F91FF9058
:1030B000EF90DF90CF90BF90AF90089520E030E088
:1030C00040E050E04D960C948319EF92FF920F93DD
:1030D0001F93CF93DF937C01EA01FC01718360832E
:1030E0008C01035E1F4FC8010E94FB19F701D483B6
:1030F000C383BE0180E090E00E945D28AB01BC016B
:10310000C8010E94001AC0E020E030E040E050E03A
:103110006C2FC8010E948319CF5FC031A9F7DF91DE
:10312000CF911F910F91FF90EF9008959A014D96C6
:10313000211540E1340728F020E030E040E050E184
:1031400002C040E050E00C948319411102C00C947D
:103150005E1820E030E040E050E14D960C94831979
:10316000CF93DF93653008F04AC06150A62FB0E0DE
:10317000FC0126E0629FE00DF11D11242285211142
:1031800033C0628791878087662351F0613061F098
:10319000623071F0633081F426E035E047E00FC023
:1031A00029E03AE048E00BC02CE03BE04DE007C0EE
:1031B00023E034E042E003C020E030E040E056E0AD
:1031C0005A9FF0015B9FF00D1124E80FF91F458312
:1031D000BD016F5F7F4F569FE001579FD00D1124B7
:1031E000C80FD91F3883278346E04A9F90014B9F21
:1031F000300D11242B5F3F4F820F931F02C080E0E0
:1032000090E0DF91CF910895FC0114821382158222
:103210001282118210820895AF92BF92DF92EF92D4
:10322000FF920F931F93CF93DF9300D01F92CDB7E0
:10323000DEB77C01D62E8C010B5F1F4F5C018DE148
:10324000A80EB11CC8010E9404190A5F1F4F0A157D
:103250001B05C1F760E4C8010E948019F701D28202
:103260006D2DCE0101960E94801989819A81AB81D2
:10327000F701858F968FA78F0F900F900F90DF919A
:10328000CF911F910F91FF90EF90DF90BF90AF9083
:103290000895CF93DF93EC01623061F06430B9F0B0
:1032A000613009F56A818B819C810E945E1841E042
:1032B000698107C069818B819C810E945E1841E011
:1032C0006A818B819C81DF91CF910C94A5186981D3
:1032D0008B819C810E945E186A818B819C81DF9129
:1032E000CF910C945E18DF91CF91089520E1629FF9
:1032F000A0011124FC016081838194810C949618B3
:10330000FC01628308950F931F93CF93DF9300D046
:1033100000D01F92CDB7DEB7660F660F6A5F698374
:103320004A835B832C833D83FC01A081B181ED91B5
:10333000FC9111970281138125E030E0AE014F5FCF
:103340005F4FFC016281CD01F80109950F900F904C
:103350000F900F900F90DF91CF911F910F910895D3
:10336000EF92FF920F931F93CF93DF9300D0CDB7CF
:10337000DEB76983EE24E394F12C8E010E5F1F4FBC
:1033800021E030E0AE014F5F5F4FFC016281808140
:1033900091810E943F268A810F900F90DF91CF91FB
:1033A0001F910F91FF90EF9008950F931F93CF936C
:1033B000DF9300D0CDB7DEB769834A83FC01A081DB
:1033C000B181ED91FC9111970281138122E030E0EF
:1033D000AE014F5F5F4FFC016281CD01F80109959D
:1033E0000F900F90DF91CF911F910F91089540E0C2
:1033F00060E00C94D519FC01718360830C94F7197B
:10340000CF92DF92EF92FF921F93CF93DF93EC0165
:10341000CB01BA0126E636E646E65FE30E94BA290A
:103420009B01AC0160E27CEB8EEB95E40E94B62739
:1034300020E030E040E85FE30E94442720E030E0F5
:1034400040E05FE30E9445270E94D8286B017C0181
:1034500060E0CE010E94B019182F482F4F764061CE
:1034600060E0CE010E94D519C701B6010E9428284C
:10347000462F6EEFCE010E94D519412F60E0CE019C
:103480000E94D51985E090E00E94681D412F416A95
:1034900060E0CE01DF91CF911F91FF90EF90DF9020
:1034A000CF900C94D519FC01868197810C945A1FFA
:1034B000FC01868197810C94551FFC0186819781C0
:1034C0000C945E1FFC01868197810C94631F8F9280
:1034D0009F92AF92BF92EF920F931F93CF93DF9380
:1034E000EC014A015B01122F61E070E08E819F8147
:1034F0000E94711F61E070E08E819F810E94681FB1
:10350000212FB501A4018E819F810E94951F61E04A
:1035100070E08E819F810E947A1F80E090E0DF91B1
:10352000CF911F910F91EF90BF90AF909F908F9090
:103530000895FC01623081F038F46623B9F06130FF
:1035400029F560E070E014C06430B9F040F06530F7
:10355000E9F460E070E013C061E070E002C060E098
:1035600070E0868197810E94831F0DC061E070E04A
:10357000868197810E947A1F06C061E070E0868193
:1035800097810E948C1F80E090E008958FEF9FEF5D
:103590000895EF92FF920F931F93CF93DF93CDB7D0
:1035A000DEB728970FB6F894DEBF0FBECDBF8C01F3
:1035B0007B01FC01868197810E94681FB701F80199
:1035C000868197810E94711F60E070E0F80186811A
:1035D00097810E948C1F60E070E0F80186819781DE
:1035E0000E94831FB701F801868197810E947A1F8C
:1035F00080E1898387E28A831B821C821D821E826E
:103600001F82188629813A814B815C816D817E8180
:103610008F819885AFEF0E940B2729833A834B83D4
:103620005C836D837E838F839887A0E00E94292727
:1036300049F780E090E028960FB6F894DEBF0FBE01
:10364000CDBFDF91CF911F910F91FF90EF90089523
:10365000DC0115967C936E93149716962C9121306D
:1036600069F0223081F4DC011796ED91FC911897F6
:1036700019968D919C911A97099502C00E94971EE8
:1036800080E090E008958FEF9FEF08950F931F93D0
:10369000CF93DF93EC018B010E942209E881F9812D
:1036A000CE17DF0781F0C081D181A281B381BB83B6
:1036B000AA83CD93DC93F383E283F183E083B801A3
:1036C000CF010E94281BDF91CF911F910F910C9485
:1036D00036090F931F93CF93DF93EC018B010E9468
:1036E0002209E881F981CE17DF07A9F08081918155
:1036F00022813381DC0113963C932E931297D901DA
:103700008D939C93F383E283F183E083B801CF012F
:103710000E94281BE6CFDF91CF911F910F910C944F
:10372000360960E070E00E94461B80E090E008955A
:1037300040E050E060E070E00C949D1EFFCF90935D
:103740007D0780937C0770937B0760937A070895C9
:10375000E0917C07F0917D07309749F00190F0816E
:10376000E02D682F80917A0790917B07099480E083
:1037700090E008950F931F93CF93DF9380917C0780
:1037800090917D07892B59F08A01EB01060F171FD5
:10379000C017D10721F089910E94A81BF9CF80E0C2
:1037A00090E0DF91CF911F910F9108950F931F9398
:1037B000CF93DF9300D0CDB7DEB78C010E942209F2
:1037C000F801848195811816190644F401979583B0
:1037D00084830E94360980E090E00CC00E94360984
:1037E000AE014F5F5F4F60E070E0C8010E949D1E18
:1037F000009721F30F900F90DF91CF911F910F91C0
:103800000895CF93DF93EC010E9422098C819D8162
:1038100001969D838C8388819981C817D90729F0E7
:1038200060E070E0CE010E94461B0E94360980E0F5
:1038300090E0DF91CF910895CF93DF93FC01C08199
:10384000D181A281B381BB83AA83CD93DC93EB01A9
:10385000AA81BB81B383A283718360839B838A83A4
:103860008D939C93DF91CF91089580917E079091E5
:103870007F070895FC018AE892E091838083148693
:1038800013861286CF010696918780879783868359
:1038900082E081A383E082A380917E0790917F07DD
:1038A0009383828314A213A20895E0E8F7E0F383E0
:1038B000E283F183E08384E897E0978386839583AE
:1038C000848388E897E09387828791878087E4E8FC
:1038D000F1E0F383E283F183E083E8E8F1E0F3834E
:1038E000E283F183E083E0E8F1E0F383E283F183B4
:1038F000E083ECE8F1E0F383E283F183E083089571
:10390000CF93DF93EC010E9422091AA21C8668E87B
:1039100071E0CE0106960E941C1CDF91CF910C94A1
:103920003609FC0161A1F4E06F9FB00111246058D9
:10393000784F06960C941C1CCF93DF93EC010E94E9
:10394000220984E08AA360E871E0CE0106960E9415
:103950001C1CDF91CF910C94360990937F078093C4
:103960007E07DC0195962C919597216095962C9376
:103970009597ED91FC910190F081E02D0994DC0187
:103980001296ED91FC911397309731F00480F581F8
:10399000E02D8FED9FEF099408951F93CF93DF9350
:1039A0000E94220915E0E0918001F091810121E05F
:1039B000E038F20711F1EF01269780819181228191
:1039C0003381DC0113963C932E931297D9018D938A
:1039D0009C93F383E283F183E0830E9436091AA368
:1039E000E881F9810280F381E02DCE010995CE01B5
:1039F0000E94BF1C0E942209D6CF0E9436090E9455
:103A000022098091880190918901B1E088389B0753
:103A100021F006970E94911CF4CF0E9436098091F4
:103A2000800790918107E7E080389E07A1F4DC01D0
:103A300014968D919C911597B7E084389B0771F48B
:103A40008091880790918907E7E088389E07D9F030
:103A500068E877E005C060E877E002C064E877E0F6
:103A6000EC0126972DA125FF06C0CE01DF91CF9155
:103A70001F910C949C1C0E941C1CCE01DF91CF91C5
:103A80001F910C94AD1CDF91CF911F9108950C9460
:103A9000801C0E94351C0E949C1C0C94741ECF93A9
:103AA000DF930E94351CEC018DA181FF0CC00E94A8
:103AB0004E098BA3E881F9810480F581E02DCE01C8
:103AC000DF91CF9109948FEF9FEFDF91CF91089510
:103AD0002F923F924F925F926F927F928F929F921E
:103AE000AF92BF92CF92DF92EF92FF920F931F930C
:103AF000CF93DF931C010E94351CEC01009709F461
:103B00004DC05C0186E0A80EB11C0E942209AE8166
:103B1000BF81E885F9851396FC93EE931297B183E4
:103B2000A083B986A886BF82AE820E94360983E050
:103B30008C8782E08AA30E9436181F921F921F92E0
:103B40001F921F921F923F922F9269017A018B015F
:103B50009C01AE0167E47DE1C5010E94E924C50135
:103B60000E942F258DB79EB708960FB6F8949EBF7A
:103B70000FBE8DBFDF91CF911F910F91FF90EF90FE
:103B8000DF90CF90BF90AF909F908F907F906F907D
:103B90005F904F903F902F900C944F1D8FEF9FEFB1
:103BA000DF91CF911F910F91FF90EF90DF90CF9019
:103BB000BF90AF909F908F907F906F905F904F904D
:103BC0003F902F900895BC01665D7F4FDC01969673
:103BD000ED91FC91979798968D919C919997099466
:103BE00008958FEF9FEF0895EF92FF920F931F9329
:103BF000CF93DF93EC017B018A010E943A1C84E998
:103C000092E0998388831BA61AA6FFA2EEA219A7A9
:103C100008A7DF91CF911F910F91FF90EF9008952A
:103C2000089586960C94CA0086960E94FD0080E056
:103C300090E00895CF93DF93EC01DC01A35BBF4FCD
:103C4000FC01E55BFF4F0190F081E02D8D919C918F
:103C50000995CD5ADF4F99838883DF91CF910C94DA
:103C6000491D8F929F92AF92BF92CF92DF92EF92B7
:103C7000FF920F931F93CF93DF93EC014B015A01F7
:103C8000690178010E943A1C8EE992E09983888349
:103C9000B801615071096C0D7D1D01E09E014AE182
:103CA0005EE1CE0186960E944220FE01E15BFF4F5D
:103CB000D182C0823296F182E082369791828082F0
:103CC0003296B182A0828DA1846082608DA3DF9143
:103CD000CF911F910F91FF90EF90DF90CF90BF9009
:103CE000AF909F908F900895CF93DF930E94351CE3
:103CF000EC018DA181FF0CC00E944E098BA3E881CD
:103D0000F9810480F581E02DCE01DF91CF910994F6
:103D10008FEF9FEFDF91CF9108958FEF98E09EBFD7
:103D20008DBF78940E9449090E94BC01FDCF06977F
:103D30000E94801C80E090E008950F931F93CF9322
:103D4000DF93EC018B010E94351CFC01892BD9F11A
:103D500085A181FF38C081E0848782E082A34FB7CC
:103D6000F894CF0106962681378160857185D90147
:103D700013967C936E931297DB012D933C9391875E
:103D8000808797838683012B69F0A881B981D187C9
:103D9000C087B783A68313969C938E9312979983BB
:103DA00088830AC0AA81BB81B187A087D783C683D5
:103DB0009B838A838D939C934FBFDF91CF911F91FB
:103DC0000F910C944F1D8FEF9FEFDF91CF911F91BB
:103DD0000F910895CF93DF93EC010E94351CFC01F5
:103DE00081E0848782E082A34FB7F894CF010696E2
:103DF0002681378160857185D90113967C936E93F6
:103E00001297DB012D933C9391878087AA81BB8118
:103E1000B187A087D783C6839B838A838D939C9326
:103E20004FBF80E090E0DF91CF910895FC01828147
:103E3000442311F0682B02C060956823628380E000
:103E400090E00895FC01808190E00895FC01DA0182
:103E5000C9018827AA27BB27892B8A2B8B2B11F016
:103E6000211120C020FF16C08181609568236183E5
:103E7000BA01A9014E7155276627772781E090E0A6
:103E8000452B462B472B11F480E090E091958195CE
:103E90009109089530FF06C08181682B618380E01D
:103EA00090E008958FEF9FEF0895FC01668381E015
:103EB00090E00895FC01868190E00895FC018081E6
:103EC000807890E00895FC018081807290E00895F0
:103ED000FC019181672B11F0906101C09F7E91835D
:103EE0000895FC019181672B11F0986001C0977FC4
:103EF00091830895FC019181672B11F0906801C0B6
:103F00009F7791830895FC019181672B11F0906256
:103F100001C09F7D91830895FC019181672B11F071
:103F2000906401C09F7B91830895CF93DF93EC0150
:103F30009A01AB0188818260888360E079E08DE33B
:103F400090E00E946326DA01C9010197A109B10935
:103F5000AC01BD017695679557954795852F9927B3
:103F60008D834C83DF91CF9108958830910589F03E
:103F700038F40097B9F0019791F481E090E008954A
:103F80008034910549F08115914049F484E090E036
:103F9000089582E090E0089583E090E008958FEF27
:103FA0009FEF089580E090E008950F931F93CF93C3
:103FB0008C01CB01F801C1810E94B51FC87F8770B9
:103FC0008C2BF8018183CF911F910F910895803838
:103FD000910529F0803B910521F4E2E003C0E1E086
:103FE00001C0E0E0F0E0E259FF4F80818E7F617018
:103FF000682B608308950C94E71F61E084E490E0EF
:104000000E94FB1F60E470E084E490E00E94D51FF2
:1040100060ED73E080E090E00E94FB170C94252097
:104020009FB7F8948091C00080648093C000809115
:10403000C00085FFFCCF6093C6008091C00086FF62
:10404000FCCF9FBF80E090E008951092C0001092D6
:10405000C50088E08093C40086E08093C200E1EC54
:10406000F0E080818860808360E070E084EA92E024
:104070000E949F1B80E090E0089560E071E080E086
:1040800090E008950F93CF93DF9300D0CDB7DEB7C4
:10409000FC0185E2DF011D928A95E9F71182011189
:1040A00002C080E001C080E884A373A362A351A38F
:1040B00040A3208F318F0F900F90DF91CF910F9100
:1040C0000895AF92BF92CF92DF92EF92FF921F932B
:1040D000CF93DF93EC01162F5A0169017C0182E036
:1040E000E80EF11CC7010E94D61BB88AAF86DA8A97
:1040F000C98A110F1E87188E1F8A8B8D8C7F8B8F1C
:1041000085EA8093BC00CE0108960E94D61BC701A9
:104110000E94011C80E090E0DF91CF911F91FF9001
:10412000EF90DF90CF90BF90AF9008957F928F92E5
:104130009F92AF92BF92CF92DF92EF92FF920F9336
:104140001F93CF93DF93EC01762E4A0159016C0146
:1041500082E0C80ED11CC6010E94D61B1C8B0B8BA3
:10416000988A8F86FE8AED8ABA8AA98AFA8EE98EA3
:10417000770C7E86188E1F8A8B8D8C7F82608B8F4A
:1041800085EA8093BC00CE0108960E94D61BC6012A
:104190000E94011C80E090E0DF91CF911F910F9170
:1041A000FF90EF90DF90CF90BF90AF909F908F9057
:1041B0007F9008959A01AB01211531054105510504
:1041C00021F420EA36E841E050E060E074E284EF58
:1041D00090E00E946326DA01C9014097A109B10964
:1041E000B695A795979587958093B8001092B900DA
:1041F0000895ECEBF0E08081856080830895CF9393
:10420000DF93FC018091B900887F883209F453C0A4
:1042100070F4803179F128F4882319F1883021F184
:10422000B4C0883199F1803209F441C0AEC08834FD
:10423000F1F138F4803309F480C0803409F48FC080
:10424000A4C0803509F47CC0883509F09EC0209157
:10425000BB00A389B4898789908DA80FB91F2C93BF
:104260008BC0838D846025C0938D9370868591303B
:1042700031F40AC0938D93708685923029F08E7F39
:104280008093BB0085E875C08160FACF838D80FD87
:104290007CC0278530898789908DAC014F5F5F4F47
:1042A000508F478BF901E80FF91F8081E9CF838D8B
:1042B0008860838F61C0EF01838D8370F9F48789F3
:1042C000908D218932898217930741F485E9809383
:1042D000BC00CF0108960E94011C10C027853089C0
:1042E000AC014F5F5F4F508F478BF901E80FF91F0B
:1042F00080818093BB0085E88093BC008B8D8370A8
:10430000823009F042C08F89988D29893A898217B5
:10431000930721F4188E1F8A85EA2BC02F853889D0
:10432000AC014F5F5F4F588F4F8BF901E80FF91FBA
:1043300080818093BB0085E91CC0838D8061B9CFEB
:10434000438954898789908D9C012F5F3F4F308F1F
:10435000278B2091BB00DA01A80FB91F2C93878906
:10436000908D0196218D328D8217930709F48ACFA3
:1043700085EC8093BC0009C085E98093BC00CF0127
:104380000896DF91CF910C94011CDF91CF91089595
:10439000DC01ED91FC910480F581E02D0994FC0194
:1043A000448D558D268D378D4217530728F080A1F7
:1043B00091A1820F931F01C0C9010197841B950B26
:1043C00008950F931F93CF93DF938C010E942209CE
:1043D000F801C2A1D3A124A135A1C217D30728F4A3
:1043E000F80186A197A1C80FD91FC21BD30B0E9449
:1043F0003609CE01DF91CF911F910F9108958F92D1
:104400009F92AF92BF92CF92DF92EF92FF920F9363
:104410001F93CF93DF93EC01962E072F6A01122F83
:104420007C018AE0E80EF11CC7010E94D61B892B93
:1044300009F04BC00E942209912F9170892E1270B1
:10444000CE0144965C012AA13BA18CA19DA1281715
:10445000390779F4811005C0C501112329F00E94A4
:10446000EA1E00E010E02BC00E94981B892B59F334
:10447000F8CFC114D104A9F34A8D5B8DE92DF02F3B
:1044800000E010E08CA19DA12AA13BA128173907CB
:10449000B1F0DA01A80FB91F2C9101969DA38CA34E
:1044A0006EA17FA18617970711F41DA21CA22F3FB2
:1044B00031F021930F5F1F4F0C151D0519F70E9456
:1044C0003609C7010E94011C02C000E010E0C801CB
:1044D000DF91CF911F910F91FF90EF90DF90CF90E0
:1044E000BF90AF909F908F9008955F926F927F9250
:1044F0008F929F92AF92BF92CF92DF92EF92FF92F4
:104500000F931F93CF93DF934115510509F48BC08F
:10451000522E7A015B01EC014C0184E0880E911C63
:10452000C4010E94D61B892B09F079C00E94220980
:104530008A819B81DC01ED91FC910284F385E02D61
:104540000995892BC1F02C8D3D8D8E8D9F8D28175F
:10455000390789F48A819B81F5016081062E000C60
:10456000770BDC01ED91FC910084F185E02D09953C
:1045700001E010E002C000E010E0B52DB1705B2E4C
:104580003E01E0E16E0E711CE016F10609F441C037
:10459000688D798DF501E00FF11FA701401B510BCC
:1045A000C12CD12CC416D50661F02C8D3D8D8E8D7D
:1045B0009F8D009711F488A199A1019728173907B9
:1045C00049F4C114D104C1F062E08A819B810E9448
:1045D000C82112C08191DB01A20FB31F8C938C8D77
:1045E0009D8D01969D8F8C8F28A139A182179307ED
:1045F000E9F41D8E1C8E1AC00C0D1D1DE016F1066F
:1046000041F0511006C0C3010E94981B892B09F488
:10461000BBCF0E943609C4010E94011C02C000E009
:1046200010E0C80107C080E090E004C08FEFC81A16
:10463000D80AB8CFDF91CF911F910F91FF90EF90E3
:10464000DF90CF90BF90AF909F908F907F906F90B2
:104650005F900895CF93DF93EC016115710579F1B7
:104660006130710509F05AC02E8D3F8D4C8D5D8DE6
:104670008A819B814217530731F463E00E94C8216D
:10468000CE01409647C0E88DF98DE20FF31F60819F
:104690002F5F3F4F3F8F2E8F48A159A12417350719
:1046A00011F41F8E1E8E062E000C770BDC01ED918F
:1046B000FC910084F185E02DDF91CF9109948A81EE
:1046C0009B81DC01ED91FC910680F781E02D09953D
:1046D0004AA15BA12CA13DA12115310511F42EA108
:1046E0003FA1215031094217530791F02A8D3B8D8C
:1046F000F901E40FF51F80838AA19BA101969BA37A
:104700008AA32EA13FA18217930711F41BA21AA21C
:10471000CE014496DF91CF910C94911BDF91CF9104
:104720000895CF93DF93EC016115710511F07B8340
:104730006A83AA81BB818AE293E213969C938E934B
:1047400012971596DC93CE931497ED91FC911197E7
:104750000280F381E02D61E070E0CD01099560E019
:104760008A819B81DF91CF910C94C821EF92FF92B7
:104770000F931F93CF93DF93FA01319628EADA0162
:104780002C93DC01680F791F9FEF11E385EC0BE29E
:104790002CE5F22E3AE8E32E6A177B0709F12D91FA
:1047A0009227C8E0D0E0392F330F97FF03C0932F33
:1047B000912701C0932F2197B1F7223B39F0253C77
:1047C00041F0283A51F48083E18205C0808301835F
:1047D00002C02083F1823296DFCF20833196DCCF76
:1047E000923B59F0953C89F0983AA9F485EC808386
:1047F0009F012E5F3F4F8AE806C085EC80839F01B2
:104800002E5F3F4F8BE281830AC090839F012E5F12
:104810003F4F8CE5F8CF9F012F5F3F4F9083F90109
:1048200082EB8193CF01841B950BDF91CF911F9178
:104830000F91FF90EF900895FC01118671836083C2
:104840005383428315821482178216828FEF8087EA
:1048500008951F93CF93DF93EC01162F8985813044
:10486000D1F028F0823009F1843049F0A9C08FEFEF
:1048700088871D821C821F821E8284E08987183AE5
:1048800009F0A1C081E089878FEF88871D821C8293
:104890001F821E828BC0623B19F1653C21F0683A91
:1048A00009F046C013C082E080C0683A79F02CF469
:1048B0006A3809F07DC018EA3BC06B3229F06C35CC
:1048C00009F076C015EC34C012EB32C08FEF888748
:1048D0001D821C821F821E8281E0898782E074C053
:1048E0008885811167C06E817F8181E090E06115CC
:1048F000710511F480E090E04C815D81481B590BFB
:104900005D834C839B01281B390BC9013F832E8398
:104910004217530751F028813981481B590B620F08
:10492000731F820F931F0E947A2B81E090E046C094
:104930004C815D818A819B81019748175907E0F579
:104940002E813F814217530769F088819981421B6C
:10495000530BBC01620F731F2F5F3F4F820F931FDA
:104960000E947A2B288139818E819F81AC014F5F13
:104970005F4F5F834E83F901E80FF91F10838C812D
:104980009D8101969D838C838885182788E090E01F
:1049900031E3212F220F17FF03C0122F132701C06D
:1049A000122F0197B1F7188781E0898780E00CC04A
:1049B0008DEF03C08FEF01C08EEF9FEF198605C00A
:1049C0008CEF9FEF02C083E090E0DF91CF911F91C9
:1049D00008957F928F929F92AF92BF92CF92DF9273
:1049E000EF92FF920F931F93CF93DF93CDB7DEB774
:1049F000FC015B014A0168894989BA89AB897C89D4
:104A00005D899E898F896894772472F876821582F1
:104A10001482F383E283F183E083B08EA78A928EBF
:104A2000818EC782D086E186F28603871487258728
:104A300036876787408BB18BA28B738B548B958B9A
:104A4000868BDF91CF911F910F91FF90EF90DF90B8
:104A5000CF90BF90AF909F908F907F9008952F92AE
:104A60003F924F925F926F927F928F929F92AF92FE
:104A7000BF92CF92DF92EF92FF920F931F93CF934B
:104A8000DF93EC012F81388549855A856B857C85BC
:104A90008D859E85AF84B888C988DA88EB88FC88C4
:104AA0000D891E890E940227922E832E742E652E58
:104AB000562E472E382E292E0E942209E091900171
:104AC000F091910181E0E039F80751F127813085BB
:104AD000418552856385748585859685A784B088D0
:104AE000C188D288E388F488058916890E94022744
:104AF00059016A017B018C01292D382D472D562D36
:104B0000652D742D832D922D0E941727A0E00E9401
:104B1000292724F00190F081E02DD4CF309711F4B3
:104B2000E0E9F1E0A281B381BB83AA83F983E88342
:104B3000D383C283CD93DC93DF91CF911F910F91EB
:104B4000FF90EF90DF90CF90BF90AF909F908F90AD
:104B50007F906F905F904F903F902F900C9436090C
:104B6000CF93DF93DC01CD91DC9111971296ED91FB
:104B7000FC911397FB83EA83D183C08313969C93A4
:104B80008E93129711969C938E935796ED91FC916C
:104B90005897BC0159968D919C915A97DF91CF916E
:104BA00009942F923F924F925F926F927F928F92D1
:104BB0009F92AF92BF92CF92DF92EF92FF920F93AC
:104BC0001F93CF93DF93922E832E742E652E562E35
:104BD000472E382E292E0E942209C0919001D09193
:104BE000910181E0C039D80719F10E943609292DB9
:104BF000382D472D562D652D742D832D922DAF8088
:104C0000B884C984DA84EB84FC840D851E850E94F7
:104C10001727AF84B888C988DA88EB88FC880D89A3
:104C20001E890E942027C4F0CE010E94B025D3CF58
:104C3000DF91CF911F910F91FF90EF90DF90CF9078
:104C4000BF90AF909F908F907F906F905F904F90AC
:104C50003F902F900C943609DF91CF911F910F91C7
:104C6000FF90EF90DF90CF90BF90AF909F908F908C
:104C70007F906F905F904F903F902F900895EF92AC
:104C8000FF920F931F93DC01ED91FC910190F08155
:104C9000E02D09951F910F91FF90EF900895AA1BA9
:104CA000BB1B51E107C0AA1FBB1FA617B70710F017
:104CB000A61BB70B881F991F5A95A9F78095909549
:104CC000BC01CD010895A1E21A2EAA1BBB1BFD0158
:104CD0000DC0AA1FBB1FEE1FFF1FA217B307E407DB
:104CE000F50720F0A21BB30BE40BF50B661F771F33
:104CF000881F991F1A9469F7609570958095909513
:104D00009B01AC01BD01CF010895EE0FFF1F05907F
:104D1000F491E02D0994DF93CF931F930F939A9D05
:104D2000F02D219FF00D8B9DF00D8A9DE02DF10D52
:104D3000039FF00D029FE00DF11D4E9DE00DF11D52
:104D40005E9DF00D4F9DF00D7F936F93BF92AF92DC
:104D50005F934F93D5010E9435278B01AC01D7019A
:104D60000E943527EB01E80FF91FD6010E94DB26D0
:104D70002F913F91D6010E943527C60FD71FE81FFC
:104D8000F91FAF91BF910E94DB262F913F910E94A6
:104D90003527C60FD71FE81FF91FD6010E943527F8
:104DA000E60FF71F9801BE01CF0111240F911F914B
:104DB000CF91DF9108950E943527460F571FC81FD6
:104DC000D91F08F43196089597FB10F8169400083F
:104DD0000F93083098F00850232F342F452F562F6B
:104DE000672F782F892F902DF4CF0594979587956D
:104DF0007795679557954795379527950A95AAF71B
:104E00000F9108952A0D3B1D4C1D5D1D6E1D7F1DCC
:104E1000801F911F08950024A7FD00942A0F301DC4
:104E2000401D501D601D701D801D901D08952A1984
:104E30003B094C095D096E097F09800B910B0895B0
:104E40002A153B054C055D056E057F05800791071A
:104E500008950024A7FD00942A1730054005500549
:104E600060057005800590050895A29FB001B39F6D
:104E7000C001A39F700D811D1124911DB29F700D63
:104E8000811D1124911D08955058BB27AA270E9407
:104E90005C270C9463290E94552938F00E945C29F4
:104EA00020F039F49F3F19F426F40C9442290EF4B3
:104EB000E095E7FB0C941329E92F0E94742958F31D
:104EC000BA17620773078407950720F079F4A6F5EF
:104ED0000C94AE290EF4E0950B2EBA2FA02D0B01E9
:104EE000B90190010C01CA01A0011124FF27591B2F
:104EF00099F0593F50F4503E68F11A16F040A22F35
:104F0000232F342F4427585FF3CF469537952795A5
:104F1000A795F0405395C9F77EF41F16BA0B620BA4
:104F2000730B840BBAF09150A1F0FF0FBB1F661FEB
:104F3000771F881FC2F70EC0BA0F621F731F841F2E
:104F400048F4879577956795B795F7959E3F08F054
:104F5000B0CF9395880F08F09927EE0F9795879516
:104F600008950E94EF2808F481E008950E94CA275E
:104F70000C9463290E945C2958F00E94552940F046
:104F800029F45F3F29F00C94132951110C94AF2997
:104F90000C9442290E94742968F39923B1F3552394
:104FA00091F3951B550BBB27AA276217730784073C
:104FB00038F09F5F5F4F220F331F441FAA1FA9F3D2
:104FC00035D00E2E3AF0E0E832D091505040E695C0
:104FD000001CCAF72BD0FE2F29D0660F771F881F21
:104FE000BB1F261737074807AB07B0E809F0BB0B14
:104FF000802DBF01FF2793585F4F3AF09E3F510528
:1050000078F00C9413290C94AF295F3FE4F3983E99
:10501000D4F3869577956795B795F7959F5FC9F710
:10502000880F911D9695879597F90895E1E0660F91
:10503000771F881FBB1F621773078407BA0720F00A
:10504000621B730B840BBA0BEE1F88F7E095089573
:105050000E947C2988F09F5798F0B92F9927B75163
:10506000B0F0E1F0660F771F881F991F1AF0BA950C
:10507000C9F714C0B13091F00E94AE29B1E0089593
:105080000C94AE29672F782F8827B85F39F0B93F85
:10509000CCF3869577956795B395D9F73EF49095BF
:1050A0008095709561957F4F8F4F9F4F089597FB27
:1050B00016F40E9445290C949B28E89409C097FB9C
:1050C0003EF490958095709561957F4F8F4F9F4FDF
:1050D0009923A9F0F92F96E9BB279395F695879523
:1050E00077956795B795F111F8CFFAF4BB0F11F4E6
:1050F00060FF1BC06F5F7F4F8F4F9F4F16C088238D
:1051000011F096E911C0772321F09EE8872F762FC2
:1051100005C0662371F096E8862F70E060E02AF003
:105120009A95660F771F881FDAF7880F96958795EF
:1051300097F90895E894F92F96EBFF2381F0121662
:1051400013061406440B9395F69587957795679506
:1051500057954040FF23B9F71BC09927089588232E
:1051600051F49850D2F7872B762F652F542F432F69
:10517000322F20E0B1F3121613061406440B8823D5
:105180003AF09A95440F551F661F771F881FCAF77C
:1051900055234AF4440F551F11F460FF04C06F5F9C
:1051A0007F4F8F4F9F4F880F9695879597F908955A
:1051B0000E94962990F09F3748F4911116F00C94B4
:1051C000AF2960E070E080E89FEB089526F41B169D
:1051D000611D711D811D0C9419290C943429990F9E
:1051E0000008550FAA0BE0E8FEEF16161706E807B1
:1051F000F907C0F012161306E407F50798F0621BD2
:10520000730B840B950B39F40A2661F0232B242BA6
:10521000252B21F408950A2609F4A140A6958FEFC5
:10522000811D811D089597F99F6780E870E060E017
:105230000895882371F4772321F09850872B762FD7
:1052400007C0662311F499270DC09051862B70E09A
:1052500060E02AF09A95660F771F881FDAF7880FAB
:105260009695879597F908959F3F31F0915020F4D6
:10527000879577956795B795880F911D9695879532
:1052800097F908959FEF80EC08959095809570951B
:10529000609550954095309521953F4F4F4F5F4F0A
:1052A0006F4F7F4F8F4F9F4F089500240A9416161B
:1052B000170618060906089500240A941216130604
:1052C000140605060895092E0394000C11F4882392
:1052D00052F0BB0F40F4BF2B11F460FF04C06F5FAE
:1052E0007F4F8F4F9F4F089557FD9058440F551F84
:1052F00059F05F3F71F04795880F97FB991F61F058
:105300009F3F79F087950895121613061406551FCE
:10531000F2CF4695F1DF08C0161617061806991F3A
:10532000F1CF869571056105089408950E947C2946
:10533000A0F0BEE7B91788F4BB279F3860F41616B3
:10534000B11D672F782F8827985FF7CF86957795BF
:105350006795B11D93959639C8F30895E894BB27D6
:1053600066277727CB0197F908950E94EF2808F464
:105370008FEF08950E94CD290C9463290E9455292E
:1053800038F00E945C2920F0952311F00C94132929
:105390000C94422911240C94AF290E94742970F3B3
:1053A000959FC1F3950F50E0551F629FF001729FCA
:1053B000BB27F00DB11D639FAA27F00DB11DAA1FD9
:1053C000649F6627B00DA11D661F829F2227B00D26
:1053D000A11D621F739FB00DA11D621F839FA00DB1
:1053E000611D221F749F3327A00D611D231F849F01
:1053F000600D211D822F762F6A2F11249F57504058
:105400009AF0F1F088234AF0EE0FFF1FBB1F661FD2
:10541000771F881F91505040A9F79E3F510580F09B
:105420000C9413290C94AF295F3FE4F3983ED4F316
:10543000869577956795B795F795E7959F5FC1F73F
:10544000FE2B880F911D9695879597F908950F93D8
:105450001F93CF93DF938230910510F482E090E0A8
:10546000E0918E07F0918F0720E030E0A0E0B0E0FF
:10547000309719F1408151810281138148175907F2
:10548000C8F08417950769F4109731F012960C93C1
:10549000129713961C9327C000938E0710938F07C3
:1054A00022C02115310519F04217530718F49A014B
:1054B000BD01EF01DF01F801DBCF21153105F9F066
:1054C000281B390B2430310580F48A819B816115BA
:1054D000710521F0FB019383828304C090938F07B1
:1054E00080938E07FE01329644C0FE01E20FF31F47
:1054F0008193919322503109398328833AC02091B6
:105500008C0730918D07232B41F4209102013091BB
:10551000030130938D0720938C0720910001309177
:1055200001012115310541F42DB73EB74091040129
:1055300050910501241B350BE0918C07F0918D07EC
:10554000E217F307A0F42E1B3F0B2817390778F05A
:10555000AC014E5F5F4F2417350748F04E0F5F1FB9
:1055600050938D0740938C078193919302C0E0E0A4
:10557000F0E0CF01DF91CF911F910F910895CF936C
:10558000DF93009709F481C0FC01329713821282E5
:10559000A0918E07B0918F07109781F420813181FF
:1055A000820F931F20918C0730918D0728173907A0
:1055B00051F5F0938D07E0938C0767C0ED0120E073
:1055C00030E0CE17DF0740F44A815B819E01411530
:1055D0005105F1F0EA01F5CFD383C28340815181B7
:1055E000840F951FC817D90759F488819981840FB2
:1055F000951F0296918380838A819B819383828306
:105600002115310529F4F0938F07E0938E073DC0F3
:10561000E901FB83EA8349915991C40FD51FEC1727
:10562000FD0761F480819181840F951F0296E90145
:1056300099838883828193819B838A83E0E0F0E071
:1056400012968D919C911397009719F0FD01DC0142
:10565000F7CF8D919C9111979D012E5F3F4F820F47
:10566000931F20918C0730918D072817390769F413
:10567000309729F410928F0710928E0702C0138280
:105680001282B0938D07A0938C07DF91CF9108957C
:1056900081E090E0F8940C948E2E85FD0C94E02D22
:1056A000806291110C94E02D81568A51D8F70895AB
:1056B00091110C94E02D80538A5028F0865C806212
:1056C00081568650B0F70895FB01DC0104C08D912E
:1056D0000190801921F441505040C8F7881B990B64
:1056E0000895FB01DC0102C001900D924150504031
:1056F000D8F708956817790768F4FB01DC01E40F17
:10570000F51FA40FB51F02C002900E9241505040E9
:10571000D8F708950C94712BDC0101C06D934150B2
:105720005040E0F708950F931F93CF93DF93FB0151
:10573000238121FD03C08FEF9FEF2CC022FF16C0F5
:1057400046815781248135814217530744F4A08153
:10575000B1819D012F5F3F4F318320838C93268140
:1057600037812F5F3F4F3783268314C08B01EC01B5
:10577000FB010084F185E02D0995892BE1F6D80124
:1057800016968D919C911797019617969C938E93E0
:105790001697CE01DF91CF911F910F910895AEE042
:1057A000B0E0E5EDFBE20C94652E0D891E898F8932
:1057B000988D26E02C831A83098397FF02C080E02E
:1057C00090E801979E838D83AE01455E5F4F698DA2
:1057D0007A8DCE0101960E94FF2B4D815E8157FD8F
:1057E0000AC02F813885421753070CF49A01F8013B
:1057F000E20FF31F10822E96E4E00C94812EABE0B2
:10580000B0E0E5E0FCE20C94572E6C017B018A01CC
:10581000FC0117821682838181FFCCC1CE010196E3
:105820003C01F6019381F70193FD859193FF8191EE
:105830007F01882309F4BAC1853239F493FD85913B
:1058400093FF81917F01853229F4B60190E00E9497
:10585000932BE7CF912C212C312CFFE1F315D8F0BD
:105860008B3279F038F4803279F08332A1F4232D31
:1058700020611DC08D3261F0803369F4232D2160D9
:1058800016C0832D8260382EE32DE4603E2E2AC0A0
:10589000F32DF8601DC037FC2DC020ED280F2A30F5
:1058A00040F08E32B9F436FC81C1232D2064322EB3
:1058B00019C036FE06C08AE0989E200D1124922E53
:1058C00011C0EAE02E9E200D1124222EF32DF0624D
:1058D0003F2E08C08C3621F4832D8068382E02C0FC
:1058E000883641F4F70193FD859193FF81917F0103
:1058F0008111B3CF982F9F7D9554933028F40C5F7E
:105900001F4F9FE399830DC0833631F0833771F0C9
:10591000833509F059C021C0F801808189830E5F69
:105920001F4F88248394912C530113C02801F2E067
:105930004F0E511CF801A080B18036FE03C0692DC6
:1059400070E002C06FEF7FEFC5010E94EE2D4C01A9
:105950008201F32DFF773F2E16C0280122E0420E70
:10596000511CF801A080B18036FE03C0692D70E0A3
:1059700002C06FEF7FEFC5010E94E32D4C01F32DB4
:10598000F0683F2E820133FC1BC0822D90E0881608
:105990009906B0F4B60180E290E00E94932B2A941D
:1059A000F4CFF50137FC859137FE81915F01B60197
:1059B00090E00E94932B21102A9421E0821A9108F2
:1059C0008114910471F7E8C0843611F0893641F5ED
:1059D000F80137FE07C060817181828193810C5F7D
:1059E0001F4F08C060817181072E000C880B990B36
:1059F0000E5F1F4FF32DFF763F2E97FF09C0909546
:105A00008095709561957F4F8F4F9F4FF0683F2E27
:105A10002AE030E0A3010E94F92D882E861845C0A7
:105A2000853731F4232D2F7EB22E2AE030E025C0B9
:105A3000932D997FB92E8F36C1F018F4883579F0FF
:105A4000B5C0803719F0883721F0B0C0E92FE06188
:105A5000BE2EB4FE0DC0FB2DF460BF2E09C034FE77
:105A60000AC0292F2660B22E06C028E030E005C00B
:105A700020E130E002C020E132E0F801B7FE07C0CB
:105A800060817181828193810C5F1F4F06C06081AC
:105A9000718180E090E00E5F1F4FA3010E94F92DFD
:105AA000882E8618FB2DFF773F2E36FE0DC0232D46
:105AB0002E7FA22E891458F434FE0BC032FC09C08C
:105AC000832D8E7EA82E05C0B82CA32C03C0B82C25
:105AD00001C0B92CA4FE0FC0FE01E80DF11D8081AC
