:100000000C943A000C9462000C9462000C94620010
:100010000C9462000C9462000C9462000C946200D8
:100020000C9462000C9462000C9462000C946200C8
:100030000C9462000C9462000C9462000C946200B8
:100040000C94B8140C9462000C9464000C9493000B
:100050000C94C2000C9462000C9462000C94620038
:100060000C940A020C946200310228042805D20E76
:1000700000119A0411241FBECFEFD8E0DEBFCDBF20
:1000800016E0A0E0B1E0EEE7FDE502C005900D92BC
:10009000A835B107D9F728E0A8E5B6E001C01D9260
:1000A000A635B207E1F710E0C9E3D0E004C021971C
:1000B000FE010E948A26C433D107C9F70E94F800C6
:1000C0000C94B22E0C9400001F920F920FB60F9258
:1000D00011242F933F934F935F936F937F938F934D
:1000E0009F93AF93BF93EF93FF93A6E0B1E0129677
:1000F000ED91FC91139760E070E014968D919C91C6
:1001000015970995FF91EF91BF91AF919F918F91B5
:100110007F916F915F914F913F912F910F900FBE03
:100120000F901F9018951F920F920FB60F921124E7
:100130002F933F934F935F936F937F938F939F93EF
:10014000AF93BF93EF93FF93A6E0B1E01296ED91CA
:10015000FC91139761E070E014968D919C91159736
:100160000995FF91EF91BF91AF919F918F917F91F1
:100170006F915F914F913F912F910F900FBE0F9014
:100180001F9018951F920F920FB60F9211242F9364
:100190003F934F935F936F937F938F939F93AF930F
:1001A000BF93EF93FF93A6E0B1E01296ED91FC911F
:1001B000139762E070E014968D919C9115970995C4
:1001C000FF91EF91BF91AF919F918F917F916F912F
:1001D0005F914F913F912F910F900FBE0F901F9005
:1001E00018950E9465150E94EA250E94611DF9CFAD
:1001F0000E94B7200E94951C0E9416047894EE2459
:10020000E39408E02EE640E052EC61E070E080EC20
:1002100090E00E941E2020E031E040E050E060E2EB
:1002200070E083E290E00E947A1F20E031E040E03D
:1002300050E062E070E083E290E00E947A1F20E0EC
:1002400031E040E050E064E070E083E290E00E9442
:100250007A1F0E9442010E9430020E94F10060E277
:1002600070E083E290E00E94761F41E0811140E05F
:1002700060E270E083E290E00E946A1F88EE93E003
:100280000C94081E20E031E040E050E060E270E0B5
:1002900083E290E00E947A1F40E050E06FE271E05C
:1002A0008BEF97E00E94AE1E8BEF97E00C94C61C7C
:1002B000DC01ED91FC910190F081E02D40E050E0F7
:1002C000BA010994CF92DF92EF92FF92CF93DF931E
:1002D000EC01CE80DF80E884F984A7019601FB0160
:1002E00060817181828193810E94B3272A813B8141
:1002F0004C815D810E94CE28A70196010E94B427FF
:100300006E837F8388879987DF91CF91FF90EF90ED
:10031000DF90CF900895CF92DF92EF92FF92CF932C
:10032000DF93EC016A017B018D81882321F0F7FACC
:10033000F094F7F8F09420E030E0A901C701B6018D
:100340000E94202881110CC064E08A819B810E9458
:10035000FF1560E08A819B810E942C1684E052C0C8
:1003600020E030E0A901C701B6010E94C928181693
:1003700004F58C81823029F464E08A819B810E949B
:10038000FF1520E030E04FE753E4C701B6010E94BB
:10039000CE280E9425288A819B810E942C168C8160
:1003A000813029F061E08A819B810E94FF1581E004
:1003B00029C020E030E0A901C701B6010E94202831
:1003C00087FF21C08C81813029F464E08A819B8180
:1003D0000E94FF15C701B601905820E030E04FE7BA
:1003E00053E40E94CE280E9425288A819B810E9486
:1003F0002C168C81823029F062E08A819B810E94D8
:10040000FF1582E08C83DF91CF91FF90EF90DF901A
:10041000CF9008951F920F920FB60F9211242F9331
:100420003F934F935F936F937F938F939F93AF937C
:10043000BF93EF93FF938EE091E00E947521FF91AF
:10044000EF91BF91AF919F918F917F916F915F914C
:100450004F913F912F910F900FBE0F901F901895C5
:10046000089560E688E996E00E94B615E0E8F6E0B7
:100470002AED31E03183208384E084831582378341
:1004800026838287138635872487808B118A338B56
:10049000228B868B178AE6E7F6E084ED91E0918364
:1004A000808340E050E060E171E4428353836483E1
:1004B0007583ECE6F6E09183808342835383648303
:1004C0007583E2E6F6E09183808340E050E060EAE5
:1004D00070E44283538364837583E8E5F6E0918397
:1004E0008083428353836483758308958FEF9FEFE6
:1004F000089581E693E00895CF93DF93FC01838D07
:10050000948D009729F0EF010E94B1041C8E1B8E80
:10051000DF91CF91089529E132E0FC0131832083FE
:100520000C94190ECF93DF93EC010E948B02CE0145
:10053000DF91CF910C94D32927E232E0FC01318383
:1005400020830C948B02CF93DF93EC010E949C02DA
:10055000CE01DF91CF910C94D329CF93DF93EB01A0
:100560006FEF7FEF0E94F40ECE01DF91CF910C94DC
:100570005F06CB010C945F06CF93DF93CDB7DEB758
:1005800060970FB6F894DEBF0FBECDBFE0912A0191
:10059000F0912B010480F581E02D8AE291E009952C
:1005A000892BF9F0E0912A01F0912B010280F3816F
:1005B000E02D20E040E150E0BE016F5F7F4F8AE216
:1005C00091E00995E0912A01F0912B010190F081D1
:1005D000E02D20E0AC01BE016F5F7F4F8AE291E029
:1005E0000995E0912A01F0912B010280F381E02D21
:1005F00022E040E050E060E070E08AE291E009959E
:1006000060960FB6F894DEBF0FBECDBFDF91CF91DD
:100610000895CF93DF93EC0189E092E0998388837A
:100620000E942D05AA81BB81EC81FD811396FC936C
:10063000EE931297B183A0838EED90EC9B838A8317
:100640008EED99EC9D838C83DF91CF910C944105C5
:10065000CF93DF93EC0185E392E099838883CE0109
:100660000E947C02CE01DF91CF910C940903CF93BD
:10067000DF93EC010E942803CE01DF91CF910C940F
:10068000D329CF93DF93EC010E940903CE01DF91C0
:10069000CF910C94D329CF93DF93EC016D897E89A0
:1006A0004F89588D461B570BEFA1F8A589A59AA530
:1006B00009952D893E89820F931F9E8B8D8B2F89E3
:1006C000388D82179307A1F40E942D0560E0898977
:1006D0009A890E941D0B1A8A198A1E8A1D8A188EF1
:1006E0001F8A0E944105CE01DF91CF910C949E0399
:1006F000DF91CF9108950F931F93CF93DF93EC0178
:100700008C01095F1F4FC8010E94A51B892B89F42A
:100710002D893E898F89988D2817390719F0CE01C8
:100720000E944B03C801DF91CF911F910F910C9450
:10073000BD1BDF91CF911F910F910895CF93DF9350
:10074000DC011D96ED91FC911E979C01235F3F4FAC
:10075000E217F30741F1EC01FA8BE98B808191817B
:1007600022813381DC0113963C932E931297D90199
:100770008D939C93F383E283F183E0834B895C89BF
:1007800061897289CF0140960E949A242B893C8905
:100790003E8B2D8B820F931F988F8F8BCE01DF9115
:1007A000CF910C944B03DF91CF9108950F931F933A
:1007B000CF93DF93EC018B010E942D05F801A081FE
:1007C000B1818281938113969C938E931297FC0141
:1007D000B183A083ED85FE85CE010D96D8011396D9
:1007E0009C938E931297ED93FC93138302831E8741
:1007F0000D870E9441058E01095F1F4FC8010E94AD
:10080000A51B892B71F489899A89892B19F4CE014A
:100810000E949E03C801DF91CF911F910F910C940C
:10082000BD1BDF91CF911F910F91089560E070E0A3
:100830008AE291E00E94752440E050E06CEB72E0A7
:1008400088ED96E00E94AE1E88ED96E00C94C61CE2
:10085000CF93DF9300D000D0CDB7DEB782EF91E029
:100860009A83898382E190E09C838B83BE016F5FD2
:100870007F4F8AEA97E00E94150DEFE3F7E081E4ED
:1008800097E0958384839383828385E392E09183C9
:1008900080838CE497E096878587908B8787128A80
:1008A000118A148A138A168A158A108E178A80E391
:1008B00090E0928F818F148E138EE7E1F7E089E14B
:1008C00097E093838283958384838DE197E0978378
:1008D00086839187808713861286158614861786ED
:1008E000168683E090E0958B848B22E030E0378B96
:1008F000268B82E390E0918F808F338F228F958FAC
:10090000848F8EE190E0978F868F8DE993E09183BD
:10091000808311A210A213A212A215A214A280E039
:1009200091E097A386A30F900F900F900F90DF9107
:10093000CF9108958DE993E090931807809317075E
:1009400087E197E00E949C028FE397E00E942803D2
:100950008091AA079091AB07009711F00C94D329CE
:100960000895CF93DF93EC01892B11F40E94512B52
:100970000E942D058091B1079091B2070197909345
:10098000B2078093B1072091B5073091B607C2171F
:10099000D30760F38091B7079091B807820F931F38
:1009A000C817D90718F78091B3079091B4079983B6
:1009B0008883D093B407C093B3078091BB0790910D
:1009C000BC0701969093BC078093BB07DF91CF9142
:1009D0000C944105CF93DF930E942D05C091B3077E
:1009E000D091B40787E0C33BD80739F0888199815B
:1009F0009093B4078093B30702C0C0E0D0E0809129
:100A0000BB079091BC0701979093BC078093BB07ED
:100A1000209749F08091B1079091B2070196909389
:100A2000B2078093B1070E9441058091C7078823D0
:100A300059F081E492E00E94E41ACE010E94D21A99
:100A400089E492E00E94E41ACE01DF91CF910895EB
:100A5000E3EBF7E0F183E08308958FB7F8942091FA
:100A6000BF073091C007232B11F48093C1078091F9
:100A7000BF079091C00701969093C0078093BF076E
:100A800008958091BF079091C00701979093C00788
:100A90008093BF078091BF079091C007892B19F4FD
:100AA0008091C1078FBF08958091BF079091C007C3
:100AB0000895FC01938382839183808304969783B6
:100AC0008683958384837187608785E090E095872E
:100AD00084871786168681899289E80FF91F108A04
:100AE0000895BF92CF92DF92EF92FF920F931F93E0
:100AF000CF93DF936C01B62E7A01062F10E0C80168
:100B0000840F951F0E94EA04EC01892B99F08AE07A
:100B1000E80EF11C0E0D1F1D1A8B098BBB8A88EC89
:100B200090E09E8B8D8B188A198E1C8AB601CE019F
:100B30000E945905CE01DF91CF911F910F91FF9037
:100B4000EF90DF90CF90BF9008954A960895FC01F2
:100B5000838908959C01265E3F4FFC018389A9018A
:100B6000480F511DCA010895FC012389818992898A
:100B7000821B91090A9708954A960895FC0183897A
:100B800008959C01265E3F4FFC018389A901480F0F
:100B9000511DCA010895CF93DF93EC018CE492E0DC
:100BA0000E94E41A6A817B81888199810E94B6142F
:100BB0008DE00E94B4148AE0DF91CF910C94B414BC
:100BC000CF93DF93DC01ED91FC91309789F0EC013C
:100BD00086858150868788819981FC01268527FD3D
:100BE0000E94512B211102C00E945F0619821882B7
:100BF000DF91CF9108950C94E005CF93DF93FC0132
:100C0000C081D181A281B381BB83AA83CD93DC93C0
:100C10009383828391838083DF91CF910895CF93D3
:100C2000DF93EC018091C707882329F0BE0183E59B
:100C300092E00E94F018A881B981EA81FB811396A5
:100C4000FC93EE931297B183A0832EED30EC3983A1
:100C500028838EED99EC9B838A83AC81BD81EE81E4
:100C6000FF811396FC93EE931297B183A0833D838B
:100C70002C839F838E83CE01DF91CF910C94B1049E
:100C8000CF93DF93FC01718360836115710589F057
:100C9000FB01EC01868587FD0E94512B0E942D05EA
:100CA000E881F98186858F5F8687DF91CF910C94EB
:100CB0004105DF91CF9108958091C8070895CF93A2
:100CC000DF93EC010E942D058F8581FF07C08E8583
:100CD000811104C0CE010E940F0603C08F85816080
:100CE0008F87DF91CF910C944105CF93DF93EC0177
:100CF0000E942D05CE010E94FD058F8580FF07C053
:100D00008E85811104C0CE010E940F0603C08F851D
:100D100082608F87DF91CF910C944105CF92DF9253
:100D2000EF92FF921F93CF93DF937C01C09152010A
:100D3000D091530181E0C235D80759F12F89388D00
:100D4000F7018789908D28173907F9F413898B8962
:100D500018131BC0C7010E94A5056C01CE010E949B
:100D6000A505412F50E0B6010E948F2B892B69F415
:100D70008F8584608F87CE01DF91CF911F91FF9087
:100D8000EF90DF90CF900C9475060990D881C02D1C
:100D9000D1CFDF91CF911F91FF90EF90DF90CF9057
:100DA0000895FC014285538585899689480F591F0E
:100DB000FB012285338585899689280F391F81E0BB
:100DC0004217530708F080E008950F931F93CF93C5
:100DD000DF938C01EB010E942D05E0915C01F09105
:100DE0005D01FB83EA838AE591E099838883D09350
:100DF0005D01C0935C01D183C0830E944105E091F5
:100E0000CD07F091CE07309709F00995BE01C801D2
:100E10000E944006C801DF91CF911F910F91089564
:100E2000CF92DF92EF92FF920F931F93CF93DF93B6
:100E300000D0CDB7DEB77C0140E050E0FC01638913
:100E400080E090E00E9471058C01E114F10411F43E
:100E50000E94512B892BE1F381E0F701918D9230B3
:100E600009F080E0880F880F880FF801908997704B
:100E7000892B8160808B118EF70185899689F80115
:100E8000968B858BF7018789908DF801908F878BE2
:100E9000F701C388D12CC7010E94A5057C01C801B8
:100EA0000E94A505A601B7010E949C2BF801878529
:100EB00081608787B801CE0101960E94E506CE01C8
:100EC00001960E94FB050F900F90DF91CF911F912B
:100ED0000F91FF90EF90DF90CF900895AF92BF9267
:100EE000CF92DF92EF92FF920F931F93CF93DF93F6
:100EF00000D000D0CDB7DEB78C018091D0079091A3
:100F0000D10701969093D1078093D007D8015496CA
:100F10008C91549753969C9189131BC0C8010E94D1
:100F2000A5057C01C8010E94A505F8012389DC0103
:100F3000A20FB11DF701EA17FB0709F4A7C011972B
:100F4000EA17FB0709F4A2C08C9190819C938193CE
:100F5000F2CFD80118962D913C911997232B21F1AE
:100F60009091CF07911120C08091C2079091C30743
:100F7000892B91F481E090E09093C3078093C2079E
:100F80008CE692E09A8389838BEA90E09C838B8342
:100F9000CE0101960E94CB050E942D05C8010E943A
:100FA0000F060E944105D5C1F801E80FF11DE28C42
:100FB000F12CC7010E947E0B6C01892BE9F5C7015A
:100FC0000E94680B7C01892B61F1F8019089809166
:100FD000C80790FF0AC0882379F08091D207811159
:100FE0000BC0B80188E193E005C0882329F0B8015F
:100FF0008EE193E00E94F018D8011F968C911F9704
:1010000084FD0E94512B80611F968C93D70114960A
:10101000ED91FC9115970190F081E02DB801C70189
:1010200009958091C807882309F4B6CFB80184E2F6
:1010300093E00E94F018B0CFF80190898091C80722
:1010400090FF0AC0882379F08091D20781110BC0EC
:10105000B80188E193E005C0882329F0B8018EE14A
:1010600093E00E94F018D8011F968C911F9784FD81
:10107000C8CF80611F968C93D601ED91FC910190B1
:10108000F081E02DB801C601099563C1F80190898E
:101090008091C80790FF8CC0882349F08091D207C7
:1010A000811105C0B80189E592E00E94F018D801CD
:1010B00050968C91869586958695813069F040F0A2
:1010C000823009F069CFE0905601F090570156C088
:1010D000C8010E948E0660CFC8010E948E0640E0C3
:1010E00050E0F801638980E090E00E9471057C0186
:1010F0000115110509F485CF009709F482CFDC01B1
:1011000050968C91509787708061816050968C9337
:10111000509759961C925997F80185899689569649
:101120009C938E9355978789908D58969C938E9318
:101130005797C388D12CC8010E94A5055C01C7013F
:101140000E94A505A601B5010E949C2BB701CE0106
:1011500001960E94E506CE0101960E94FB051CCF78
:10116000D70157962D913C915897F8018789908D1A
:101170002817390749F0D701ED90FC90F6E5EF16F6
:10118000F1E0FF0669F708CFD38853968C91D81207
:10119000F2CFC8010E94A5055C01C7010E94A50508
:1011A0004D2D50E0B5010E948F2B892B21F7C9C02E
:1011B000882329F0B8018FE592E00E94F018D80149
:1011C00018968D919C911997892B09F474C05996A2
:1011D0008C918150823018F4C8010E941007F801E8
:1011E000818D823009F05CC0E0905601F09057018B
:1011F000F6E5EF16F1E0FF0609F1D70157962D91BC
:101200003C915897F8018789908D2817390709F084
:101210009CC05396DC908389D81297C0C8010E9465
:10122000A5055C01C7010E94A5054D2D50E0B50143
:101230000E948F2B892B09F088C0AECE0E942D050D
:101240000E946515D8011A962C931A971B963C9309
:10125000E0905601F0905701B6E5EB16B1E0FB06C1
:1012600051F0B701C8010E94D106811104C0F701F5
:10127000E080F180F1CFD7011296ED91FC911397A8
:10128000D8011396FC93EE931297ED92FC92D7013E
:1012900013961C930E931297118300830E944105AD
:1012A000F80180859185892B31F0818D823019F08C
:1012B000C8010E947506E091C907F091CA073097EE
:1012C00069F5A0915E01B0915F011297F1E0AC3534
:1012D000BF07F1F0F8018089869586958695169668
:1012E0009C91169798130FC081E08093C607ED91EB
:1012F000FC9111970190F081E02DB801CD01099585
:101300001092C60726C012960D90BC91A02DDDCF7D
:10131000E091CB07F091CC07309731F081E08093DA
:10132000C607C8010995ECCF8091C807882329F02A
:10133000B80185E692E00E94F018C8010E945F069D
:1013400008C0C7010E94750627CEF701E080F18032
:101350004FCF0F900F900F900F90DF91CF911F9173
:101360000F91FF90EF90DF90CF90BF90AF900895D6
:101370000F931F93CF93DF938C01EB011C8A888915
:101380008E7F888B0E942D058091C4079091C507A0
:101390009C012F5F3F4F3093C5072093C407988F60
:1013A0008F8B0E944105BE01C8010E944006CE01FC
:1013B0000E946E07E091CD07F091CE07309719F0AB
:1013C000898D81110995C801DF91CF911F910F91EE
:1013D00008954F925F926F927F928F929F92AF92F9
:1013E000BF92CF92DF92EF920F931F93CF93DF9331
:1013F0004C013B015A01220F331F220F331F2A01D8
:10140000420E531EFA01C0E0D0E0E415F50531F0BC
:1014100082819381C80FD91F3496F7CFC3010E94F0
:10142000350DAE01682F80E090E00E947105EC015F
:10143000892B21F4F4011182108235C0000F000FB6
:10144000000F88898770082B088BE98EDE8ACD8A89
:10145000C3010E94350D8C01C3010E94310D3C0176
:10146000CE010E94A505A801B3010E949C2BCE01CC
:101470000E94AA058C01A414B50489F0F5016081CD
:10148000718142815381C8010E949C2BF5018281A8
:101490009381080F191FF4E0AF0EB11CECCFBE0111
:1014A000C4010E94B809C401DF91CF911F910F912F
:1014B000EF90DF90CF90BF90AF909F908F907F90F4
:1014C0006F905F904F9008952F923F924F925F924E
:1014D0006F927F928F929F92AF92BF92CF92DF9244
:1014E000EF92FF920F931F93CF93DF9300D000D022
:1014F000CDB7DEB71C012B013A01CB82AC82220FA3
:10150000331F220F331F5A01A20EB31EFA01C12C42
:10151000D12CEA15FB0531F082819381C80ED91ECA
:101520003496F7CFEE0CFF1CEE0CFF1CC8018E0D9D
:101530009F1D9A838983F80189819A81E817F907A9
:1015400031F082819381C80ED91E3496F5CFC20145
:101550000E94350DA601682F80E090E00E94710581
:101560007C01892B21F4F101118210824EC08B8104
:10157000880F880F880FF70190899770C92EC82AA5
:10158000C08A8C81818F968A858AC2010E94350D1E
:101590006C01C2010E94310D2C01C7010E94A505FA
:1015A000A601B2010E949C2BC7010E94AA056C01F2
:1015B0006A147B0489F0F301608171814281538157
:1015C000C6010E949C2BF30182819381C80ED91E13
:1015D000F4E06F0E711CECCF89819A81081719070E
:1015E00081F0F8016081718142815381C6010E94BE
:1015F0009C2BF80182819381C80ED91E0C5F1F4F6E
:10160000EBCFB701C1010E94B809C1010F900F9043
:101610000F900F90DF91CF911F910F91FF90EF905E
:10162000DF90CF90BF90AF909F908F907F906F9002
:101630005F904F903F902F9008950F931F93CF93FB
:10164000DF93EC01162F8F858F7E8F87209711F403
:101650000E94512B0E942D0588859985892B21F0A8
:10166000CE010E940F062EC0111103C0898D811179
:1016700004C0CE010E94750625C00E9465152A8708
:101680003B87009152011091530181E00235180708
:1016900051F0B801CE010E94D106811104C0D801D9
:1016A0000D911C91F2CFD8011296ED91FC911397F8
:1016B000FB83EA83198308831396DC93CE931297F6
:1016C000D183C083DF91CF911F910F910C9441057D
:1016D000E0916401F091650121E0E436F20749F000
:1016E000268130E02817390739F00190F081E02D8C
:1016F000F3CF80E090E00895CF010895E091680174
:10170000F0916901329721E0E636F20749F026812F
:1017100030E02817390739F00280F381E02DF2CF4D
:1017200080E090E00895CF0108952F923F924F926C
:101730005F926F927F928F929F92AF92BF92CF9261
:10174000DF92EF92FF920F931F93CF93DF93FC01F1
:10175000EA013A01620E731E00E010E03AE0332E17
:1017600044244394C615D70509F4C5C088818E3238
:10177000E1F04CF48D3009F4BEC0833219F18A30A7
:1017800009F0BBC0B8C08A33C9F024F4803309F42F
:10179000B2C0B3C0803461F08F3509F0AEC06E01C5
:1017A0003FEFC31AD30A4F01A3C06E0120E017C058
:1017B00021967F015801AE1ABF0A88C0219620E009
:1017C00030E037C021964F01E12C60C0220F822FFC
:1017D000880F880F280F3A33A4F43053230FC60123
:1017E0008C1B9D0B3FEFC31AD30AD6013C91432FAC
:1017F000032E000C550B405351094A30510530F36C
:1018000002C03753EBCF0F5F1F4F4F01BFEF8B1A53
:101810009B0A208304970CF46BC071C0329EA00118
:10182000339E500D11248A338CF480539A01280F73
:10183000311D6E0188812196682F082E000C770BD0
:10184000605371096A30710548F302C08753EECFC7
:1018500030834F0142E0840E911C21830E5F1F4FA5
:1018600047C0EE2001F194012F5F3F4FA0E15A9E47
:10187000C0011124B9E3BF15A4F040ED4F0D842B36
:10188000F40180830F5F1F4F4901E4246E01F9903A
:101890008F2D0F2C000C990B0E94612B892B09F7BF
:1018A0000CC049ECEBCFF9E3FF151CF020ED522EF4
:1018B00002C099EC592E5F0CE8CFEE20C9F052948B
:1018C00080EF5822D4015C928BEF1AC087010A0D79
:1018D0001B1D47016E012990822D022C000C990BD3
:1018E0000E94592B892B21F0F70121927F01EECF25
:1018F000E601F40137CFC80104C08FEF01C08CEFBF
:101900009FEFDF91CF911F910F91FF90EF90DF90AC
:10191000CF90BF90AF909F908F907F906F905F908F
:101920004F903F902F900895FA0101900020E9F721
:1019300031979F01241B350B0C94950BAF92BF92EE
:10194000CF92DF92EF92FF920F931F93CF93DF938B
:101950006C01EB010A811B810115110529F0C801F9
:101960000E943B295C0102C0A12CB12C4881598105
:10197000B801C5010E94940CEC0197FF0EC0D6017E
:1019800011961C921E9213961C921E9212971596F7
:101990001C921E921497750136C008171907D0F4CF
:1019A0000E943B297C01A114B104B1F09C012C0FD1
:1019B0003D1FD5010A0D1B1DFC012E173F0731F0FD
:1019C0000A171B0719F08D918193F7CFC5010E946B
:1019D000D32902C0750101C08E01F6011383028371
:1019E000D583C483CE010E943B29D6018D939C935D
:1019F000F701CE0DDF1DEC17FD0729F02191DC0169
:101A00002D93CD01F8CFE114F10419F0C7010E9424
:101A1000D329C601DF91CF911F910F91FF90EF90D5
:101A2000DF90CF90BF90AF900895CF93DF93EC01FC
:101A30000E949E0CCE01DF91CF910895FB01208181
:101A40003181FC0131832083FB0122813381FC0140
:101A5000338322830895FC0171836083538342831F
:101A60000895FC01808191810895FC018281938118
:101A700008950895CF93DF93EB01CB010E94AA054F
:101A8000A0916C01B0916D01129721E0AA36B207C6
:101A9000D1F01A964D915C911B97FC012081318108
:101AA0004217530759F4ED91FC9111970280F3818D
:101AB000E02DBE01CD01DF91CF91099412960D90DA
:101AC000BC91A02DE1CFCE01DF91CF910C945F06A8
:101AD0006F927F928F929F92AF92BF92CF92EF922E
:101AE000FF920F931F93CF93DF93CDB7DEB7299764
:101AF0000FB6F894DEBF0FBECDBF3C01C9017A839B
:101B000069835C834B831D829E012F5F3F4F3F8320
:101B10002E8325E030E0398728874501AC2C23E06F
:101B2000C22E21E030E0AE014A5F5F4FBC01C3012D
:101B30000E94640AC30129960FB6F894DEBF0FBE57
:101B4000CDBFDF91CF911F910F91FF90EF90CF907C
:101B5000BF90AF909F908F907F906F900895CF929D
:101B6000DF92EF92FF920F931F93CF93DF93CDB746
:101B7000DEB765970FB6F894DEBF0FBECDBF8B0101
:101B80005D8B4C8B1D86CB010E94AA05FC018281D6
:101B900093819A878987C8010E94AA05FC018081E8
:101BA00091819C878B878D858F7080618D87CE0119
:101BB00009969A83898385E090E09C838B83CE018C
:101BC00044969E838D8382E090E098878F83F8010E
:101BD000C588D688C8010E94A5057C01C8010E945D
:101BE000A705482F50E0B701CE010E960E942B0D9D
:101BF000E12C03E022E030E0AE014F5F5F4FBE0119
:101C0000625F7F4FCE0142960E94E909CE01429663
:101C10000E94FB0565960FB6F894DEBF0FBECDBFE0
:101C2000DF91CF911F910F91FF90EF90DF90CF90B8
:101C30000895CF93DF93EC018FE893E09983888335
:101C40000E942D05CE0106962E813F812817390767
:101C500029F06FEF7FEFCE010E94F40EAA81BB81C5
:101C6000EC81FD811396FC93EE931297B183A083D0
:101C70008EED90EC9B838A838EED99EC9D838C8313
:101C8000DF91CF910C944105CF93DF93EB010E943C
:101C9000E41A80E20E94B414888199810E94781B22
:101CA0008DE00E94B4148AE0DF91CF910C94B414BB
:101CB000CF92DF92EF92FF920F931F93CF93DF9318
:101CC0006C018B01CB010E94C1057C01C0916C01AC
:101CD000D0916D01229781E0CA36D80771F02A852C
:101CE0003B85F701828193812817390721F00A800B
:101CF000DB81C02DEFCF209791F40E945C068823F2
:101D000039F0B7016E5F7F4F8FE393E00E94440E7E
:101D100041E250E0B801C6010E94AF0D2FC00E9401
:101D20005C06882339F0B7016E5F7F4F86E693E04B
:101D30000E94440EF701848182958F7079F0813082
:101D400041F5C8010E94B405C8010E94AA05FC0122
:101D500065817681CE010E94F10E10C0E881F98183
:101D60000190F081E02DB801CE01DF91CF911F915C
:101D70000F91FF90EF90DF90CF900994C801DF9111
:101D8000CF911F910F91FF90EF90DF90CF900C9427
:101D90005F06DF91CF911F910F91FF90EF90DF9041
:101DA000CF900895CF93DF93E3EDF7E083E0868350
:101DB000AEE5B1E01296CD91DC911397D583C48343
:101DC000B383A28385ED97E013969C938E9312972D
:101DD0009983888385E893E091838083DF91CF9115
:101DE000089506960C94921706960C94B517AF9228
:101DF000BF92CF92EF92FF920F931F93CF93DF93F7
:101E0000CDB7DEB767970FB6F894DEBF0FBECDBF74
:101E1000FC01198A1A8A268537852B8BDB011296DD
:101E20008D919C9113979D8B8C8BAE014E5E5F4F75
:101E30005A83498344E050E05C834B834485558555
:101E40005E834D832F8338872D913C913A87298774
:101E50009C878B87A08CB18CC6889F01205F3F4FE9
:101E600044895589628573856115710511F40E9455
:101E7000512B83E0E82EF12C8E010F5F1F4FCE0116
:101E800046960E94680DCE0146960E94FB05679615
:101E90000FB6F894DEBF0FBECDBFDF91CF911F917B
:101EA0000F91FF90EF90CF90BF90AF900895AF92B9
:101EB000BF92CF92DF92EF92FF920F931F93CF9337
:101EC000DF9300D000D0CDB7DEB7FC01408B518B43
:101ED000628B738B358B248B24E0F801DC011C961C
:101EE00001900D922A95E1F7FC01D78AC68AB18E3E
:101EF000A08EF70122813381408151815A83498329
:101F00003C832B83BE016F5F7F4F0E94F70E0F90C3
:101F10000F900F900F90DF91CF911F910F91FF9035
:101F2000EF90DF90CF90BF90AF9008952F923F92A7
:101F30004F925F926F927F928F929F92AF92BF92D9
:101F4000CF92DF92EF92FF920F931F93CF93DF9385
:101F5000CDB7DEB762970FB6F894DEBF0FBECDBF28
:101F60004C016B01DC0196960D911C919797C8016D
:101F70000E943B297C01A80160E070E00E94A52B33
:101F8000C6010E94C1055C01FC01808591850A960D
:101F9000E80FF91F1F014FEF241A340A6080062C46
:101FA000000C7708C30101968E0F9F1FD4019696EF
:101FB0000D911C919797F5016681778161507109A8
:101FC000661977099296ED91FC9193973097B1F14C
:101FD00094962D913C9195972F3F4FEF340741F404
:101FE0009701AB01BC0190968D919C91919720C077
:101FF000D40190960D90BC91A02DBA8BA98B10970F
:10200000C9F029015594479420FF0BC09D01240D70
:10201000351DD9012D913C91E20FF31F0190F08104
:10202000E02D9701AB01BC0189899A89840D951D2A
:10203000099506C09801A701099502C080E090E0CB
:10204000F401008D118D46885788FA82E9829C83BD
:102050008B833E822D8278866F82D5016D907C9035
:10206000C6010E94BC057C01C6010E94BE05FE8619
:10207000ED8690E0988B8F87BE01635F7F4FCE0126
:1020800009960E941E0D49855A856B857C855801ED
:102090006201FE0131967F018E010B5F1F4F93019C
:1020A000C4010E94570F62960FB6F894DEBF0FBEB0
:1020B000CDBFDF91CF911F910F91FF90EF90DF90F7
:1020C000CF90BF90AF909F908F907F906F905F90D8
:1020D0004F903F902F9008952DE933E0FC0131831C
:1020E00020830C949C02CF93DF93EC010E946C1030
:1020F000CE01DF91CF910C94D329DC011D96ED9197
:10210000FC911E97CB01309709F009940C945F065F
:102110008F929F92AF92BF92CF92DF92EF92FF92F7
:102120000F931F93CF93DF9300D0CDB7DEB76C0131
:102130007B01DC011B96ED91FC911C97CB01309744
:1021400011F009954EC00E94C1054C01B4E08B0E00
:10215000911CFC01A180B12CD60117960D911C9108
:10216000189702501109B7E0CB0ED11CC801029696
:102170008C159D0599F1F80162857385A501C4014F
:102180000E94B72BD801892B11F5ED91FC91C080ED
:10219000D180FA82E982E114F10471F0F7018685B9
:1021A00087FD0E94512B0E942D05E981FA818685C9
:1021B0008F5F86870E944105BE016F5F7F4FC80118
:1021C000F6010995CE0101960E94FB050AC0129600
:1021D0000D911C91139702501109C8CFC7010E949D
:1021E0005F060F900F90DF91CF911F910F91FF909D
:1021F000EF90DF90CF90BF90AF909F908F90089519
:10220000CF93DF93EAEDF7E084E08683AEE5B1E0BB
:102210001296CD91DC911397D583C483B383A283A7
:102220008CED97E013969C938E93129799838883F5
:102230008BEA93E09183808381EE97E09087878398
:1022400092878187DF91CF910895DC01ED91FC9118
:102250000190F081E02D42E050E069E472E00994E1
:10226000FB0101900020E9F73197AF01461B570BA6
:10227000DC01ED91FC910190F081E02D09940C942A
:102280003011DB0112964D915C9113976D917C9109
:10229000DC01ED91FC910190F081E02D09942F92E9
:1022A0003F924F925F926F927F928F929F92AF92E6
:1022B000BF92CF92DF92EF92FF920F931F93CF9333
:1022C000DF93CDB7DEB727970FB6F894DEBF0FBE0A
:1022D000CDBF6C013A018B01512CA12CB12CD8013E
:1022E0008C91882309F4ECC08B3709F0A6C07801E3
:1022F000BFEFEB1AFB0AF80181818B37A9F48F83BA
:10230000D601ED91FC910190F081E02D41E050E08B
:10231000BE01695F7F4FC60109957801B2E0EB0EFF
:10232000F11C21E030E085C0082F880F110BC80197
:102330000E94592B892BF1F11701812C912CF1016D
:1023400001911F01002E000C110BC8010E94592B96
:10235000892B29F4005311090A30110520F4FFEFED
:102360008F1A9F0AECCFD3012D903C90412C842DE5
:1023700090E0F301028113818215930508F04CC0AF
:10238000F6E04F9E000D111D1124D8011296ED911B
:10239000FC911397828193818816990609F065C094
:1023A00060817181A401C7010E94B72B892B09F0BC
:1023B0005CC032C0005311090A301105F0F44AE044
:1023C00050E0BE016B5F7F4FC7010E945C2AF301A2
:1023D000208131816217730710F00E94512BF6E0C3
:1023E000F69F9001F79F300D1124D30112960D91A5
:1023F0001C911397020F131F0FC0852D90E0F3015E
:10240000208131818217930740F702811381F6E022
:102410005F9E000D111D1124C7017C01DC012C9170
:1024200001962D3721F12A3339F12111F6CF2FEF03
:102430003FEFA20EB31E870152CFA8017A01FA0125
:102440008191882321F08B3711F0AF01F7CF401B2A
:10245000510BD601ED91FC910190F081E02DB80176
:10246000C6010995A80EB91EE6CF439480CF1A8203
:1024700019821C821B820BC07C016DE770E00E94F8
:10248000AC2BFA82E9828E199F099C838B83D80139
:102490001496ED91FC911597AE014F5F5F4FB60119
:1024A0008D919C910995F7017F0121912D3711F0B4
:1024B0002111FACFBFEFEB1AFB0A53949C01B9CF5D
:1024C000C50127960FB6F894DEBF0FBECDBFDF91D2
:1024D000CF911F910F91FF90EF90DF90CF90BF9021
:1024E000AF909F908F907F906F905F904F903F90B4
:1024F0002F9008950F931F93CF93DF9300D0CDB704
:10250000DEB7FC017A836983862F972FDC012C913B
:10251000422F022E000C550B405351094A305105F1
:1025200070F48F014AE050E0BE016F5F7F4F0E9460
:102530005C2AF8017583648389819A8120C02E33D7
:10254000A1F02CF42C33C1F41182108215C02E3569
:1025500079F0263689F49C012F5F3F4F3A83298317
:10256000DC0111968C91868307C081E090E002C067
:1025700082E090E09183808389819A8101960F9017
:102580000F90DF91CF911F910F9108950F931F939B
:10259000CF93DF93EC011982188282E090E09B8355
:1025A0008A831D821C8280E28E83FB01808191815F
:1025B00002811381080F191F8017910729F0BC01B0
:1025C000CE010E947A12F8CFDF91CF911F910F9127
:1025D00008958F929F92AF92BF92CF92DF92EF9227
:1025E000FF921F93CF93DF937C014B015A01690146
:1025F000D90114968D919C911597841B950B1816F3
:10260000190604F52D913C912130310509F44BC098
:102610002230310521F0232BA9F4182F14C0AC016E
:1026200055954795142F80FF03C0CA0101963CC001
:102630004115510541F0F6016681C7010E9405145C
:10264000EC0103C010E0C0E0D0E0D60112968D91FD
:102650009C911397009731F4A501B401C7010E9422
:10266000241412C0019731F4A501B401C7010E94DE
:1026700047140AC0D701ED91FC910190F081E02D43
:10268000A501B401C7010995C80FD91F112371F025
:10269000412F110F550BF6016681C7010E940514E9
:1026A000C80FD91F03C010E0AC01C5CFCE01DF9128
:1026B000CF911F91FF90EF90DF90CF90BF90AF90A0
:1026C0009F908F900895AF92BF92CF92DF92EF923A
:1026D000FF920F931F93CF93DF93CDB7DEB727976A
:1026E0000FB6F894DEBF0FBECDBF7C018B011A82FE
:1026F000198282E090E09C838B831E821D8280E29F
:102700008F83FA0180819181C280D380C80ED91E47
:10271000AA24A394B12CC816D906A1F0FC012081EB
:102720002C3629F0253731F41C821B8209C0BC826B
:10273000AB8206C0BC01CE0101960E947A12EBCF9B
:102740000196E9CFF80101900020E9F73197AF0138
:10275000401B510B9E012F5F3F4FB801C7010E94E4
:10276000E91227960FB6F894DEBF0FBECDBFDF91FA
:10277000CF911F910F91FF90EF90DF90CF90BF907E
:10278000AF9008950C946313EF92FF920F931F93F1
:10279000CF93DF93CDB7DEB7A7970FB6F894DEBF20
:1027A0000FBECDBF7C01162F072FBA01CE01819637
:1027B0000E94C6120F931F9386EC93E09F938F9312
:1027C0008E010F5F1F4F1F930F930E94012C9E01DC
:1027D0002F5D3F4FAC01B801C7010E94E9120F9075
:1027E0000F900F900F900F900F90A7960FB6F89440
:1027F000DEBF0FBECDBFDF91CF911F910F91FF9034
:10280000EF90089570E00C94C413EF92FF920F9331
:102810001F93CF93DF937A01C42FDF2D062F660F0E
:10282000110B209749F06091500870915108C80130
:102830000E94C52B2197F5CFC701DF91CF911F9142
:102840000F91FF90EF900895EF92FF920F931F93D7
:10285000CF93DF938A01EB017B01E40EF51ECE15C9
:10286000DF0569F08991082E000C990B0E94872BD7
:1028700060915008709151080E94C52BF0CFC8019B
:10288000DF91CF911F910F91FF90EF900895EF92FC
:10289000FF920F931F93CF93DF938A01EB017B018C
:1028A000E40EF51ECE15DF0569F08991082E000CA7
:1028B000990B0E947F2B60915008709151080E94E3
:1028C000C52BF0CFC801DF91CF911F910F91FF90E1
:1028D000EF9008959093EC078093EB077093EA07CD
:1028E0006093E9070895E091EB07F091EC073097CA
:1028F00049F00190F081E02D682F8091E9079091D7
:10290000EA07099480E090E00895AB01E091EB07BD
:10291000F091EC07309749F00480F581E02DBC017F
:102920008091E9079091EA07099480E090E008958A
:102930000F931F93CF93DF938091EB079091EC0758
:10294000892B59F08A01EB01060F171FC017D10719
:1029500021F089910E947314F9CF80E090E0DF911B
:10296000CF911F910F9108950C9473140C948514BA
:102970001F920F920FB60F9211242F933F934F93F4
:102980005F936F937F938F939F93AF93BF93EF93D7
:10299000FF930E940615FF91EF91BF91AF919F9118
:1029A0008F917F916F915F914F913F912F910F90F8
:1029B0000FBE0F901F901895CF92DF92EF92FF926B
:1029C0000F931F93CF93DF930E942D05C090ED07C7
:1029D000D090EE07E090EF07F090F0070091F1073C
:1029E0001091F207D091F307C091F4070E944105BE
:1029F0009601A701B8018D2F9C2FDF91CF911F91D8
:102A00000F91FF90EF90DF90CF9008952091ED0708
:102A10003091EE074091EF075091F0076091F10778
:102A20007091F2078091F3079091F407A1E00E9462
:102A30007A272093ED073093EE074093EF075093EA
:102A4000F0076093F1077093F2078093F307909378
:102A5000F4070895CF93DF939B01AC0160E078EE1B
:102A600083E090E00E946826DA01C9012093780192
:102A700090937901A0937A01B0937B0110927C012D
:102A800010927D0110927E0110927F010E94F7202A
:102A90009B01AC0160E070EA8FE090E00E94682644
:102AA000DA01C9012093700190937101A093720122
:102AB000B093730110927401109275011092760117
:102AC00010927701DF91CF910895AF92BF92CF928C
:102AD000DF92EF92FF920F931F930E94DC14A0905D
:102AE0007801B0907901C0907A01D0907B01E0909C
:102AF0007C01F0907D0100917E0110917F010E9488
:102B00009B2608E00E9455271F910F91FF90EF90A0
:102B1000DF90CF90BF90AF90089520E030E040E08C
:102B200050E0CD960C9439169A01CD96211540E1CE
:102B3000340728F020E030E040E050E102C040E0FF
:102B400050E00C943916411102C00C948D1520E010
:102B500030E040E050E1CD960C943916FC0114822F
:102B6000138215821282118210820895AF92BF9251
:102B7000DF92EF92FF920F931F93CF93DF9300D0DA
:102B80001F92CDB7DEB78C01D62E7C0185E0E80E12
:102B9000F11C5801EDE1AE0EB11CC7010E94AE154B
:102BA000F6E0EF0EF11CAE14BF04B9F7F80111A660
:102BB00014A610A617A211AE14AE10AE17AA60E4A8
:102BC000C801CD960E943616F801D2826D2DCE0135
:102BD00001960E94361689819A81AB81F80185AFF2
:102BE00096AFA7AF0F900F900F90DF91CF911F91ED
:102BF0000F91FF90EF90DF90BF90AF900895CF932B
:102C0000DF93EC01623061F06430B9F0613009F5B6
:102C10006A818B819C810E948D1541E0698107C08A
:102C200069818B819C810E948D1541E06A818B8135
:102C30009C81DF91CF910C94A31569818B819C813C
:102C40000E948D156A818B819C81DF91CF910C94BC
:102C50008D15DF91CF91089520E1629FA00111248D
:102C6000FC016081838194810C949415FC01628342
:102C700008950F931F93CF93DF9300D000D01F923E
:102C8000CDB7DEB7660F660F6A5F69834A835B83E1
:102C90002C833D83FC01A081B181ED91FC911197C2
:102CA0000281138125E030E0AE014F5F5F4FFC01F0
:102CB0006281CD01F80109950F900F900F900F9050
:102CC0000F90DF91CF911F910F910895FC018681A4
:102CD00097810C94E31FFC01868197810C94DE1F81
:102CE000FC01868197810C94E71FFC018681978106
:102CF0000C94EC1F8F929F92AF92BF92EF920F9322
:102D00001F93CF93DF93EC014A015B01122F61E027
:102D100070E08E819F810E94FA1F61E070E08E81D9
:102D20009F810E94F11F212FB501A4018E819F81F7
:102D30000E941E2061E070E08E819F810E9403202E
:102D400080E090E0DF91CF911F910F91EF90BF90C5
:102D5000AF909F908F900895FC01623081F038F41D
:102D60006623B9F0613029F560E070E014C064308A
:102D7000B9F040F06530E9F460E070E013C061E064
:102D800070E002C060E070E0868197810E940C20B4
:102D90000DC061E070E0868197810E94032006C02B
:102DA00061E070E0868197810E94152080E090E0CC
:102DB00008958FEF9FEF0895EF92FF920F931F9367
:102DC000CF93DF93CDB7DEB728970FB6F894DEBF69
:102DD0000FBECDBF8C017B01FC01868197810E94D3
:102DE000F11FB701F801868197810E94FA1F60E008
:102DF00070E0F801868197810E94152060E070E004
:102E0000F801868197810E940C20B701F801868124
:102E100097810E94032080E1898387E28A831B8255
:102E20001C821D821E821F82188629813A814B8155
:102E30005C816D817E818F819885AFEF0E947A27BA
:102E400029833A834B835C836D837E838F8398874A
:102E5000A0E00E94982749F780E090E028960FB6FE
:102E6000F894DEBF0FBECDBFDF91CF911F910F91C0
:102E7000FF90EF9008958DE00E94B4148AE00C94C6
:102E8000B414CF93DF9300D000D000D0CDB7DEB71D
:102E900049835A836B837C838D839E8380EE93E08A
:102EA0000E94E41A8B819C810E94E41A0E943B17C5
:102EB00087EE93E00E94E41A8D819E810E94E41ABD
:102EC0000E943B178EEE93E00E94E41A89819A815A
:102ED0000E94781B26960FB6F894DEBF0FBECDBFBA
:102EE000DF91CF910C943B17DC0115967C936E9388
:102EF000149716962C91213069F0223081F4DC0170
:102F00001796ED91FC91189719968D919C911A97AF
:102F1000099502C00E94CC1E80E090E008958FEFDA
:102F20009FEF08950F931F93CF93DF93EC018B01D5
:102F30000E942D05E881F981CE17DF0781F0C0815D
:102F4000D181A281B381BB83AA83CD93DC93F38328
:102F5000E283F183E083B801CF010E947417DF910F
:102F6000CF911F910F910C9441050F931F93CF9315
:102F7000DF93EC018B010E942D05E881F981CE17CA
:102F8000DF07A9F08081918122813381DC011396D2
:102F90003C932E931297D9018D939C93F383E283F4
:102FA000F183E083B801CF010E947417E6CFDF916F
:102FB000CF911F910F910C94410560E070E00E9449
:102FC000921780E090E0089540E050E060E070E00B
:102FD0000C94D21ECF92DF92EF92FF920F931F9329
:102FE000CF93DF93EC01E880F980E114F10429F03C
:102FF0008A819B8186179707A0F48B01CB010E94E1
:103000003B296C014C815D81B7010E949C2BC1144E
:10301000D10449F0D982C8821B830A83C7010E9468
:10302000D32981E001C080E0DF91CF911F910F9102
:10303000FF90EF90DF90CF900895CF92DF92EF92C4
:10304000FF920F931F93CF93DF936115710511F4D6
:1030500080E01CC041155105C1F08A016B01EC01F3
:10306000EC80FD80E40EF51EB7010E94EA1788236C
:1030700079F3288139818C819D81A801B601820F65
:10308000931F0E949C2BFD82EC8281E0DF91CF9107
:103090001F910F91FF90EF90DF90CF900895CF9206
:1030A000DF92EF92FF920F931F93CF93DF93EC0188
:1030B0006B018A01198218821B821A821D821C826E
:1030C0007A01EE0CFF1CC7010E943B29009721F0FA
:1030D00099838883FB82EA828A819B818E159F0572
:1030E00010F40E94512BFD82EC8248815981F60137
:1030F0000C0D1D1D0E171F07D1F09F0180818295B9
:103100008F708A3010F4805D01C0895CDA018C9385
:103110003196D9018C918F708A3010F4805D01C096
:10312000895CDA0111968C934E5F5F4FE3CFCE013D
:10313000DF91CF911F910F91FF90EF90DF90CF9093
:10314000089585EF93E00E94E41A8DE00E94B41484
:103150008AE00E94B414FFCFFC01CB016081718131
:103160000C94C213FC01CB0160810C940214FC018D
:10317000CB01608171810C94C413CF93DF9300D095
:1031800000D0CDB7DEB7FC01CB0124813581408171
:1031900051815A8349833C832B83BE016F5F7F4FEC
:1031A0000E9441110F900F900F900F90DF91CF91DF
:1031B00008950F931F93CF93DF93C091BD07D091D4
:1031C000BE07BC01CE010E943F118C01CE010E94BE
:1031D0002511800F911FDF91CF911F910F910895BD
:1031E0002F923F924F925F926F927F928F929F9217
:1031F000AF92BF92CF92DF92EF92FF920F931F9305
:10320000CF93DF93CDB7DEB7CA56D1090FB6F89486
:10321000DEBF0FBECDBF2E0127E6420E511CD201EC
:103220008D939C938B01CB010E94B4053C01E091EE
:103230006201F0916301AB96FFAFEEAFAB97C801AF
:103240000E94B405C0906201D0906301C816D906EF
:1032500020F0C8010E94B4056C01C8010E94AA05B3
:103260007E01F9E4EF0EF11CD70111961C921E921B
:1032700013961C921E92129715961C921E921497EA
:103280005C014C018C0C9D1C8A149B0409F466C0E3
:10329000F50131905F01C32C032C000CDD08C60141
:1032A0000E946F2B892B49F0A4963FAEA49741E072
:1032B00050E0BE016D597F4F4DC0FAE03F1205C08E
:1032C00042E050E068E074E045C029E0321205C0F9
:1032D00042E050E06BE074E03DC06CE5361205C0A2
:1032E00042E050E06EE074E035C070EFC722DD24AC
:1032F000C60154E0959587955A95E1F78A3018F400
:1033000040E3C42E02C037E3C32EC80E832D8F7056
:103310008A3018F420E3322E02C097E3392E380E9B
:1033200042E050E061E174E0C7010E941D18A296DE
:10333000CFAEA29741E050E0BE016F597F4FC70169
:103340000E941D18A3963FAEA39741E050E0BE0136
:103350006E597F4FC7010E941D1896CFC8010E9469
:10336000B4051E01ABE52A0E311CF1019183808367
:10337000C8010E94A705B82EC8010E94A5056E01CC
:10338000F0E5CF0ED11C4B2D50E0BC01C6010E94D0
:103390004F185E0124E6A20EB11CD80150964C9144
:1033A0005097842F869586958695F5018083519652
:1033B0008D919C9152976F969FAF8EAF6F97DE0164
:1033C000AB59BF4FF80183898C939E01215A3F4F1F
:1033D00085899689F90191838083BE016A597F4F5F
:1033E0004170FB0140838090BD079090BE075A82D8
:1033F0004982AE01495A5F4F5C834B838CEA98E166
:103400009E838D83C801499698878F835A87498701
:1034100082EB98E19C878B877E876D87588B4F87DF
:103420009A8B898B3C8B2B8B5E8B4D8B27EB38E1FA
:10343000388F2F8BBA8FA98F5C8F4B8F9E8F8D8F7C
:103440006DE570E06C0F7D1F78A36F8F5AA349A3C1
:103450003CA32BA3BEA2ADA258A74FA39AA789A7AE
:10346000B801695E7F4F7CA76BA75EA74DA738ABFD
:103470002FA7DAAAC9AA5CAB4BAB6DEB78E17EABA8
:103480006DAB0C5E1F4F18AF0FAB5AAF49AF9CAF7F
:103490008BAF3EAE2DAE21965FAF4EAF21972396F8
:1034A0003FAF2EAF23972596FFAEEEAE259727961A
:1034B0005FAF4EAF279729967FAF6EAF29978CE00D
:1034C00090E0DA0111969C938E93CE0101961396AB
:1034D0009C938E93129764E174E0C4010E944F1193
:1034E000F60180819181009711F00E94D329D701C4
:1034F0008D919C91009711F00E94D329AB96EEAD6F
:10350000FFADAB97E615F70518F489E794E002C024
:103510008CE794E00E94D918C659DF4F0FB6F89493
:10352000DEBF0FBECDBFDF91CF911F910F91FF90F6
:10353000EF90DF90CF90BF90AF909F908F907F9053
:103540006F905F904F903F902F9008958A3010F4C5
:10355000805D01C0895C0C94B414CF93C82F829510
:103560008F700E94A61A8C2F8F70CF910C94A61A80
:103570000F931F93CF93DF938C01060F171FEB015F
:10358000C01BD10BC8018C0F9D1F892B31F0F80196
:1035900082918F010E94AD1AF5CFDF91CF911F91DB
:1035A0000F910895CF93DF9300D0CDB7DEB79A8304
:1035B000898362E070E0CE0101960E94B81A0F90F4
:1035C0000F90DF91CF910895009711F0FC010CC08E
:1035D0008EE40E94B41485E50E94B4148CE40E9429
:1035E000B4148CE40C94B414BF01681B790B2191C2
:1035F0002111FACF0C94B6142F923F924F925F9202
:103600006F927F928F929F92AF92BF92CF92DF92F2
:10361000EF92FF920F931F93CF93DF93CDB7DEB757
:103620006A970FB6F894DEBF0FBECDBF29013A01ED
:103630004B011C01A0E00E94982719F480E30E942E
:10364000B414188ECE0148969A8F898F9201A301E7
:10365000B401C101A0E00E94982701F18AE0A82EE0
:10366000B12CC12CD12CE12CF12C00E010E0920106
:10367000A301B401C1010E94F426205DE98DFA8DF9
:103680002293FA8FE98F9201A301B401C1010E9434
:10369000F62629013A014B011C01D8CF898D9A8D5C
:1036A0000E94E41A6A960FB6F894DEBF0FBECDBF33
:1036B000DF91CF911F910F91FF90EF90DF90CF900E
:1036C000BF90AF909F908F907F906F905F904F9042
:1036D0003F902F900895CF93DF939C0140E050E0FE
:1036E00060E070E080E090E0DF91CF910C94FC1AF4
:1036F0000C946B1B0F931F93CF93DF9300D0CDB728
:10370000DEB78C010E942D05F80184819581181681
:10371000190644F40197958384830E94410580E053
:1037200090E00CC00E944105AE014F5F5F4F60E02A
:1037300070E0C8010E94D21E009721F30F900F90F5
:10374000DF91CF911F910F910895CF93DF93EC01FB
:103750000E942D058C819D811816190634F401975D
:103760009D838C83C0E0D0E002C0CFEFDFEF0E94EA
:103770004105CE01DF91CF910895CF93DF93EC0106
:103780000E942D058C819D8101969D838C8388816B
:103790009981C817D90729F060E070E0CE010E9436
:1037A00092170E94410580E090E0DF91CF9108954B
:1037B0008091F5079091F60708958091F90790910F
:1037C000FA0720918C0130918D012A523109AC0108
:1037D0004F5F5F4F11F4029601C0CA01F90141E049
:1037E000E236F40751F044A155A18417950779F307
:1037F00002A4F3A5E02DBA97F2CF9093FA07809335
:10380000F90708958091F7079091F80720918C01AE
:1038100030918D012A523109AC014F5F5F4F11F495
:10382000029601C0CA01F90141E0E236F40751F005
:1038300046A157A18417950779F302A4F3A5E02DBB
:10384000BA97F2CF9093F8078093F7070895EF9215
:10385000FF920F931F93CF93DF93EC01F62EE42E8C
:1038600089018A96A0918C01B0918D01FD0121E022
:10387000EC38F20741F08E179F0709F445C001901C
:10388000F081E02DF4CF1C861B861A869E012A5FEC
:103890003F4F398728873F832E83FDA7ECA7BBA71F
:1038A000AAA713969C938E93129790938D01809361
:1038B0008C010E94DD1B9DA38CA3E0FE07C0E0915C
:1038C000F507F091F60786A197A102C00E94021C9D
:1038D0009FA38EA31FA61EA619AA18AA1B830A833C
:1038E000F9A283E08AA31AAA1BA28091F5079091FE
:1038F000F607998388831CAA1BAADF91CF911F9199
:103900000F91FF90EF900895AE81BF81E885F98512
:103910001396FC93EE931297B183A083CE01069683
:10392000998788879F838E83C4CFEAE3F8E0F38387
:10393000E283F183E0838EE398E097838683958327
:10394000848382E498E0938782879187808786E4E6
:1039500098E09787868795878487E4E8F1E0F3838A
:10396000E283F183E083E8E8F1E0F383E283F1832B
:10397000E083E0E8F1E0F383E283F183E083ECE8C5
:10398000F1E0F383E283F183E0830895CF93DF9343
:10399000EC010E942D051AA21C86CE010696AE816E
:1039A000BF81E885F9851396FC93EE931297B18356
:1039B000A083E8E8F1E0A281B381B987A887FF83FB
:1039C000EE83938382838D939C93DF91CF910C94AC
:1039D0004105CF93DF93DC0191964C919197069628
:1039E00016962D913C9117971896CD91DC911997C9
:1039F000F901D383C2833983288324E0429FF001F5
:103A00001124E65CF74FC281D3811996DC93CE93E3
:103A100018971796FC93EE93169793838283998356
:103A20008883DF91CF910895CF93DF93EC010E94BB
:103A30002D0584E08AA3CE010696AE81BF81E8857C
:103A4000F9851396FC93EE931297B183A083E0E877
:103A5000F1E0A281B381B987A887FF83EE839383C6
:103A600082838D939C93DF91CF910C944105DC016F
:103A70009093F6078093F507D2968C91D297816048
:103A8000D2968C93D297D0968D919C91D197019696
:103A9000D1969C938E93D0971296ED91FC911397AB
:103AA0000190F081E02DCD010994DC01ED91FC91B4
:103AB000309731F00480F581E02D8FED9FEF099470
:103AC00008951F93CF93DF930E942D0515E0E09199
:103AD0008001F0918101B1E0E038FB0711F1EF01C5
:103AE00026978081918122813381DC0113963C935A
:103AF0002E931297D9018D939C93F383E283F183E4
:103B0000E0830E9441051AA3EA81FB810280F381D0
:103B1000E02DCE010995CE010E94551D0E942D0574
:103B2000D6CF0E9441050E942D0580918801909179
:103B30008901E1E088389E0721F006970E94E91C80
:103B4000F4CF0E944105CAE3D8E020E030E0A8812C
:103B5000B981CA17DB0791F1CD010697FC0142A993
:103B600045FF05C0DF91CF911F910C94141D4D911D
:103B70005C91119712966D917C911397FA01738362
:103B80006283FB0151834083220F331F220F331FB7
:103B9000F901E65CF74F2281338113963C932E9313
:103BA00012971196DC93CE93B383A283F901B1836C
:103BB000A083DF91CF911F910C94371D2F5F3F4F52
:103BC00024962430310519F6DF91CF911F91089585
:103BD0000C94C61CCF93DF930E94D81BEC018AA9DA
:103BE00081FF11C00E9454058BA38EA59FA501964D
:103BF0009FA78EA7EA81FB810480F581E02DCE018D
:103C0000DF91CF9109948FEF9FEFDF91CF910895CE
:103C10006F927F928F929F92AF92BF92CF92DF92DC
:103C2000EF92FF920F931F93CF93DF9300D000D0BA
:103C300000D0CDB7DEB73C010E94D81B5C010097D5
:103C400099F486E0EAE9F1E0DE01119601900D9227
:103C50008A95E1F749815A816B817C818D819E81B2
:103C60000E9441170E9400254C0186E0880E911C9D
:103C70000E942D05F501A681B78180859185139657
:103C80009C938E931297FC01B183A083F5019186DA
:103C90008086978286820E94410583E0F5018487B1
:103CA00082E082A30E94651563011F921F921F92FA
:103CB0001F921F921F92DF926F92C22ED32E7A0113
:103CC0008B019C01A50168EE7DE1C4010E940225E3
:103CD000C4010E9448250FB6F894DEBF0FBECDBFC9
:103CE00026960FB6F894DEBF0FBECDBFDF91CF9101
:103CF0001F910F91FF90EF90DF90CF90BF90AF900A
:103D00009F908F907F906F900C94EA1DBC01675C30
:103D10007F4FDC01DB96ED91FC91DC97DD968D9178
:103D20009C91DE9709940895CF93DF9300D000D043
:103D300000D0CDB7DEB786E0E0EAF1E0DE01119613
:103D400001900D928A95E1F749815A816B817C81BE
:103D50008D819E810E9441170E940025EF92FF9263
:103D60000F931F93CF93DF93EC017B018A0120E92E
:103D700031E040E050E063E070E00E94271C1AAEA2
:103D800019AEFCAEEBAE1EAF0DAFDF91CF911F9120
:103D90000F91FF90EF90089506970E94C61C80E057
:103DA00090E00895EF92FF920F931F93CF93DF93CC
:103DB00000D000D000D0CDB7DEB78C017B010E94CF
:103DC000D81BFC01892B19F082A981FD13C086E064
:103DD000E6EAF1E0DE01119601900D928A95E1F795
:103DE00049815A816B817C818D819E810E9441171E
:103DF0000E94002581E0848782E082A34FB7F89477
:103E0000CF0106962681378160857185D901139689
:103E10007C936E931297DB012D933C93918780875F
:103E200097838683D801EF2869F02D913C911197F3
:103E30001187008737832683F901938382838D93CB
:103E40009C930FC012962D913C9113973187208738
:103E50001783068313969C938E931297F90191838F
:103E600080834FBF26960FB6F894DEBF0FBECDBF3E
:103E7000DF91CF911F910F91FF90EF900C94EA1D6D
:103E8000CF93DF93EC010E94D81BFC0181E0848773
:103E900082E082A34FB7F894CF010696268137813E
:103EA00060857185D90113967C936E931297DB011F
:103EB0002D933C9391878087AA81BB81B187A0878E
:103EC000D783C6839B838A838D939C934FBFDF9157
:103ED000CF910895FC018281442311F0682B02C028
:103EE00060956823628380E090E00895FC01808102
:103EF00090E00895CF92DF92EF92FF920F931F937D
:103F0000CF93DF9300D000D000D0CDB7DEB76901EA
:103F10007A01CC24EE24FF24CD28CE28CF2811F01E
:103F2000211138C020FF2EC089019A01FC01918126
:103F300060956923618304FF04C086E0ECEAF1E048
:103F400005C001FF13C086E0E2EBF1E0DE0111964F
:103F500001900D928A95E1F749815A816B817C81AC
:103F60008D819E810E9441170E94002502FF04C09E
:103F700086E0E8EBF1E0EACF03FF0FC086E0EEEB6E
:103F8000F1E0E4CF30FF05C0FC012181622B6183A9
:103F900004C005C08FEF9FEF02C080E090E026963E
:103FA0000FB6F894DEBF0FBECDBFDF91CF911F914A
:103FB0000F91FF90EF90DF90CF900895FC01668302
:103FC00081E090E00895FC01868190E00895FC0175
:103FD0008081807890E00895FC018081807290E07B
:103FE0000895FC019181672B11F0906101C09F7EC3
:103FF00091830895FC019181672B11F0986001C0B5
:10400000977F91830895FC019181672B11F090684F
:1040100001C09F7791830895FC019181672B11F076
:10402000906201C09F7D91830895FC019181672B6F
:1040300011F0906401C09F7B91830895CF93DF932B
:10404000EC019A01AB0188818260888360E079E0AD
:104050008DE390E00E946826DA01C9010197A10969
:10406000B109AC01BD017695679557954795852FA8
:1040700099278D834C83DF91CF910895CF93DF9360
:1040800000D000D000D0CDB7DEB786E0E4ECF1E0A0
:10409000DE01119601900D928A95E1F749815A81CE
:1040A0006B817C818D819E810E9441170E94002539
:1040B0008830910589F038F40097B9F0019791F4B0
:1040C00081E090E008958034910549F08115914098
:1040D00049F484E090E0089582E090E0089583E060
:1040E00090E008958FEF9FEF089580E090E00895AD
:1040F0000F931F93CF938C01CB01F801C1810E94D4
:104100005820C87F87708C2BF8018183CF911F9135
:104110000F9108958038910541F0803B910539F069
:104120008434910591F4E0E003C0E1E001C0E2E0F5
:10413000F0E08038910539F0803B910551F08434EE
:10414000910519F404C0A1E005C00E943E20A0E042
:1041500001C0A2E0B0E0A259BF4F8C918E7F617088
:10416000682BE259FF4F608308950C948A2061E028
:1041700084E490E00E94B52060E470E084E490E084
:104180000E94782060ED73E080E090E00E942A15A4
:104190000C94DF209FB7F8948091C00080648093D6
:1041A000C0008091C00085FFFCCF6093C600809165
:1041B000C00086FFFCCF9FBF80E090E00895109282
:1041C000C0001092C50088E08093C40086E0809310
:1041D000C200E1ECF0E080818860808360E070E004
:1041E0008BED95E00E946A1480E090E0089560E015
:1041F00071E080E090E00895AF92BF92CF92DF929D
:10420000EF92FF921F93CF93DF93EC01162F5A0189
:1042100069017C0182E0E80EF11CC7010E947A1B53
:10422000B88AAF86DA8AC98A110F1E87188E1F8A4C
:104230008B8D8C7F8B8F85EA8093BC00CE01089696
:104240000E947A1BC7010E94BD1B80E090E0DF91B5
:10425000CF911F91FF90EF90DF90CF90BF90AF90E4
:1042600008957F928F929F92AF92BF92CF92DF92EA
:10427000EF92FF920F931F93CF93DF93EC01762E73
:104280004A0159016C0182E0C80ED11CC6010E948E
:104290007A1B1C8B0B8B988A8F86FE8AED8ABA8AD2
:1042A000A98AFA8EE98E770C7E86188E1F8A8B8DEE
:1042B0008C7F82608B8F85EA8093BC00CE0108964C
:1042C0000E947A1BC6010E94BD1B80E090E0DF9136
:1042D000CF911F910F91FF90EF90DF90CF90BF9003
:1042E000AF909F908F907F900895CF93DF93FC01C4
:1042F0008091B900887F883209F453C070F480310E
:1043000079F128F4882319F1883021F1B4C088317B
:1043100099F1803209F441C0AEC08834F1F138F42B
:10432000803309F480C0803409F48FC0A4C0803584
:1043300009F47CC0883509F09EC02091BB00A38998
:10434000B4898789908DA80FB91F2C938BC0838D5A
:10435000846025C0938D93708685913031F40AC0B6
:10436000938D93708685923029F08E7F8093BB0069
:1043700085E875C08160FACF838D80FD7CC027857C
:1043800030898789908DAC014F5F5F4F508F478B8D
:10439000F901E80FF91F8081E9CF838D8860838F51
:1043A00061C0EF01838D8370F9F48789908D218935
:1043B00032898217930741F485E98093BC00CF01CD
:1043C00008960E94BD1B10C027853089AC014F5F45
:1043D0005F4F508F478BF901E80FF91F8081809361
:1043E000BB0085E88093BC008B8D8370823009F020
:1043F00042C08F89988D29893A898217930721F4C1
:10440000188E1F8A85EA2BC02F853889AC014F5F33
:104410005F4F588F4F8BF901E80FF91F8081809310
:10442000BB0085E91CC0838D8061B9CF4389548965
:104430008789908D9C012F5F3F4F308F278B209174
:10444000BB00DA01A80FB91F2C938789908D0196C4
:10445000218D328D8217930709F48ACF85EC8093E2
:10446000BC0009C085E98093BC00CF010896DF91AC
:10447000CF910C94BD1BDF91CF910895DC01ED919C
:10448000FC910480F581E02D0994FC01448D558D4B
:10449000268D378D4217530728F080A191A1820FF6
:1044A000931F01C0C9010197841B950B08950F93B9
:1044B0001F93CF93DF938C010E942D05F801C2A1B9
:1044C000D3A124A135A1C217D30728F4F80186A1EE
:1044D00097A1C80FD91FC21BD30B0E944105CE0163
:1044E000DF91CF911F910F9108955F926F927F920C
:1044F0008F929F92AF92BF92CF92DF92EF92FF92F4
:104500000F931F93CF93DF934115510509F48BC08F
:10451000522E7A015B01EC014C0184E0880E911C63
:10452000C4010E947A1B892B09F079C00E942D05D5
:104530008A819B81DC01ED91FC910284F385E02D61
:104540000995892BC1F02C8D3D8D8E8D9F8D28175F
:10455000390789F48A819B81F5016081062E000C60
:10456000770BDC01ED91FC910084F185E02D09953C
:1045700001E010E002C000E010E0B52DB1705B2E4C
:104580003E01E0E16E0E711CE016F10609F441C037
:10459000688D798DF501E00FF11FA701401B510BCC
:1045A000C12CD12CC416D50661F02C8D3D8D8E8D7D
:1045B0009F8D009711F488A199A1019728173907B9
:1045C00049F4C114D104C1F062E08A819B810E9448
:1045D0003E2212C08191DB01A20FB31F8C938C8D00
:1045E0009D8D01969D8F8C8F28A139A182179307ED
:1045F000E9F41D8E1C8E1AC00C0D1D1DE016F1066F
:1046000041F0511006C0C3010E94E417892B09F440
:10461000BBCF0E944105C4010E94BD1B02C000E047
:1046200010E0C80107C080E090E004C08FEFC81A16
:10463000D80AB8CFDF91CF911F910F91FF90EF90E3
:10464000DF90CF90BF90AF909F908F907F906F90B2
:104650005F9008958F929F92AF92BF92CF92DF9218
:10466000EF92FF920F931F93CF93DF93EC01B62E3F
:10467000072F6A01122F2E8D3F8D8C8D9D8D28174F
:10468000390719F18BEE95E00E94E41A80E20E944E
:10469000B4148AE30E94B41480E20E94B4148C8D96
:1046A0009D8D4E8D5F8D8417950720F428A139A12B
:1046B000820F931F841B950B0E94781B8DE00E9434
:1046C000B4148AE00E94B414D6CF7E018AE0E80ECA
:1046D000F11CC7010E947A1B892B09F04BC00E9474
:1046E0002D05912F9170A92E1270CE0144964C0188
:1046F0002AA13BA18CA19DA12817390779F4A1100B
:1047000005C0C401112329F00E94401F00E010E001
:104710002BC00E94E417892B59F3F8CFC114D104A0
:10472000A9F34A8D5B8DEB2DF02F00E010E08CA1FA
:104730009DA12AA13BA128173907B1F0DA01A80FE2
:10474000B91F2C9101969DA38CA36EA17FA1861702
:10475000970711F41DA21CA22F3F31F021930F5F88
:104760001F4F0C151D0519F70E944105C7010E9436
:10477000BD1B02C000E010E0C801DF91CF911F9186
:104780000F91FF90EF90DF90CF90BF90AF909F90F0
:104790008F9008950F931F93CF93DF9300D000D095
:1047A00000D0CDB7DEB78C016115710509F447C0A3
:1047B0006130710509F086C0DC015E962D913C9157
:1047C0005F975C964D915C915D9712968D919C914F
:1047D00013974217530731F463E00E943E22C80149
:1047E000409664C0D8015896ED91FC915997E20F1C
:1047F000F31F60812F5F3F4F5F963C932E935E9730
:1048000090964D915C9191972417350721F45F960E
:104810001C921E925E97062E000C770BDC01ED9128
:10482000FC910084F185E02D26960FB6F894DEBF4A
:104830000FBECDBFDF91CF911F910F910994FC0165
:1048400082819381DC01ED91FC910680F781E02D5E
:104850000995F80142A153A124A135A121153105E3
:1048600011F426A137A12150310942175307E1F075
:10487000F801228D338DF901E40FF51F8083D801F3
:1048800092968D919C919397019693969C938E937B
:10489000929796962D913C9197978217930721F4C2
:1048A00093961C921E929297C801449626960FB634
:1048B000F894DEBF0FBECDBFDF91CF911F910F9156
:1048C0000C94DD1786E0EAECF1E0DE011196019030
:1048D0000D928A95E1F749815A816B817C818D81A6
:1048E0009E810E9441170E940025CF93DF93EC0127
:1048F0006115710511F07B836A83AA81BB818AEC03
:1049000093E213969C938E9312971596DC93CE9315
:104910001497ED91FC9111970280F381E02D61E0F5
:1049200070E0CD01099560E08A819B81DF91CF9194
:104930000C943E22EF92FF920F931F93CF93DF933D
:10494000FA01319628EADA012C93DC01680F791F0D
:104950009FEF11E385EC0BE22CE5F22E3AE8E32E13
:104960006A177B0709F12D919227C8E0D0E0392F13
:10497000330F97FF03C0932F912701C0932F2197E7
:10498000B1F7223B39F0253C41F0283A51F48083BD
:10499000E18205C08083018302C02083F1823296C8
:1049A000DFCF20833196DCCF923B59F0953C89F0E4
:1049B000983AA9F485EC80839F012E5F3F4F8AE8E7
:1049C00006C085EC80839F012E5F3F4F8BE2818381
:1049D0000AC090839F012E5F3F4F8CE5F8CF9F0167
:1049E0002F5F3F4F9083F90182EB8193CF01841BAE
:1049F000950BDF91CF911F910F91FF90EF9008954C
:104A00000E94512B7F928F929F92AF92BF92CF9232
:104A1000DF92EF92FF920F931F93CF93DF93CDB767
:104A2000DEB7FC015B014A0168894989BA89AB8913
:104A30007C895D899E898F896894772472F8768253
:104A400015821482F383E283F183E083B08EA78A18
:104A5000928E818EC782D086E186F2860387148784
:104A6000258736876787408BB18BA28B738B548BDE
:104A7000958B868BDF91CF911F910F91FF90EF90D7
:104A8000DF90CF90BF90AF909F908F907F900895D0
:104A90002F923F924F925F926F927F928F929F924E
:104AA000AF92BF92CF92DF92EF92FF920F931F933C
:104AB000CF93DF93EC012F81388549855A856B852B
:104AC0007C858D859E85AF84B888C988DA88EB8817
:104AD000FC880D891E890E947127922E832E742EC8
:104AE000652E562E472E382E292E0E942D05E09138
:104AF0009601F091970181E0E639F80751F127819D
:104B00003085418552856385748585859685A78422
:104B1000B088C188D288E388F488058916890E9404
:104B2000712759016A017B018C01292D382D472DF0
:104B3000562D652D742D832D922D0E948627A0E081
:104B40000E94982724F00190F081E02DD4CF309777
:104B500011F4E6E9F1E0A281B381BB83AA83F98372
:104B6000E883D383C283CD93DC93DF91CF911F91F0
:104B70000F91FF90EF90DF90CF90BF90AF909F90FC
:104B80008F907F906F905F904F903F902F900C94FC
:104B90004105CF93DF93DC01CD91DC911197129603
:104BA000ED91FC911397FB83EA83D183C083139625
:104BB0009C938E93129711969C938E935796ED919A
:104BC000FC915897BC0159968D919C915A97DF9111
:104BD000CF9109942F923F924F925F926F927F9262
:104BE0008F929F92AF92BF92CF92DF92EF92FF92FD
:104BF0000F931F93CF93DF93922E832E742E652EE7
:104C0000562E472E382E292E0E942D05C091960132
:104C1000D091970181E0C639D80719F10E9441056A
:104C2000292D382D472D562D652D742D832D922D30
:104C3000AF80B884C984DA84EB84FC840D851E853A
:104C40000E948627AF84B888C988DA88EB88FC88F8
:104C50000D891E890E948F27C4F0CE010E94C925AC
:104C6000D3CFDF91CF911F910F91FF90EF90DF9005
:104C7000CF90BF90AF909F908F907F906F905F90FC
:104C80004F903F902F900C944105DF91CF911F9151
:104C90000F91FF90EF90DF90CF90BF90AF909F90DB
:104CA0008F907F906F905F904F903F902F900895DE
:104CB000DB018F939F930E949026BF91AF91A29F9B
:104CC000800D911DA39F900DB29F900D112408950A
:104CD000A1E21A2EAA1BBB1BFD010DC0AA1FBB1F00
:104CE000EE1FFF1FA217B307E407F50720F0A21B72
:104CF000B30BE40BF50B661F771F881F991F1A94DF
:104D000069F760957095809590959B01AC01BD0108
:104D1000CF010895EE0FFF1F0590F491E02D099447
:104D20000E94A427A59F900DB49F900DA49F800D75
:104D3000911D11240895DF93CF931F930F939A9D94
:104D4000F02D219FF00D8B9DF00D8A9DE02DF10D32
:104D5000039FF00D029FE00DF11D4E9DE00DF11D32
:104D60005E9DF00D4F9DF00D7F936F93BF92AF92BC
:104D70005F934F93D5010E94A4278B01AC01D7010B
:104D80000E94A427EB01E80FF91FD6010E94EB2631
:104D90002F913F91D6010E94A427C60FD71FE81F6D
:104DA000F91FAF91BF910E94EB262F913F910E9476
:104DB000A427C60FD71FE81FF91FD6010E94A427FA
:104DC000E60FF71F9801BE01CF0111240F911F912B
:104DD000CF91DF9108950E94A427460F571FC81F47
:104DE000D91F08F431960895689401C0E8948F9211
:104DF0009F92CF93DF930E940227DF91CF919F90E4
:104E00008F90089588249924F401E401B0E49F93DD
:104E1000AA279A158B049C04ED05FE05CF05D00743
:104E2000A10798F4AD2FDC2FCF2FFE2FE92D982C62
:104E3000892E982F872F762F652F542F432F322FAF
:104E40002227B85031F7BF9127C01B2EBF91BB2737
:104E5000220F331F441F551F661F771F881F991F7E
:104E6000881C991CEE1FFF1FCC1FDD1FAA1FBB1F34
:104E70008A149B04EC05FD05CE05DF05A007B107EC
:104E800048F08A189B08EC09FD09CE09DF09A00B40
:104E9000B10B21601A94E1F62EF49401AF01BE012A
:104EA000CD01000C089597FB10F8169400080F939D
:104EB000083098F00850232F342F452F562F672F96
:104EC000782F892F902DF4CF059497958795779516
:104ED000679557954795379527950A95AAF70F91A6
:104EE00008952A0D3B1D4C1D5D1D6E1D7F1D801FED
:104EF000911F08950024A7FD00942A0F301D401D26
:104F0000501D601D701D801D901D08952A193B09BC
:104F10004C095D096E097F09800B910B08952A15D4
:104F20003B054C055D056E057F05800791070895DB
:104F30000024A7FD00942A173005400550056005A0
:104F40007005800590050895A29FB001B39FC00130
:104F5000A39F700D811D1124911DB29F700D811DA5
:104F60001124911D08955058BB27AA270E94CB27D2
:104F70000C948F280E94812838F00E94882820F005
:104F800039F49F3F19F426F40C947E280EF4E09532
:104F9000E7FB0C947828E92F0E94A02858F3BA1751
:104FA000620773078407950720F079F4A6F50C943F
:104FB000C2280EF4E0950B2EBA2FA02D0B01B901DB
:104FC00090010C01CA01A0011124FF27591B99F07F
:104FD000593F50F4503E68F11A16F040A22F232F8B
:104FE000342F4427585FF3CF469537952795A795DB
:104FF000F0405395C9F77EF41F16BA0B620B730B82
:10500000840BBAF09150A1F0FF0FBB1F661F771FF2
:10501000881FC2F70EC0BA0F621F731F841F48F4A7
:10502000879577956795B795F7959E3F08F0B0CF30
:105030009395880F08F09927EE0F97958795089517
:105040000E94542808F481E008950E94A82888F05E
:105050009F5798F0B92F9927B751B0F0E1F0660F3C
:10506000771F881F991F1AF0BA95C9F714C0B1307D
:1050700091F00E94C228B1E008950C94C228672FD5
:10508000782F8827B85F39F0B93FCCF386957795AC
:105090006795B395D9F73EF4909580957095619595
:1050A0007F4F8F4F9F4F0895990F0008550FAA0B00
:1050B000E0E8FEEF16161706E807F907C0F012162B
:1050C0001306E407F50798F0621B730B840B950B2E
:1050D00039F40A2661F0232B242B252B21F4089583
:1050E0000A2609F4A140A6958FEF811D811D089520
:1050F00097F99F6780E870E060E008959FEF80EC8B
:10510000089500240A94161617061806090608952D
:1051100000240A9412161306140605060895092E93
:105120000394000C11F4882352F0BB0F40F4BF2B02
:1051300011F460FF04C06F5F7F4F8F4F9F4F089542
:1051400057FD9058440F551F59F05F3F71F0479538
:10515000880F97FB991F61F09F3F79F0879508951D
:10516000121613061406551FF2CF4695F1DF08C03C
:10517000161617061806991FF1CF86957105610559
:1051800008940895E894BB2766277727CB0197F901
:1051900008950E94542808F48FEF08950E94E12892
:1051A0000C948F280E94812838F00E94882820F0D3
:1051B000952311F00C9478280C947E2811240C94DB
:1051C000C3280E94A02870F3959FC1F3950F50E06B
:1051D000551F629FF001729FBB27F00DB11D639FA9
:1051E000AA27F00DB11DAA1F649F6627B00DA11D4F
:1051F000661F829F2227B00DA11D621F739FB00DF5
:10520000A11D621F839FA00D611D221F749F332764
:10521000A00D611D231F849F600D211D822F762FFD
:105220006A2F11249F5750409AF0F1F088234AF0DA
:10523000EE0FFF1FBB1F661F771F881F9150504046
:10524000A9F79E3F510580F00C9478280C94C32850
:105250005F3FE4F3983ED4F3869577956795B795CD
:10526000F795E7959F5FC1F7FE2B880F911D9695E7
:10527000879597F908950F931F93CF93DF9382300B
:10528000910510F482E090E0E0914C08F0914D0817
:1052900020E030E0A0E0B0E0309719F1408151818A
:1052A0000281138148175907C8F08417950769F4DC
:1052B000109731F012960C93129713961C9327C0F7
:1052C00000934C0810934D0822C02115310519F0A8
:1052D0004217530718F49A01BD01EF01DF01F801ED
:1052E000DBCF21153105F9F0281B390B24303105AE
:1052F00080F48A819B816115710521F0FB01938304
:10530000828304C090934D0880934C08FE0132962E
:1053100044C0FE01E20FF31F8193919322503109A3
:10532000398328833AC020914A0830914B08232BB7
:1053300041F4209102013091030130934B082093F6
:105340004A0820910001309101012115310541F4F5
:105350002DB73EB74091040150910501241B350B38
:10536000E0914A08F0914B08E217F307A0F42E1BD6
:105370003F0B2817390778F0AC014E5F5F4F2417B9
:10538000350748F04E0F5F1F50934B0840934A0873
:105390008193919302C0E0E0F0E0CF01DF91CF91E3
:1053A0001F910F910895CF93DF93009709F481C067
:1053B000FC01329713821282A0914C08B0914D08E3
:1053C000109781F420813181820F931F20914A0828
:1053D00030914B082817390751F5F0934B08E093AB
:1053E0004A0867C0ED0120E030E0CE17DF0740F447
:1053F0004A815B819E0141155105F1F0EA01F5CF2B
:10540000D383C28340815181840F951FC817D90768
:1054100059F488819981840F951F02969183808326
:105420008A819B81938382832115310529F4F0932E
:105430004D08E0934C083DC0E901FB83EA834991A4
:105440005991C40FD51FEC17FD0761F4808191813C
:10545000840F951F0296E901998388838281938145
:105460009B838A83E0E0F0E012968D919C911397E4
:10547000009719F0FD01DC01F7CF8D919C911197F8
:105480009D012E5F3F4F820F931F20914A0830915C
:105490004B082817390769F4309729F410924D0802
:1054A00010924C0802C013821282B0934B08A09352
:1054B0004A08DF91CF910895A0E0B0E0E2E6FAE279
:1054C0000C947C2E5C016B017A016115710519F059
:1054D000FB0191838083E114F10429F0C701029755
:1054E000839708F0C9C0E5012196F5011081812F4D
:1054F00090E00E94762B892B11F05E01F4CF1D32D3
:1055000029F42196F501118101E007C01B3221F435
:10551000E5012296F501118100E0E114F104B1F0FA
:10552000F0E1EF16F10429F4B0C010E3E114F10446
:1055300001F12AE0E216F104B1F180E1E816F1048C
:1055400071F0E8E0EE16F104F1F413C0103341F508
:1055500088818F7D883549F7198122960260F0E1B4
:10556000EF2EF12C88248A94982CA82CAFE0BA2E28
:1055700020C078E0E72EF12C88248A94982CA82C5F
:10558000EFE1BE2E16C06FEF7FEFCB0197010F2C1E
:10559000000C440B550B0E94682649015A0109C0B2
:1055A0008AE0E82EF12C69E9862E982CA82C69E176
:1055B000B62E40E060E070E0CB0127010F2C000C1C
:1055C00066087708FE0150ED352E310E29E02315CF
:1055D00070F42FEB210F2A3118F439EC332E06C06A
:1055E0002FE9210F2A3130F529EA322E310E232DF1
:1055F00030E02E153F05F4F44F3FC9F086169706AC
:10560000A806B90688F0A30192010E945826232D0E
:1056100030E040E050E0620F731F841F951F621757
:1056200073078407950710F44FEF01C041E02196FE
:105630001081C8CFC114D10451F0442311F0219737
:1056400003C001FF04C02297F601D183C08300FF8D
:1056500007C090958095709561957F4F8F4F9F4FB4
:105660004F3F79F482E290E090935508809354087C
:105670003FEF2FEF9FEF0DC040E030E020E090E0E3
:1056800008C0462F372F282F04C0103309F067CFEA
:105690005FCF642F732F822FCDB7DEB7E1E10C947B
:1056A000982E81E090E0F8940C94B22E85FD0C9435
:1056B000042E806291110C94042E81568A51D8F7E1
:1056C000089591110C94042E80538A5028F0865C22
:1056D000806281568650B0F70895803209F09111AA
:1056E0000C94042E80528F55D8F7089591110C9484
:1056F000042E803219F089508550C8F70895911111
:10570000089581548A5108F4805E855A0895911154
:10571000089581568A5108F4805285580895FB01F6
:10572000DC0104C08D910190801921F4415050405A
:10573000C8F7881B990B0895FB01DC0102C001909A
:105740000D9241505040D8F70895DC0101C06D938F
:1057500041505040E0F70895FC018191861721F0F7
:105760008823D9F7992708953197CF010895FB0130
:10577000DC014150504030F08D910190801919F4B6
:105780000020B9F7881B990B08950F931F93CF93AF
:10579000DF93FB01238121FD03C08FEF9FEF2CC01E
:1057A00022FF16C046815781248135814217530755
:1057B00044F4A081B1819D012F5F3F4F318320834D
:1057C0008C93268137812F5F3F4F3783268314C008
:1057D0008B01EC01FB010084F185E02D0995892BFB
:1057E000E1F6D80116968D919C9117970196179620
:1057F0009C938E931697CE01DF91CF911F910F91BD
:105800000895AEE0B0E0E7E0FCE20C94892E0D894B
:105810001E8986E08C831A8309838FEF9FE79E831E
:105820008D83AE01475E5F4F6F89788DCE01019603
:105830000E94232CEF81F885E00FF11F10822E9635
:10584000E4E00C94A52EABE0B0E0E9E2FCE20C94BD
:105850007B2E6C017B018A01FC01178216828381F9
:1058600081FFCCC1CE0101963C01F6019381F70185
:1058700093FD859193FF81917F01882309F4BAC13B
:10588000853239F493FD859193FF81917F018532B3
:1058900029F4B60190E00E94C52BE7CF912C212C72
:1058A000312CFFE1F315D8F08B3279F038F48032E7
:1058B00079F08332A1F4232D20611DC08D3261F077
:1058C000803369F4232D216016C0832D8260382E29
:1058D000E32DE4603E2E2AC0F32DF8601DC037FC96
:1058E0002DC020ED280F2A3040F08E32B9F436FC5E
:1058F00081C1232D2064322E19C036FE06C08AE0F5
:10590000989E200D1124922E11C0EAE02E9E200DAB
:105910001124222EF32DF0623F2E08C08C3621F484
:10592000832D8068382E02C0883641F4F70193FD3C
:10593000859193FF81917F018111B3CF982F9F7D36
:105940009554933028F40C5F1F4F9FE399830DC04B
:10595000833631F0833771F0833509F059C021C0A7
:10596000F801808189830E5F1F4F88248394912CD6
:10597000530113C02801F2E04F0E511CF801A08022
:10598000B18036FE03C0692D70E002C06FEF7FEF7B
:10599000C5010E94122E4C018201F32DFF773F2E8C
:1059A00016C0280122E0420E511CF801A080B180EF
:1059B00036FE03C0692D70E002C06FEF7FEFC501B6
:1059C0000E94072E4C01F32DF0683F2E820133FC1C
:1059D0001BC0822D90E088169906B0F4B60180E2D3
:1059E00090E00E94C52B2A94F4CFF50137FC8591F5
:1059F00037FE81915F01B60190E00E94C52B211016
:105A00002A9421E0821A91088114910471F7E8C068
:105A1000843611F0893641F5F80137FE07C0608100
:105A20007181828193810C5F1F4F08C060817181F9
:105A3000072E000C880B990B0E5F1F4FF32DFF767E
:105A40003F2E97FF09C090958095709561957F4F87
:105A50008F4F9F4FF0683F2E2AE030E0A3010E9455
:105A60001D2E882E861845C0853731F4232D2F7EB4
:105A7000B22E2AE030E025C0932D997FB92E8F36C3
:105A8000C1F018F4883579F0B5C0803719F088373F
:105A900021F0B0C0E92FE061BE2EB4FE0DC0FB2D99
:105AA000F460BF2E09C034FE0AC0292F2660B22E32
:105AB00006C028E030E005C020E130E002C020E16F
:105AC00032E0F801B7FE07C0608171818281938165
:105AD0000C5F1F4F06C06081718180E090E00E5F17
