:100000000C943A000C9462000C9462000C94620010
:100010000C9462000C9462000C9462000C946200D8
:100020000C9462000C9462000C9462000C946200C8
:100030000C9462000C9462000C9462000C946200B8
:100040000C9445140C9462000C9464000C9493007E
:100050000C94C2000C9462000C9462000C94620038
:100060000C9416020C9462003D029004D605A41173
:10007000D213020511241FBECFEFD8E0DEBFCDBFE3
:1000800014E0A0E0B1E0EEECFFE402C005900D92B8
:10009000AC35B107D9F727E0ACE5B4E001C01D925B
:1000A000AF38B207E1F710E0C9E3D0E004C0219710
:1000B000FE010E94B723C433D107C9F70E9404018F
:1000C0000C94DA270C9400001F920F920FB60F9237
:1000D00011242F933F934F935F936F937F938F934D
:1000E0009F93AF93BF93EF93FF93A6E0B1E0129677
:1000F000ED91FC91139760E070E014968D919C91C6
:1001000015970995FF91EF91BF91AF919F918F91B5
:100110007F916F915F914F913F912F910F900FBE03
:100120000F901F9018951F920F920FB60F921124E7
:100130002F933F934F935F936F937F938F939F93EF
:10014000AF93BF93EF93FF93A6E0B1E01296ED91CA
:10015000FC91139761E070E014968D919C91159736
:100160000995FF91EF91BF91AF919F918F917F91F1
:100170006F915F914F913F912F910F900FBE0F9014
:100180001F9018951F920F920FB60F9211242F9364
:100190003F934F935F936F937F938F939F93AF930F
:1001A000BF93EF93FF93A6E0B1E01296ED91FC911F
:1001B000139762E070E014968D919C9115970995C4
:1001C000FF91EF91BF91AF919F918F917F916F912F
:1001D0005F914F913F912F910F900FBE0F901F9005
:1001E00018950E94F21469017A018B01D82FC92F4A
:1001F0000E94E20C9601A701B8018D2F9C2F0E944E
:1002000013230E94651AEDCF0E94571D0E94991971
:100210000E944D047894EE24E39408E02EE640E03A
:1002200052EC61E070E080EC90E00E94EF1C20E076
:1002300031E040E050E060E270E083E290E00E9454
:10024000801C20E031E040E050E062E070E083E2BA
:1002500090E00E94801C20E031E040E050E064E04B
:1002600070E083E290E00E94801C0E944E010E9498
:100270003C020E94F10060E270E083E290E00E94A4
:100280007C1C41E0811140E060E270E083E290E09C
:100290000E94701C88EE93E00C940C1B20E031E06F
:1002A00040E050E060E270E083E290E00E94801C59
:1002B00040E050E06BE371E08CE397E00E94B21BFA
:1002C0008CE397E00C94CA19DC01ED91FC9101904C
:1002D000F081E02D40E050E0BA010994CF92DF9226
:1002E000EF92FF92CF93DF93EC01CE80DF80E88422
:1002F000F984A7019601FB0160817181828193815C
:100300000E94D5242A813B814C815D810E94F02589
:10031000A70196010E94D6246E837F8388879987E0
:10032000DF91CF91FF90EF90DF90CF900895CF9223
:10033000DF92EF92FF92CF93DF93EC016A017B0192
:100340008D81882321F0F7FAF094F7F8F09420E0FB
:1003500030E0A901C701B6010E94422581110CC0FD
:1003600064E08A819B810E948C1560E08A819B8178
:100370000E94B91584E052C020E030E0A901C70115
:10038000B6010E94EB25181604F58C81823029F401
:1003900064E08A819B810E948C1520E030E04FE769
:1003A00053E4C701B6010E94F0250E9447258A81C7
:1003B0009B810E94B9158C81813029F061E08A818E
:1003C0009B810E948C1581E029C020E030E0A901CA
:1003D000C701B6010E94422587FF21C08C81813070
:1003E00029F464E08A819B810E948C15C701B601C3
:1003F000905820E030E04FE753E40E94F0250E943F
:1004000047258A819B810E94B9158C81823029F011
:1004100062E08A819B810E948C1582E08C83DF914F
:10042000CF91FF90EF90DF90CF9008951F920F92A1
:100430000FB60F9211242F933F934F935F936F93B7
:100440007F938F939F93AF93BF93EF93FF938EE030
:1004500091E00E94151EFF91EF91BF91AF919F9186
:100460008F917F916F915F914F913F912F910F905D
:100470000FBE0F901F901895089560E68CE994E0E8
:100480000E944315E4E8F4E024EB31E0318320835B
:1004900084E0848315823783268382871386358799
:1004A0002487808B118A338B228B868B178AEAE70D
:1004B000F4E08EEA91E09183808340E050E060E1D7
:1004C00071E44283538364837583E0E7F4E09183AE
:1004D00080834283538364837583E6E6F4E09183EB
:1004E000808340E050E060EA70E442835383648399
:1004F0007583ECE5F4E091838083428353836483C6
:10050000758308958FEF9FEF089587ED92E008952A
:10051000CF93DF93FC01838D948D009729F0EF0139
:100520000E9456051C8E1B8EDF91CF91089523EFFC
:1005300031E0FC01318320830C94EB10CF93DF93E7
:10054000EC010E949702CE01DF91CF910C94F52629
:1005500021E032E0FC01318320830C949702CF9399
:10056000DF93EC010E94A802CE01DF91CF910C94A1
:10057000F526CF93DF93EB016FEF7FEF0E94C6115B
:10058000CE01DF91CF910C948D07CB010C948D0798
:10059000E0912A01F0912B010190F081E02D21E002
:1005A0008AE291E00994CF93DF93EC0183EE91E02E
:1005B000998388830E94DB05AA81BB81EC81FD8140
:1005C0001396FC93EE931297B183A0838EED90EC7B
:1005D0009B838A838EED99EC9D838C83DF91CF91F1
:1005E0000C94EF05CF93DF93EC018FE092E09983B9
:1005F0008883CE010E948802CE01DF91CF910C94B6
:10060000D302CF93DF93EC010E94F202CE01DF917F
:10061000CF910C94F526CF93DF93EC010E94D30287
:10062000CE01DF91CF910C94F526CF93DF93EC01AF
:10063000898D9A8D0E948F059C8F8B8F498D5A8D45
:10064000BC01605F7F4FCE014D96DF91CF910C943E
:100650005C210F931F93CF93DF931F92CDB7DEB72B
:10066000E0912A01F0912B010480F581E02D8AE2CE
:1006700091E00995892B89F1E0912A01F0912B01F4
:100680000280F381E02D20E041E050E0BE016F5F89
:100690007F4F8AE291E0099569818CE896E00E949B
:1006A00069210197D1F400918A0610918B0610926E
:1006B0008B0610928A0660917506C8010E94D506C5
:1006C0006FE676E0C8010E94890660E0C8010E94DA
:1006D000080B8FE696E00E941503E0912A01F09145
:1006E0002B010280F381E02D22E040E050E060E049
:1006F00070E08AE291E009950F90DF91CF911F9110
:100700000F910895CF93DF93EC016D897E894F8916
:10071000588D461B570BEFA1F8A589A59AA50995F9
:100720002D893E89820F931F9E8B8D8B2F89388D4B
:1007300082179307A1F40E94DB0560E089899A89FA
:100740000E945B0C1A8A198A1E8A1D8A188E1F8ABB
:100750000E94EF05CE01DF91CF910C94D503DF917C
:10076000CF9108950F931F93CF93DF93EC018C01EA
:10077000095F1F4FC8010E94A918892B89F42D8990
:100780003E898F89988D2817390719F0CE010E946C
:100790008203C801DF91CF911F910F910C94C11872
:1007A000DF91CF911F910F910895CF93DF93DC01DB
:1007B0001D96ED91FC911E979C01235F3F4FE21720
:1007C000F30741F1EC01FA8BE98B80819181228161
:1007D0003381DC0113963C932E931297D9018D93AC
:1007E0009C93F383E283F183E0834B895C89618985
:1007F0007289CF0140960E94F6202B893C893E8B5E
:100800002D8B820F931F988F8F8BCE01DF91CF910D
:100810000C948203DF91CF9108950F931F93CF9390
:10082000DF93EC018B010E94DB05F801A081B1810F
:100830008281938113969C938E931297FC01B183CE
:10084000A083ED85FE85CE010D96D80113969C936D
:100850008E931297ED93FC93138302831E870D876B
:100860000E94EF058E01095F1F4FC8010E94A91861
:10087000892B71F489899A89892B19F4CE010E94F8
:10088000D503C801DF91CF911F910F910C94C1182E
:10089000DF91CF911F910F910895CF93DF9381E066
:1008A0008093100740E450E060E071E080EE94E057
:1008B0000E94190541E050E060E070E086E796E0B4
:1008C0000E947618CFE6D6E080EE95E09C8B8B8B6D
:1008D000CE010E9415031A8A198A1E8A1D8A188E53
:1008E0001F8A88EC92E098A78FA31AA619A661E048
:1008F00070E0CE010E94390E60E070E08AE291E083
:100900000E94D12040E050E069E273E088E096E088
:100910000E94B21B88E096E0DF91CF910C94CA1937
:10092000CF93DF9300D000D0CDB7DEB78CEC91E051
:100930009A83898382E190E09C838B83BE016F5F01
:100940007F4F8AEE96E00E94E70FEFE6F6E081E740
:1009500096E095838483938382838FE092E09183F2
:1009600080838CE796E096878587908B8787128AAD
:10097000118A148A138A168A158A108E178A80E3C0
:1009800090E0928F818F148E138EE7E4F6E089E475
:1009900096E093838283958384838DE496E09783A6
:1009A000868391878087138612861586148617861C
:1009B000168683E090E0958B848B22E030E0378BC5
:1009C000268B82E390E0918F808F338F228F958FDB
:1009D000848F8EE190E0978F868F83E193E09183FF
:1009E000808311A210A213A212A215A214A280E069
:1009F00091E097A386A30F900F900F900F90DF9137
:100A0000CF91089583E193E0909348068093470641
:100A100087E496E00E94A8028FE696E00E94F20228
:100A20008091EA069091EB06009711F00C94F52660
:100A30000895CF93DF93FC01EB019A019093F606A2
:100A40008093F5067093F8066093F7065093FA06C4
:100A50004093F90683EF96E09093F4068093F306B3
:100A6000CB01BA010E948123892B11F00E947E27BD
:100A7000AF014C0F5D1FE417F50768F48091F30692
:100A80009091F40691838083F093F406E093F3064B
:100A9000E20FF31FF0CFCE01B9010E9481237093C2
:100AA000FC066093FB06DF91CF910895CF93DF930F
:100AB000EC01892B11F40E947E270E94DB058091B6
:100AC000F1069091F20601979093F2068093F10659
:100AD0002091F5063091F606C217D30760F3809196
:100AE000F7069091F806820F931FC817D90718F7D9
:100AF0008091F3069091F40699838883D093F4064D
:100B0000C093F3068091FB069091FC0601969093AA
:100B1000FC068093FB06DF91CF910C94EF05CF93F9
:100B2000DF930E94DB05C091F306D091F40686E0C6
:100B3000C33FD80739F0888199819093F406809358
:100B4000F30602C0C0E0D0E08091FB069091FC0665
:100B500001979093FC068093FB064091F906509113
:100B6000FA0660E070E0CE010E94C227209749F0AB
:100B70008091F1069091F20601969093F20680938F
:100B8000F1060E94EF0580910607882359F08BE15A
:100B900092E00E94D417CE010E94C21783E292E035
:100BA0000E94D417CE01DF91CF910895E3EFF6E0D4
:100BB000F183E08308958FB7F8942091FD0630917A
:100BC000FE06232B11F48093FF068091FD06909181
:100BD000FE0601969093FE068093FD06089580918F
:100BE000FD069091FE0601979093FE068093FD0608
:100BF0008091FD069091FE06892B19F48091FF06E5
:100C00008FBF08958091FD069091FE0608950F9381
:100C10001F93CF93DF93EB010E94D41786E292E0FB
:100C20000E94D4178AE292E00E94D417CE010E945B
:100C3000C2178FE292E00E94D417898D0E94651836
:100C400084E392E00E94D417888981700E9465181D
:100C50008AE392E00E94D4178D899E890E947418BD
:100C600081E492E00E94D4178B890E94651888E481
:100C700092E00E94D41789890E9465188FE492E05F
:100C80000E94D41788898695869586950E94651856
:100C900086E592E00E94D417CE010E94E206182F4A
:100CA000CE010E94E006612F70E00E9494178DE54E
:100CB00092E00E94D4178C890E94651883E692E026
:100CC0000E94D4178C850E9465188EE692E00E94DF
:100CD000D417CE010E940607449728F4CE010E9443
:100CE00006078C0102C004E110E0CE010E94FC0660
:100CF000B8010E94431481E594E00E94D4178DE06E
:100D00000E9441148AE0DF91CF911F910F910C94C2
:100D10004114FC019383828391838083049697839B
:100D20008683958384837187608785E090E09587CB
:100D300084871786168681899289E80FF91F108AA1
:100D40000895BF92CF92DF92EF92FF920F931F937D
:100D5000CF93DF936C01B62E7A01062F10E0C80105
:100D6000840F951F0E948F05EC01892B99F08AE072
:100D7000E80EF11C0E0D1F1D1A8B098BBB8A88EC27
:100D800090E09E8B8D8B188A198E1C8AB601CE013D
:100D90000E948906CE01DF91CF911F910F91FF90A4
:100DA000EF90DF90CF90BF900895FC018489DF0120
:100DB000A80FB11D5A966C9384898F5F848B089518
:100DC0004A960895FC01838908959C01265E3F4F51
:100DD000FC018389A901480F511DCA010895FC0136
:100DE000238981899289821B91090A9708954A96DD
:100DF0000895FC01838908959C01265E3F4FFC0104
:100E00008389A901480F511DCA010895FC01238956
:100E100081899289821B91090A970895CF93DF9364
:100E2000DC01ED91FC91309789F0EC0186858150D1
:100E3000868788819981FC01268527FD0E947E276F
:100E4000211102C00E948D0719821882DF91CF9173
:100E500008950C940E07CF93DF93FC01C081D181DC
:100E6000A281B381BB83AA83CD93DC9393838283D6
:100E700091838083DF91CF910895CF93DF93EC012D
:100E800080910607882329F0BE0185E792E00E9441
:100E90000706A881B981EA81FB811396FC93EE9342
:100EA0001297B183A0832EED30EC398328838EED29
:100EB00099EC9B838A83AC81BD81EE81FF8113967F
:100EC000FC93EE931297B183A0833D832C839F8381
:100ED0008E83CE01DF91CF910C945605CF93DF9393
:100EE000FC01718360836115710589F0FB01EC01E0
:100EF000868587FD0E947E270E94DB05E881F981B7
:100F000086858F5F8687DF91CF910C94EF05DF9107
:100F1000CF910895809107070895CF93DF93EC0157
:100F20000E94DB058F8581FF07C08E85811104C07B
:100F3000CE010E943D0703C08F8581608F87DF91BE
:100F4000CF910C94EF05CF93DF93EC010E94DB056A
:100F5000CE010E942B078F8580FF07C08E858111EF
:100F600004C0CE010E943D0703C08F8582608F8739
:100F7000DF91CF910C94EF05CF92DF92EF92FF9229
:100F80001F93CF93DF937C01C0915201D091530105
:100F900081E0C235D80759F12F89388DF70187894B
:100FA000908D28173907F9F413898B8918131BC002
:100FB000C7010E94E0066C01CE010E94E006412FAD
:100FC00050E0B6010E949A27892B69F48F858460CE
:100FD0008F87CE01DF91CF911F91FF90EF90DF902F
:100FE000CF900C94A3070990D881C02DD1CFDF9169
:100FF000CF911F91FF90EF90DF90CF900895FC016B
:101000004285538585899689480F591FFB012285A2
:10101000338585899689280F391F81E04217530748
:1010200008F080E008950F931F93CF93DF938C0116
:10103000EB010E94DB05E0915C01F0915D01FB8317
:10104000EA838AE591E099838883D0935D01C09318
:101050005C01D183C0830E94EF05E0910E07F091FF
:101060000F07309709F00995BE01C8010E946E076D
:10107000C801DF91CF911F910F910895CF92DF9218
:10108000EF92FF920F931F93CF93DF9300D0CDB7D2
:10109000DEB77C0140E050E0FC01638980E090E035
:1010A0000E94A1068C01E114F10411F40E947E2734
:1010B000892BE1F381E0F701918D923009F080E016
:1010C000880F880F880FF80190899770892B8160AD
:1010D000808B118EF70185899689F801968B858B17
:1010E000F7018789908DF801908F878BF701C3886E
:1010F000D12CC7010E94E0067C01C8010E94E006D5
:10110000A601B7010E94A727F8018785816087871C
:10111000B801CE0101960E941308CE0101960E94EB
:1011200029070F900F90DF91CF911F910F91FF90A2
:10113000EF90DF90CF900895AF92BF92CF92DF9261
:10114000EF92FF920F931F93CF93DF9300D0CDB711
:10115000DEB78C0180911107909112070196909350
:10116000120780931107D80154968C915497539687
:101170009C9189131BC0C8010E94E0067C01C80134
:101180000E94E006F8012389DC01A20FB11DF701DE
:10119000EA17FB0709F49BC01197EA17FB0709F44C
:1011A00096C08C9190819C938193F2CFD801189630
:1011B0002D913C911997232BC1F09091100791111B
:1011C00014C08091000790910107892B31F481E0D0
:1011D00090E090930107809300070E94DB05C8010F
:1011E0000E943D070E94EF05D5C1F801E80FF11DEF
:1011F000E28CF12CC7010E94220E6C01892BE9F5CB
:10120000C7010E940C0E7C01892B61F1F8019089C5
:101210008091070790FF0AC0882379F08091130717
:1012200081110BC0B8018EE892E005C0882329F037
:10123000B80184E992E00E940706D8011F968C91BC
:101240001F9784FD0E947E2780611F968C93D70193
:101250001496ED91FC9115970190F081E02DB80165
:10126000C701099580910707882309F4B6CFB80113
:101270008AE992E00E940706B0CFF8019089809138
:10128000070790FF0AC0882379F080911307811126
:101290000BC0B8018EE892E005C0882329F0B801A0
:1012A00084E992E00E940706D8011F968C911F974F
:1012B00084FDC8CF80611F968C93D601ED91FC917F
:1012C0000190F081E02DB801C601099563C1F801D4
:1012D00090898091070790FF8CC0882349F0809106
:1012E0001307811105C0B8018BE792E00E94070641
:1012F000D80150968C91869586958695813069F0B7
:1013000040F0823009F069CFE0905601F09057012B
:1013100056C0C8010E94BC0760CFC8010E94BC072C
:1013200040E050E0F801638980E090E00E94A1066F
:101330007C010115110509F485CF009709F482CFCE
:10134000DC0150968C915097877080618160509637
:101350008C93509759961C925997F80185899689D4
:1013600056969C938E9355978789908D58969C930B
:101370008E935797C388D12CC8010E94E0065C0168
:10138000C7010E94E006A601B5010E94A727B70188
:10139000CE0101960E941308CE0101960E942907F2
:1013A0001CCFD70157962D913C915897F80187890A
:1013B000908D2817390749F0D701ED90FC90F6E59C
:1013C000EF16F1E0FF0669F708CFD38853968C91AA
:1013D000D812F2CFC8010E94E0065C01C7010E944A
:1013E000E0064D2D50E0B5010E949A27892B21F788
:1013F000C9C0882329F0B80181E892E00E9407065D
:10140000D80118968D919C911997892B09F474C075
:1014100059968C918150823018F4C8010E943E0880
:10142000F801818D823009F05CC0E0905601F090A7
:101430005701F6E5EF16F1E0FF0609F1D7015796DF
:101440002D913C915897F8018789908D281739077D
:1014500009F09CC05396DC908389D81297C0C801CC
:101460000E94E0065C01C7010E94E0064D2D50E09D
:10147000B5010E949A27892B09F088C0AECE0E9440
:10148000DB050E94F214D8011A962C931A971B962A
:101490003C93E0905601F0905701B6E5EB16B1E0B1
:1014A000FB0651F0B701C8010E94FF07811104C07B
:1014B000F701E080F180F1CFD7011296ED91FC9118
:1014C0001397D8011396FC93EE931297ED92FC922A
:1014D000D70113961C930E931297118300830E94D9
:1014E000EF05F80180859185892B31F0818D82305F
:1014F00019F0C8010E94A307E0910A07F0910B07B9
:10150000309769F5A0915E01B0915F011297F1E00B
:10151000AC35BF07F1F0F8018089869586958695F0
:1015200016969C91169798130FC081E0809305073B
:10153000ED91FC9111970190F081E02DB801CD0162
:1015400009951092050726C012960D90BC91A02D0A
:10155000DDCFE0910C07F0910D07309731F081E07D
:1015600080930507C8010995ECCF80910707882370
:1015700029F0B80187E892E00E940706C8010E949E
:101580008D0708C0C7010E94A30727CEF701E0809E
:10159000F1804FCF0F900F90DF91CF911F910F915E
:1015A000FF90EF90DF90CF90BF90AF9008950F9392
:1015B0001F93CF93DF938C01EB011C8A88898E7F68
:1015C000888B0E94DB0580910207909103079C01A4
:1015D0002F5F3F4F3093030720930207988F8F8B25
:1015E0000E94EF05BE01C8010E946E07CE010E9455
:1015F0009C08E0910E07F0910F07309719F0898D44
:1016000081110995C801DF91CF911F910F91089524
:10161000CF93DF93662321F0DF91CF910C949C0848
:10162000EC010E94DB05E0915C01F0915D01FB8320
:10163000EA838AE591E099838883D0935D01C09322
:101640005C01D183C083DF91CF910C94EF054F9261
:101650005F926F927F928F929F92AF92BF92CF9242
:10166000DF92EF920F931F93CF93DF934C013B01D7
:101670005A01220F331F220F331F2A01420E531E1D
:10168000FA01C0E0D0E0E415F50531F082819381E4
:10169000C80FD91F3496F7CFC3010E940710AE01BF
:1016A000682F80E090E00E94A106EC01892B21F4D4
:1016B000F4011182108235C0000F000F000F8889DD
:1016C0008770082B088BE98EDE8ACD8AC3010E94C1
:1016D00007108C01C3010E9403103C01CE010E943F
:1016E000E006A801B3010E94A727CE010E94E506EB
:1016F0008C01A414B50489F0F501608171814281E7
:101700005381C8010E94A727F50182819381080FA8
:10171000191FF4E0AF0EB11CECCFBE01C4010E9452
:10172000D70AC401DF91CF911F910F91EF90DF9005
:10173000CF90BF90AF909F908F907F906F905F9071
:101740004F9008952F923F924F925F926F927F92A7
:101750008F929F92AF92BF92CF92DF92EF92FF92C1
:101760000F931F93CF93DF9300D000D0CDB7DEB798
:101770001C012B013A01CB82AC82220F331F220FB6
:10178000331F5A01A20EB31EFA01C12CD12CEA1547
:10179000FB0531F082819381C80ED91E3496F7CFB4
:1017A000EE0CFF1CEE0CFF1CC8018E0D9F1D9A83D2
:1017B0008983F80189819A81E817F90731F08281DC
:1017C0009381C80ED91E3496F5CFC2010E9407102E
:1017D000A601682F80E090E00E94A1067C01892B81
:1017E00021F4F101118210824EC08B81880F880F85
:1017F000880FF70190899770C92EC82AC08A8C81FA
:10180000818F968A858AC2010E9407106C01C201ED
:101810000E9403102C01C7010E94E006A601B2013C
:101820000E94A727C7010E94E5066C016A147B0489
:1018300089F0F3016081718142815381C6010E9468
:10184000A727F30182819381C80ED91EF4E06F0EA1
:10185000711CECCF89819A810817190781F0F80172
:101860006081718142815381C6010E94A727F801DE
:1018700082819381C80ED91E0C5F1F4FEBCFB70139
:10188000C1010E94D70AC1010F900F900F900F90D5
:10189000DF91CF911F910F91FF90EF90DF90CF904C
:1018A000BF90AF909F908F907F906F905F904F9080
:1018B0003F902F9008950F931F93CF93DF93EC01E8
:1018C000162F8F858F7E8F87209711F40E947E2799
:1018D0000E94DB0588859985892B21F0CE010E9425
:1018E0003D072EC0111103C0898D811104C0CE01A6
:1018F0000E94A30725C00E94F2142A873B8700910B
:1019000052011091530181E00235180751F0B801DE
:10191000CE010E94FF07811104C0D8010D911C91D6
:10192000F2CFD8011296ED91FC911397FB83EA83D5
:10193000198308831396DC93CE931297D183C083C7
:10194000DF91CF911F910F910C94EF05CF93DF930F
:10195000EC018F8588608F87E0910807F091090777
:10196000309739F081E080930407CE0109951092F9
:101970000407A0915E01B0915F01129781E0AC3540
:10198000B807E9F0888986958695869516969C9184
:10199000169798130FC081E080930407ED91FC9196
:1019A00011970280F381E02DBE01CD0109951092BF
:1019B000040705C012960D90BC91A02DDECFDF91DB
:1019C000CF910895AF92BF92CF92DF92EF92FF92A4
:1019D0000F931F93CF93DF9300D0CDB7DEB7009165
:1019E0006601109167010250110921E004361207C7
:1019F00061F0D801ED91FC910280F381E02DC801E6
:101A00000995F80102811381EECF00915E011091DA
:101A10005F0102501109F1E00C351F0761F0D80198
:101A2000ED91FC910480F581E02DC8010995F80144
:101A300002811381EECF0E94DB0500915A011091C3
:101A40005B01F1E00A351F0749F0C8010E942B072E
:101A50000E94EF05C8010E949C08EDCF0E94EF058F
:101A60000E94F21469010E94DB050091520110915D
:101A7000530121E00235120789F40E94EF050E940C
:101A8000F21469010E94DB05009156011091570183
:101A900081E00635180709F043C049C0D801ED9030
:101AA000FC90B1E002351B0741F3F801878581FD09
:101AB0000E947E27828593859601281B390B858994
:101AC00096892817390748F1C8010E942B07F801A9
:101AD000848595858F3FFFEF9F0731F00197D801EF
:101AE0001D969C938E931C97F80184859585892B70
:101AF00039F4C8010E94A60CC8010E94A3070DC0BA
:101B00000E94EF05B801CE0101960E941308CE0194
:101B100001960E9429070E94DB058701D701BFCFEC
:101B2000F801A080B180F1E006351F0779F40E942A
:101B3000EF050F900F90DF91CF911F910F91FF90C4
:101B4000EF90DF90CF90BF90AF900895D8011F968F
:101B50008C911F9781FDACCF1A968D919C911B970C
:101B60009601281B390B55968D919C9156972817F5
:101B7000390708F44CC0C8010E942B07F80184857E
:101B800095858F3FFFEF9F0731F00197D8011D9694
:101B90009C938E931C97F80184859585892B39F445
:101BA000878588608787C8010E943D0730C0E09024
:101BB0005601F0905701F6E5EF16F1E0FF0651F0FF
:101BC000B701C8010E94FF07811104C0D701ED9041
:101BD000FC90F1CFD7011296ED91FC911397D801AB
:101BE0001396FC93EE931297ED92FC92D701139605
:101BF0001C930E93129711830083F801D386C2863B
:101C00000E94EF05C8010E943E080E94DB05850185
:101C1000D501AD90BC9087CFE0916201F091630156
:101C200021E0E236F20749F0268130E02817390733
:101C300039F00190F081E02DF3CF80E090E008953D
:101C4000CF010895E0916601F0916701329721E09C
:101C5000E436F20749F0268130E02817390739F0D9
:101C60000280F381E02DF2CF80E090E00895CF0173
:101C700008950F931F93CF93DF93EC01162F072F37
:101C80000E94DB05812F902F0E94220E892BC1F428
:101C90001E83CE010296E0916801F0916901FD83F7
:101CA000EC8326E631E03B832A839093690180939D
:101CB0006801918380830E94EF0580E090E002C07C
:101CC0008FEF9FEFDF91CF911F910F9108952F928A
:101CD0003F924F925F926F927F928F929F92AF92BC
:101CE000BF92CF92DF92EF92FF920F931F93CF9309
:101CF000DF93FC01EA013A01620E731E00E010E07E
:101D00003AE0332E44244394C615D70509F4C5C0E0
:101D100088818E32E1F04CF48D3009F4BEC08332FC
:101D200019F18A3009F0BBC0B8C08A33C9F024F475
:101D3000803309F4B2C0B3C0803461F08F3509F04C
:101D4000AEC06E013FEFC31AD30A4F01A3C06E01AC
:101D500020E017C021967F015801AE1ABF0A88C043
:101D6000219620E030E037C021964F01E12C60C081
:101D7000220F822F880F880F280F3A33A4F4305394
:101D8000230FC6018C1B9D0B3FEFC31AD30AD6014C
:101D90003C91432F032E000C550B405351094A3000
:101DA000510530F302C03753EBCF0F5F1F4F4F0188
:101DB000BFEF8B1A9B0A208304970CF46BC071C091
:101DC000329EA001339E500D11248A338CF480532F
:101DD0009A01280F311D6E0188812196682F082EE7
:101DE000000C770B605371096A30710548F302C02B
:101DF0008753EECF30834F0142E0840E911C218344
:101E00000E5F1F4F47C0EE2001F194012F5F3F4F3F
:101E1000A0E15A9EC0011124B9E3BF15A4F040ED22
:101E20004F0D842BF40180830F5F1F4F4901E42481
:101E30006E01F9908F2D0F2C000C990B0E948E27AC
:101E4000892B09F70CC049ECEBCFF9E3FF151CF027
:101E500020ED522E02C099EC592E5F0CE8CFEE20F7
:101E6000C9F0529480EF5822D4015C928BEF1AC0D3
:101E700087010A0D1B1D47016E012990822D022C3E
:101E8000000C990B0E948627892B21F0F7012192E3
:101E90007F01EECFE601F40137CFC80104C08FEF18
:101EA00001C08CEF9FEFDF91CF911F910F91FF90B9
:101EB000EF90DF90CF90BF90AF909F908F907F90EA
:101EC0006F905F904F903F902F900895FA0101908E
:101ED0000020E9F731979F01241B350B0C94670E06
:101EE000AF92BF92CF92DF92EF92FF920F931F9328
:101EF000CF93DF936C01EB010A811B810115110562
:101F000029F0C8010E945D265C0102C0A12CB12C01
:101F100048815981B801C5010E94660FEC0197FF05
:101F20000EC0D60111961C921E9213961C921E9200
:101F3000129715961C921E921497750136C00817B9
:101F40001907D0F40E945D267C01A114B104B1F000
:101F50009C012C0F3D1FD5010A0D1B1DFC012E17E6
:101F60003F0731F00A171B0719F08D918193F7CFC6
:101F7000C5010E94F52602C0750101C08E01F6015F
:101F800013830283D583C483CE010E945D26D601CC
:101F90008D939C93F701CE0DDF1DEC17FD0729F003
:101FA0002191DC012D93CD01F8CFE114F10419F05A
:101FB000C7010E94F526C601DF91CF911F910F91B5
:101FC000FF90EF90DF90CF90BF90AF900895CF93A8
:101FD000DF93EC010E94700FCE01DF91CF91089545
:101FE000FB0120813181FC0131832083FB012281AF
:101FF0003381FC01338322830895FC017183608364
:10200000538342830895FC01808191810895FC01EE
:102010008281938108950895CF93DF93EB01CB01E3
:102020000E94E506A0916A01B0916B01129721E030
:10203000A836B207D1F01A964D915C911B97FC011E
:10204000208131814217530759F4ED91FC9111978A
:102050000280F381E02DBE01CD01DF91CF91099483
:1020600012960D90BC91A02DE1CFCE01DF91CF91C2
:102070000C948D076F927F928F929F92AF92BF9236
:10208000CF92EF92FF920F931F93CF93DF93CDB731
:10209000DEB729970FB6F894DEBF0FBECDBF3C0167
:1020A000C9017A8369835C834B831D829E012F5F04
:1020B0003F4F3F832E8325E030E039872887450155
:1020C000AC2C23E0C22E21E030E0AE014A5F5F4F2E
:1020D000BC01C3010E94A20BC30129960FB6F8945C
:1020E000DEBF0FBECDBFDF91CF911F910F91FF904B
:1020F000EF90CF90BF90AF909F908F907F906F9018
:102100000895CF92DF92EF92FF920F931F93CF9398
:10211000DF93CDB7DEB765970FB6F894DEBF0FBE7D
:10212000CDBF8B015D8B4C8B1D86CB010E94E506DC
:10213000FC01828193819A878987C8010E94E50604
:10214000FC01808191819C878B878D858F70806158
:102150008D87CE0109969A83898385E090E09C83E0
:102160008B83CE0144969E838D8382E090E0988796
:102170008F83F801C588D688C8010E94E0067C01DB
:10218000C8010E94E206482F50E0B701CE010E962A
:102190000E94FD0FE12C03E022E030E0AE014F5F32
:1021A0005F4FBE01625F7F4FCE0142960E94270BB8
:1021B000CE0142960E94290765960FB6F894DEBFBD
:1021C0000FBECDBFDF91CF911F910F91FF90EF9088
:1021D000DF90CF900895CF93DF93EC0185E093E0FB
:1021E000998388830E94DB05CE0106962E813F816C
:1021F0002817390729F06FEF7FEFCE010E94C61133
:10220000AA81BB81EC81FD811396FC93EE9312971A
:10221000B183A0838EED90EC9B838A838EED99EC45
:102220009D838C83DF91CF910C94EF05CF93DF9347
:10223000EB010E94D41780E20E94411488819981A9
:102240000E9474188DE00E9441148AE0DF91CF91C2
:102250000C944114CF92DF92EF92FF920F931F9351
:10226000CF93DF936C018B01CB010E94FC067C01B4
:10227000C0916A01D0916B01229781E0C836D807DE
:1022800071F02A853B85F7018281938128173907F0
:1022900021F00A80DB81C02DEFCF209791F40E94BE
:1022A0008A07882339F0B7016E5F7F4F85EB92E094
:1022B0000E94161141E250E0B801C6010E9481104F
:1022C0002FC00E948A07882339F0B7016E5F7F4FC5
:1022D0008CED92E00E941611F701848182958F7037
:1022E00079F0813041F5C8010E94EF06C8010E94D3
:1022F000E506FC0165817681CE010E94C31110C004
:10230000E881F9810190F081E02DB801CE01DF91E3
:10231000CF911F910F91FF90EF90DF90CF90099494
:10232000C801DF91CF911F910F91FF90EF90DF9047
:10233000CF900C948D07DF91CF911F910F91FF905B
:10234000EF90DF90CF900895CF93DF93E4E1F7E033
:1023500083E08683AEE5B1E01296CD91DC911397D0
:10236000D583C483B383A28386E197E013969C93BD
:102370008E931297998388838BEF92E09183808369
:10238000DF91CF91089506960C941F1706960C9432
:102390004217AF92BF92CF92EF92FF920F931F938B
:1023A000CF93DF93CDB7DEB767970FB6F894DEBF54
:1023B0000FBECDBFFC01198A1A8A268537852B8B63
:1023C000DB0112968D919C9113979D8B8C8BAE01A6
:1023D0004E5E5F4F5A83498344E050E05C834B83F9
:1023E000448555855E834D832F8338872D913C919D
:1023F0003A8729879C878B87A08CB18CC6889F01E0
:10240000205F3F4F44895589628573856115710549
:1024100011F40E947E2783E0E82EF12C8E010F5FDD
:102420001F4FCE0146960E943A10CE0146960E945A
:10243000290767960FB6F894DEBF0FBECDBFDF91B8
:10244000CF911F910F91FF90EF90CF90BF90AF90E1
:102450000895AF92BF92CF92DF92EF92FF920F93C7
:102460001F93CF93DF9300D000D0CDB7DEB7FC0130
:10247000408B518B628B738B358B248B24E0F8015E
:10248000DC011C9601900D922A95E1F7FC01D78A98
:10249000C68AB18EA08EF70122813381408151819D
:1024A0005A8349833C832B83BE016F5F7F4F0E9419
:1024B000C9110F900F900F900F90DF91CF911F9146
:1024C0000F91FF90EF90DF90CF90BF90AF90089565
:1024D0002F923F924F925F926F927F928F929F9234
:1024E000AF92BF92CF92DF92EF92FF920F931F9322
:1024F000CF93DF93CDB7DEB762970FB6F894DEBF08
:102500000FBECDBF4C016B01DC0196960D911C9165
:102510009797C8010E945D267C01A80160E070E0E9
:102520000E94C227C6010E94FC065C01FC01808556
:1025300091850A96E80FF91F1F014FEF241A340AFC
:102540006080062C000C7708C30101968E0F9F1F38
:10255000D40196960D911C919797F501668177812C
:1025600061507109661977099296ED91FC919397E4
:102570003097B1F194962D913C9195972F3F4FEF65
:10258000340741F49701AB01BC0190968D919C9169
:10259000919720C0D40190960D90BC91A02DBA8B3C
:1025A000A98B1097C9F029015594479420FF0BC0BF
:1025B0009D01240D351DD9012D913C91E20FF31F92
:1025C0000190F081E02D9701AB01BC0189899A89C6
:1025D000840D951D099506C09801A701099502C0B3
:1025E00080E090E0F401008D118D46885788FA82D2
:1025F000E9829C838B833E822D8278866F82D5010F
:102600006D907C90C6010E94F7067C01C6010E9475
:10261000F906FE86ED8690E0988B8F87BE01635F9A
:102620007F4FCE0109960E94F00F49855A856B8530
:102630007C8558016201FE0131967F018E010B5F9E
:102640001F4F9301C4010E94291262960FB6F8949D
:10265000DEBF0FBECDBFDF91CF911F910F91FF90D5
:10266000EF90DF90CF90BF90AF909F908F907F9032
:102670006F905F904F903F902F90089523E133E04B
:10268000FC01318320830C94A802CF93DF93EC01EB
:102690000E943E13CE01DF91CF910C94F526DC0110
:1026A0001D96ED91FC911E97CB01309709F009948E
:1026B0000C948D078F929F92AF92BF92CF92DF9230
:1026C000EF92FF920F931F93CF93DF9300D0CDB77C
:1026D000DEB76C017B01DC011B96ED91FC911C9730
:1026E000CB01309711F009954EC00E94FC064C01B9
:1026F000B4E08B0E911CFC01A180B12CD601179681
:102700000D911C91189702501109B7E0CB0ED11C06
:10271000C80102968C159D0599F1F80162857385B3
:10272000A501C4010E94C927D801892B11F5ED919B
:10273000FC91C080D180FA82E982E114F10471F049
:10274000F701868587FD0E947E270E94DB05E981CF
:10275000FA8186858F5F86870E94EF05BE016F5FD5
:102760007F4FC801F6010995CE0101960E94290705
:102770000AC012960D911C91139702501109C8CFEF
:10278000C7010E948D070F900F90DF91CF911F918D
:102790000F91FF90EF90DF90CF90BF90AF909F9000
:1027A0008F900895CF93DF93EBE1F7E084E0868389
:1027B000AEE5B1E01296CD91DC911397D583C48339
:1027C000B383A2838DE197E013969C938E93129727
:1027D0009983888381E293E09183808382E297E00A
:1027E0009087878392878187DF91CF910895909317
:1027F0002D0780932C0770932B0760932A07089569
:10280000E0912C07F0912D07309749F00190F0816D
:10281000E02D682F80912A0790912B07099480E082
:1028200090E00895AB01E0912C07F0912D073097CF
:1028300049F00480F581E02DBC0180912A07909138
:102840002B07099480E090E008950F931F93CF9396
:10285000DF9380912C0790912D07892B59F08A01E5
:10286000EB01060F171FC017D10721F089910E94B5
:102870000014F9CF80E090E0DF91CF911F910F918C
:1028800008950C9400140C9412141F920F920FB61A
:102890000F9211242F933F934F935F936F937F93E6
:1028A0008F939F93AF93BF93EF93FF930E949314E3
:1028B000FF91EF91BF91AF919F918F917F916F9118
:1028C0005F914F913F912F910F900FBE0F901F90EE
:1028D0001895CF92DF92EF92FF920F931F93CF93B1
:1028E000DF930E94DB05C0902E07D0902F07E09069
:1028F0003007F09031070091320710913307D091E3
:102900003407C09135070E94EF059601A701B80171
:102910008D2F9C2FDF91CF911F910F91FF90EF9002
:10292000DF90CF90089520912E0730912F0740918E
:1029300030075091310760913207709133078091D1
:10294000340790913507A1E00E949C2420932E0724
:1029500030932F074093300750933107609332072D
:102960007093330780933407909335070895CF937E
:10297000DF939B01AC0160E078EE83E090E00E9481
:102980009523DA01C9012093760190937701A093F2
:102990007801B093790110927A0110927B01109224
:1029A0007C0110927D010E94971D9B01AC0160E0AB
:1029B00070EA8FE090E00E949523DA01C90120932C
:1029C0006E0190936F01A0937001B093710110920A
:1029D0007201109273011092740110927501DF91CF
:1029E000CF910895AF92BF92CF92DF92EF92FF9274
:1029F0000F931F930E946914A0907601B090770105
:102A0000C0907801D0907901E0907A01F0907B013C
:102A100000917C0110917D010E94BD2308E00E947D
:102A200077241F910F91FF90EF90DF90CF90BF9090
:102A3000AF90089520E030E040E050E0CD960C9457
:102A4000C6159A01CD96211540E1340728F020E003
:102A500030E040E050E102C040E050E00C94C61588
:102A6000411102C00C941A1520E030E040E050E122
:102A7000CD960C94C615FC01148213821582128225
:102A8000118210820895AF92BF92DF92EF92FF926F
:102A90000F931F93CF93DF9300D01F92CDB7DEB774
:102AA0008C01D62E7C0185E0E80EF11C5801EDE189
:102AB000AE0EB11CC7010E943B15F6E0EF0EF11CF3
:102AC000AE14BF04B9F7F80111A614A610A617A2F8
:102AD00011AE14AE10AE17AA60E4C801CD960E94E4
:102AE000C315F801D2826D2DCE0101960E94C31547
:102AF00089819A81AB81F80185AF96AFA7AF0F901E
:102B00000F900F90DF91CF911F910F91FF90EF9059
:102B1000DF90BF90AF900895CF93DF93EC016230C8
:102B200061F06430B9F0613009F56A818B819C8174
:102B30000E941A1541E0698107C069818B819C81DF
:102B40000E941A1541E06A818B819C81DF91CF91AF
:102B50000C94301569818B819C810E941A156A81C1
:102B60008B819C81DF91CF910C941A15DF91CF91CD
:102B7000089520E1629FA0011124FC0160818381FE
:102B800094810C942115FC01628308950F931F9387
:102B9000CF93DF9300D000D01F92CDB7DEB7660F82
:102BA000660F6A5F69834A835B832C833D83FC01E4
:102BB000A081B181ED91FC9111970281138125E0F3
:102BC00030E0AE014F5F5F4FFC016281CD01F80143
:102BD00009950F900F900F900F900F90DF91CF916C
:102BE0001F910F910895FC01868197810C94B41C6C
:102BF000FC01868197810C94AF1CFC018681978132
:102C00000C94B81CFC01868197810C94BD1C8F929A
:102C10009F92AF92BF92EF920F931F93CF93DF9348
:102C2000EC014A015B01122F61E070E08E819F810F
:102C30000E94CB1C61E070E08E819F810E94C21CCB
:102C4000212FB501A4018E819F810E94EF1C61E0BC
:102C500070E08E819F810E94D41C80E090E0DF9123
:102C6000CF911F910F91EF90BF90AF909F908F9059
:102C70000895FC01623081F038F46623B9F06130C8
:102C800029F560E070E014C06430B9F040F06530C0
:102C9000E9F460E070E013C061E070E002C060E061
:102CA00070E0868197810E94DD1C0DC061E070E0BC
:102CB000868197810E94D41C06C061E070E0868105
:102CC00097810E94E61C80E090E008958FEF9FEFCF
:102CD0000895EF92FF920F931F93CF93DF93CDB799
:102CE000DEB728970FB6F894DEBF0FBECDBF8C01BC
:102CF0007B01FC01868197810E94C21CB701F8010B
:102D0000868197810E94CB1C60E070E0F80186818B
:102D100097810E94E61C60E070E0F801868197814F
:102D20000E94DD1CB701F801868197810E94D41CA6
:102D300080E1898387E28A831B821C821D821E8236
:102D40001F82188629813A814B815C816D817E8149
:102D50008F819885AFEF0E949C2429833A834B830F
:102D60005C836D837E838F839887A0E00E94BA2462
:102D700049F780E090E028960FB6F894DEBF0FBECA
:102D8000CDBFDF91CF911F910F91FF90EF900895EC
:102D90008DE00E9441148AE00C944114CF93DF939C
:102DA00000D000D000D0CDB7DEB749835A836B8303
:102DB0007C838D839E8385E393E00E94D4178B816F
:102DC0009C810E94D4170E94C8168CE393E00E9455
:102DD000D4178D819E810E94D4170E94C81683E467
:102DE00093E00E94D41789819A810E9474182696D4
:102DF0000FB6F894DEBF0FBECDBFDF91CF910C941C
:102E0000C816DC0115967C936E93149716962C9138
:102E1000213069F0223081F4DC011796ED91FC91AC
:102E2000189719968D919C911A97099502C00E9446
:102E3000D01B80E090E008958FEF9FEF08950F93EF
:102E40001F93CF93DF93EC018B010E94DB05E88198
:102E5000F981CE17DF0781F0C081D181A281B381D2
:102E6000BB83AA83CD93DC93F383E283F183E08376
:102E7000B801CF010E940117DF91CF911F910F91EF
:102E80000C94EF050F931F93CF93DF93EC018B010D
:102E90000E94DB05E881F981CE17DF07A9F0808168
:102EA000918122813381DC0113963C932E931297FA
:102EB000D9018D939C93F383E283F183E083B8017E
:102EC000CF010E940117E6CFDF91CF911F910F91A3
:102ED0000C94EF0560E070E00E941F1780E090E026
:102EE000089540E050E060E070E00C94D61B8AE466
:102EF00093E00E94D4178DE00E9441148AE00E9462
:102F00004114FFCF8A3010F4805D01C0895C0C94BD
:102F10004114CF93C82F82958F700E9482178C2FF7
:102F20008F70CF910C9482170F931F93CF93DF93E1
:102F3000EC018C01060F171FC017D10721F08991F2
:102F40000E948917F9CFDF91CF911F910F910895BA
:102F50000F931F93CF93DF938C01060F171FEB0185
:102F6000C01BD10BC8018C0F9D1F892B31F0F801BC
:102F700082918F010E948917F5CFDF91CF911F9128
:102F80000F910895CF93DF9300D0CDB7DEB79A832A
:102F9000898362E070E0CE0101960E94A8170F902D
:102FA0000F90DF91CF910895009711F0FC010CC0B4
:102FB0008EE40E94411485E50E9441148CE40E9435
:102FC00041148CE40C944114BF01681B790B2191CE
:102FD0002111FACF0C9443142F923F924F925F929B
:102FE0006F927F928F929F92AF92BF92CF92DF9219
:102FF000EF92FF920F931F93CF93DF93CDB7DEB77E
:103000006A970FB6F894DEBF0FBECDBF29013A0113
:103010004B011C01A0E00E94BA2419F480E30E9435
:103020004114188ECE0148969A8F898F9201A30180
:10303000B401C101A0E00E94BA2401F18AE0A82EE7
:10304000B12CC12CD12CE12CF12C00E010E092012C
:10305000A301B401C1010E941624205DE98DFA8DFF
:103060002293FA8FE98F9201A301B401C1010E945A
:10307000182429013A014B011C01D8CF898D9A8D62
:103080000E94D4176A960FB6F894DEBF0FBECDBF6C
:10309000DF91CF911F910F91FF90EF90DF90CF9034
:1030A000BF90AF909F908F907F906F905F904F9068
:1030B0003F902F900895282F30E040E050E060E0EE
:1030C00070E080E090E00C94EC170C945B18CF93C8
:1030D000DF939C0140E050E060E070E080E090E031
:1030E000DF91CF910C94EC170C946718FC01558379
:1030F0004483938382839183808308950F931F93E6
:10310000CF93DF9300D0CDB7DEB78C010E94DB05F3
:10311000F801848195811816190644F40197958366
:1031200084830E94EF0580E090E00CC00E94EF05D0
:10313000AE014F5F5F4F60E070E0C8010E94D61B98
:10314000009721F30F900F90DF91CF911F910F9176
:103150000895CF93DF93EC010E94DB058C819D8164
:103160001816190634F401979D838C83C0E0D0E0D3
:1031700002C0CFEFDFEF0E94EF05CE01DF91CF91CC
:103180000895CF93DF93EC010E94DB058C819D8134
:1031900001969D838C8388819981C817D90729F06E
:1031A00060E070E0CE010E941F170E94EF0580E0F2
:1031B00090E0DF91CF910895809136079091370785
:1031C000089580913A0790913B0720918A013091B0
:1031D0008B012A523109AC014F5F5F4F11F4029607
:1031E00001C0CA01F90141E0E036F40751F044A101
:1031F00055A18417950779F302A4F3A5E02DBA979A
:10320000F2CF90933B0780933A0708958091380757
:103210009091390720918A0130918B012A5231090E
:10322000AC014F5F5F4F11F4029601C0CA01F90172
:1032300041E0E036F40751F046A157A18417950705
:1032400079F302A4F3A5E02DBA97F2CF9093390752
:10325000809338070895EF92FF920F931F93CF93B7
:10326000DF93EC01F62EE42E89018A96A0918A0163
:10327000B0918B01FD0121E0EA38F20741F08E1791
:103280009F0709F445C00190F081E02DF4CF1C8622
:103290001B861A869E012A5F3F4F398728873F8306
:1032A0002E83FDA7ECA7BBA7AAA713969C938E938A
:1032B000129790938B0180938A010E94E1189DA33D
:1032C0008CA3E0FE07C0E0913607F091370786A196
:1032D00097A102C00E9406199FA38EA31FA61EA637
:1032E00019AA18AA1B830A83F9A283E08AA31AAA3F
:1032F0001BA28091360790913707998388831CAA77
:103300001BAADF91CF911F910F91FF90EF9008952D
:10331000AE81BF81E885F9851396FC93EE931297F1
:10332000B183A083CE010696998788879F838E8379
:10333000C4CFEBE7F7E0F383E283F183E0838FE729
:1033400097E0978386839583848383E897E09387C8
:1033500082879187808787E897E097878687958718
:103360008487E2E8F1E0F383E283F183E083E6E837
:10337000F1E0F383E283F183E083EEE7F1E0F383AE
:10338000E283F183E083EAE8F1E0F383E283F1830F
:10339000E0830895CF93DF93EC010E94DB051AA22E
:1033A0001C86CE010696AE81BF81E885F98513960D
:1033B000FC93EE931297B183A083E6E8F1E0A2813B
:1033C000B381B987A887FF83EE83938382838D932C
:1033D0009C93DF91CF910C94EF05CF93DF93DC01A9
:1033E00091964C919197069616962D913C91179730
:1033F0001896CD91DC911997F901D383C283398353
:10340000288324E0429FF0011124E558F84FC2813F
:10341000D3811996DC93CE9318971796FC93EE936D
:1034200016979383828399838883DF91CF91089540
:10343000CF93DF93EC010E94DB0584E08AA3CE01E9
:103440000696AE81BF81E885F9851396FC93EE93CD
:103450001297B183A083EEE7F1E0A281B381B9872F
:10346000A887FF83EE83938382838D939C93DF9160
:10347000CF910C94EF05DC019093370780933607CA
:10348000D2968C91D2978160D2968C93D297D09617
:103490008D919C91D1970196D1969C938E93D097C4
:1034A0001296ED91FC9113970190F081E02DCD01E2
:1034B0000994DC01ED91FC91309731F00480F581A5
:1034C000E02D8FED9FEF099408951F93CF93DF9325
:1034D0000E94DB0515E0E0917E01F0917F01B1E0F3
:1034E000EE37FB0711F1EF01269780819181228150
:1034F0003381DC0113963C932E931297D9018D935F
:103500009C93F383E283F183E0830E94EF051AA387
:10351000EA81FB810280F381E02DCE010995CE0185
:103520000E94591A0E94DB05D6CF0E94EF050E9427
:10353000DB058091860190918701E1E086389E0746
:1035400021F006970E94ED19F4CF0E94EF05CBE71A
:10355000D7E020E030E0A881B981CA17DB0791F1FC
:10356000CD010697FC0142A945FF05C0DF91CF912F
:103570001F910C94181A4D915C91119712966D91B0
:103580007C911397FA0173836283FB01518340831B
:10359000220F331F220F331FF901E558F84F228104
:1035A000338113963C932E9312971196DC93CE930E
:1035B000B383A283F901B183A083DF91CF911F91DF
:1035C0000C943B1A2F5F3F4F24962430310519F697
:1035D000DF91CF911F9108950C94CA19CF93DF9377
:1035E0000E94DC18EC018AA981FF11C00E9402062A
:1035F0008BA38EA59FA501969FA78EA7EA81FB812D
:103600000480F581E02DCE01DF91CF9109948FEFF9
:103610009FEFDF91CF9108956F927F928F929F924B
:10362000AF92BF92CF92DF92EF92FF920F931F93D0
:10363000CF93DF9300D000D000D0CDB7DEB73C01F0
:103640000E94DC185C01009799F486E0E8E9F1E05B
:10365000DE01119601900D928A95E1F749815A8118
:103660006B817C818D819E810E94CE160E942922D1
:103670004C0186E0880E911C0E94DB05F501A681B5
:10368000B7818085918513969C938E931297FC0148
:10369000B183A083F50191868086978286820E94FD
:1036A000EF0583E0F501848782E082A30E94F21493
:1036B00063011F921F921F921F921F921F92DF920F
:1036C0006F92C22ED32E7A018B019C01A5016CEE64
:1036D0007AE1C4010E942B22C4010E9471220FB61C
:1036E000F894DEBF0FBECDBF26960FB6F894DEBFAE
:1036F0000FBECDBFDF91CF911F910F91FF90EF9043
:10370000DF90CF90BF90AF909F908F907F906F9001
:103710000C94EE1ABC01675C7F4FDC01DB96ED91E7
:10372000FC91DC97DD968D919C91DE97099408952C
:10373000CF93DF9300D000D000D0CDB7DEB786E0C6
:10374000EEE9F1E0DE01119601900D928A95E1F724
:1037500049815A816B817C818D819E810E94CE1628
:103760000E942922EF92FF920F931F93CF93DF9332
:10377000EC017B018A012EE831E040E050E063E09B
:1037800070E00E942B191AAE19AEFCAEEBAE1EAF64
:103790000DAFDF91CF911F910F91FF90EF900895A2
:1037A00006970E94CA1980E090E00895EF92FF9278
:1037B0000F931F93CF93DF9300D000D000D0CDB7ED
:1037C000DEB78C017B010E94DC18FC01892B19F00B
:1037D00082A981FD13C086E0E4EAF1E0DE011196E2
:1037E00001900D928A95E1F749815A816B817C8124
:1037F0008D819E810E94CE160E94292281E08487BD
:1038000082E082A34FB7F894CF01069626813781D4
:1038100060857185D90113967C936E931297DB01B5
:103820002D933C939187808797838683D801EF28D7
:1038300069F02D913C91119711870087378326837A
:10384000F901938382838D939C930FC012962D91DF
:103850003C911397318720871783068313969C9397
:103860008E931297F901918380834FBF26960FB6EE
:10387000F894DEBF0FBECDBFDF91CF911F910F91A6
:10388000FF90EF900C94EE1ACF93DF93EC010E941F
:10389000DC18FC0181E0848782E082A34FB7F894B2
:1038A000CF0106962681378160857185D9011396EF
:1038B0007C936E931297DB012D933C9391878087C5
:1038C000AA81BB81B187A087D783C6839B838A8364
:1038D0008D939C934FBF80E090E0DF91CF9108954E
:1038E000FC018281442311F0682B02C0609568239B
:1038F000628380E090E00895FC01808190E008956B
:10390000FC01DA01C9018827AA27BB27892B8A2B4A
:103910008B2B11F0211120C020FF16C081816095F2
:1039200068236183BA01A9014E715527662777275D
:1039300081E090E0452B462B472B11F480E090E08E
:10394000919581959109089530FF06C08181682B7A
:10395000618380E090E008958FEF9FEF0895FC0170
:10396000668381E090E00895FC01868190E00895EF
:10397000FC018081807890E00895FC018081807254
:1039800090E00895FC019181672B11F0906101C0D6
:103990009F7E91830895FC019181672B11F09860BF
:1039A00001C0977F91830895FC019181672B11F0ED
:1039B000906801C09F7791830895FC019181672BE6
:1039C00011F0906201C09F7D91830895FC01918167
:1039D000672B11F0906401C09F7B91830895CF9372
:1039E000DF93EC019A01AB0188818260888360E0FB
:1039F00079E08DE390E00E949523DA01C9010197F7
:103A0000A109B109AC01BD01769567955795479518
:103A1000852F99278D834C83DF91CF91089588302E
:103A2000910589F038F40097B9F0019791F481E09D
:103A300090E008958034910549F08115914049F452
:103A400084E090E0089582E090E0089583E090E0C3
:103A500008958FEF9FEF089580E090E008950F9311
:103A60001F93CF938C01CB01F801C1810E940F1DE0
:103A7000C87F87708C2BF8018183CF911F910F91A4
:103A800008958038910529F0803B910521F4E2E00A
:103A900003C0E1E001C0E0E0F0E0E259FF4F8081C7
:103AA0008E7F6170682B608308950C94411D61E0E6
:103AB00084E490E00E94551D60E470E084E490E0AE
:103AC0000E942F1D60ED73E080E090E00E94B7142B
:103AD0000C947F1D9FB7F8948091C0008064809300
:103AE000C0008091C00085FFFCCF6093C60080912C
:103AF000C00086FFFCCF9FBF80E090E00895109249
:103B0000C0001092C50088E08093C40086E08093D6
:103B1000C200E1ECF0E080818860808360E070E0CA
:103B200088E294E00E94F71380E090E0089560E05E
:103B300071E080E090E00895AF92BF92CF92DF9263
:103B4000EF92FF921F93CF93DF93EC01162F5A0150
:103B500069017C0182E0E80EF11CC7010E947E1819
:103B6000B88AAF86DA8AC98A110F1E87188E1F8A13
:103B70008B8D8C7F8B8F85EA8093BC00CE0108965D
:103B80000E947E18C7010E94C11880E090E0DF917A
:103B9000CF911F91FF90EF90DF90CF90BF90AF90AB
:103BA00008957F928F929F92AF92BF92CF92DF92B1
:103BB000EF92FF920F931F93CF93DF93EC01762E3A
:103BC0004A0159016C0182E0C80ED11CC6010E9455
:103BD0007E181C8B0B8B988A8F86FE8AED8ABA8A98
:103BE000A98AFA8EE98E770C7E86188E1F8A8B8DB5
:103BF0008C7F82608B8F85EA8093BC00CE01089613
:103C00000E947E18C6010E94C11880E090E0DF91FA
:103C1000CF911F910F91FF90EF90DF90CF90BF90C9
:103C2000AF909F908F907F900895CF93DF93FC018A
:103C30008091B900887F883209F453C070F48031D4
:103C400079F128F4882319F1883021F1B4C0883142
:103C500099F1803209F441C0AEC08834F1F138F4F2
:103C6000803309F480C0803409F48FC0A4C080354B
:103C700009F47CC0883509F09EC02091BB00A3895F
:103C8000B4898789908DA80FB91F2C938BC0838D21
:103C9000846025C0938D93708685913031F40AC07D
:103CA000938D93708685923029F08E7F8093BB0030
:103CB00085E875C08160FACF838D80FD7CC0278543
:103CC00030898789908DAC014F5F5F4F508F478B54
:103CD000F901E80FF91F8081E9CF838D8860838F18
:103CE00061C0EF01838D8370F9F48789908D2189FC
:103CF00032898217930741F485E98093BC00CF0194
:103D000008960E94C11810C027853089AC014F5F0A
:103D10005F4F508F478BF901E80FF91F8081809327
:103D2000BB0085E88093BC008B8D8370823009F0E6
:103D300042C08F89988D29893A898217930721F487
:103D4000188E1F8A85EA2BC02F853889AC014F5FFA
:103D50005F4F588F4F8BF901E80FF91F80818093D7
:103D6000BB0085E91CC0838D8061B9CF438954892C
:103D70008789908D9C012F5F3F4F308F278B20913B
:103D8000BB00DA01A80FB91F2C938789908D01968B
:103D9000218D328D8217930709F48ACF85EC8093A9
:103DA000BC0009C085E98093BC00CF010896DF9173
:103DB000CF910C94C118DF91CF910895DC01ED9162
:103DC000FC910480F581E02D0994FC01448D558D12
:103DD000268D378D4217530728F080A191A1820FBD
:103DE000931F01C0C9010197841B950B08950F9380
:103DF0001F93CF93DF938C010E94DB05F801C2A1D2
:103E0000D3A124A135A1C217D30728F4F80186A1B4
:103E100097A1C80FD91FC21BD30B0E94EF05CE017B
:103E2000DF91CF911F910F9108955F926F927F92D2
:103E30008F929F92AF92BF92CF92DF92EF92FF92BA
:103E40000F931F93CF93DF934115510509F48BC056
:103E5000522E7A015B01EC014C0184E0880E911C2A
:103E6000C4010E947E18892B09F079C00E94DB05ED
:103E70008A819B81DC01ED91FC910284F385E02D28
:103E80000995892BC1F02C8D3D8D8E8D9F8D281726
:103E9000390789F48A819B81F5016081062E000C27
:103EA000770BDC01ED91FC910084F185E02D099503
:103EB00001E010E002C000E010E0B52DB1705B2E13
:103EC0003E01E0E16E0E711CE016F10609F441C0FE
:103ED000688D798DF501E00FF11FA701401B510B93
:103EE000C12CD12CC416D50661F02C8D3D8D8E8D44
:103EF0009F8D009711F488A199A101972817390780
:103F000049F4C114D104C1F062E08A819B810E940E
:103F1000DE1E12C08191DB01A20FB31F8C938C8D2A
:103F20009D8D01969D8F8C8F28A139A182179307B3
:103F3000E9F41D8E1C8E1AC00C0D1D1DE016F10635
:103F400041F0511006C0C3010E947117892B09F47A
:103F5000BBCF0E94EF05C4010E94C11802C000E05F
:103F600010E0C80107C080E090E004C08FEFC81ADD
:103F7000D80AB8CFDF91CF911F910F91FF90EF90AA
:103F8000DF90CF90BF90AF909F908F907F906F9079
:103F90005F9008958F929F92AF92BF92CF92DF92DF
:103FA000EF92FF920F931F93CF93DF93EC01B62E06
:103FB000072F6A01122F2E8D3F8D8C8D9D8D281716
:103FC000390719F188E394E00E94D41780E20E9437
:103FD00041148AE30E94411480E20E9441148C8DB6
:103FE0009D8D4E8D5F8D8417950720F428A139A1F2
:103FF000820F931F841B950B0E9474188DE00E9402
:1040000041148AE00E944114D6CF7E018AE0E80E76
:10401000F11CC7010E947E18892B09F04BC00E9439
:10402000DB05912F9170A92E1270CE0144964C01A0
:104030002AA13BA18CA19DA12817390779F4A110D1
:1040400005C0C401112329F00E94441C00E010E0C7
:104050002BC00E947117892B59F3F8CFC114D104DA
:10406000A9F34A8D5B8DEB2DF02F00E010E08CA1C1
:104070009DA12AA13BA128173907B1F0DA01A80FA9
:10408000B91F2C9101969DA38CA36EA17FA18617C9
:10409000970711F41DA21CA22F3F31F021930F5F4F
:1040A0001F4F0C151D0519F70E94EF05C7010E944F
:1040B000C11802C000E010E0C801DF91CF911F914C
:1040C0000F91FF90EF90DF90CF90BF90AF909F90B7
:1040D0008F900895CF93DF93EC016115710579F10D
:1040E0006130710509F05AC02E8D3F8D4C8D5D8D6C
:1040F0008A819B814217530731F463E00E94DE1EE0
:10410000CE01409647C0E88DF98DE20FF31F608124
:104110002F5F3F4F3F8F2E8F48A159A1241735079E
:1041200011F41F8E1E8E062E000C770BDC01ED9114
:10413000FC910084F185E02DDF91CF9109948A8173
:104140009B81DC01ED91FC910680F781E02D0995C2
:104150004AA15BA12CA13DA12115310511F42EA18D
:104160003FA1215031094217530791F02A8D3B8D11
:10417000F901E40FF51F80838AA19BA101969BA3FF
:104180008AA32EA13FA18217930711F41BA21AA2A2
:10419000CE014496DF91CF910C946A17DF91CF91B5
:1041A0000895CF93DF93EC016115710511F07B83C6
:1041B0006A83AA81BB818AE690E213969C938E93D0
:1041C00012971596DC93CE931497ED91FC9111976D
:1041D0000280F381E02D61E070E0CD01099560E09F
:1041E0008A819B81DF91CF910C94DE1EEF92FF922A
:1041F0000F931F93CF93DF93FA01319628EADA01E8
:104200002C93DC01680F791F9FEF11E385EC0BE223
:104210002CE5F22E3AE8E32E6A177B0709F12D917F
:104220009227C8E0D0E0392F330F97FF03C0932FB8
:10423000912701C0932F2197B1F7223B39F0253CFC
:1042400041F0283A51F48083E18205C080830183E4
:1042500002C02083F1823296DFCF20833196DCCFFB
:10426000923B59F0953C89F0983AA9F485EC80830B
:104270009F012E5F3F4F8AE806C085EC80839F0137
:104280002E5F3F4F8BE281830AC090839F012E5F98
:104290003F4F8CE5F8CF9F012F5F3F4F9083F9018F
:1042A00082EB8193CF01841B950BDF91CF911F91FE
:1042B0000F91FF90EF900895FC0111867183608348
:1042C0005383428315821482178216828FEF808770
:1042D00008951F93CF93DF93EC01162F89858130CA
:1042E000D1F028F0823009F1843049F0A9C08FEF75
:1042F00088871D821C821F821E8284E08987183A6B
:1043000009F0A1C081E089878FEF88871D821C8218
:104310001F821E828BC0623B19F1653C21F0683A16
:1043200009F046C013C082E080C0683A79F02CF4EE
:104330006A3809F07DC018EA3BC06B3229F06C3551
:1043400009F076C015EC34C012EB32C08FEF8887CD
:104350001D821C821F821E8281E0898782E074C0D8
:104360008885811167C06E817F8181E090E0611551
:10437000710511F480E090E04C815D81481B590B80
:104380005D834C839B01281B390BC9013F832E831E
:104390004217530751F028813981481B590B620F8E
:1043A000731F820F931F0E94B02781E090E046C0E8
:1043B0004C815D818A819B81019748175907E0F5FF
:1043C0002E813F814217530769F088819981421BF2
:1043D000530BBC01620F731F2F5F3F4F820F931F60
:1043E0000E94B027288139818E819F81AC014F5F67
:1043F0005F4F5F834E83F901E80FF91F10838C81B3
:104400009D8101969D838C838885182788E090E0A4
:1044100031E3212F220F17FF03C0122F132701C0F2
:10442000122F0197B1F7188781E0898780E00CC0CF
:104430008DEF03C08FEF01C08EEF9FEF198605C08F
:104440008CEF9FEF02C083E090E0DF91CF911F914E
:1044500008950E947E277F928F929F92AF92BF9283
:10446000CF92DF92EF92FF920F931F93CF93DF9340
:10447000CDB7DEB7FC015B014A0168894989BA8979
:10448000AB897C895D899E898F896894772472F8CD
:10449000768215821482F383E283F183E083B08E07
:1044A000A78A928E818EC782D086E186F2860387A4
:1044B0001487258736876787408BB18BA28B738BD8
:1044C000548B958B868BDF91CF911F910F91FF902D
:1044D000EF90DF90CF90BF90AF909F908F907F90A4
:1044E00008952F923F924F925F926F927F928F9298
:1044F0009F92AF92BF92CF92DF92EF92FF920F9373
:104500001F93CF93DF93EC012F81388549855A851E
:104510006B857C858D859E85AF84B888C988DA884F
:10452000EB88FC880D891E890E949324922E832E8D
:10453000742E652E562E472E382E292E0E94DB050E
:10454000E0919401F091950181E0E439F80751F18F
:10455000278130854185528563857485858596855B
:10456000A784B088C188D288E388F4880589168931
:104570000E94932459016A017B018C01292D382D59
:10458000472D562D652D742D832D922D0E94A82424
:10459000A0E00E94BA2424F00190F081E02DD4CF55
:1045A000309711F4E4E9F1E0A281B381BB83AA83DF
:1045B000F983E883D383C283CD93DC93DF91CF91DA
:1045C0001F910F91FF90EF90DF90CF90BF90AF9031
:1045D0009F908F907F906F905F904F903F902F9023
:1045E0000C94EF05CF93DF93DC01CD91DC91119713
:1045F0001296ED91FC911397FB83EA83D183C083DC
:1046000013969C938E93129711969C938E93579624
:10461000ED91FC915897BC0159968D919C915A97B8
:10462000DF91CF9109942F923F924F925F926F92B8
:104630007F928F929F92AF92BF92CF92DF92EF9232
:10464000FF920F931F93CF93DF93922E832E742E9E
:10465000652E562E472E382E292E0E94DB05C0913E
:104660009401D091950181E0C439D80719F10E94D5
:10467000EF05292D382D472D562D652D742D832DB1
:10468000922DAF80B884C984DA84EB84FC840D85D4
:104690001E850E94A824AF84B888C988DA88EB8870
:1046A000FC880D891E890E94B124C4F0CE010E94AD
:1046B000F222D3CFDF91CF911F910F91FF90EF9016
:1046C000DF90CF90BF90AF909F908F907F906F9032
:1046D0005F904F903F902F900C94EF05DF91CF911A
:1046E0001F910F91FF90EF90DF90CF90BF90AF9010
:1046F0009F908F907F906F905F904F903F902F9002
:104700000895AA1BBB1B51E107C0AA1FBB1FA61718
:10471000B70710F0A61BB70B881F991F5A95A9F76A
:1047200080959095BC01CD010895A1E21A2EAA1B97
:10473000BB1BFD010DC0AA1FBB1FEE1FFF1FA21751
:10474000B307E407F50720F0A21BB30BE40BF50B4E
:10475000661F771F881F991F1A9469F760957095D7
:10476000809590959B01AC01BD01CF010895EE0F9E
:10477000FF1F0590F491E02D0994DF93CF931F93D1
:104780000F939A9DF02D219FF00D8B9DF00D8A9D2A
:10479000E02DF10D039FF00D029FE00DF11D4E9DE8
:1047A000E00DF11D5E9DF00D4F9DF00D7F936F9319
:1047B000BF92AF925F934F93D5010E94C6248B01A5
:1047C000AC01D7010E94C624EB01E80FF91FD60106
:1047D0000E940D242F913F91D6010E94C624C60F3E
:1047E000D71FE81FF91FAF91BF910E940D242F9191
:1047F0003F910E94C624C60FD71FE81FF91FD6019C
:104800000E94C624E60FF71F9801BE01CF011124B4
:104810000F911F91CF91DF9108950E94C624460FFA
:10482000571FC81FD91F08F431960895689401C016
:10483000E8948F929F92CF93DF930E942424DF917C
:10484000CF919F908F90089588249924F401E401DA
:10485000B0E49F93AA279A158B049C04ED05FE05EE
:10486000CF05D007A10798F4AD2FDC2FCF2FFE2F57
:10487000E92D982C892E982F872F762F652F542F6E
:10488000432F322F2227B85031F7BF9127C01B2E5C
:10489000BF91BB27220F331F441F551F661F771F71
:1048A000881F991F881C991CEE1FFF1FCC1FDD1F3E
:1048B000AA1FBB1F8A149B04EC05FD05CE05DF056E
:1048C000A007B10748F08A189B08EC09FD09CE093A
:1048D000DF09A00BB10B21601A94E1F62EF49401CC
:1048E000AF01BE01CD01000C089597FB10F816949E
:1048F00000080F93083098F00850232F342F452FCD
:10490000562F672F782F892F902DF4CF05949795E8
:1049100087957795679557954795379527950A9584
:10492000AAF70F9108952A0D3B1D4C1D5D1D6E1DAC
:104930007F1D801F911F08950024A7FD00942A0F5A
:10494000301D401D501D601D701D801D901D08955F
:104950002A193B094C095D096E097F09800B910BEF
:1049600008952A153B054C055D056E057F058007FA
:10497000910708950024A7FD00942A1730054005EB
:10498000500560057005800590050895A29FB0014F
:10499000B39FC001A39F700D811D1124911DB29F73
:1049A000700D811D1124911D08955058BB27AA2711
:1049B0000E94ED240C94B1250E94A32538F00E949A
:1049C000AA2520F039F49F3F19F426F40C94A02571
:1049D0000EF4E095E7FB0C949A25E92F0E94C2257E
:1049E00058F3BA17620773078407950720F079F424
:1049F000A6F50C94E4250EF4E0950B2EBA2FA02D0D
:104A00000B01B90190010C01CA01A0011124FF277B
:104A1000591B99F0593F50F4503E68F11A16F04076
:104A2000A22F232F342F4427585FF3CF4695379575
:104A30002795A795F0405395C9F77EF41F16BA0B3A
:104A4000620B730B840BBAF09150A1F0FF0FBB1FE8
:104A5000661F771F881FC2F70EC0BA0F621F731F31
:104A6000841F48F4879577956795B795F7959E3F8E
:104A700008F0B0CF9395880F08F09927EE0F97951F
:104A8000879508950E94762508F481E008950E9494
:104A9000CA2588F09F5798F0B92F9927B751B0F0E1
:104AA000E1F0660F771F881F991F1AF0BA95C9F7B2
:104AB00014C0B13091F00E94E425B1E008950C9447
:104AC000E425672F782F8827B85F39F0B93FCCF3FA
:104AD000869577956795B395D9F73EF4909580952F
:104AE000709561957F4F8F4F9F4F0895990F0008E4
:104AF000550FAA0BE0E8FEEF16161706E807F907B0
:104B0000C0F012161306E407F50798F0621B730B4A
:104B1000840B950B39F40A2661F0232B242B252BCB
:104B200021F408950A2609F4A140A6958FEF811D6E
:104B3000811D089597F99F6780E870E060E008950F
:104B40009FEF80EC089500240A94161617061806A5
:104B50000906089500240A94121613061406050681
:104B60000895092E0394000C11F4882352F0BB0F12
:104B700040F4BF2B11F460FF04C06F5F7F4F8F4F75
:104B80009F4F089557FD9058440F551F59F05F3FB0
:104B900071F04795880F97FB991F61F09F3F79F05F
:104BA00087950895121613061406551FF2CF4695E1
:104BB000F1DF08C0161617061806991FF1CF869563
:104BC0007105610508940895E894BB276627772747
:104BD000CB0197F908950E94762508F48FEF089588
:104BE0000E9403260C94B1250E94A32538F00E9450
:104BF000AA2520F0952311F00C949A250C94A02559
:104C000011240C94E5250E94C22570F3959FC1F3F1
:104C1000950F50E0551F629FF001729FBB27F00D6A
:104C2000B11D639FAA27F00DB11DAA1F649F6627BF
:104C3000B00DA11D661F829F2227B00DA11D621F0E
:104C4000739FB00DA11D621F839FA00D611D221FC8
:104C5000749F3327A00D611D231F849F600D211DAC
:104C6000822F762F6A2F11249F5750409AF0F1F02F
:104C700088234AF0EE0FFF1FBB1F661F771F881F98
:104C800091505040A9F79E3F510580F00C949A2511
:104C90000C94E5255F3FE4F3983ED4F38695779531
:104CA0006795B795F795E7959F5FC1F7FE2B880F3E
:104CB000911D9695879597F908950F931F93CF931C
:104CC000DF938230910510F482E090E0E0918D074F
:104CD000F0918E0720E030E0A0E0B0E0309719F1CD
:104CE000408151810281138148175907C8F0841708
:104CF000950769F4109731F012960C93129713965A
:104D00001C9327C000938D0710938E0722C0211596
:104D1000310519F04217530718F49A01BD01EF014C
:104D2000DF01F801DBCF21153105F9F0281B390B24
:104D30002430310580F48A819B816115710521F051
:104D4000FB019383828304C090938E0780938D0729
:104D5000FE01329644C0FE01E20FF31F819391934E
:104D600022503109398328833AC020918B07309132
:104D70008C07232B41F420910201309103013093E1
:104D80008C0720938B0720910001309101012115A0
:104D9000310541F42DB73EB7409104015091050112
:104DA000241B350BE0918B07F0918C07E217F3077A
:104DB000A0F42E1B3F0B2817390778F0AC014E5F8B
:104DC0005F4F2417350748F04E0F5F1F50938C0735
:104DD00040938B078193919302C0E0E0F0E0CF0114
:104DE000DF91CF911F910F910895CF93DF9300979B
:104DF00009F481C0FC01329713821282A0918D07C1
:104E0000B0918E07109781F420813181820F931F1A
:104E100020918B0730918C072817390751F5F093B3
:104E20008C07E0938B0767C0ED0120E030E0CE17E0
:104E3000DF0740F44A815B819E0141155105F1F085
:104E4000EA01F5CFD383C28340815181840F951F3E
:104E5000C817D90759F488819981840F951F029644
:104E6000918380838A819B8193838283211531057D
:104E700029F4F0938E07E0938D073DC0E901FB8391
:104E8000EA8349915991C40FD51FEC17FD0761F4CE
:104E900080819181840F951F0296E901998388830F
:104EA000828193819B838A83E0E0F0E012968D916A
:104EB0009C911397009719F0FD01DC01F7CF8D91BC
:104EC0009C9111979D012E5F3F4F820F931F209160
:104ED0008B0730918C072817390769F4309729F42C
:104EE00010928E0710928D0702C013821282B09327
:104EF0008C07A0938B07DF91CF91089581E090E01C
:104F0000F8940C94DA2785FD0C94D72780629111D0
:104F10000C94D72781568A51D8F7089591110C9493
:104F2000D72780538A5028F0865C8062815686504D
:104F3000B0F70895FB01DC0104C08D910190801948
:104F400021F441505040C8F7881B990B0895FB018C
:104F5000DC0102C001900D9241505040D8F70895F5
:104F60006817790768F4FB01DC01E40FF51FA40F53
:104F7000B51F02C002900E9241505040D8F70895DC
:104F80000C94A727DC0101C06D9341505040E0F71D
:104F90000895FB01DC014150504030F08D910190AB
:104FA000801919F40020B9F7881B990B08959927E7
:104FB0008827089510E0C9E3D0E004C0FE010E94F4
:0E4FC000B7232196CA33D107C9F7F894FFCF63
:104FCE0000008F072000270300000000C0003004FF
:104FDE001001100101001601160100000000000072
:104FEE0000000000000000000000530406012E0126
:104FFE002E0101003401340101003A013A013E0153
:10500E003E019A06C20600000000280000000000C3
:10501E00280052015201560156015A015A015E01F1
:10502E005E0162016201660166016A016A010100A8
:10503E0000000000000001000000000000007E01E2
:10504E007E0182018201860186018A018A018A1B04
:10505E00971B981B9401940135005D038C0314007B
:10506E00A303D4031B00EB031304000000006E0126
:10507E00000000009701640163726F775F736572C1
:10508E00766963655F68616E646C65002E312E31E2
:10509E0032372E302E302E313A313030303900004A
:1050AE0000000077177717771782020000000000C4
:1050BE00000000C502B902850297029E02000000A0
:1050CE0000C502B9028502A802AF02000000000D61
:1050DE0004B20388028202F2020103616C6C6F63F8
:1050EE003A20000D0A003A2028007074723A0071BE
:1050FE006F733A002C61636B3A002C6174696D3AE0
:10510E00002C616C656E3A002C666C656E3A002C54
:10511E00747970653A002C616464723A002C737471
:10512E00673A002C726573636F756E743A002C6467
:10513E006174613A007574696C7A00696E61636BB3
:10514E0000696E636F6D007770726F746F007472AA
:10515E0061636B007472616E7300776761746500D2
:10516E0063616E6E6F742063726561746520706129
:10517E00636B6574006E6F646570726F746F3A2046
:10518E007061636B657420666F7220756E726567F1
:10519E00697374726564206E6F6465006E6F64650A
:1051AE0070726F746F3A207061636B657420666FF6
:1051BE0072206E6F646500000000002A110C100B47
:1051CE0010000000007717B90285020000000000F1
:1051DE000000006812B90285023E1345130000005C
:1051EE00005A134F130B10071669163916F315F8DC
:1051FE0015FD15021666696C653A200066756E63BC
:10520E003A20006C696E653A20005F5F6378615FDB
:10521E00707572655F7669727475616C002F686F58
:10522E006D652F6D69726D696B2F70726F6A656334
:10523E00742F67656E6F732F67656E6F732F736351
:10524E0068656465655F6170692E6300637572726F
:10525E00656E745F736368656465655F6D736C65B9
:10526E006570002F686F6D652F6D69726D696B2F9C
:10527E0070726F6A6563742F67656E6F732F6765E3
:10528E006E6F732F6175746F6D5F736368656465A0
:10529E00652E63006175746F6D5F73636865646519
:1052AE00655F646973706C616365002F686F6D650F
:1052BE002F6D69726D696B2F70726F6A6563742FD3
:1052CE0067656E6F732F67656E6F732F7761697485
:1052DE002E6300776169745F63757272656E745FB9
:1052EE0073636865646565006A1D0000251400001F
:1052FE00D11D9C1D0000000072696E675F617661B2
:10530E00696C28267572696E672D3E747872696EA7
:0C531E00672900151FCA1FF71EE51E00BE
:00000001FF
