:100000000C9438000C9460000C9460000C94600018
:100010000C9460000C9460000C9460000C946000E0
:100020000C9460000C9460000C9460000C946000D0
:100030000C9460000C9460000C9460000C946000C0
:100040000C94A80E0C9460000C942D010C945C018F
:100050000C948B010C9460000C9460000C94600074
:100060000C9460000C946000F102AD034B0AF00A9E
:1000700011241FBECFEFD8E0DEBFCDBF14E0A0E05B
:10008000B1E0E8EFFBE402C005900D92AE3CB10791
:10009000D9F726E0AEECB4E001C01D92A13FB20753
:1000A000E1F710E0C8E3D0E004C02197FE010E9410
:1000B000DE1CC433D107C9F70E94C1010C94FA2594
:1000C0000C940000CF93DF93D92FC82F0992199277
:1000D0002992399249925992699279928992999288
:1000E000A992B992C992D992E992F9920993199376
:1000F0002993399349935993699379938993999360
:10010000A993B993BF91AF91A993B993E993F99347
:100110000F900F910F90099209930DB609920EB6A8
:1001200009920FB60992D72FC62F0CA00FBE0AA0B6
:100130000DBE0BA00EBE08A00F9209A00F9200E00A
:100140000F9309901990299039904990599069908E
:10015000799089909990A990B990C990D990E99097
:10016000F990099119912991399149915991699180
:10017000799189919991A991B991AF93BF93A991DF
:10018000B991E991F991CA2FDB2FBF91AF910895F1
:10019000D92FC82F0CA00FBE0AA00DBE0BA00EBEFB
:1001A00008A00F9209A00F920990199029903990F8
:1001B000499059906990799089909990A990B990B7
:1001C000C990D990E990F9900991199129913991A3
:1001D000499159916991799189919991A991B9918F
:1001E000AF93BF93A991B991E991F991CA2FDB2FF0
:1001F000BF91AF910895CF93DF93D92FC82F099264
:1002000019922992399249925992699279928992D6
:100210009992A992B992C992D992E992F9920993C5
:1002200019932993399349935993699379938993AE
:100230009993A993B993BF91AF91A993B993E99376
:10024000F9930F910F90099209930DB609920EB68A
:1002500009920FB609920C94BD181F920F920FB617
:100260000F9211242F933F934F935F936F937F933C
:100270008F939F93AF93BF93EF93FF93A6E0B1E06B
:100280001296ED91FC91139760E070E014968D91B9
:100290009C9115970995FF91EF91BF91AF919F9117
:1002A0008F917F916F915F914F913F912F910F901F
:1002B0000FBE0F901F9018951F920F920FB60F92BE
:1002C00011242F933F934F935F936F937F938F935B
:1002D0009F93AF93BF93EF93FF93A6E0B1E0129685
:1002E000ED91FC91139762E070E014968D919C91D2
:1002F00015970995FF91EF91BF91AF919F918F91C4
:100300007F916F915F914F913F912F910F900FBE11
:100310000F901F9018951F920F920FB60F921124F5
:100320002F933F934F935F936F937F938F939F93FD
:10033000AF93BF93EF93FF93A6E0B1E01296ED91D8
:10034000FC91139761E070E014968D919C91159744
:100350000995FF91EF91BF91AF919F918F917F91FF
:100360006F915F914F913F912F910F900FBE0F9022
:100370001F9018950E94550F0E943D1C0E94B216B6
:10038000F9CF0E941A1A0E94E6157894EE24E3949D
:1003900008E02EE640E052EC61E070E080EC90E096
:1003A0000E94811920E031E040E050E060E270E01E
:1003B00083E290E00E94DD1820E031E040E050E070
:1003C00062E070E083E290E00E94DD1820E031E01E
:1003D00040E050E064E070E083E290E00E94DD18CD
:1003E0000E9409020E94DA020E94BA0160E270E0F3
:1003F00083E290E00E94D91841E0811140E060E280
:1004000070E083E290E00E94CD1884E690E00C94C6
:100410005F1720E031E040E050E060E270E083E20E
:1004200090E00E94DD1840E050E066EF71E086E960
:1004300096E00E94EB1786E996E00C941716DC0113
:10044000ED91FC910190F081E02D40E050E0BA0187
:100450000994CF92DF92EF92FF92CF93DF93EC015A
:10046000CE80DF80E884F984A7019601FB016081DA
:100470007181828193810E94071E2A813B814C8178
:100480005D810E942920A70196010E94081E6E83AB
:100490007F8388879987DF91CF91FF90EF90DF90DE
:1004A000CF900895CF92DF92EF92FF92CF93DF9398
:1004B000EC016A017B018D81882321F0F7FAF09429
:1004C000F7F8F09420E030E0A901C701B6010E94DE
:1004D000741E81110CC064E08A819B810E942010EF
:1004E00060E08A819B810E944D1084E052C020E030
:1004F00030E0A901C701B6010E942420181604F5B6
:100500008C81823029F464E08A819B810E942010D2
:1005100020E030E04FE753E4C701B6010E942920F4
:100520000E94EB1E8A819B810E944D108C8181303C
:1005300029F061E08A819B810E94201081E029C01E
:1005400020E030E0A901C701B6010E94741E87FFB8
:1005500021C08C81813029F464E08A819B810E94D2
:100560002010C701B601905820E030E04FE753E477
:100570000E9429200E94EB1E8A819B810E944D10BF
:100580008C81823029F062E08A819B810E94201058
:1005900082E08C83DF91CF91FF90EF90DF90CF903E
:1005A000089540E456E066E376E086EF95E00E9429
:1005B000840F0895EF92FF920F931F93E12CF12C7B
:1005C00000E810E02EE035E040E050E061ED72E040
:1005D0008EE895E00E945A181F910F91FF90EF90BE
:1005E000089560E686EF95E00E94D70FE6EFF4E00D
:1005F00020E931E03183208384E0848315823783CE
:1006000026838287138635872487808B118A338BD4
:10061000228B868B178AECEEF4E08AE891E09183D6
:10062000808340E050E060E171E44283538364835F
:100630007583E2EEF4E09183808342835383648385
:100640007583E8EDF4E09183808340E050E060EA58
:1006500070E44283538364837583EEECF4E091830A
:10066000808342835383648375830895CF93DF939C
:10067000EC01892B11F40E94AC220E94B2038091FC
:100680004C0690914D06019790934D0680934C0631
:100690002091500630915106C217D30760F3809124
:1006A000520690915306820F931FC817D90718F767
:1006B00080914E0690914F0699838883D0934F0680
:1006C000C0934E06809156069091570601969093DE
:1006D000570680935606DF91CF910C94C603CF93B3
:1006E000DF930E94B203C0914E06D0914F0686E080
:1006F000CE34D80739F08881998190934F06809342
:100700004E0602C0C0E0D0E0809156069091570698
:1007100001979093570680935606209749F0809151
:100720004C0690914D06019690934D0680934C0691
:100730000E94C60380916206882359F084E991E003
:100740000E949314CE010E9481148CE991E00E94D2
:100750009314CE01DF91CF910895EEE4F6E0F1839A
:10076000E08308958FB7F89420915A0630915B0684
:10077000232B11F480935C0680915A0690915B06BE
:10078000019690935B0680935A06089580915A06CD
:1007900090915B06019790935B0680935A06809137
:1007A0005A0690915B06892B19F480915C068FBFE5
:1007B000089510925B0610925A06089580915A0689
:1007C00090915B060895FC019383828391838083DB
:1007D000049697838683958384837187608785E0F9
:1007E00090E0958784871786168681899289E80F1D
:1007F000F91F108A0895BF92CF92DF92EF92FF9275
:100800000F931F93CF93DF936C01B62E7A01062FBF
:1008100010E0C801840F951F0E946F03EC01892B23
:1008200099F08AE0E80EF11C0E0D1F1D1A8B098B42
:10083000BB8A88EC90E09E8B8D8B188A198E1C8A5F
:10084000B601CE010E94E303CE01DF91CF911F914B
:100850000F91FF90EF90DF90CF90BF9008954A9650
:100860000895FC01838908959C01265E3F4FFC0199
:100870008389A901480F511DCA010895FC012389EC
:1008800081899289821B91090A9708959C01265EAD
:100890003F4FFC018389A901480F511DCA010895EA
:1008A000CF93DF93EC018FE991E00E9493146A816A
:1008B0007B81888199810E94A60E8DE00E94A40E02
:1008C0008AE0DF91CF910C94A40ECF93DF93DC01EB
:1008D000ED91FC91309789F0EC01868581508687F7
:1008E00088819981FC01268527FD0E94AC22211177
:1008F00002C00E94E40419821882DF91CF9108950A
:100900000C946504CF93DF93FC01C081D181A28157
:10091000B381BB83AA83CD93DC939383828391833A
:100920008083DF91CF910895CF93DF93EC01809185
:100930006206882329F0BE0186EA91E00E949F1298
:10094000A881B981EA81FB811396FC93EE931297FB
:10095000B183A0832EED30EC398328838EED99ECA2
:100960009B838A83AC81BD81EE81FF811396FC93CA
:10097000EE931297B183A0833D832C839F838E8354
:10098000CE01DF91CF910C943603CF93DF93FC011E
:10099000718360836115710589F0FB01EC01868527
:1009A00087FD0E94AC220E94B203E881F98186850E
:1009B0008F5F8687DF91CF910C94C603DF91CF9133
:1009C0000895809163060895CF93DF93EC010E9410
:1009D000B2038F8581FF07C08E85811104C0CE01CF
:1009E0000E94940403C08F8581608F87DF91CF912F
:1009F0000C94C603CF93DF93EC010E94B203CE01A7
:100A00000E9482048F8580FF07C08E85811104C0FB
:100A1000CE010E94940403C08F8582608F87DF918E
:100A2000CF910C94C603CF92DF92EF92FF921F9367
:100A3000CF93DF937C01C0910E01D0910F0181E033
:100A4000CE30D80759F12F89388DF7018789908DDD
:100A500028173907F9F413898B8918131BC0C701AC
:100A60000E942F046C01CE010E942F04412F50E000
:100A7000B6010E94DE22892B69F48F8584608F87FE
:100A8000CE01DF91CF911F91FF90EF90DF90CF903B
:100A90000C94FA040990D881C02DD1CFDF91CF9169
:100AA0001F91FF90EF90DF90CF900895FC01428559
:100AB000538585899689480F591FFB012285338507
:100AC00085899689280F391F81E04217530708F05E
:100AD00080E008950F931F93CF93DF938C01EB0178
:100AE0000E94B203E0911801F0911901FB83EA839F
:100AF00086E191E099838883D0931901C09318010E
:100B0000D183C0830E94C603E0916806F091690614
:100B1000309709F00995BE01C8010E94C504C801BB
:100B2000DF91CF911F910F910895CF92DF92EF92B5
:100B3000FF920F931F93CF93DF9300D0CDB7DEB713
:100B40007C0140E050E0FC01638980E090E00E947D
:100B5000FB038C01E114F10411F40E94AC22892BF7
:100B6000E1F381E0F701918D923009F080E0880F88
:100B7000880F880FF80190899770892B8160808B8E
:100B8000118EF70185899689F801968B858BF7017F
:100B90008789908DF801908F878BF701C388D12CBE
:100BA000C7010E942F047C01C8010E942F04A601E6
:100BB000B7010E94EB22F801878581608787B80121
:100BC000CE0101960E946A05CE0101960E94800422
:100BD0000F900F90DF91CF911F910F91FF90EF90A9
:100BE000DF90CF900895AF92BF92CF92DF92EF92B5
:100BF000FF920F931F93CF93DF9300D000D0CDB718
:100C0000DEB78C0180916B0690916C0601969093F3
:100C10006C0680936B06D80154968C91549753962A
:100C20009C9189131BC0C8010E942F047C01C8013C
:100C30000E942F04F8012389DC01A20FB11DF701E6
:100C4000EA17FB0709F4A7C01197EA17FB0709F495
:100C5000A2C08C9190819C938193F2CFD801189679
:100C60002D913C911997232B21F190916A069111B6
:100C700020C080915D0690915E06892B91F481E001
:100C800090E090935E0680935D068FEB91E09A83EF
:100C900089838BEA90E09C838B83CE0101960E942E
:100CA00050040E94B203C8010E9494040E94C6032B
:100CB000D5C1F801E80FF11DE28CF12CC7010E94AB
:100CC000FF086C01892BE9F5C7010E94E9087C0146
:100CD000892B61F1F80190898091630690FF0AC029
:100CE000882379F080916D0681110BC0B8018BE6E5
:100CF00092E005C0882329F0B80181E792E00E94C4
:100D00009F12D8011F968C911F9784FD0E94AC22E0
:100D100080611F968C93D7011496ED91FC911597E5
:100D20000190F081E02DB801C7010995809163061B
:100D3000882309F4B6CFB80187E792E00E949F129A
:100D4000B0CFF80190898091630690FF0AC0882394
:100D500079F080916D0681110BC0B8018BE692E0AD
:100D600005C0882329F0B80181E792E00E949F1214
:100D7000D8011F968C911F9784FDC8CF80611F9664
:100D80008C93D601ED91FC910190F081E02DB8019A
:100D9000C601099563C1F80190898091630690FFAF
:100DA0008CC0882349F080916D06811105C0B8017F
:100DB0008CEA91E00E949F12D80150968C91869502
:100DC00086958695813069F040F0823009F069CFD0
:100DD000E0901201F090130156C0C8010E94130563
:100DE00060CFC8010E94130540E050E0F80163891C
:100DF00080E090E00E94FB037C010115110509F4DD
:100E000085CF009709F482CFDC0150968C915097E2
:100E100087708061816050968C93509759961C9290
:100E20005997F8018589968956969C938E93559784
:100E30008789908D58969C938E935797C388D12C11
:100E4000C8010E942F045C01C7010E942F04A60163
:100E5000B5010E94EB22B701CE0101960E946A05FE
:100E6000CE0101960E9480041CCFD70157962D9188
:100E70003C915897F8018789908D2817390749F0D8
:100E8000D701ED90FC90F2E1EF16F1E0FF0669F773
:100E900008CFD38853968C91D812F2CFC8010E9404
:100EA0002F045C01C7010E942F044D2D50E0B501B5
:100EB0000E94DE22892B21F7C9C0882329F0B801BE
:100EC00082EB91E00E949F12D80118968D919C911F
:100ED0001997892B09F474C059968C9181508230EE
:100EE00018F4C8010E949505F801818D823009F03F
:100EF0005CC0E0901201F0901301F2E1EF16F1E016
:100F0000FF0609F1D70157962D913C915897F801AA
:100F10008789908D2817390709F09CC05396DC907B
:100F20008389D81297C0C8010E942F045C01C701B1
:100F30000E942F044D2D50E0B5010E94DE22892B26
:100F400009F088C0AECE0E94B2030E94550FD801AE
:100F50001A962C931A971B963C93E0901201F090EE
:100F60001301B2E1EB16B1E0FB0651F0B701C80185
:100F70000E945605811104C0F701E080F180F1CF95
:100F8000D7011296ED91FC911397D8011396FC931B
:100F9000EE931297ED92FC92D70113961C930E9349
:100FA0001297118300830E94C603F8018085918502
:100FB000892B31F0818D823019F0C8010E94FA042A
:100FC000E0916406F0916506309769F5A0911A01E9
:100FD000B0911B011297F1E0A831BF07F1F0F801C1
:100FE000808986958695869516969C911697981376
:100FF0000FC081E080936106ED91FC911197019003
:10100000F081E02DB801CD0109951092610626C04E
:1010100012960D90BC91A02DDDCFE0916606F09167
:101020006706309731F081E080936106C801099529
:10103000ECCF80916306882329F0B80188EB91E01A
:101040000E949F12C8010E94E40408C0C7010E94C8
:10105000FA0427CEF701E080F1804FCF0F900F9078
:101060000F900F90DF91CF911F910F91FF90EF9014
:10107000DF90CF90BF90AF9008950F931F93CF93C1
:10108000DF938C01EB011C8A88898E7F888B0E94FC
:10109000B20380915F06909160069C012F5F3F4FE5
:1010A0003093600620935F06988F8F8B0E94C60353
:1010B000BE01C8010E94C504CE010E94F305E09163
:1010C0006806F0916906309719F0898D81110995AC
:1010D000C801DF91CF911F910F9108954F925F92B8
:1010E0006F927F928F929F92AF92BF92CF92DF9238
:1010F000EF920F931F93CF93DF934C013B015A0163
:10110000220F331F220F331F2A01420E531EFA01F2
:10111000C0E0D0E0E415F50531F082819381C80F7D
:10112000D91F3496F7CFC3010E942009AE01682F62
:1011300080E090E00E94FB03EC01892B21F4F40194
:101140001182108235C0000F000F000F8889877050
:10115000082B088BE98EDE8ACD8AC3010E94200904
:101160008C01C3010E941C093C01CE010E942F0486
:10117000A801B3010E94EB22CE010E9434048C012D
:10118000A414B50489F0F501608171814281538115
:10119000C8010E94EB22F50182819381080F191F7B
:1011A000F4E0AF0EB11CECCFBE01C4010E943D08BB
:1011B000C401DF91CF911F910F91EF90DF90CF90FD
:1011C000BF90AF909F908F907F906F905F904F9067
:1011D0000895E0912001F091210121E0E032F20731
:1011E00049F0268130E02817390739F00190F08165
:1011F000E02DF3CF80E090E00895CF010895E091D5
:101200002401F0912501329721E0E232F20749F002
:10121000268130E02817390739F00280F381E02D6C
:10122000F2CF80E090E00895CF010895FC01718332
:101230006083538342830895FC01808191810895E6
:10124000FC018281938108950895CF93DF93EB0190
:10125000CB010E943404A0912801B091290112977A
:1012600021E0A632B207D1F01A964D915C911B97FE
:10127000FC01208131814217530759F4ED91FC9113
:1012800011970280F381E02DBE01CD01DF91CF9156
:10129000099412960D90BC91A02DE1CFCE01DF9163
:1012A000CF910C94E404CF92DF92EF92FF920F93D0
:1012B0001F93CF93DF93CDB7DEB765970FB6F89442
:1012C000DEBF0FBECDBF8B015D8B4C8B1D86CB016E
:1012D0000E943404FC01828193819A878987C80126
:1012E0000E943404FC01808191819C878B878D85CD
:1012F0008F7080618D87CE0109969A83898385E0FE
:1013000090E09C838B83CE0144969E838D8382E004
:1013100090E098878F83F801C588D688C8010E941D
:101320002F047C01C8010E943104482F50E0B7010E
:10133000CE010E960E941609E12C03E022E030E077
:10134000AE014F5F5F4FBE01625F7F4FCE0142969D
:101350000E946E08CE0142960E94800465960FB6E8
:10136000F894DEBF0FBECDBFDF91CF911F910F91DB
:10137000FF90EF90DF90CF900895CF93DF93EB0134
:101380000E94931480E20E94A40E888199810E9499
:1013900027158DE00E94A40E8AE0DF91CF910C9476
:1013A000A40ECF92DF92EF92FF920F931F93CF93F1
:1013B000DF936C018B01CB010E9446047C01C0913C
:1013C0002801D0912901229781E0C632D80771F017
:1013D0002A853B85F701828193812817390721F0FF
:1013E0000A80DB81C02DEFCF209791F40E94E104A9
:1013F000882339F0B7016E5F7F4F82E992E00E9447
:10140000BD0941E250E0B801C6010E9453092FC056
:101410000E94E104882339F0B7016E5F7F4F89EBAA
:1014200092E00E94BD09F701848182958F7079F066
:10143000813041F5C8010E943E04C8010E94340475
:10144000FC0165817681CE010E946A0A10C0E881A4
:10145000F9810190F081E02DB801CE01DF91CF91AB
:101460001F910F91FF90EF90DF90CF900994C801EA
:10147000DF91CF911F910F91FF90EF90DF90CF9070
:101480000C94E404DF91CF911F910F91FF90EF90A6
:10149000DF90CF900895CF93DF93EEE6F6E083E000
:1014A0008683AAE1B1E01296CD91DC911397D583A2
:1014B000C483B383A28380E796E013969C938E93B4
:1014C00012979983888388ED92E091838083DF91DE
:1014D000CF91089506960C948111DC011D96ED9133
:1014E000FC911E97CB01309709F009940C94E40409
:1014F0008F929F92AF92BF92CF92DF92EF92FF9224
:101500000F931F93CF93DF9300D0CDB7DEB76C015D
:101510007B01DC011B96ED91FC911C97CB01309770
:1015200011F009954EC00E9446044C01B4E08B0EA8
:10153000911CFC01A180B12CD60117960D911C9134
:10154000189702501109B7E0CB0ED11CC8010296C2
:101550008C159D0599F1F80162857385A501C4017B
:101560000E94FF22D801892B11F5ED91FC91C080DA
:10157000D180FA82E982E114F10471F0F7018685E5
:1015800087FD0E94AC220E94B203E981FA81868520
:101590008F5F86870E94C603BE016F5F7F4FC801C1
:1015A000F6010995CE0101960E9480040AC01296A8
:1015B0000D911C91139702501109C8CFC7010E94C9
:1015C000E4040F900F90DF91CF911F910F91FF9046
:1015D000EF90DF90CF90BF90AF909F908F90089545
:1015E000CF93DF93E5E7F6E084E08683AAE1B1E0FC
:1015F0001296CD91DC911397D583C483B383A283D4
:1016000087E796E013969C938E931297998388832D
:1016100082EE92E0918380838CE796E090878783C7
:1016200092878187DF91CF910895DC01ED91FC9144
:101630000190F081E02D42E050E06CE971E0099406
:10164000FB0101900020E9F73197AF01461B570BD2
:10165000DC01ED91FC910190F081E02D09940C9456
:10166000200BDB0112964D915C9113976D917C914B
:10167000DC01ED91FC910190F081E02D09942F9215
:101680003F924F925F926F927F928F929F92AF9212
:10169000BF92CF92DF92EF92FF920F931F93CF935F
:1016A000DF93CDB7DEB727970FB6F894DEBF0FBE36
:1016B000CDBF6C013A018B01512CA12CB12CD8016A
:1016C0008C91882309F4ECC08B3709F0A6C078010F
:1016D000BFEFEB1AFB0AF80181818B37A9F48F83E6
:1016E000D601ED91FC910190F081E02D41E050E0B8
:1016F000BE01695F7F4FC60109957801B2E0EB0E2C
:10170000F11C21E030E085C0082F880F110BC801C3
:101710000E94B422892BF1F11701812C912CF10147
:1017200001911F01002E000C110BC8010E94B42270
:10173000892B29F4005311090A30110520F4FFEF19
:101740008F1A9F0AECCFD3012D903C90412C842D11
:1017500090E0F301028113818215930508F04CC0DB
:10176000F6E04F9E000D111D1124D8011296ED9147
:10177000FC911397828193818816990609F065C0C0
:1017800060817181A401C7010E94FF22892B09F0A9
:101790005CC032C0005311090A301105F0F44AE070
:1017A00050E0BE016B5F7F4FC7010E94B721F3017C
:1017B000208131816217730710F00E94AC22F6E09D
:1017C000F69F9001F79F300D1124D30112960D91D1
:1017D0001C911397020F131F0FC0852D90E0F3018A
:1017E000208131818217930740F702811381F6E04F
:1017F0005F9E000D111D1124C7017C01DC012C919D
:1018000001962D3721F12A3339F12111F6CF2FEF2F
:101810003FEFA20EB31E870152CFA8017A01FA0151
:101820008191882321F08B3711F0AF01F7CF401B56
:10183000510BD601ED91FC910190F081E02DB801A2
:10184000C6010995A80EB91EE6CF439480CF1A822F
:1018500019821C821B820BC07C016DE770E00E9424
:10186000F422FA82E9828E199F099C838B83D80126
:101870001496ED91FC911597AE014F5F5F4FB60145
:101880008D919C910995F7017F0121912D3711F0E0
:101890002111FACFBFEFEB1AFB0A53949C01B9CF89
:1018A000C50127960FB6F894DEBF0FBECDBFDF91FE
:1018B000CF911F910F91FF90EF90DF90CF90BF904D
:1018C000AF909F908F907F906F905F904F903F90E0
:1018D0002F9008950F931F93CF93DF9300D0CDB730
:1018E000DEB7FC017A836983862F972FDC012C9168
:1018F000422F022E000C550B405351094A3051051E
:1019000070F48F014AE050E0BE016F5F7F4F0E948C
:10191000B721F8017583648389819A8120C02E33B1
:10192000A1F02CF42C33C1F41182108215C02E3595
:1019300079F0263689F49C012F5F3F4F3A83298343
:10194000DC0111968C91868307C081E090E002C093
:1019500082E090E09183808389819A8101960F9043
:101960000F90DF91CF911F910F9108950F931F93C7
:10197000CF93DF93EC011982188282E090E09B8381
:101980008A831D821C8280E28E83FB01808191818B
:1019900002811381080F191F8017910729F0BC01DC
:1019A000CE010E946A0CF8CFDF91CF911F910F9169
:1019B00008958F929F92AF92BF92CF92DF92EF9253
:1019C000FF921F93CF93DF937C014B015A01690172
:1019D000D90114968D919C911597841B950B18161F
:1019E000190604F52D913C912130310509F44BC0C5
:1019F0002230310521F0232BA9F4182F14C0AC019B
:101A000055954795142F80FF03C0CA0101963CC02D
:101A10004115510541F0F6016681C7010E94F50D9F
:101A2000EC0103C010E0C0E0D0E0D60112968D9129
:101A30009C911397009731F4A501B401C7010E944E
:101A4000140E12C0019731F4A501B401C7010E9420
:101A5000370E0AC0D701ED91FC910190F081E02D85
:101A6000A501B401C7010995C80FD91F112371F051
:101A7000412F110F550BF6016681C7010E94F50D2C
:101A8000C80FD91F03C010E0AC01C5CFCE01DF9154
:101A9000CF911F91FF90EF90DF90CF90BF90AF90CC
:101AA0009F908F900895AF92BF92CF92DF92EF9266
:101AB000FF920F931F93CF93DF93CDB7DEB7279796
:101AC0000FB6F894DEBF0FBECDBF7C018B011A822A
:101AD000198282E090E09C838B831E821D8280E2CB
:101AE0008F83FA0180819181C280D380C80ED91E74
:101AF000AA24A394B12CC816D906A1F0FC01208118
:101B00002C3629F0253731F41C821B8209C0BC8297
:101B1000AB8206C0BC01CE0101960E946A0CEBCFDD
:101B20000196E9CFF80101900020E9F73197AF0164
:101B3000401B510B9E012F5F3F4FB801C7010E9410
:101B4000D90C27960FB6F894DEBF0FBECDBFDF913C
:101B5000CF911F910F91FF90EF90DF90CF90BF90AA
:101B6000AF9008950C94530DEF92FF920F931F9333
:101B7000CF93DF93CDB7DEB7A7970FB6F894DEBF4C
:101B80000FBECDBF7C01162F072FBA01CE01819663
:101B90000E94B60C0F931F938DEF92E09F938F934B
:101BA0008E010F5F1F4F1F930F930E9449239E01C9
:101BB0002F5D3F4FAC01B801C7010E94D90C0F90B7
:101BC0000F900F900F900F900F90A7960FB6F8946C
:101BD000DEBF0FBECDBFDF91CF911F910F91FF9060
:101BE000EF90089570E00C94B40DEF92FF920F9374
:101BF0001F93CF93DF937A01C42FDF2D062F660F3B
:101C0000110B209749F06091EB067091EC06C8012A
:101C10000E940D232197F5CFC701DF91CF911F912E
:101C20000F91FF90EF900895EF92FF920F931F9303
:101C3000CF93DF938A01EB017B01E40EF51ECE15F5
:101C4000DF0569F08991082E000C990B0E94D622BD
:101C50006091EB067091EC060E940D23F0CFC80155
:101C6000DF91CF911F910F91FF90EF900895EF9228
:101C7000FF920F931F93CF93DF938A01EB017B01B8
:101C8000E40EF51ECE15DF0569F08991082E000CD3
:101C9000990B0E94CE226091EB067091EC060E9497
:101CA0000D23F0CFC801DF91CF911F910F91FF90CD
:101CB000EF9008959093870680938606709385062B
:101CC000609384060895E0918606F0918706309728
:101CD00049F00190F081E02D682F80918406909169
:101CE0008506099480E090E00895AB01E0918606B6
:101CF000F0918706309749F00480F581E02DBC0112
:101D00008091840690918506099480E090E0089582
:101D10000F931F93CF93DF93809186069091870650
:101D2000892B59F08A01EB01060F171FC017D10745
:101D300021F089910E94630EF9CF80E090E0DF915D
:101D4000CF911F910F9108950C94630E0C94750E12
:101D50001F920F920FB60F9211242F933F934F9320
:101D60005F936F937F938F939F93AF93BF93EF9303
:101D7000FF930E94F60EFF91EF91BF91AF919F915B
:101D80008F917F916F915F914F913F912F910F9024
:101D90000FBE0F901F901895CF92DF92EF92FF9297
:101DA0000F931F93CF93DF930E94B203C0908806D6
:101DB000D0908906E0908A06F0908B0600918C0600
:101DC00010918D06D0918E06C0918F060E94C60399
:101DD0009601A701B8018D2F9C2FDF91CF911F9104
:101DE0000F91FF90EF90DF90CF900895209188069B
:101DF0003091890640918A0650918B0660918C063D
:101E000070918D0680918E0690918F06A1E00E94C0
:101E1000CE1D209388063093890640938A065093FE
:101E20008B0660938C0670938D0680938E0690933C
:101E30008F060895CF93DF939B01AC0160E078EEAD
:101E400083E090E00E94BC1CDA01C90120933401B8
:101E500090933501A0933601B09337011092380169
:101E60001092390110923A0110923B010E945A1AC5
:101E70009B01AC0160E070EA8FE090E00E94BC1C26
:101E8000DA01C90120932C0190932D01A0932E011A
:101E9000B0932F0110923001109231011092320153
:101EA00010923301DF91CF910895AF92BF92CF92FC
:101EB000DF92EF92FF920F931F930E94CC0EA0909F
:101EC0003401B0903501C0903601D0903701E090D8
:101ED0003801F090390100913A0110913B010E94C4
:101EE000EF1C08E00E94A91D1F910F91FF90EF9039
:101EF000DF90CF90BF90AF90089520E030E040E0B9
:101F000050E0CD960C945A10EF92FF920F931F93CE
:101F1000CF93DF937C01EA01FC01718360838C0124
:101F2000035C1F4FC8010E94D210F701D483C38302
:101F3000BE0180E090E00E941A1FAB01BC01C80105
:101F40000E94D710C0E020E030E040E050E06C2F6D
:101F5000C8010E945A10CF5FC031A9F7DF91CF911D
:101F60001F910F91FF90EF9008959A01CD96211542
:101F700040E1340728F020E030E040E050E102C0CA
:101F800040E050E00C945A10411102C00C947D0FB7
:101F900020E030E040E050E1CD960C945A10FC0176
:101FA0001482138215821282118210820895AF92D8
:101FB000BF92DF92EF92FF920F931F93CF93DF9325
:101FC00000D01F92CDB7DEB78C01D62E7C0185E004
:101FD000E80EF11C5801EDE1AE0EB11CC7010E94E4
:101FE000CF0FF6E0EF0EF11CAE14BF04B9F7F80105
:101FF00011A614A610A617A211AE14AE10AE17AA01
:1020000060E4C801CD960E945710F801D2826D2D70
:10201000CE0101960E94571089819A81AB81F80107
:1020200085AF96AFA7AF0F900F900F90DF91CF9134
:102030001F910F91FF90EF90DF90BF90AF900895A8
:10204000CF93DF93EC01623061F06430B9F061301E
:1020500009F56A818B819C810E947D0F41E0698135
:1020600007C069818B819C810E947D0F41E06A815C
:102070008B819C81DF91CF910C94C40F69818B81FE
:102080009C810E947D0F6A818B819C81DF91CF9121
:102090000C947D0FDF91CF91089520E1629FA00104
:1020A0001124FC016081838194810C94B50FFC01A3
:1020B000628308950F931F93CF93DF9300D000D0D6
:1020C0001F92CDB7DEB7660F660F6A5F69834A83DA
:1020D0005B832C833D83FC01A081B181ED91FC9158
:1020E00011970281138125E030E0AE014F5F5F4F11
:1020F000FC016281CD01F80109950F900F900F90BE
:102100000F900F90DF91CF911F910F910895EF9253
:10211000FF920F931F93CF93DF9300D0CDB7DEB71D
:102120006983EE24E394F12C8E010E5F1F4F21E0B2
:1021300030E0AE014F5F5F4FFC0162818081918191
:102140000E94AB1C8A810F900F90DF91CF911F915D
:102150000F91FF90EF9008950F931F93CF93DF930C
:1021600000D0CDB7DEB769834A83FC01A081B1817D
:10217000ED91FC9111970281138122E030E0AE01D4
:102180004F5F5F4FFC016281CD01F80109950F900F
:102190000F90DF91CF911F910F91089540E060E083
:1021A0000C94AC10FC01718360830C94CE10CF9220
:1021B000DF92EF92FF921F93CF93DF93EC01CB015D
:1021C000BA0126E636E646E65FE30E9429209B0137
:1021D000AC0160E27CEB8EEB95E40E94791E20E07E
:1021E00030E040E85FE30E94071E20E030E040E07E
:1021F0005FE30E94081E0E94571F6B017C0160E094
:10220000CE010E948710182F482F4F76406160E062
:10221000CE010E94AC10C701B6010E94EB1E462FF2
:102220006EEFCE010E94AC10412F60E0CE010E9403
:10223000AC1085E090E00E945F17412F416A60E09A
:10224000CE01DF91CF911F91FF90EF90DF90CF9063
:102250000C94AC108DE00E94A40E8AE00C94A40EA5
:10226000CF93DF9300D000D000D0CDB7DEB7498345
:102270005A836B837C838D839E8389E093E00E94E5
:1022800093148B819C810E9493140E942A1180E1F7
:1022900093E00E9493148D819E810E9493140E946A
:1022A0002A1187E193E00E94931489819A810E9408
:1022B000271526960FB6F894DEBF0FBECDBFDF916F
:1022C000CF910C942A11DC0115967C936E93149790
:1022D00016962C91213069F0223081F4DC0117969A
:1022E000ED91FC91189719968D919C911A970995EB
:1022F00002C00E94C71880E090E008958FEF9FEF22
:1023000008950F931F93CF93DF93EC018B010E94ED
:10231000B203E881F981CE17DF0781F0C081D18156
:10232000A281B381BB83AA83CD93DC93F383E28341
:10233000F183E083B801CF010E946311DF91CF9157
:102340001F910F910C94C603CF92DF92EF92FF92F0
:102350000F931F93CF93DF93EC01E880F980E11492
:10236000F10429F08A819B8186179707A0F48B01DD
:10237000CB010E9496206C014C815D81B7010E94C7
:10238000EB22C114D10449F0D982C8821B830A838D
:10239000C7010E942E2181E001C080E0DF91CF9132
:1023A0001F910F91FF90EF90DF90CF900895CF9203
:1023B000DF92EF92FF920F931F93CF93DF936115FC
:1023C000710511F480E01CC041155105C1F08A016E
:1023D0006B01EC01EC80FD80E40EF51EB7010E945C
:1023E000A411882379F3288139818C819D81A801EA
:1023F000B601820F931F0E94EB22FD82EC8281E0E6
:10240000DF91CF911F910F91FF90EF90DF90CF90D0
:102410000895CF92DF92EF92FF920F931F93CF9385
:10242000DF93EC016B018A01198218821B821A82E8
:102430001D821C827A01EE0CFF1CC7010E949620AF
:10244000009721F099838883FB82EA828A819B81AD
:102450008E159F0510F40E94AC22FD82EC8248810B
:102460005981F6010C0D1D1D0E171F07D1F09F019C
:10247000808182958F708A3010F4805D01C0895C04
:10248000DA018C933196D9018C918F708A3010F4D7
:10249000805D01C0895CDA0111968C934E5F5F4FBD
:1024A000E3CFCE01DF91CF911F910F91FF90EF907D
:1024B000DF90CF900895FC01CB01608171810C9475
:1024C000B20DFC01CB0160810C94F20DFC01CB013B
:1024D000608171810C94B40DCF93DF9300D000D054
:1024E000CDB7DEB7FC01CB0124813581408151811C
:1024F0005A8349833C832B83BE016F5F7F4F0E94C9
:10250000310B0F900F900F900F90DF91CF910895A6
:102510000F931F93CF93DF93C0915806D091590624
:10252000BC01CE010E942F0B8C01CE010E94150B25
:10253000800F911FDF91CF911F910F9108952F92DE
:102540003F924F925F926F927F928F929F92AF9243
:10255000BF92CF92DF92EF92FF920F931F93CF9390
:10256000DF93CDB7DEB7CA56D1090FB6F894DEBFF8
:102570000FBECDBF2E0127E6420E511CD2018D9316
:102580009C938B01CB010E943E043C01E0911E0113
:10259000F0911F01AB96FFAFEEAFAB97C8010E9461
:1025A0003E04C0901E01D0901F01C816D90620F02D
:1025B000C8010E943E046C01C8010E9434047E01DF
:1025C000F9E4EF0EF11CD70111961C921E9213969E
:1025D0001C921E92129715961C921E9214975C01E3
:1025E0004C018C0C9D1C8A149B0409F466C0F501F7
:1025F00031905F01C32C032C000CDD08C6010E9442
:10260000BE22892B49F0A4963FAEA49741E050E04A
:10261000BE016D597F4F4DC0FAE03F1205C042E048
:1026200050E06EE173E045C029E0321205C042E09F
:1026300050E061E273E03DC06CE5361205C042E057
:1026400050E064E273E035C070EFC722DD24C601BC
:1026500054E0959587955A95E1F78A3018F440E350
:10266000C42E02C037E3C32EC80E832D8F708A306C
:1026700018F420E3322E02C097E3392E380E42E0E0
:1026800050E067E273E0C7010E94D711A296CFAE77
:10269000A29741E050E0BE016F597F4FC7010E94F1
:1026A000D711A3963FAEA39741E050E0BE016E590B
:1026B0007F4FC7010E94D71196CFC8010E943E04E8
:1026C0001E01ABE52A0E311CF10191838083C80104
:1026D0000E943104B82EC8010E942F046E01F0E55B
:1026E000CF0ED11C4B2D50E0BC01C6010E94091237
:1026F0005E0124E6A20EB11CD80150964C91509771
:10270000842F869586958695F501808351968D91C7
:102710009C9152976F969FAF8EAF6F97DE01AB592A
:10272000BF4FF80183898C939E01215A3F4F8589C1
:102730009689F90191838083BE016A597F4F417068
:10274000FB01408380905806909059065A82498236
:10275000AE01495A5F4F5C834B838BE592E19E83C8
:102760008D83C801499698878F835A87498781E668
:1027700092E19C878B877E876D87588B4F879A8BDA
:10278000898B3C8B2B8B5E8B4D8B26E632E1388F11
:102790002F8BBA8FA98F5C8F4B8F9E8F8D8F6DE59E
:1027A00070E06C0F7D1F78A36F8F5AA349A33CA3E1
:1027B0002BA3BEA2ADA258A74FA39AA789A7B80181
:1027C000695E7F4F7CA76BA75EA74DA738AB2FA78D
:1027D000DAAAC9AA5CAB4BAB6CE672E17EAB6DAB1F
:1027E0000C5E1F4F18AF0FAB5AAF49AF9CAF8BAF0A
:1027F0003EAE2DAE21965FAF4EAF219723963FAFF1
:102800002EAF23972596FFAEEEAE259727965FAFA6
:102810004EAF279729967FAF6EAF29978CE090E057
:10282000DA0111969C938E93CE01019613969C9398
:102830008E9312976AE273E0C4010E943F0BF60187
:1028400080819181009711F00E942E21D7018D91F6
:102850009C91009711F00E942E21AB96EEADFFAD3A
:10286000AB97E615F70518F48FE893E002C082E90C
:1028700093E00E948812C659DF4F0FB6F894DEBF6E
:102880000FBECDBFDF91CF911F910F91FF90EF90C1
:10289000DF90CF90BF90AF909F908F907F906F9080
:1028A0005F904F903F902F9008958A3010F4805D94
:1028B00001C0895C0C94A40ECF93C82F82958F70B1
:1028C0000E9455148C2F8F70CF910C9455140F9338
:1028D0001F93CF93DF938C01060F171FEB01C01BD3
:1028E000D10BC8018C0F9D1F892B31F0F80182910B
:1028F0008F010E945C14F5CFDF91CF911F910F9152
:102900000895CF93DF9300D0CDB7DEB79A83898344
:1029100062E070E0CE0101960E9467140F900F9064
:10292000DF91CF910895009711F0FC010CC08EE467
:102930000E94A40E85E50E94A40E8CE40E94A40EC1
:102940008CE40C94A40EBF01681B790B219121111A
:10295000FACF0C94A60E2F923F924F925F926F92F5
:102960007F928F929F92AF92BF92CF92DF92EF921F
:10297000FF920F931F93CF93DF93CDB7DEB76A9784
:102980000FB6F894DEBF0FBECDBF29013A014B014F
:102990001C01A0E00E94EC1D19F480E30E94A40E2B
:1029A000188ECE0148969A8F898F9201A301B401A7
:1029B000C101A0E00E94EC1D01F18AE0A82EB12C1B
:1029C000C12CD12CE12CF12C00E010E09201A301EC
:1029D000B401C1010E94481D205DE98DFA8D22934A
:1029E000FA8FE98F9201A301B401C1010E944A1D2F
:1029F00029013A014B011C01D8CF898D9A8D0E9483
:102A000093146A960FB6F894DEBF0FBECDBFDF9168
:102A1000CF911F910F91FF90EF90DF90CF90BF90DB
:102A2000AF909F908F907F906F905F904F903F906E
:102A30002F900895CF93DF939C0140E050E060E039
:102A400070E080E090E0DF91CF910C94AB140C9497
:102A50001A158091900690919106089580919406A0
:102A60009091950620914801309149012A523109EF
:102A7000AC014F5F5F4F11F4029601C0CA01F9012A
:102A800041E0EE31F40751F044A155A184179507B8
:102A900079F302A4F3A5E02DBA97F2CF90939506AF
:102AA00080939406089580919206909193062091C8
:102AB0004801309149012A523109AC014F5F5F4F03
:102AC00011F4029601C0CA01F90141E0EE31F407A8
:102AD00051F046A157A18417950779F302A4F3A5F5
:102AE000E02DBA97F2CF90939306809392060895C3
:102AF000EF92FF920F931F93CF93DF93EC01F62E8B
:102B0000E42E89018A96A0914801B0914901FD0106
:102B100021E0E834F20741F08E179F0709F445C021
:102B20000190F081E02DF4CF1C861B861A869E0151
:102B30002A5F3F4F398728873F832E83FDA7ECA765
:102B4000BBA7AAA713969C938E93129790934901C3
:102B5000809348010E942E159DA38CA3E0FE07C020
:102B6000E0919006F091910686A197A102C00E9483
:102B700053159FA38EA31FA61EA619AA18AA1B83CE
:102B80000A83F9A283E08AA31AAA1BA28091900665
:102B900090919106998388831CAA1BAADF91CF91FB
:102BA0001F910F91FF90EF900895AE81BF81E8854E
:102BB000F9851396FC93EE931297B183A083CE010F
:102BC0000696998788879F838E83C4CFE5EDF6E0CC
:102BD000F383E283F183E08389ED96E09783868334
:102BE000958384838DED96E0938782879187808794
:102BF00081EE96E09787868795878487E0E4F1E009
:102C0000F383E283F183E083E4E4F1E0F383E2839E
:102C1000F183E083ECE3F1E0F383E283F183E0838B
:102C2000E8E4F1E0F383E283F183E0830895CF9356
:102C3000DF93EC010E94B2031AA21C86CE01069615
:102C4000AE81BF81E885F9851396FC93EE931297C8
:102C5000B183A083E4E4F1E0A281B381B987A887BE
:102C6000FF83EE83938382838D939C93DF91CF9137
:102C70000C94C603CF93DF93DC0191964C9191970E
:102C8000069616962D913C9117971896CD91DC914A
:102C90001997F901D383C2833983288324E0429FA3
:102CA000F0011124EB52F94FC281D3811996DC93C4
:102CB000CE9318971796FC93EE931697938382837F
:102CC00099838883DF91CF910895CF93DF93EC01AF
:102CD0000E94B20384E08AA3CE010696AE81BF8132
:102CE000E885F9851396FC93EE931297B183A08340
:102CF000ECE3F1E0A281B381B987A887FF83EE837B
:102D0000938382838D939C93DF91CF910C94C60320
:102D1000DC019093910680939006D2968C91D29785
:102D20008160D2968C93D297D0968D919C91D197B9
:102D30000196D1969C938E93D0971296ED91FC912B
:102D400013970190F081E02DCD010994DC01ED9104
:102D5000FC91309731F00480F581E02D8FED9FEFED
:102D6000099408951F93CF93DF930E94B20315E057
:102D7000E0913C01F0913D01B1E0EC33FB0711F132
:102D8000EF0126978081918122813381DC011396A6
:102D90003C932E931297D9018D939C93F383E283F6
:102DA000F183E0830E94C6031AA3EA81FB810280BB
:102DB000F381E02DCE010995CE010E94A6160E9456
:102DC000B203D6CF0E94C6030E94B2038091440191
:102DD00090914501E1E084349E0721F006970E941E
:102DE0003A16F4CF0E94C603C5EDD6E020E030E0ED
:102DF000A881B981CA17DB0791F1CD010697FC01C3
:102E000042A945FF05C0DF91CF911F910C94651633
:102E10004D915C91119712966D917C911397FA01E7
:102E200073836283FB0151834083220F331F220F80
:102E3000331FF901EB52F94F2281338113963C93F2
:102E40002E9312971196DC93CE93B383A283F9014C
:102E5000B183A083DF91CF911F910C9488162F5FCF
:102E60003F4F24962430310519F6DF91CF911F9101
:102E700008950C9417160E9429150E9465160C944B
:102E80009F18CF93DF930E942915EC018AA981FF37
:102E900011C00E94DE038BA38EA59FA501969FA75C
:102EA0008EA7EA81FB810480F581E02DCE01DF91C0
:102EB000CF9109948FEF9FEFDF91CF9108956F929B
:102EC0007F928F929F92AF92BF92CF92DF92EF92BA
:102ED000FF920F931F93CF93DF9300D000D000D0C9
:102EE000CDB7DEB73C010E9429155C01009799F42B
:102EF00086E0E6E5F1E0DE01119601900D928A95FB
:102F0000E1F749815A816B817C818D819E810E948C
:102F100030110E94531B4C0186E0880E911C0E94C8
:102F2000B203F501A681B7818085918513969C93A4
:102F30008E931297FC01B183A083F5019186808660
:102F4000978286820E94C60383E0F501848782E02F
:102F500082A30E94550F63011F921F921F921F921E
:102F60001F921F92DF926F92C22ED32E7A018B0195
:102F70009C01A50169E377E1C4010E94551BC401CE
:102F80000E949B1B0FB6F894DEBF0FBECDBF2696E6
:102F90000FB6F894DEBF0FBECDBFDF91CF911F916A
:102FA0000F91FF90EF90DF90CF90BF90AF909F90E8
:102FB0008F907F906F900C944117BC01675C7F4F9E
:102FC000DC01DB96ED91FC91DC97DD968D919C9177
:102FD000DE9709940895EF92FF920F931F93CF937A
:102FE000DF93EC017B018A012CE431E040E050E00A
:102FF00063E070E00E9478151AAE19AEFCAEEBAE3D
:103000001EAF0DAFDF91CF911F910F91FF90EF9009
:103010000895CF93DF93EC01DC01A05ABF4FFC0170
:10302000E25AFF4F0190F081E02D8D919C9109951E
:10303000CA59DF4F99838883DF91CF910C943B1756
:10304000C9960C94C800FC0122A92E7F22ABC99618
:103050000E94FB0080E090E00895CF93DF9300D0C2
:1030600000D000D0CDB7DEB7FC0182A984FF04C038
:1030700086E0ECE5F1E005C083FF13C086E0E2E600
:10308000F1E0DE01119601900D928A95E1F74981F8
:103090005A816B817C818D819E810E9430110E94BA
:1030A000531B26960FB6F894DEBF0FBECDBFDF913F
:1030B000CF9108958F929F92AF92BF92CF92DF925D
:1030C000EF92FF920F931F93CF93DF93EC014B018D
:1030D0005A016901780120E234E041E050E060E00B
:1030E00070E00E947815B801615071096C0D7D1D6A
:1030F00001E09E0149E058E1CE01C9960E945F1AA5
:10310000FE01EE59FF4FD182C0823296F182E082F9
:103110003697918280823296B182A0828AA9846099
:1031200082608AABDF91CF911F910F91FF90EF905A
:10313000DF90CF90BF90AF909F908F900895CF93E6
:10314000DF930E942915EC018AA981FF11C00E941A
:10315000DE038BA38EA59FA501969FA78EA7EA816C
:10316000FB810480F581E02DCE01DF91CF910994A0
:103170008FEF9FEFDF91CF9108958FEF98E09EBF83
:103180008DBF78940E94D9030E94BA01FDCF0697A3
:103190000E94171680E090E00895FC01828144238C
:1031A00011F0682B02C060956823628380E090E094
:1031B0000895FC01808190E00895CF92DF92EF9214
:1031C000FF920F931F93CF93DF9300D000D000D0D6
:1031D000CDB7DEB769017A01CC24EE24FF24CD28D7
:1031E000CE28CF2811F0211138C020FF2EC0890130
:1031F0009A01FC01918160956923618304FF04C0F9
:1032000086E0E8E6F1E005C001FF13C086E0EEE6E7
:10321000F1E0DE01119601900D928A95E1F7498166
:103220005A816B817C818D819E810E9430110E9428
:10323000531B02FF04C086E0E4E7F1E0EACF03FF9E
:103240000FC086E0EAE7F1E0E4CF30FF05C0FC0103
:103250002181622B618304C005C08FEF9FEF02C004
:1032600080E090E026960FB6F894DEBF0FBECDBF8B
:10327000DF91CF911F910F91FF90EF90DF90CF9052
:103280000895FC01668381E090E00895FC01868149
:1032900090E00895FC018081807890E00895FC0121
:1032A0008081807290E00895FC019181672B11F07C
:1032B000906101C09F7E91830895FC019181672BED
:1032C00011F0986001C0977F91830895FC0191816E
:1032D000672B11F0906801C09F7791830895FC01DE
:1032E0009181672B11F0906201C09F7D91830895B9
:1032F000FC019181672B11F0906401C09F7B918349
:103300000895CF93DF93EC019A01AB01888182602D
:10331000888360E079E08DE390E00E94BC1CDA01D4
:10332000C9010197A109B109AC01BD017695679565
:1033300057954795852F99278D834C83DF91CF91A2
:103340000895CF93DF9300D000D000D0CDB7DEB783
:1033500086E0E0E8F1E0DE01119601900D928A9599
:10336000E1F749815A816B817C818D819E810E9428
:1033700030110E94531B8830910589F038F4009772
:10338000B9F0019791F481E090E0089580349105BF
:1033900049F08115914049F484E090E0089582E07D
:1033A00090E0089583E090E008958FEF9FEF0895F7
:1033B00080E090E008950F931F93CF938C01CB0191
:1033C000F801C1810E94BB19C87F87708C2BF8015E
:1033D0008183CF911F910F9108958038910541F01D
:1033E000803B910539F08434910591F4E0E003C00D
:1033F000E1E001C0E2E0F0E08038910539F0803B87
:10340000910551F08434910519F404C0A1E005C080
:103410000E94A119A0E001C0A2E0B0E0A259BF4FF4
:103420008C918E7F6170682BE259FF4F6083089505
:103430000C94ED1961E084E490E00E94181A60E4B5
:1034400070E084E490E00E94DB1960ED73E080E0BE
:1034500090E00E941A0F0C94421A9FB7F894809142
:10346000C00080648093C0008091C00085FFFCCFC5
:103470006093C6008091C00086FFFCCF9FBF80E0B4
:1034800090E008951092C0001092C50088E08093EB
:10349000C40086E08093C200E1ECF0E080818860A7
:1034A000808360E070E088EB94E00E945A0E80E038
:1034B00090E0089560E071E080E090E008950F935F
:1034C000CF93DF9300D0CDB7DEB7FC0185E2DF01FB
:1034D0001D928A95E9F71182011102C080E001C0B6
:1034E00080E884A373A362A351A340A3208F318FEC
:1034F0000F900F90DF91CF910F910895FC0186817D
:1035000097810C944619FC01868197810C9441198E
:10351000FC01868197810C944A19FC018681978170
:103520000C944F198F929F92AF92BF92EF920F938C
:103530001F93CF93DF93EC014A015B01122F61E0EF
:1035400070E08E819F810E945D1961E070E08E8144
:103550009F810E945419212FB501A4018E819F8162
:103560000E94811961E070E08E819F810E9466193E
:1035700080E090E0DF91CF911F910F91EF90BF908D
:10358000AF909F908F900895FC01623081F038F4E5
:103590006623B9F0613029F560E070E014C0643052
:1035A000B9F040F06530E9F460E070E013C061E02C
:1035B00070E002C060E070E0868197810E946F1920
:1035C0000DC061E070E0868197810E94661906C097
:1035D00061E070E0868197810E94781980E090E038
:1035E00008958FEF9FEF0895EF92FF920F931F932F
:1035F000CF93DF93CDB7DEB728970FB6F894DEBF31
:103600000FBECDBF8C017B01FC01868197810E949A
:103610005419B701F801868197810E945D1960E015
:1036200070E0F801868197810E94781960E070E06F
:10363000F801868197810E946F19B701F801868190
:1036400097810E94661980E1898387E28A831B82C1
:103650001C821D821E821F82188629813A814B811D
:103660005C816D817E818F819885AFEF0E94CE1D38
:1036700029833A834B835C836D837E838F83988712
:10368000A0E00E94EC1D49F780E090E028960FB67C
:10369000F894DEBF0FBECDBFDF91CF911F910F9188
:1036A000FF90EF9008950E94AC227F928F929F929C
:1036B000AF92BF92CF92DF92EF92FF920F931F9340
:1036C000CF93DF93CDB7DEB7FC015B014A01688978
:1036D0004989BA89AB897C895D899E898F8968947B
:1036E000772472F8768215821482F383E283F18361
:1036F000E083B08EA78A928E818EC782D086E186C3
:10370000F28603871487258736876787408BB18BBE
:10371000A28B738B548B958B868BDF91CF911F91EE
:103720000F91FF90EF90DF90CF90BF90AF909F9060
:103730008F907F9008952F923F924F925F926F9259
:103740007F928F929F92AF92BF92CF92DF92EF9231
:10375000FF920F931F93CF93DF93EC012F81388556
:1037600049855A856B857C858D859E85AF84B88813
:10377000C988DA88EB88FC880D891E890E94C51DDE
:10378000922E832E742E652E562E472E382E292EDD
:103790000E94B203E0915201F091530181E0E235C1
:1037A000F80751F1278130854185528563857485FD
:1037B00085859685A784B088C188D288E388F488F7
:1037C000058916890E94C51D59016A017B018C017A
:1037D000292D382D472D562D652D742D832D922D95
:1037E0000E94DA1DA0E00E94EC1D24F00190F081FF
:1037F000E02DD4CF309711F4E2E5F1E0A281B3815E
:10380000BB83AA83F983E883D383C283CD93DC93FC
:10381000DF91CF911F910F91FF90EF90DF90CF90AC
:10382000BF90AF909F908F907F906F905F904F90E0
:103830003F902F900C94C603CF93DF93DC01CD9182
:10384000DC9111971296ED91FC911397FB83EA831B
:10385000D183C08313969C938E93129711969C9359
:103860008E935796ED91FC915897BC0159968D9186
:103870009C915A97DF91CF9109942F923F924F924A
:103880005F926F927F928F929F92AF92BF92CF92F0
:10389000DF92EF92FF920F931F93CF93DF93922EBD
:1038A000832E742E652E562E472E382E292E0E94DA
:1038B000B203C0915201D091530181E0C235D807C3
:1038C00019F10E94C603292D382D472D562D652D3F
:1038D000742D832D922DAF80B884C984DA84EB8453
:1038E000FC840D851E850E94DA1DAF84B888C988C6
:1038F000DA88EB88FC880D891E890E94E31DC4F0DC
:10390000CE010E941C1CD3CFDF91CF911F910F914C
:10391000FF90EF90DF90CF90BF90AF909F908F90EF
:103920007F906F905F904F903F902F900C94C603C4
:10393000DF91CF911F910F91FF90EF90DF90CF908B
:10394000BF90AF909F908F907F906F905F904F90BF
:103950003F902F9008950895DB018F939F930E94CD
:10396000E41CBF91AF91A29F800D911DA39F900D6C
:10397000B29F900D11240895A1E21A2EAA1BBB1B21
:10398000FD010DC0AA1FBB1FEE1FFF1FA217B3072B
:10399000E407F50720F0A21BB30BE40BF50B661F41
:1039A000771F881F991F1A9469F760957095809505
:1039B00090959B01AC01BD01CF010895EE0FFF1F53
:1039C0000590F491E02D09940E94F81DA59F900D9B
:1039D000B49F900DA49F800D911D11240895DF9335
:1039E000CF931F930F939A9DF02D219FF00D8B9DE8
:1039F000F00D8A9DE02DF10D039FF00D029FE00D6B
:103A0000F11D4E9DE00DF11D5E9DF00D4F9DF00DE1
:103A10007F936F93BF92AF925F934F93D5010E94B4
:103A2000F81D8B01AC01D7010E94F81DEB01E80FD6
:103A3000F91FD6010E943F1D2F913F91D6010E9490
:103A4000F81DC60FD71FE81FF91FAF91BF910E9445
:103A50003F1D2F913F910E94F81DC60FD71FE81FF1
:103A6000F91FD6010E94F81DE60FF71F9801BE014D
:103A7000CF0111240F911F91CF91DF9108950E94E2
:103A8000F81D460F571FC81FD91F08F43196089517
:103A9000689401C0E8948F929F92CF93DF930E9425
:103AA000561DDF91CF919F908F900895882499247F
:103AB000F401E401B0E49F93AA279A158B049C04B7
:103AC000ED05FE05CF05D007A10798F4AD2FDC2F3B
:103AD000CF2FFE2FE92D982C892E982F872F762F08
:103AE000652F542F432F322F2227B85031F7BF9123
:103AF00027C01B2EBF91BB27220F331F441F551F0A
:103B0000661F771F881F991F881C991CEE1FFF1FB7
:103B1000CC1FDD1FAA1FBB1F8A149B04EC05FD05EB
:103B2000CE05DF05A007B10748F08A189B08EC090D
:103B3000FD09CE09DF09A00BB10B21601A94E1F653
:103B40002EF49401AF01BE01CD01000C089597FB46
:103B500010F8169400080F93083098F00850232F9F
:103B6000342F452F562F672F782F892F902DF4CF84
:103B700005949795879577956795579547953795C8
:103B800027950A95AAF70F9108952A0D3B1D4C1D04
:103B90005D1D6E1D7F1D801F911F08950024A7FDD0
:103BA00000942A0F301D401D501D601D701D801D8A
:103BB000901D08952A193B094C095D096E097F097A
:103BC000800B910B08952A153B054C055D056E058C
:103BD0007F058007910708950024A7FD00942A1708
:103BE0003005400550056005700580059005089575
:103BF000A29FB001B39FC001A39F700D811D11242E
:103C0000911DB29F700D811D1124911D0895505872
:103C1000BB27AA270E941F1E0C94D21F0E94C41FFC
:103C200038F00E94CB1F20F039F49F3F19F426F49E
:103C30000C94C11F0EF4E095E7FB0C94921FE92F42
:103C40000E94E31F58F3BA176207730784079507AA
:103C500020F079F4A6F50C941D200EF4E0950B2EBF
:103C6000BA2FA02D0B01B90190010C01CA01A001CE
:103C70001124FF27591B99F0593F50F4503E68F129
:103C80001A16F040A22F232F342F4427585FF3CF6A
:103C9000469537952795A795F0405395C9F77EF43B
:103CA0001F16BA0B620B730B840BBAF09150A1F084
:103CB000FF0FBB1F661F771F881FC2F70EC0BA0F0A
:103CC000621F731F841F48F4879577956795B79592
:103CD000F7959E3F08F0B0CF9395880F08F099278D
:103CE000EE0F9795879508950E946E1F08F481E066
:103CF00008950E948D1E0C94D21F0E94CB1F58F075
:103D00000E94C41F40F029F45F3F29F00C94921FD9
:103D100051110C941E200C94C11F0E94E31F68F3E4
:103D20009923B1F3552391F3951B550BBB27AA2774
:103D300062177307840738F09F5F5F4F220F331FAE
:103D4000441FAA1FA9F335D00E2E3AF0E0E832D076
:103D500091505040E695001CCAF72BD0FE2F29D079
:103D6000660F771F881FBB1F261737074807AB074B
:103D7000B0E809F0BB0B802DBF01FF2793585F4FC0
:103D80003AF09E3F510578F00C94921F0C941E203F
:103D90005F3FE4F3983ED4F3869577956795B795A2
:103DA000F7959F5FC9F7880F911D9695879597F9AD
:103DB0000895E1E0660F771F881FBB1F6217730726
:103DC0008407BA0720F0621B730B840BBA0BEE1F3B
:103DD00088F7E09508950E94EB1F88F09F5798F0B0
:103DE000B92F9927B751B0F0E1F0660F771F881F00
:103DF000991F1AF0BA95C9F714C0B13091F00E941A
:103E00001D20B1E008950C941D20672F782F88277E
:103E1000B85F39F0B93FCCF3869577956795B39540
:103E2000D9F73EF490958095709561957F4F8F4FAF
:103E30009F4F0895E89409C097FB3EF490958095B4
:103E4000709561957F4F8F4F9F4F9923A9F0F92F60
:103E500096E9BB279395F695879577956795B795DE
:103E6000F111F8CFFAF4BB0F11F460FF1BC06F5FC4
:103E70007F4F8F4F9F4F16C0882311F096E911C0D6
:103E8000772321F09EE8872F762F05C0662371F0F7
:103E900096E8862F70E060E02AF09A95660F771F0B
:103EA000881FDAF7880F9695879597F908950E94ED
:103EB000052090F09F3748F4911116F00C941E20C5
:103EC00060E070E080E89FEB089526F41B16611D0A
:103ED000711D811D0C94981F0C94B31F990F00083D
:103EE000550FAA0BE0E8FEEF16161706E807F907CC
:103EF000C0F012161306E407F50798F0621B730B67
:103F0000840B950B39F40A2661F0232B242B252BE7
:103F100021F408950A2609F4A140A6958FEF811D8A
:103F2000811D089597F99F6780E870E060E008952B
:103F3000882371F4772321F09850872B762F07C0C0
:103F4000662311F499270DC09051862B70E060E034
:103F50002AF09A95660F771F881FDAF7880F9695D3
:103F6000879597F908959F3F31F0915020F48795F8
:103F700077956795B795880F911D9695879597F9D1
:103F800008959FEF80EC089500240A9416161706F2
:103F900018060906089500240A941216130614063A
:103FA00005060895092E0394000C11F4882352F09D
:103FB000BB0F40F4BF2B11F460FF04C06F5F7F4F55
:103FC0008F4F9F4F089557FD9058440F551F59F03C
:103FD0005F3F71F04795880F97FB991F61F09F3FF6
:103FE00079F087950895121613061406551FF2CF1F
:103FF0004695F1DF08C0161617061806991FF1CF6F
:10400000869571056105089408950E94EB1FA0F044
:10401000BEE7B91788F4BB279F3860F41616B11DA8
:10402000672F782F8827985FF7CF869577956795C4
:10403000B11D93959639C8F30895E894BB27662778
:104040007727CB0197F908950E946E1F08F48FEF30
:1040500008950E943C200C94D21F0E94C41F38F087
:104060000E94CB1F20F0952311F00C94921F0C940A
:10407000C11F11240C941E200E94E31F70F3959F12
:10408000C1F3950F50E0551F629FF001729FBB274F
:10409000F00DB11D639FAA27F00DB11DAA1F649FEB
:1040A0006627B00DA11D661F829F2227B00DA11D9E
:1040B000621F739FB00DA11D621F839FA00D611D24
:1040C000221F749F3327A00D611D231F849F600D45
:1040D000211D822F762F6A2F11249F5750409AF06E
:1040E000F1F088234AF0EE0FFF1FBB1F661F771FFA
:1040F000881F91505040A9F79E3F510580F00C94C5
:10410000921F0C941E205F3FE4F3983ED4F38695F3
:1041100077956795B795F795E7959F5FC1F7FE2B64
:10412000880F911D9695879597F908950F931F9382
:10413000CF93DF938230910510F482E090E0E0911C
:10414000E706F091E80620E030E0A0E0B0E030972C
:1041500019F1408151810281138148175907C8F034
:104160008417950769F4109731F012960C93129703
:1041700013961C9327C00093E7061093E80622C00D
:104180002115310519F04217530718F49A01BD01A2
:10419000EF01DF01F801DBCF21153105F9F0281B14
:1041A000390B2430310580F48A819B8161157105BA
:1041B00021F0FB019383828304C09093E8068093EF
:1041C000E706FE01329644C0FE01E20FF31F819321
:1041D000919322503109398328833AC02091E50612
:1041E0003091E606232B41F4209102013091030126
:1041F0003093E6062093E5062091000130910101FD
:104200002115310541F42DB73EB74091040150917D
:104210000501241B350BE091E506F091E606E21757
:10422000F307A0F42E1B3F0B2817390778F0AC01D9
:104230004E5F5F4F2417350748F04E0F5F1F5093B6
:10424000E6064093E5068193919302C0E0E0F0E03A
:10425000CF01DF91CF911F910F910895CF93DF93FD
:10426000009709F481C0FC01329713821282A09159
:10427000E706B091E806109781F420813181820F22
:10428000931F2091E5063091E6062817390751F56E
:10429000F093E606E093E50667C0ED0120E030E02C
:1042A000CE17DF0740F44A815B819E01411551051D
:1042B000F1F0EA01F5CFD383C28340815181840FAD
:1042C000951FC817D90759F488819981840F951FC4
:1042D0000296918380838A819B81938382832115B7
:1042E000310529F4F093E806E093E7063DC0E901C3
:1042F000FB83EA8349915991C40FD51FEC17FD0741
:1043000061F480819181840F951F0296E901998360
:104310008883828193819B838A83E0E0F0E0129618
:104320008D919C911397009719F0FD01DC01F7CF57
:104330008D919C9111979D012E5F3F4F820F931F8E
:104340002091E5063091E6062817390769F4309781
:1043500029F41092E8061092E70602C01382128236
:10436000B093E606A093E506DF91CF910895A0E013
:10437000B0E0EDEBF1E20C94C4255C016B017A0135
:104380006115710519F0FB0191838083E114F1043B
:1043900029F0C7010297839708F0C9C0E50121966B
:1043A000F5011081812F90E00E94C522892B11F028
:1043B0005E01F4CF1D3229F42196F501118101E04F
:1043C00007C01B3221F4E5012296F501118100E0BE
:1043D000E114F104B1F0F0E1EF16F10429F4B0C0FA
:1043E00010E3E114F10401F12AE0E216F104B1F165
:1043F00080E1E816F10471F0E8E0EE16F104F1F462
:1044000013C0103341F588818F7D883549F71981B4
:1044100022960260F0E1EF2EF12C88248A94982CE9
:10442000A82CAFE0BA2E20C078E0E72EF12C88242B
:104430008A94982CA82CEFE1BE2E16C06FEF7FEF68
:10444000CB0197010F2C000C440B550B0E94BC1C98
:1044500049015A0109C08AE0E82EF12C69E9862E4B
:10446000982CA82C69E1B62E40E060E070E0CB010A
:1044700027010F2C000C66087708FE0150ED352E41
:10448000310E29E0231570F42FEB210F2A3118F497
:1044900039EC332E06C02FE9210F2A3130F529EAF5
:1044A000322E310E232D30E02E153F05F4F44F3F10
:1044B000C9F086169706A806B90688F0A3019201EE
:1044C0000E94AC1C232D30E040E050E0620F731FCF
:1044D000841F951F621773078407950710F44FEF29
:1044E00001C041E021961081C8CFC114D10451F020
:1044F000442311F0219703C001FF04C02297F60165
:10450000D183C08300FF07C0909580957095619519
:104510007F4F8F4F9F4F4F3F79F482E290E090930F
:10452000F0068093EF063FEF2FEF9FEF0DC040E0C6
:1045300030E020E090E008C0462F372F282F04C03D
:10454000103309F067CF5FCF642F732F822FCDB761
:10455000DEB7E1E10C94E02581E090E0F8940C9462
:10456000FA2585FD0C944C25806291110C944C2504
:1045700081568A51D8F70895803209F091110C9430
:104580004C2580528F55D8F7089591110C944C25E5
:10459000803219F089508550C8F708959111089517
:1045A00081548A5108F4805E855A089591110895C6
:1045B00081568A5108F4805285580895FB01DC0128
:1045C00004C08D910190801921F441505040C8F7EA
:1045D000881B990B0895FB01DC0102C001900D922C
:1045E00041505040D8F70895FC018191861721F081
:1045F0008823D9F7992708953197CF010895FB01B2
:10460000DC014150504030F08D910190801919F437
:104610000020B9F7881B990B08950F931F93CF9330
:10462000DF93FB01238121FD03C08FEF9FEF2CC09F
:1046300022FF16C0468157812481358142175307D6
:1046400044F4A081B1819D012F5F3F4F31832083CE
:104650008C93268137812F5F3F4F3783268314C089
:104660008B01EC01FB010084F185E02D0995892B7C
:10467000E1F6D80116968D919C91179701961796A1
:104680009C938E931697CE01DF91CF911F910F913E
:104690000895AEE0B0E0EFE4F3E20C94D1250D898B
:1046A0001E8986E08C831A8309838FEF9FE79E83A0
:1046B0008D83AE01475E5F4F6F89788DCE01019685
:1046C0000E946B23EF81F885E00FF11F10822E9678
:1046D000E4E00C94ED25ABE0B0E0E1E7F3E20C940C
:1046E000C3256C017B018A01FC011782168283813C
:1046F00081FFCCC1CE0101963C01F6019381F70107
:1047000093FD859193FF81917F01882309F4BAC1BC
:10471000853239F493FD859193FF81917F01853234
:1047200029F4B60190E00E940D23E7CF912C212CB3
:10473000312CFFE1F315D8F08B3279F038F4803268
:1047400079F08332A1F4232D20611DC08D3261F0F8
:10475000803369F4232D216016C0832D8260382EAA
:10476000E32DE4603E2E2AC0F32DF8601DC037FC17
:104770002DC020ED280F2A3040F08E32B9F436FCDF
:1047800081C1232D2064322E19C036FE06C08AE076
:10479000989E200D1124922E11C0EAE02E9E200D2D
:1047A0001124222EF32DF0623F2E08C08C3621F406
:1047B000832D8068382E02C0883641F4F70193FDBE
:1047C000859193FF81917F018111B3CF982F9F7DB8
:1047D0009554933028F40C5F1F4F9FE399830DC0CD
:1047E000833631F0833771F0833509F059C021C029
:1047F000F801808189830E5F1F4F88248394912C58
:10480000530113C02801F2E04F0E511CF801A080A3
:10481000B18036FE03C0692D70E002C06FEF7FEFFC
:10482000C5010E945A254C018201F32DFF773F2ECE
:1048300016C0280122E0420E511CF801A080B18070
:1048400036FE03C0692D70E002C06FEF7FEFC50137
:104850000E944F254C01F32DF0683F2E820133FC5E
:104860001BC0822D90E088169906B0F4B60180E254
:1048700090E00E940D232A94F4CFF50137FC859136
:1048800037FE81915F01B60190E00E940D23211057
:104890002A9421E0821A91088114910471F7E8C0EA
:1048A000843611F0893641F5F80137FE07C0608182
:1048B0007181828193810C5F1F4F08C0608171817B
:1048C000072E000C880B990B0E5F1F4FF32DFF7600
:1048D0003F2E97FF09C090958095709561957F4F09
:1048E0008F4F9F4FF0683F2E2AE030E0A3010E94D7
:1048F0006525882E861845C0853731F4232D2F7EF7
:10490000B22E2AE030E025C0932D997FB92E8F3644
:10491000C1F018F4883579F0B5C0803719F08837C0
:1049200021F0B0C0E92FE061BE2EB4FE0DC0FB2D1A
:10493000F460BF2E09C034FE0AC0292F2660B22EB3
:1049400006C028E030E005C020E130E002C020E1F0
:1049500032E0F801B7FE07C06081718182819381E6
:104960000C5F1F4F06C06081718180E090E00E5F98
:104970001F4FA3010E946525882E8618FB2DFF7707
:104980003F2E36FE0DC0232D2E7FA22E891458F403
:1049900034FE0BC032FC09C0832D8E7EA82E05C0CC
:1049A000B82CA32C03C0B82C01C0B92CA4FE0FC096
:1049B000FE01E80DF11D8081803321F49A2D997E4E
:1049C000A92E09C0A2FE06C0B394B39404C08A2DD8
:1049D000867809F0B394A3FC11C0A0FE06C0B214FF
:1049E00088F4280C922C9B180EC0B21460F4B60107
:1049F00080E290E00E940D23B394F7CFB21418F434
:104A00002B1802C0982C212CA4FE10C0B60180E304
:104A100090E00E940D23A2FE17C0A1FC03C088E70E
:104A200090E002C088E590E0B6010CC08A2D86783F
:104A300059F0A1FE02C08BE201C080E2A7FC8DE22A
:104A4000B60190E00E940D23891438F4B60180E38A
:104A500090E00E940D239A94F7CF8A94F301E80D19
:104A6000F11D8081B60190E00E940D238110F5CFE9
:104A7000222009F442CEB60180E290E00E940D238C
:104A80002A94F6CFF6018681978102C08FEF9FEFBF
:104A90002B96E2E10C94DF25992788270895FC01E5
:104AA0000590615070400110D8F7809590958E0F59
:104AB0009F1F0895FC016150704001900110D8F7CC
:104AC000809590958E0F9F1F0895FA01AA27283090
:104AD00051F1203181F1E8946F936E7F6E5F7F4FCB
:104AE0008F4F9F4FAF4FB1E03ED0B4E03CD0670F47
:104AF000781F891F9A1FA11D680F791F8A1F911D9A
:104B0000A11D6A0F711D811D911DA11D20D009F4E9
:104B100068943F912AE0269F11243019305D31932B
:104B2000DEF6CF010895462F4770405D4193B3E014
:104B30000FD0C9F7F6CF462F4F70405D4A3318F0BB
:104B4000495D31FD4052419302D0A9F7EACFB4E06C
:104B5000A6959795879577956795BA95C9F7009724
:104B60006105710508959B01AC010A2E06945795C5
:104B7000479537952795BA95C9F7620F731F841F1C
:104B8000951FA01D08952F923F924F925F926F92B2
:104B90007F928F929F92AF92BF92CF92DF92EF92CD
:104BA000FF920F931F93CF93DF93CDB7DEB7CA1B4E
:104BB000DB0B0FB6F894DEBF0FBECDBF09942A8879
:104BC000398848885F846E847D848C849B84AA8421
:104BD000B984C884DF80EE80FD800C811B81AA81AE
:104BE000B981CE0FD11D0FB6F894DEBF0FBECDBF79
:084BF000ED010895F894FFCFD8
:104BF8000000F1062000C00400000000C0000E0103
:104C08000E0112011201160116011A011A011C00E7
:104C180020012001240124012801280101000000AD
:104C28000000000001000000000000003C013C0101
:104C3800400140014401440148014801DD17EA17D9
:104C480000005201520134009403C3032500DA0323
:104C58000A042700DA030A042700260461042C004A
:104C68002604610431002604610436002604610428
:104C780035006F04AB0400000000290200000000AA
:104C880052021F02616C6C6F633A20000D0A0057D4
:104C980041524E3A20007574696C7A00696E6163FE
:104CA8006B00696E636F6D007770726F746F00438D
:104CB800726F77206765742072657472616E736CA9
:104CC800696E6720726571756573742062757420EA
:104CD80072657472616E736C696E67206973206E99
:104CE8006F7420616C6C6F7765642E0A536574204D
:104CF80063726F773A3A72657472616E736C696E3B
:104D0800675F616C6C6F776564206F7074696F6E34
:104D180020666F7220656E61626C652072657472C0
:104D2800616E736C696E670A4F7220757365202D0A
:104D38002D72657472616E736C6572206F70746920
:104D48006F6E206966207574696C69747920616C6E
:104D58006C6F7765642069742E0A00747261636BE6
:104D6800007472616E730077676174650063616EC9
:104D78006E6F7420637265617465207061636B6522
:104D880074006E6F646570726F746F3A207061633F
:104D98006B657420666F7220756E726567697374CF
:104DA800726564206E6F6465006E6F646570726F03
:104DB800746F3A207061636B657420666F72206E41
:104DC8006F64650000000000D1092509240900006E
:104DD8000000780A6D0A2409307800202020007429
:104DE8007275650066616C73650025640025750041
:104DF800256C7500256C6C750066696C653A200039
:104E080066756E633A20006C696E653A20005C6EC8
:104E1800005C74005C5C005C78007B7D3A20287143
:104E28006F733A7B7D2C2061636B3A7B7D2C20610C
:104E380074696D3A7B7D2C20616C656E3A7B7D2CA4
:104E480020666C656E3A7B7D2C20747970653A7BA0
:104E58007D2C2073657169643A7B7D2C20616464C4
:104E6800723A7B7D2C207374673A7B7D2C20646CAE
:104E7800656E3A7B7D2C20646174613A7B7D002EDF
:104E88002E2E29002F686F6D652F6D69726D696B05
:104E98002F70726F6A6563742F67656E6F732F6703
:104EA800656E6F732F736368656465655F617069AC
:104EB8002E630063757272656E745F7363686564F0
:104EC80065655F6D736C656570002F686F6D652F24
:104ED8006D69726D696B2F70726F6A6563742F6785
:104EE800656E6F732F67656E6F732F636F6F705F7B
:104EF800736368656465652E6300636F6F705F73C5
:104F08006368656465655F66696E616C697A65008A
:104F180020182D1823182F686F6D652F6D69726D15
:104F2800696B2F70726F6A6563742F7A696C6C6F26
:104F3800742F7A696C6C6F742F617263682F617655
:104F4800722F61736D2F6176725F6770696F2E6360
:104F5800006176725F6770696F5F6D6F6465002FBF
:104F6800686F6D652F6D69726D696B2F70726F6AEE
:104F78006563742F7A696C6C6F742F7A696C6C6FC7
:104F8800742F617263682F6176722F61736D2F6160
:104F980076725F74696D65722E63006176725F74F4
:104FA800696D65725F6E6F002D1A0000880E000033
:0E4FB800921AF41AC41A7E1A831A881A8D1AD5
:00000001FF
